{
  "contractName": "Depot",
  "abi": [
    {
      "constant": true,
      "inputs": [],
      "name": "minimumDepositAmount",
      "outputs": [
        {
          "name": "",
          "type": "uint256"
        }
      ],
      "payable": false,
      "stateMutability": "view",
      "type": "function"
    },
    {
      "constant": false,
      "inputs": [
        {
          "name": "_owner",
          "type": "address"
        }
      ],
      "name": "nominateNewOwner",
      "outputs": [],
      "payable": false,
      "stateMutability": "nonpayable",
      "type": "function"
    },
    {
      "constant": false,
      "inputs": [
        {
          "name": "_paused",
          "type": "bool"
        }
      ],
      "name": "setPaused",
      "outputs": [],
      "payable": false,
      "stateMutability": "nonpayable",
      "type": "function"
    },
    {
      "constant": true,
      "inputs": [],
      "name": "initiationTime",
      "outputs": [
        {
          "name": "",
          "type": "uint256"
        }
      ],
      "payable": false,
      "stateMutability": "view",
      "type": "function"
    },
    {
      "constant": false,
      "inputs": [
        {
          "name": "_beneficiary",
          "type": "address"
        }
      ],
      "name": "setSelfDestructBeneficiary",
      "outputs": [],
      "payable": false,
      "stateMutability": "nonpayable",
      "type": "function"
    },
    {
      "constant": true,
      "inputs": [],
      "name": "fundsWallet",
      "outputs": [
        {
          "name": "",
          "type": "address"
        }
      ],
      "payable": false,
      "stateMutability": "view",
      "type": "function"
    },
    {
      "constant": true,
      "inputs": [],
      "name": "priceStalePeriod",
      "outputs": [
        {
          "name": "",
          "type": "uint256"
        }
      ],
      "payable": false,
      "stateMutability": "view",
      "type": "function"
    },
    {
      "constant": true,
      "inputs": [],
      "name": "decimals",
      "outputs": [
        {
          "name": "",
          "type": "uint8"
        }
      ],
      "payable": false,
      "stateMutability": "view",
      "type": "function"
    },
    {
      "constant": false,
      "inputs": [],
      "name": "terminateSelfDestruct",
      "outputs": [],
      "payable": false,
      "stateMutability": "nonpayable",
      "type": "function"
    },
    {
      "constant": true,
      "inputs": [],
      "name": "lastPriceUpdateTime",
      "outputs": [
        {
          "name": "",
          "type": "uint256"
        }
      ],
      "payable": false,
      "stateMutability": "view",
      "type": "function"
    },
    {
      "constant": true,
      "inputs": [],
      "name": "totalSellableDeposits",
      "outputs": [
        {
          "name": "",
          "type": "uint256"
        }
      ],
      "payable": false,
      "stateMutability": "view",
      "type": "function"
    },
    {
      "constant": true,
      "inputs": [],
      "name": "nominatedOwner",
      "outputs": [
        {
          "name": "",
          "type": "address"
        }
      ],
      "payable": false,
      "stateMutability": "view",
      "type": "function"
    },
    {
      "constant": true,
      "inputs": [],
      "name": "paused",
      "outputs": [
        {
          "name": "",
          "type": "bool"
        }
      ],
      "payable": false,
      "stateMutability": "view",
      "type": "function"
    },
    {
      "constant": true,
      "inputs": [],
      "name": "depositStartIndex",
      "outputs": [
        {
          "name": "",
          "type": "uint256"
        }
      ],
      "payable": false,
      "stateMutability": "view",
      "type": "function"
    },
    {
      "constant": false,
      "inputs": [],
      "name": "acceptOwnership",
      "outputs": [],
      "payable": false,
      "stateMutability": "nonpayable",
      "type": "function"
    },
    {
      "constant": true,
      "inputs": [],
      "name": "oracle",
      "outputs": [
        {
          "name": "",
          "type": "address"
        }
      ],
      "payable": false,
      "stateMutability": "view",
      "type": "function"
    },
    {
      "constant": true,
      "inputs": [],
      "name": "owner",
      "outputs": [
        {
          "name": "",
          "type": "address"
        }
      ],
      "payable": false,
      "stateMutability": "view",
      "type": "function"
    },
    {
      "constant": true,
      "inputs": [],
      "name": "lastPauseTime",
      "outputs": [
        {
          "name": "",
          "type": "uint256"
        }
      ],
      "payable": false,
      "stateMutability": "view",
      "type": "function"
    },
    {
      "constant": true,
      "inputs": [],
      "name": "havven",
      "outputs": [
        {
          "name": "",
          "type": "address"
        }
      ],
      "payable": false,
      "stateMutability": "view",
      "type": "function"
    },
    {
      "constant": false,
      "inputs": [],
      "name": "selfDestruct",
      "outputs": [],
      "payable": false,
      "stateMutability": "nonpayable",
      "type": "function"
    },
    {
      "constant": true,
      "inputs": [],
      "name": "UNIT",
      "outputs": [
        {
          "name": "",
          "type": "uint256"
        }
      ],
      "payable": false,
      "stateMutability": "view",
      "type": "function"
    },
    {
      "constant": true,
      "inputs": [],
      "name": "SELFDESTRUCT_DELAY",
      "outputs": [
        {
          "name": "",
          "type": "uint256"
        }
      ],
      "payable": false,
      "stateMutability": "view",
      "type": "function"
    },
    {
      "constant": true,
      "inputs": [
        {
          "name": "",
          "type": "uint256"
        }
      ],
      "name": "deposits",
      "outputs": [
        {
          "name": "user",
          "type": "address"
        },
        {
          "name": "amount",
          "type": "uint256"
        }
      ],
      "payable": false,
      "stateMutability": "view",
      "type": "function"
    },
    {
      "constant": true,
      "inputs": [],
      "name": "selfDestructInitiated",
      "outputs": [
        {
          "name": "",
          "type": "bool"
        }
      ],
      "payable": false,
      "stateMutability": "view",
      "type": "function"
    },
    {
      "constant": true,
      "inputs": [],
      "name": "usdToEthPrice",
      "outputs": [
        {
          "name": "",
          "type": "uint256"
        }
      ],
      "payable": false,
      "stateMutability": "view",
      "type": "function"
    },
    {
      "constant": false,
      "inputs": [],
      "name": "initiateSelfDestruct",
      "outputs": [],
      "payable": false,
      "stateMutability": "nonpayable",
      "type": "function"
    },
    {
      "constant": true,
      "inputs": [],
      "name": "usdToHavPrice",
      "outputs": [
        {
          "name": "",
          "type": "uint256"
        }
      ],
      "payable": false,
      "stateMutability": "view",
      "type": "function"
    },
    {
      "constant": true,
      "inputs": [],
      "name": "selfDestructBeneficiary",
      "outputs": [
        {
          "name": "",
          "type": "address"
        }
      ],
      "payable": false,
      "stateMutability": "view",
      "type": "function"
    },
    {
      "constant": true,
      "inputs": [
        {
          "name": "",
          "type": "address"
        }
      ],
      "name": "smallDeposits",
      "outputs": [
        {
          "name": "",
          "type": "uint256"
        }
      ],
      "payable": false,
      "stateMutability": "view",
      "type": "function"
    },
    {
      "constant": true,
      "inputs": [],
      "name": "nomin",
      "outputs": [
        {
          "name": "",
          "type": "address"
        }
      ],
      "payable": false,
      "stateMutability": "view",
      "type": "function"
    },
    {
      "constant": true,
      "inputs": [],
      "name": "ORACLE_FUTURE_LIMIT",
      "outputs": [
        {
          "name": "",
          "type": "uint256"
        }
      ],
      "payable": false,
      "stateMutability": "view",
      "type": "function"
    },
    {
      "constant": true,
      "inputs": [],
      "name": "depositEndIndex",
      "outputs": [
        {
          "name": "",
          "type": "uint256"
        }
      ],
      "payable": false,
      "stateMutability": "view",
      "type": "function"
    },
    {
      "inputs": [
        {
          "name": "_owner",
          "type": "address"
        },
        {
          "name": "_fundsWallet",
          "type": "address"
        },
        {
          "name": "_havven",
          "type": "address"
        },
        {
          "name": "_nomin",
          "type": "address"
        },
        {
          "name": "_oracle",
          "type": "address"
        },
        {
          "name": "_usdToEthPrice",
          "type": "uint256"
        },
        {
          "name": "_usdToHavPrice",
          "type": "uint256"
        }
      ],
      "payable": false,
      "stateMutability": "nonpayable",
      "type": "constructor"
    },
    {
      "payable": true,
      "stateMutability": "payable",
      "type": "fallback"
    },
    {
      "anonymous": false,
      "inputs": [
        {
          "indexed": false,
          "name": "newFundsWallet",
          "type": "address"
        }
      ],
      "name": "FundsWalletUpdated",
      "type": "event"
    },
    {
      "anonymous": false,
      "inputs": [
        {
          "indexed": false,
          "name": "newOracle",
          "type": "address"
        }
      ],
      "name": "OracleUpdated",
      "type": "event"
    },
    {
      "anonymous": false,
      "inputs": [
        {
          "indexed": false,
          "name": "newNominContract",
          "type": "address"
        }
      ],
      "name": "NominUpdated",
      "type": "event"
    },
    {
      "anonymous": false,
      "inputs": [
        {
          "indexed": false,
          "name": "newHavvenContract",
          "type": "address"
        }
      ],
      "name": "HavvenUpdated",
      "type": "event"
    },
    {
      "anonymous": false,
      "inputs": [
        {
          "indexed": false,
          "name": "priceStalePeriod",
          "type": "uint256"
        }
      ],
      "name": "PriceStalePeriodUpdated",
      "type": "event"
    },
    {
      "anonymous": false,
      "inputs": [
        {
          "indexed": false,
          "name": "newEthPrice",
          "type": "uint256"
        },
        {
          "indexed": false,
          "name": "newHavvenPrice",
          "type": "uint256"
        },
        {
          "indexed": false,
          "name": "timeSent",
          "type": "uint256"
        }
      ],
      "name": "PricesUpdated",
      "type": "event"
    },
    {
      "anonymous": false,
      "inputs": [
        {
          "indexed": false,
          "name": "fromCurrency",
          "type": "string"
        },
        {
          "indexed": false,
          "name": "fromAmount",
          "type": "uint256"
        },
        {
          "indexed": false,
          "name": "toCurrency",
          "type": "string"
        },
        {
          "indexed": false,
          "name": "toAmount",
          "type": "uint256"
        }
      ],
      "name": "Exchange",
      "type": "event"
    },
    {
      "anonymous": false,
      "inputs": [
        {
          "indexed": false,
          "name": "user",
          "type": "address"
        },
        {
          "indexed": false,
          "name": "amount",
          "type": "uint256"
        }
      ],
      "name": "NominWithdrawal",
      "type": "event"
    },
    {
      "anonymous": false,
      "inputs": [
        {
          "indexed": false,
          "name": "user",
          "type": "address"
        },
        {
          "indexed": false,
          "name": "amount",
          "type": "uint256"
        }
      ],
      "name": "NominDeposit",
      "type": "event"
    },
    {
      "anonymous": false,
      "inputs": [
        {
          "indexed": false,
          "name": "user",
          "type": "address"
        },
        {
          "indexed": false,
          "name": "amount",
          "type": "uint256"
        },
        {
          "indexed": false,
          "name": "minimum",
          "type": "uint256"
        }
      ],
      "name": "NominDepositNotAccepted",
      "type": "event"
    },
    {
      "anonymous": false,
      "inputs": [
        {
          "indexed": false,
          "name": "amount",
          "type": "uint256"
        }
      ],
      "name": "MinimumDepositAmountUpdated",
      "type": "event"
    },
    {
      "anonymous": false,
      "inputs": [
        {
          "indexed": false,
          "name": "isPaused",
          "type": "bool"
        }
      ],
      "name": "PauseChanged",
      "type": "event"
    },
    {
      "anonymous": false,
      "inputs": [],
      "name": "SelfDestructTerminated",
      "type": "event"
    },
    {
      "anonymous": false,
      "inputs": [
        {
          "indexed": false,
          "name": "beneficiary",
          "type": "address"
        }
      ],
      "name": "SelfDestructed",
      "type": "event"
    },
    {
      "anonymous": false,
      "inputs": [
        {
          "indexed": false,
          "name": "selfDestructDelay",
          "type": "uint256"
        }
      ],
      "name": "SelfDestructInitiated",
      "type": "event"
    },
    {
      "anonymous": false,
      "inputs": [
        {
          "indexed": false,
          "name": "newBeneficiary",
          "type": "address"
        }
      ],
      "name": "SelfDestructBeneficiaryUpdated",
      "type": "event"
    },
    {
      "anonymous": false,
      "inputs": [
        {
          "indexed": false,
          "name": "newOwner",
          "type": "address"
        }
      ],
      "name": "OwnerNominated",
      "type": "event"
    },
    {
      "anonymous": false,
      "inputs": [
        {
          "indexed": false,
          "name": "oldOwner",
          "type": "address"
        },
        {
          "indexed": false,
          "name": "newOwner",
          "type": "address"
        }
      ],
      "name": "OwnerChanged",
      "type": "event"
    },
    {
      "constant": false,
      "inputs": [
        {
          "name": "_fundsWallet",
          "type": "address"
        }
      ],
      "name": "setFundsWallet",
      "outputs": [],
      "payable": false,
      "stateMutability": "nonpayable",
      "type": "function"
    },
    {
      "constant": false,
      "inputs": [
        {
          "name": "_oracle",
          "type": "address"
        }
      ],
      "name": "setOracle",
      "outputs": [],
      "payable": false,
      "stateMutability": "nonpayable",
      "type": "function"
    },
    {
      "constant": false,
      "inputs": [
        {
          "name": "_nomin",
          "type": "address"
        }
      ],
      "name": "setNomin",
      "outputs": [],
      "payable": false,
      "stateMutability": "nonpayable",
      "type": "function"
    },
    {
      "constant": false,
      "inputs": [
        {
          "name": "_havven",
          "type": "address"
        }
      ],
      "name": "setHavven",
      "outputs": [],
      "payable": false,
      "stateMutability": "nonpayable",
      "type": "function"
    },
    {
      "constant": false,
      "inputs": [
        {
          "name": "_time",
          "type": "uint256"
        }
      ],
      "name": "setPriceStalePeriod",
      "outputs": [],
      "payable": false,
      "stateMutability": "nonpayable",
      "type": "function"
    },
    {
      "constant": false,
      "inputs": [
        {
          "name": "_amount",
          "type": "uint256"
        }
      ],
      "name": "setMinimumDepositAmount",
      "outputs": [],
      "payable": false,
      "stateMutability": "nonpayable",
      "type": "function"
    },
    {
      "constant": false,
      "inputs": [
        {
          "name": "newEthPrice",
          "type": "uint256"
        },
        {
          "name": "newHavvenPrice",
          "type": "uint256"
        },
        {
          "name": "timeSent",
          "type": "uint256"
        }
      ],
      "name": "updatePrices",
      "outputs": [],
      "payable": false,
      "stateMutability": "nonpayable",
      "type": "function"
    },
    {
      "constant": false,
      "inputs": [],
      "name": "exchangeEtherForNomins",
      "outputs": [
        {
          "name": "",
          "type": "uint256"
        }
      ],
      "payable": true,
      "stateMutability": "payable",
      "type": "function"
    },
    {
      "constant": false,
      "inputs": [
        {
          "name": "guaranteedRate",
          "type": "uint256"
        }
      ],
      "name": "exchangeEtherForNominsAtRate",
      "outputs": [
        {
          "name": "",
          "type": "uint256"
        }
      ],
      "payable": true,
      "stateMutability": "payable",
      "type": "function"
    },
    {
      "constant": false,
      "inputs": [],
      "name": "exchangeEtherForHavvens",
      "outputs": [
        {
          "name": "",
          "type": "uint256"
        }
      ],
      "payable": true,
      "stateMutability": "payable",
      "type": "function"
    },
    {
      "constant": false,
      "inputs": [
        {
          "name": "guaranteedEtherRate",
          "type": "uint256"
        },
        {
          "name": "guaranteedHavvenRate",
          "type": "uint256"
        }
      ],
      "name": "exchangeEtherForHavvensAtRate",
      "outputs": [
        {
          "name": "",
          "type": "uint256"
        }
      ],
      "payable": true,
      "stateMutability": "payable",
      "type": "function"
    },
    {
      "constant": false,
      "inputs": [
        {
          "name": "nominAmount",
          "type": "uint256"
        }
      ],
      "name": "exchangeNominsForHavvens",
      "outputs": [
        {
          "name": "",
          "type": "uint256"
        }
      ],
      "payable": false,
      "stateMutability": "nonpayable",
      "type": "function"
    },
    {
      "constant": false,
      "inputs": [
        {
          "name": "nominAmount",
          "type": "uint256"
        },
        {
          "name": "guaranteedRate",
          "type": "uint256"
        }
      ],
      "name": "exchangeNominsForHavvensAtRate",
      "outputs": [
        {
          "name": "",
          "type": "uint256"
        }
      ],
      "payable": false,
      "stateMutability": "nonpayable",
      "type": "function"
    },
    {
      "constant": false,
      "inputs": [
        {
          "name": "amount",
          "type": "uint256"
        }
      ],
      "name": "withdrawHavvens",
      "outputs": [],
      "payable": false,
      "stateMutability": "nonpayable",
      "type": "function"
    },
    {
      "constant": false,
      "inputs": [],
      "name": "withdrawMyDepositedNomins",
      "outputs": [],
      "payable": false,
      "stateMutability": "nonpayable",
      "type": "function"
    },
    {
      "constant": false,
      "inputs": [
        {
          "name": "amount",
          "type": "uint256"
        }
      ],
      "name": "depositNomins",
      "outputs": [],
      "payable": false,
      "stateMutability": "nonpayable",
      "type": "function"
    },
    {
      "constant": false,
      "inputs": [
        {
          "name": "from",
          "type": "address"
        },
        {
          "name": "amount",
          "type": "uint256"
        },
        {
          "name": "data",
          "type": "bytes"
        }
      ],
      "name": "tokenFallback",
      "outputs": [
        {
          "name": "",
          "type": "bool"
        }
      ],
      "payable": false,
      "stateMutability": "nonpayable",
      "type": "function"
    },
    {
      "constant": true,
      "inputs": [],
      "name": "pricesAreStale",
      "outputs": [
        {
          "name": "",
          "type": "bool"
        }
      ],
      "payable": false,
      "stateMutability": "view",
      "type": "function"
    },
    {
      "constant": true,
      "inputs": [
        {
          "name": "amount",
          "type": "uint256"
        }
      ],
      "name": "havvensReceivedForNomins",
      "outputs": [
        {
          "name": "",
          "type": "uint256"
        }
      ],
      "payable": false,
      "stateMutability": "view",
      "type": "function"
    },
    {
      "constant": true,
      "inputs": [
        {
          "name": "amount",
          "type": "uint256"
        }
      ],
      "name": "havvensReceivedForEther",
      "outputs": [
        {
          "name": "",
          "type": "uint256"
        }
      ],
      "payable": false,
      "stateMutability": "view",
      "type": "function"
    },
    {
      "constant": true,
      "inputs": [
        {
          "name": "amount",
          "type": "uint256"
        }
      ],
      "name": "nominsReceivedForEther",
      "outputs": [
        {
          "name": "",
          "type": "uint256"
        }
      ],
      "payable": false,
      "stateMutability": "view",
      "type": "function"
    }
  ],
  "bytecode": "0x6080604052612a306009556802b5e3af16b188000060115534801561002357600080fd5b5060405160e080612eab83398101604090815281516020830151918301516060840151608085015160a086015160c0909601519395929391929091868080600160a060020a03811615156100d857604080517f08c379a000000000000000000000000000000000000000000000000000000000815260206004820152601960248201527f4f776e657220616464726573732063616e6e6f74206265203000000000000000604482015290519081900360640190fd5b60008054600160a060020a031916600160a060020a038316908117825560408051928352602083019190915280517fb532073b38c83145e3e5135377a08bf9aab55bc0fd7c1179cd4fb995d2a5159c9281900390910190a150600160a060020a03811615156101ce57604080517f08c379a000000000000000000000000000000000000000000000000000000000815260206004820152602260248201527f4f776e6572206d757374206e6f7420626520746865207a65726f20616464726560448201527f7373000000000000000000000000000000000000000000000000000000000000606482015290519081900360840190fd5b60038054600160a060020a038316610100810261010060a860020a03199092169190911790915560408051918252517fd5da63a0b864b315bc04128dedbc93888c8529ee6cf47ce664dc204339228c539181900360200190a1505060078054600160a060020a03978816600160a060020a031991821617909155600580549688166101000261010060a860020a031990971696909617909555600680549487169486169490941790935560088054929095169190931617909255600c55600b555042600a55612c09806102a26000396000f30060806040526004361061027c5763ffffffff7c0100000000000000000000000000000000000000000000000000000000600035041663080c279a81146102875780631627540c146102ae57806316c38b3c146102d157806317c70de4146102eb57806319dc831a146103005780631bca56891461031857806320714f88146103305780632194f3a21461035157806321cf35141461038257806329f3533c146103975780632ff9f017146103af578063313ce567146103ca5780633278c960146103f55780633d160de91461040a5780633ed620a4146104335780633f541ffc14610451578063407fb68714610459578063493b284e1461046157806349b9a7af146104795780634d0387fb1461048e5780634fa2b0a5146104a357806353a47bb7146104c45780635ae59132146104d95780635c8ea7fe146104f15780635c975abb1461051257806362b453181461052757806364e39b87146105325780636cb79c5f146105535780636d5ab4a91461056b57806378be717d1461058057806379ba5097146105955780637adbf973146105aa5780637dc0d1d0146105cb5780638da5cb5b146105e057806391b4ded9146105f55780639c4de81f1461060a5780639cb8a26a1461061f5780639d8e217714610634578063a461fc8214610649578063aa2efbad1461065e578063aab483d614610676578063b02c43d01461068e578063b8225dec146106c9578063ba34251b146106de578063bc64059b146106f3578063bd32aa4414610701578063c0ee0b8a14610716578063c40b8dcf14610747578063c58aaae61461075c578063c6abb7c714610771578063e59160e314610792578063f782b3ef146107a7578063fd12167f146107bc575b6102846107d1565b50005b34801561029357600080fd5b5061029c610cd8565b60408051918252519081900360200190f35b3480156102ba57600080fd5b506102cf600160a060020a0360043516610cde565b005b3480156102dd57600080fd5b506102cf6004351515610d96565b3480156102f757600080fd5b5061029c610e6c565b34801561030c57600080fd5b506102cf600435610e72565b34801561032457600080fd5b5061029c600435610f69565b34801561033c57600080fd5b506102cf600160a060020a0360043516610f8a565b34801561035d57600080fd5b506103666110dd565b60408051600160a060020a039092168252519081900360200190f35b34801561038e57600080fd5b5061029c6110ec565b3480156103a357600080fd5b506102cf6004356110f2565b3480156103bb57600080fd5b5061029c600435602435611191565b3480156103d657600080fd5b506103df611266565b6040805160ff9092168252519081900360200190f35b34801561040157600080fd5b506102cf61126b565b34801561041657600080fd5b5061041f611309565b604080519115158252519081900360200190f35b34801561043f57600080fd5b506102cf600435602435604435611320565b61029c6114fc565b61029c6107d1565b34801561046d57600080fd5b5061029c60043561172d565b34801561048557600080fd5b5061029c6119cc565b34801561049a57600080fd5b5061029c6119d2565b3480156104af57600080fd5b506102cf600160a060020a03600435166119d8565b3480156104d057600080fd5b50610366611aa5565b3480156104e557600080fd5b5061029c600435611ab4565b3480156104fd57600080fd5b506102cf600160a060020a0360043516611b5c565b34801561051e57600080fd5b5061041f611c14565b61029c600435611c1d565b34801561053e57600080fd5b506102cf600160a060020a0360043516611cf7565b34801561055f57600080fd5b506102cf600435611db5565b34801561057757600080fd5b5061029c611e28565b34801561058c57600080fd5b506102cf611e2e565b3480156105a157600080fd5b506102cf612044565b3480156105b657600080fd5b506102cf600160a060020a036004351661213f565b3480156105d757600080fd5b506103666121fd565b3480156105ec57600080fd5b5061036661220c565b34801561060157600080fd5b5061029c61221b565b34801561061657600080fd5b50610366612221565b34801561062b57600080fd5b506102cf612235565b34801561064057600080fd5b5061029c6123fa565b34801561065557600080fd5b5061029c612406565b34801561066a57600080fd5b5061029c60043561240d565b34801561068257600080fd5b506102cf6004356124b9565b34801561069a57600080fd5b506106a660043561256c565b60408051600160a060020a03909316835260208301919091528051918290030190f35b3480156106d557600080fd5b5061041f612591565b3480156106ea57600080fd5b5061029c61259a565b61029c6004356024356125a0565b34801561070d57600080fd5b506102cf612682565b34801561072257600080fd5b5061041f60048035600160a060020a031690602480359160443591820191013561272f565b34801561075357600080fd5b5061029c6128f3565b34801561076857600080fd5b506103666128f9565b34801561077d57600080fd5b5061029c600160a060020a036004351661290d565b34801561079e57600080fd5b5061036661291f565b3480156107b357600080fd5b5061029c61292e565b3480156107c857600080fd5b5061029c612934565b60008060008060006107e1612b26565b60006107eb611309565b15610842576040805160e560020a62461bcd02815260206004820152602f6024820152600080516020612bbe8339815191526044820152600080516020612b7e833981519152606482015290519081900360840190fd5b60055460ff161561089f576040805160e560020a62461bcd02815260206004820152603c6024820152600080516020612b9e8339815191526044820152600080516020612b3e833981519152606482015290519081900360840190fd5b6108ab34600c5461293a565b9450849350600e5492505b6000841180156108c75750600f5483105b15610bc9576000838152600d602090815260409182902082518084019093528054600160a060020a031680845260019091015491830191909152909250151561091f57610917600e546001612960565b600e55610bbe565b8382602001511115610a54576109398260200151856129c1565b602083015260105461094b90856129c1565b601055600c5461095c908590612a21565b8251604051919750600160a060020a03169087156108fc029088906000818181858888f1935050505015156109c757600754604051600160a060020a039091169087156108fc029088906000818181858888f193505050501580156109c5573d6000803e3d6000fd5b505b6006546040805160e060020a63a9059cbb028152336004820152602481018790529051600160a060020a039092169163a9059cbb916044808201926020929091908290030181600087803b158015610a1e57600080fd5b505af1158015610a32573d6000803e3d6000fd5b505050506040513d6020811015610a4857600080fd5b5060009450610bbe9050565b60208201518410610bbe576000838152600d602052604081208054600160a060020a0319168155600190810191909155600e54610a9091612960565b600e556010546020830151610aa591906129c1565b6010556020820151600c54610aba9190612a21565b8251604051919750600160a060020a03169087156108fc029088906000818181858888f193505050501515610b2557600754604051600160a060020a039091169087156108fc029088906000818181858888f19350505050158015610b23573d6000803e3d6000fd5b505b6006546020808401516040805160e060020a63a9059cbb028152336004820152602481019290925251600160a060020a039093169263a9059cbb926044808401939192918290030181600087803b158015610b7f57600080fd5b505af1158015610b93573d6000803e3d6000fd5b505050506040513d6020811015610ba957600080fd5b50506020820151610bbb9085906129c1565b93505b6001909201916108b6565b6000841115610c155733600160a060020a03166108fc610beb86600c54612a21565b6040518115909202916000818181858888f19350505050158015610c13573d6000803e3d6000fd5b505b610c1f85856129c1565b90506000811115610cce57604080513460208201526060810183905260808082526003908201527f455448000000000000000000000000000000000000000000000000000000000060a082015260c08183018190526004908201527f6e5553440000000000000000000000000000000000000000000000000000000060e082015290517fdb1741ffc6844b04a9284bb6337fb0ccfe543a493ef0ac8e725242201e93d4bd918190036101000190a15b9695505050505050565b60115481565b600054600160a060020a03163314610d42576040805160e560020a62461bcd02815260206004820152602f6024820152600080516020612b5e8339815191526044820152600080516020612b7e833981519152606482015290519081900360840190fd5b60018054600160a060020a038316600160a060020a0319909116811790915560408051918252517f906a1c6bd7e3091ea86693dd029a831c19049ce77f1dce2ce0bab1cacbabce229181900360200190a150565b600054600160a060020a03163314610dfa576040805160e560020a62461bcd02815260206004820152602f6024820152600080516020612b5e8339815191526044820152600080516020612b7e833981519152606482015290519081900360840190fd5b60055460ff1615158115151415610e1057610e69565b6005805460ff1916821515179081905560ff1615610e2d57426004555b6005546040805160ff90921615158252517f8fb6c181ee25a520cf3dd6565006ef91229fcfe5a989566c2a3b8c115570cec59181900360200190a15b50565b60025481565b600054600160a060020a03163314610ed6576040805160e560020a62461bcd02815260206004820152602f6024820152600080516020612b5e8339815191526044820152600080516020612b7e833981519152606482015290519081900360840190fd5b600554600080546040805160e060020a63a9059cbb028152600160a060020a0392831660048201526024810186905290516101009094049091169263a9059cbb92604480840193602093929083900390910190829087803b158015610f3a57600080fd5b505af1158015610f4e573d6000803e3d6000fd5b505050506040513d6020811015610f6457600080fd5b505050565b600080610f7883600c5461293a565b9050610f8381611ab4565b9392505050565b600054600160a060020a03163314610fee576040805160e560020a62461bcd02815260206004820152602f6024820152600080516020612b5e8339815191526044820152600080516020612b7e833981519152606482015290519081900360840190fd5b600160a060020a0381161515611074576040805160e560020a62461bcd02815260206004820152602860248201527f42656e6566696369617279206d757374206e6f7420626520746865207a65726f60448201527f2061646472657373000000000000000000000000000000000000000000000000606482015290519081900360840190fd5b60038054600160a060020a038316610100810274ffffffffffffffffffffffffffffffffffffffff00199092169190911790915560408051918252517fd5da63a0b864b315bc04128dedbc93888c8529ee6cf47ce664dc204339228c539181900360200190a150565b600754600160a060020a031681565b60095481565b600054600160a060020a03163314611156576040805160e560020a62461bcd02815260206004820152602f6024820152600080516020612b5e8339815191526044820152600080516020612b7e833981519152606482015290519081900360840190fd5b60098190556040805182815290517f456c8075c5b512d696c9a215b96d7146add8797e2050899ad8a97fd4a648ac939181900360200190a150565b600061119b611309565b156111f2576040805160e560020a62461bcd02815260206004820152602f6024820152600080516020612bbe8339815191526044820152600080516020612b7e833981519152606482015290519081900360840190fd5b60055460ff161561124f576040805160e560020a62461bcd02815260206004820152603c6024820152600080516020612b9e8339815191526044820152600080516020612b3e833981519152606482015290519081900360840190fd5b600b54821461125d57600080fd5b610f838361172d565b601281565b600054600160a060020a031633146112cf576040805160e560020a62461bcd02815260206004820152602f6024820152600080516020612b5e8339815191526044820152600080516020612b7e833981519152606482015290519081900360840190fd5b600060028190556003805460ff191690556040517f6adcc7125002935e0aa31697538ebbd65cfddf20431eb6ecdcfc3e238bfd082c9190a1565b60004261131a600a54600954612960565b10905090565b600854600160a060020a031633146113a8576040805160e560020a62461bcd02815260206004820152602760248201527f4f6e6c7920746865206f7261636c652063616e20706572666f726d207468697360448201527f20616374696f6e00000000000000000000000000000000000000000000000000606482015290519081900360840190fd5b600a548111611427576040805160e560020a62461bcd02815260206004820152602360248201527f54696d65206d757374206265206c61746572207468616e206c6173742075706460448201527f6174650000000000000000000000000000000000000000000000000000000000606482015290519081900360840190fd5b426102580181106114a8576040805160e560020a62461bcd02815260206004820152603060248201527f54696d65206d757374206265206c657373207468616e206e6f77202b204f524160448201527f434c455f4655545552455f4c494d495400000000000000000000000000000000606482015290519081900360840190fd5b600c839055600b829055600a819055604080518481526020810184905280820183905290517fa6b830b74e52d7d1140e76252f225dc7bed28782519845600bbd3182341dc1159181900360600190a1505050565b600080611507611309565b1561155e576040805160e560020a62461bcd02815260206004820152602f6024820152600080516020612bbe8339815191526044820152600080516020612b7e833981519152606482015290519081900360840190fd5b60055460ff16156115bb576040805160e560020a62461bcd02815260206004820152603c6024820152600080516020612b9e8339815191526044820152600080516020612b3e833981519152606482015290519081900360840190fd5b6115c434610f69565b600754604051919250600160a060020a0316903480156108fc02916000818181858888f193505050501580156115fe573d6000803e3d6000fd5b506005546040805160e060020a63a9059cbb028152336004820152602481018490529051610100909204600160a060020a03169163a9059cbb916044808201926020929091908290030181600087803b15801561165a57600080fd5b505af115801561166e573d6000803e3d6000fd5b505050506040513d602081101561168457600080fd5b50506040805134602082015260608101839052608080825260039082018190527f455448000000000000000000000000000000000000000000000000000000000060a083015260c08284018190528201527f484156000000000000000000000000000000000000000000000000000000000060e082015290517fdb1741ffc6844b04a9284bb6337fb0ccfe543a493ef0ac8e725242201e93d4bd918190036101000190a1919050565b600080611738611309565b1561178f576040805160e560020a62461bcd02815260206004820152602f6024820152600080516020612bbe8339815191526044820152600080516020612b7e833981519152606482015290519081900360840190fd5b60055460ff16156117ec576040805160e560020a62461bcd02815260206004820152603c6024820152600080516020612b9e8339815191526044820152600080516020612b3e833981519152606482015290519081900360840190fd5b6117f583611ab4565b600654600754604080517f23b872dd000000000000000000000000000000000000000000000000000000008152336004820152600160a060020a0392831660248201526044810188905290519394509116916323b872dd916064808201926020929091908290030181600087803b15801561186f57600080fd5b505af1158015611883573d6000803e3d6000fd5b505050506040513d602081101561189957600080fd5b50506005546040805160e060020a63a9059cbb028152336004820152602481018490529051610100909204600160a060020a03169163a9059cbb916044808201926020929091908290030181600087803b1580156118f657600080fd5b505af115801561190a573d6000803e3d6000fd5b505050506040513d602081101561192057600080fd5b505060408051602081018590526060810183905260808082526004908201527f6e5553440000000000000000000000000000000000000000000000000000000060a082015260c08183018190526003908201527f484156000000000000000000000000000000000000000000000000000000000060e082015290517fdb1741ffc6844b04a9284bb6337fb0ccfe543a493ef0ac8e725242201e93d4bd918190036101000190a192915050565b600a5481565b60105481565b600054600160a060020a03163314611a3c576040805160e560020a62461bcd02815260206004820152602f6024820152600080516020612b5e8339815191526044820152600080516020612b7e833981519152606482015290519081900360840190fd5b60058054600160a060020a038316610100810274ffffffffffffffffffffffffffffffffffffffff00199092169190911790915560408051918252517f7d83fa33771af200b7fda80813418ffe7eafdbeb2a93f5267ced74abac654a4e9181900360200190a150565b600154600160a060020a031681565b600654604080517f1a463a7d0000000000000000000000000000000000000000000000000000000081526004810184905290516000928392600160a060020a0390911691631a463a7d9160248082019260209290919082900301818787803b158015611b1f57600080fd5b505af1158015611b33573d6000803e3d6000fd5b505050506040513d6020811015611b4957600080fd5b5051600b54909150610f83908290612a21565b600054600160a060020a03163314611bc0576040805160e560020a62461bcd02815260206004820152602f6024820152600080516020612b5e8339815191526044820152600080516020612b7e833981519152606482015290519081900360840190fd5b60068054600160a060020a038316600160a060020a0319909116811790915560408051918252517f114aa3d8eaf9520841f1c7932e26ac23f2644b0d860be54533e21450cc28c02c9181900360200190a150565b60055460ff1681565b6000611c27611309565b15611c7e576040805160e560020a62461bcd02815260206004820152602f6024820152600080516020612bbe8339815191526044820152600080516020612b7e833981519152606482015290519081900360840190fd5b60055460ff1615611cdb576040805160e560020a62461bcd02815260206004820152603c6024820152600080516020612b9e8339815191526044820152600080516020612b3e833981519152606482015290519081900360840190fd5b600c548214611ce957600080fd5b611cf16107d1565b92915050565b600054600160a060020a03163314611d5b576040805160e560020a62461bcd02815260206004820152602f6024820152600080516020612b5e8339815191526044820152600080516020612b7e833981519152606482015290519081900360840190fd5b60078054600160a060020a031916600160a060020a03838116919091179182905560408051929091168252517f4deb077bf9c4bc824cc2c989e01a5e53b0a4ecc44c5039d46abc9ffc88f8a050916020908290030190a150565b600654604080517f23b872dd000000000000000000000000000000000000000000000000000000008152336004820152306024820152604481018490529051600160a060020a03909216916323b872dd916064808201926020929091908290030181600087803b158015610f3a57600080fd5b600e5481565b600080611e39612b26565b60009250600e5491505b600f54821015611ec657506000818152600d602090815260409182902082518084019093528054600160a060020a031680845260019091015491830191909152331415611ebb57611e98838260200151612960565b6000838152600d602052604081208054600160a060020a03191681556001015592505b600190910190611e43565b611ed2601054846129c1565b60105533600090815260126020526040902054611ef0908490612960565b3360009081526012602052604081208190559093508311611f81576040805160e560020a62461bcd02815260206004820152602160248201527f596f752068617665206e6f206465706f7369747320746f20776974686472617760448201527f2e00000000000000000000000000000000000000000000000000000000000000606482015290519081900360840190fd5b6006546040805160e060020a63a9059cbb028152336004820152602481018690529051600160a060020a039092169163a9059cbb916044808201926020929091908290030181600087803b158015611fd857600080fd5b505af1158015611fec573d6000803e3d6000fd5b505050506040513d602081101561200257600080fd5b5050604080513381526020810185905281517f194946cc85d7150f032ef13c2afc62e48dcaebc411f2cf2fcfb64cc06a706ccf929181900390910190a1505050565b600154600160a060020a031633146120cc576040805160e560020a62461bcd02815260206004820152603560248201527f596f75206d757374206265206e6f6d696e61746564206265666f726520796f7560448201527f2063616e20616363657074206f776e6572736869700000000000000000000000606482015290519081900360840190fd5b60005460015460408051600160a060020a03938416815292909116602083015280517fb532073b38c83145e3e5135377a08bf9aab55bc0fd7c1179cd4fb995d2a5159c9281900390910190a16001805460008054600160a060020a0319908116600160a060020a03841617909155169055565b600054600160a060020a031633146121a3576040805160e560020a62461bcd02815260206004820152602f6024820152600080516020612b5e8339815191526044820152600080516020612b7e833981519152606482015290519081900360840190fd5b60088054600160a060020a031916600160a060020a03838116919091179182905560408051929091168252517f3df77beb5db05fcdd70a30fc8adf3f83f9501b68579455adbd100b8180940394916020908290030190a150565b600854600160a060020a031681565b600054600160a060020a031681565b60045481565b6005546101009004600160a060020a031681565b60008054600160a060020a0316331461229a576040805160e560020a62461bcd02815260206004820152602f6024820152600080516020612b5e8339815191526044820152600080516020612b7e833981519152606482015290519081900360840190fd5b60035460ff16151561231c576040805160e560020a62461bcd02815260206004820152602860248201527f53656c6620646573747275637420686173206e6f7420796574206265656e206960448201527f6e69746961746564000000000000000000000000000000000000000000000000606482015290519081900360840190fd5b426224ea00600254011015156123a2576040805160e560020a62461bcd02815260206004820152602760248201527f53656c662064657374727563742064656c617920686173206e6f74207965742060448201527f656c617073656400000000000000000000000000000000000000000000000000606482015290519081900360840190fd5b5060035460408051600160a060020a0361010090930492909216808352905190917f8a09e1677ced846cb537dc2b172043bd05a1a81ad7e0033a7ef8ba762df990b7919081900360200190a180600160a060020a0316ff5b670de0b6b3a764000081565b6224ea0081565b60008061241c83600c5461293a565b600654604080517f1a463a7d000000000000000000000000000000000000000000000000000000008152600481018490529051929350600160a060020a0390911691631a463a7d916024808201926020929091908290030181600087803b15801561248657600080fd5b505af115801561249a573d6000803e3d6000fd5b505050506040513d60208110156124b057600080fd5b50519392505050565b600054600160a060020a0316331461251d576040805160e560020a62461bcd02815260206004820152602f6024820152600080516020612b5e8339815191526044820152600080516020612b7e833981519152606482015290519081900360840190fd5b670de0b6b3a7640000811161253157600080fd5b60118190556040805182815290517fa39eacd162ee82c70b2b030a1bc8fe89adcccc61122fad4821a8772dbcc542679181900360200190a150565b600d6020526000908152604090208054600190910154600160a060020a039091169082565b60035460ff1681565b600c5481565b60006125aa611309565b15612601576040805160e560020a62461bcd02815260206004820152602f6024820152600080516020612bbe8339815191526044820152600080516020612b7e833981519152606482015290519081900360840190fd5b60055460ff161561265e576040805160e560020a62461bcd02815260206004820152603c6024820152600080516020612b9e8339815191526044820152600080516020612b3e833981519152606482015290519081900360840190fd5b600c54831461266c57600080fd5b600b54821461267a57600080fd5b610f836114fc565b600054600160a060020a031633146126e6576040805160e560020a62461bcd02815260206004820152602f6024820152600080516020612b5e8339815191526044820152600080516020612b7e833981519152606482015290519081900360840190fd5b426002556003805460ff19166001179055604080516224ea00815290517fcbd94ca75b8dc45c9d80c77e851670e78843c0d75180cb81db3e2158228fa9a69181900360200190a1565b600654600090600160a060020a031633146127a8576040805160e560020a62461bcd02815260206004820152602f60248201527f4f6e6c7920746865206e6f6d696e20636f6e74726163742063616e20706572666044820152600080516020612b7e833981519152606482015290519081900360840190fd5b60115484101561283b57600160a060020a0385166000908152601260205260409020546127d59085612960565b600160a060020a0386166000818152601260209081526040918290209390935560115481519283529282018790528181019290925290517fd2cf9c1d2dc71a658d04141e8e44c46b18f1014d1e030d6e98c4c159c492e5629181900360600190a16128eb565b604080518082018252600160a060020a0387811682526020808301888152600f80546000908152600d9093529490912092518354600160a060020a031916921691909117825551600191820155905461289391612960565b600f556010546128a39085612960565b60105560408051600160a060020a03871681526020810186905281517fef9c530830117bc2ae807aabf987792351e5b3873fafb52bb420306e660d07c0929181900390910190a15b949350505050565b600b5481565b6003546101009004600160a060020a031681565b60126020526000908152604090205481565b600654600160a060020a031681565b61025881565b600f5481565b6000670de0b6b3a764000061294f8484612a3e565b81151561295857fe5b049392505050565b60008282018211156129bc576040805160e560020a62461bcd02815260206004820152600f60248201527f5361666520616464206661696c65640000000000000000000000000000000000604482015290519081900360640190fd5b500190565b600082821115612a1b576040805160e560020a62461bcd02815260206004820152600f60248201527f5361666520737562206661696c65640000000000000000000000000000000000604482015290519081900360640190fd5b50900390565b6000610f83612a3884670de0b6b3a7640000612a3e565b83612ac2565b600080831515612a515760009150612abb565b50828202828482811515612a6157fe5b0414612ab7576040805160e560020a62461bcd02815260206004820152600f60248201527f53616665206d756c206661696c65640000000000000000000000000000000000604482015290519081900360640190fd5b8091505b5092915050565b6000811515612b1b576040805160e560020a62461bcd02815260206004820152601a60248201527f44656e6f6d696e61746f722063616e6e6f74206265207a65726f000000000000604482015290519081900360640190fd5b818381151561295857fe5b60408051808201909152600080825260208201529056007768696c652074686520636f6e747261637420697320706175736564000000004f6e6c792074686520636f6e7472616374206f776e6572206d617920706572666f726d207468697320616374696f6e00000000000000000000000000000000005468697320616374696f6e2063616e6e6f7420626520706572666f726d656420507269636573206d757374206e6f74206265207374616c6520746f2070657266a165627a7a72305820988df2619fc564b913c239042263d01c6768ec88af00263bf880ef169641d3840029",
  "source": "/*\n-----------------------------------------------------------------\nFILE INFORMATION\n-----------------------------------------------------------------\n\nfile:       Depot.sol\nversion:    3.0\nauthor:     Kevin Brown\ndate:       2018-10-23\n\n-----------------------------------------------------------------\nMODULE DESCRIPTION\n-----------------------------------------------------------------\n\nDepot contract. The Depot provides\na way for users to acquire nomins (Nomin.sol) and havvens\n(Havven.sol) by paying ETH and a way for users to acquire havvens\n(Havven.sol) by paying nomins. Users can also deposit their nomins\nand allow other users to purchase them with ETH. The ETH is sent\nto the user who offered their nomins for sale.\n\nThis smart contract contains a balance of each token, and\nallows the owner of the contract (the Havven Foundation) to\nmanage the available balance of havven at their discretion, while\nusers are allowed to deposit and withdraw their own nomin deposits\nif they have not yet been taken up by another user.\n\n-----------------------------------------------------------------\n*/\n\npragma solidity 0.4.24;\n\nimport \"./SelfDestructible.sol\";\nimport \"./Pausable.sol\";\nimport \"./SafeDecimalMath.sol\";\nimport \"./Havven.sol\";\nimport \"./Nomin.sol\";\n\n/**\n * @title Depot Contract.\n */\ncontract Depot is SafeDecimalMath, SelfDestructible, Pausable {\n\n    /* ========== STATE VARIABLES ========== */\n    Havven public havven;\n    Nomin public nomin;\n\n    // Address where the ether and Nomins raised for selling HAV is transfered to\n    // Any ether raised for selling Nomins gets sent back to whoever deposited the Nomins,\n    // and doesn't have anything to do with this address.\n    address public fundsWallet;\n\n    /* The address of the oracle which pushes the USD price havvens and ether to this contract */\n    address public oracle;\n    /* Do not allow the oracle to submit times any further forward into the future than\n       this constant. */\n    uint public constant ORACLE_FUTURE_LIMIT = 10 minutes;\n\n    /* How long will the contract assume the price of any asset is correct */\n    uint public priceStalePeriod = 3 hours;\n\n    /* The time the prices were last updated */\n    uint public lastPriceUpdateTime;\n    /* The USD price of havvens denominated in UNIT */\n    uint public usdToHavPrice;\n    /* The USD price of ETH denominated in UNIT */\n    uint public usdToEthPrice;\n\n    /* Stores deposits from users. */\n    struct nominDeposit {\n        // The user that made the deposit\n        address user;\n        // The amount (in Nomins) that they deposited\n        uint amount;\n    }\n\n    /* User deposits are sold on a FIFO (First in First out) basis. When users deposit\n       nomins with us, they get added this queue, which then gets fulfilled in order.\n       Conceptually this fits well in an array, but then when users fill an order we\n       end up copying the whole array around, so better to use an index mapping instead\n       for gas performance reasons.\n\n       The indexes are specified (inclusive, exclusive), so (0, 0) means there's nothing\n       in the array, and (3, 6) means there are 3 elements at 3, 4, and 5. You can obtain\n       the length of the \"array\" by querying depositEndIndex - depositStartIndex. All index\n       operations use safeAdd, so there is no way to overflow, so that means there is a\n       very large but finite amount of deposits this contract can handle before it fills up. */\n    mapping(uint => nominDeposit) public deposits;\n    // The starting index of our queue inclusive\n    uint public depositStartIndex;\n    // The ending index of our queue exclusive\n    uint public depositEndIndex;\n\n    /* This is a convenience variable so users and dApps can just query how much nUSD\n       we have available for purchase without having to iterate the mapping with a\n       O(n) amount of calls for something we'll probably want to display quite regularly. */\n    uint public totalSellableDeposits;\n\n    // The minimum amount of nUSD required to enter the FiFo queue\n    uint public minimumDepositAmount = 50 * UNIT;\n\n    // If a user deposits a nomin amount < the minimumDepositAmount the contract will keep\n    // the total of small deposits which will not be sold on market and the sender\n    // must call withdrawMyDepositedNomins() to get them back.\n    mapping(address => uint) public smallDeposits;\n\n\n    /* ========== CONSTRUCTOR ========== */\n\n    /**\n     * @dev Constructor\n     * @param _owner The owner of this contract.\n     * @param _fundsWallet The recipient of ETH and Nomins that are sent to this contract while exchanging.\n     * @param _havven The Havven contract we'll interact with for balances and sending.\n     * @param _nomin The Nomin contract we'll interact with for balances and sending.\n     * @param _oracle The address which is able to update price information.\n     * @param _usdToEthPrice The current price of ETH in USD, expressed in UNIT.\n     * @param _usdToHavPrice The current price of Havven in USD, expressed in UNIT.\n     */\n    constructor(\n        // Ownable\n        address _owner,\n\n        // Funds Wallet\n        address _fundsWallet,\n\n        // Other contracts needed\n        Havven _havven,\n        Nomin _nomin,\n\n        // Oracle values - Allows for price updates\n        address _oracle,\n        uint _usdToEthPrice,\n        uint _usdToHavPrice\n    )\n        /* Owned is initialised in SelfDestructible */\n        SelfDestructible(_owner)\n        Pausable(_owner)\n        public\n    {\n        fundsWallet = _fundsWallet;\n        havven = _havven;\n        nomin = _nomin;\n        oracle = _oracle;\n        usdToEthPrice = _usdToEthPrice;\n        usdToHavPrice = _usdToHavPrice;\n        lastPriceUpdateTime = now;\n    }\n\n    /* ========== SETTERS ========== */\n\n    /**\n     * @notice Set the funds wallet where ETH raised is held\n     * @param _fundsWallet The new address to forward ETH and Nomins to\n     */\n    function setFundsWallet(address _fundsWallet)\n        external\n        onlyOwner\n    {\n        fundsWallet = _fundsWallet;\n        emit FundsWalletUpdated(fundsWallet);\n    }\n\n    /**\n     * @notice Set the Oracle that pushes the havven price to this contract\n     * @param _oracle The new oracle address\n     */\n    function setOracle(address _oracle)\n        external\n        onlyOwner\n    {\n        oracle = _oracle;\n        emit OracleUpdated(oracle);\n    }\n\n    /**\n     * @notice Set the Nomin contract that the issuance controller uses to issue Nomins.\n     * @param _nomin The new nomin contract target\n     */\n    function setNomin(Nomin _nomin)\n        external\n        onlyOwner\n    {\n        nomin = _nomin;\n        emit NominUpdated(_nomin);\n    }\n\n    /**\n     * @notice Set the Havven contract that the issuance controller uses to issue Havvens.\n     * @param _havven The new havven contract target\n     */\n    function setHavven(Havven _havven)\n        external\n        onlyOwner\n    {\n        havven = _havven;\n        emit HavvenUpdated(_havven);\n    }\n\n    /**\n     * @notice Set the stale period on the updated price variables\n     * @param _time The new priceStalePeriod\n     */\n    function setPriceStalePeriod(uint _time)\n        external\n        onlyOwner\n    {\n        priceStalePeriod = _time;\n        emit PriceStalePeriodUpdated(priceStalePeriod);\n    }\n\n    /**\n     * @notice Set the minimum deposit amount required to depoist nUSD into the FIFO queue\n     * @param _amount The new new minimum number of nUSD required to deposit\n     */\n    function setMinimumDepositAmount(uint _amount)\n        external\n        onlyOwner\n    {\n        //Do not allow us to set it less than 1 dollar opening up to fractional desposits in the queue again\n        require(_amount > 1 * UNIT);\n        minimumDepositAmount = _amount;\n        emit MinimumDepositAmountUpdated(minimumDepositAmount);\n    }\n\n    /* ========== MUTATIVE FUNCTIONS ========== */\n    /**\n     * @notice Access point for the oracle to update the prices of havvens / eth.\n     * @param newEthPrice The current price of ether in USD, specified to 18 decimal places.\n     * @param newHavvenPrice The current price of havvens in USD, specified to 18 decimal places.\n     * @param timeSent The timestamp from the oracle when the transaction was created. This ensures we don't consider stale prices as current in times of heavy network congestion.\n     */\n    function updatePrices(uint newEthPrice, uint newHavvenPrice, uint timeSent)\n        external\n        onlyOracle\n    {\n        /* Must be the most recently sent price, but not too far in the future.\n         * (so we can't lock ourselves out of updating the oracle for longer than this) */\n        require(lastPriceUpdateTime < timeSent, \"Time must be later than last update\");\n        require(timeSent < (now + ORACLE_FUTURE_LIMIT), \"Time must be less than now + ORACLE_FUTURE_LIMIT\");\n\n        usdToEthPrice = newEthPrice;\n        usdToHavPrice = newHavvenPrice;\n        lastPriceUpdateTime = timeSent;\n\n        emit PricesUpdated(usdToEthPrice, usdToHavPrice, lastPriceUpdateTime);\n    }\n\n    /**\n     * @notice Fallback function (exchanges ETH to nUSD)\n     */\n    function ()\n        external\n        payable\n    {\n        exchangeEtherForNomins();\n    }\n\n    /**\n     * @notice Exchange ETH to nUSD.\n     */\n    function exchangeEtherForNomins()\n        public\n        payable\n        pricesNotStale\n        notPaused\n        returns (uint) // Returns the number of Nomins (nUSD) received\n    {\n        uint ethToSend;\n\n        // The multiplication works here because usdToEthPrice is specified in\n        // 18 decimal places, just like our currency base.\n        uint requestedToPurchase = safeMul_dec(msg.value, usdToEthPrice);\n        uint remainingToFulfill = requestedToPurchase;\n\n        // Iterate through our outstanding deposits and sell them one at a time.\n        for (uint i = depositStartIndex; remainingToFulfill > 0 && i < depositEndIndex; i++) {\n            nominDeposit memory deposit = deposits[i];\n\n            // If it's an empty spot in the queue from a previous withdrawal, just skip over it and\n            // update the queue. It's already been deleted.\n            if (deposit.user == address(0)) {\n\n                depositStartIndex = safeAdd(depositStartIndex, 1);\n            } else {\n                // If the deposit can more than fill the order, we can do this\n                // without touching the structure of our queue.\n                if (deposit.amount > remainingToFulfill) {\n\n                    // Ok, this deposit can fulfill the whole remainder. We don't need\n                    // to change anything about our queue we can just fulfill it.\n                    // Subtract the amount from our deposit and total.\n                    deposit.amount = safeSub(deposit.amount, remainingToFulfill);\n                    totalSellableDeposits = safeSub(totalSellableDeposits, remainingToFulfill);\n\n                    // Transfer the ETH to the depositor. Send is used instead of transfer\n                    // so a non payable contract won't block the FIFO queue on a failed\n                    // ETH payable for nomins transaction. The proceeds to be sent to the\n                    // havven foundation funds wallet. This is to protect all depositors\n                    // in the queue in this rare case that may occur.\n                    ethToSend = safeDiv_dec(remainingToFulfill, usdToEthPrice);\n                    if(!deposit.user.send(ethToSend)) {\n                        fundsWallet.transfer(ethToSend);\n                    }\n\n                    // And the Nomins to the recipient.\n                    // Note: Fees are calculated by the Nomin contract, so when\n                    //       we request a specific transfer here, the fee is\n                    //       automatically deducted and sent to the fee pool.\n                    nomin.transfer(msg.sender, remainingToFulfill);\n\n                    // And we have nothing left to fulfill on this order.\n                    remainingToFulfill = 0;\n                } else if (deposit.amount <= remainingToFulfill) {\n                    // We need to fulfill this one in its entirety and kick it out of the queue.\n                    // Start by kicking it out of the queue.\n                    // Free the storage because we can.\n                    delete deposits[i];\n                    // Bump our start index forward one.\n                    depositStartIndex = safeAdd(depositStartIndex, 1);\n                    // We also need to tell our total it's decreased\n                    totalSellableDeposits = safeSub(totalSellableDeposits, deposit.amount);\n\n                    // Now fulfill by transfering the ETH to the depositor. Send is used instead of transfer\n                    // so a non payable contract won't block the FIFO queue on a failed\n                    // ETH payable for nomins transaction. The proceeds to be sent to the\n                    // havven foundation funds wallet. This is to protect all depositors\n                    // in the queue in this rare case that may occur.\n                    ethToSend = safeDiv_dec(deposit.amount, usdToEthPrice);\n                    if(!deposit.user.send(ethToSend)) {\n                        fundsWallet.transfer(ethToSend);\n                    }\n\n                    // And the Nomins to the recipient.\n                    // Note: Fees are calculated by the Nomin contract, so when\n                    //       we request a specific transfer here, the fee is\n                    //       automatically deducted and sent to the fee pool.\n                    nomin.transfer(msg.sender, deposit.amount);\n\n                    // And subtract the order from our outstanding amount remaining\n                    // for the next iteration of the loop.\n                    remainingToFulfill = safeSub(remainingToFulfill, deposit.amount);\n                }\n            }\n        }\n\n        // Ok, if we're here and 'remainingToFulfill' isn't zero, then\n        // we need to refund the remainder of their ETH back to them.\n        if (remainingToFulfill > 0) {\n            msg.sender.transfer(safeDiv_dec(remainingToFulfill, usdToEthPrice));\n        }\n\n        // How many did we actually give them?\n        uint fulfilled = safeSub(requestedToPurchase, remainingToFulfill);\n\n        if (fulfilled > 0) {\n            // Now tell everyone that we gave them that many (only if the amount is greater than 0).\n            emit Exchange(\"ETH\", msg.value, \"nUSD\", fulfilled);\n        }\n\n        return fulfilled;\n    }\n\n    /**\n     * @notice Exchange ETH to nUSD while insisting on a particular rate. This allows a user to\n     *         exchange while protecting against frontrunning by the contract owner on the exchange rate.\n     * @param guaranteedRate The exchange rate (ether price) which must be honored or the call will revert.\n     */\n    function exchangeEtherForNominsAtRate(uint guaranteedRate)\n        public\n        payable\n        pricesNotStale\n        notPaused\n        returns (uint) // Returns the number of Nomins (nUSD) received\n    {\n        require(guaranteedRate == usdToEthPrice);\n\n        return exchangeEtherForNomins();\n    }\n\n\n    /**\n     * @notice Exchange ETH to HAV.\n     */\n    function exchangeEtherForHavvens()\n        public\n        payable\n        pricesNotStale\n        notPaused\n        returns (uint) // Returns the number of Havvens (HAV) received\n    {\n        // How many Havvens are they going to be receiving?\n        uint havvensToSend = havvensReceivedForEther(msg.value);\n\n        // Store the ETH in our funds wallet\n        fundsWallet.transfer(msg.value);\n\n        // And send them the Havvens.\n        havven.transfer(msg.sender, havvensToSend);\n\n        emit Exchange(\"ETH\", msg.value, \"HAV\", havvensToSend);\n\n        return havvensToSend;\n    }\n\n    /**\n     * @notice Exchange ETH to HAV while insisting on a particular set of rates. This allows a user to\n     *         exchange while protecting against frontrunning by the contract owner on the exchange rates.\n     * @param guaranteedEtherRate The ether exchange rate which must be honored or the call will revert.\n     * @param guaranteedHavvenRate The havven exchange rate which must be honored or the call will revert.\n     */\n    function exchangeEtherForHavvensAtRate(uint guaranteedEtherRate, uint guaranteedHavvenRate)\n        public\n        payable\n        pricesNotStale\n        notPaused\n        returns (uint) // Returns the number of Havvens (HAV) received\n    {\n        require(guaranteedEtherRate == usdToEthPrice);\n        require(guaranteedHavvenRate == usdToHavPrice);\n\n        return exchangeEtherForHavvens();\n    }\n\n\n    /**\n     * @notice Exchange nUSD for Havvens\n     * @param nominAmount The amount of nomins the user wishes to exchange.\n     */\n    function exchangeNominsForHavvens(uint nominAmount)\n        public\n        pricesNotStale\n        notPaused\n        returns (uint) // Returns the number of Havvens (HAV) received\n    {\n        // How many Havvens are they going to be receiving?\n        uint havvensToSend = havvensReceivedForNomins(nominAmount);\n\n        // Ok, transfer the Nomins to our funds wallet.\n        // These do not go in the deposit queue as they aren't for sale as such unless\n        // they're sent back in from the funds wallet.\n        nomin.transferFrom(msg.sender, fundsWallet, nominAmount);\n\n        // And send them the Havvens.\n        havven.transfer(msg.sender, havvensToSend);\n\n        emit Exchange(\"nUSD\", nominAmount, \"HAV\", havvensToSend);\n\n        return havvensToSend;\n    }\n\n    /**\n     * @notice Exchange nUSD for Havvens while insisting on a particular rate. This allows a user to\n     *         exchange while protecting against frontrunning by the contract owner on the exchange rate.\n     * @param nominAmount The amount of nomins the user wishes to exchange.\n     * @param guaranteedRate A rate (havven price) the caller wishes to insist upon.\n     */\n    function exchangeNominsForHavvensAtRate(uint nominAmount, uint guaranteedRate)\n        public\n        pricesNotStale\n        notPaused\n        returns (uint) // Returns the number of Havvens (HAV) received\n    {\n        require(guaranteedRate == usdToHavPrice);\n\n        return exchangeNominsForHavvens(nominAmount);\n    }\n\n    /**\n     * @notice Allows the owner to withdraw havvens from this contract if needed.\n     * @param amount The amount of havvens to attempt to withdraw (in 18 decimal places).\n     */\n    function withdrawHavvens(uint amount)\n        external\n        onlyOwner\n    {\n        havven.transfer(owner, amount);\n\n        // We don't emit our own events here because we assume that anyone\n        // who wants to watch what the Issuance Controller is doing can\n        // just watch ERC20 events from the Nomin and/or Havven contracts\n        // filtered to our address.\n    }\n\n    /**\n     * @notice Allows a user to withdraw all of their previously deposited nomins from this contract if needed.\n     *         Developer note: We could keep an index of address to deposits to make this operation more efficient\n     *         but then all the other operations on the queue become less efficient. It's expected that this\n     *         function will be very rarely used, so placing the inefficiency here is intentional. The usual\n     *         use case does not involve a withdrawal.\n     */\n    function withdrawMyDepositedNomins()\n        external\n    {\n        uint nominsToSend = 0;\n\n        for (uint i = depositStartIndex; i < depositEndIndex; i++) {\n            nominDeposit memory deposit = deposits[i];\n\n            if (deposit.user == msg.sender) {\n                // The user is withdrawing this deposit. Remove it from our queue.\n                // We'll just leave a gap, which the purchasing logic can walk past.\n                nominsToSend = safeAdd(nominsToSend, deposit.amount);\n                delete deposits[i];\n            }\n        }\n\n        // Update our total\n        totalSellableDeposits = safeSub(totalSellableDeposits, nominsToSend);\n\n        // Check if the user has tried to send deposit amounts < the minimumDepositAmount to the FIFO\n        // queue which would have been added to this mapping for withdrawal only\n        nominsToSend = safeAdd(nominsToSend, smallDeposits[msg.sender]);\n        smallDeposits[msg.sender] = 0;\n\n        // If there's nothing to do then go ahead and revert the transaction\n        require(nominsToSend > 0, \"You have no deposits to withdraw.\");\n\n        // Send their deposits back to them (minus fees)\n        nomin.transfer(msg.sender, nominsToSend);\n\n        emit NominWithdrawal(msg.sender, nominsToSend);\n    }\n\n    /**\n     * @notice depositNomins: Allows users to deposit nomins via the approve / transferFrom workflow\n     *         if they'd like. You can equally just transfer nomins to this contract and it will work\n     *         exactly the same way but with one less call (and therefore cheaper transaction fees)\n     * @param amount The amount of nUSD you wish to deposit (must have been approved first)\n     */\n    function depositNomins(uint amount)\n        external\n    {\n        // Grab the amount of nomins\n        nomin.transferFrom(msg.sender, this, amount);\n\n        // Note, we don't need to add them to the deposit list below, as the Nomin contract itself will\n        // call tokenFallback when the transfer happens, adding their deposit to the queue.\n    }\n\n    /**\n     * @notice Triggers when users send us HAV or nUSD, but the modifier only allows nUSD calls to proceed.\n     * @param from The address sending the nUSD\n     * @param amount The amount of nUSD\n     */\n    function tokenFallback(address from, uint amount, bytes data)\n        external\n        onlyNomin\n        returns (bool)\n    {\n        // A minimum deposit amount is designed to protect purchasers from over paying\n        // gas for fullfilling multiple small nomin deposits\n        if (amount < minimumDepositAmount) {\n            // We cant fail/revert the transaction or send the nomins back in a reentrant call.\n            // So we will keep your nomins balance seperate from the FIFO queue so you can withdraw them\n            smallDeposits[from] = safeAdd(smallDeposits[from], amount);\n\n            emit NominDepositNotAccepted(from, amount, minimumDepositAmount);\n        } else {\n            // Ok, thanks for the deposit, let's queue it up.\n            deposits[depositEndIndex] = nominDeposit({ user: from, amount: amount });\n            // Walk our index forward as well.\n            depositEndIndex = safeAdd(depositEndIndex, 1);\n\n            // And add it to our total.\n            totalSellableDeposits = safeAdd(totalSellableDeposits, amount);\n\n            emit NominDeposit(from, amount);\n        }\n    }\n\n    /* ========== VIEWS ========== */\n    /**\n     * @notice Check if the prices haven't been updated for longer than the stale period.\n     */\n    function pricesAreStale()\n        public\n        view\n        returns (bool)\n    {\n        return safeAdd(lastPriceUpdateTime, priceStalePeriod) < now;\n    }\n\n    /**\n     * @notice Calculate how many havvens you will receive if you transfer\n     *         an amount of nomins.\n     * @param amount The amount of nomins (in 18 decimal places) you want to ask about\n     */\n    function havvensReceivedForNomins(uint amount)\n        public\n        view\n        returns (uint)\n    {\n        // How many nomins would we receive after the transfer fee?\n        uint nominsReceived = nomin.amountReceived(amount);\n\n        // And what would that be worth in havvens based on the current price?\n        return safeDiv_dec(nominsReceived, usdToHavPrice);\n    }\n\n    /**\n     * @notice Calculate how many havvens you will receive if you transfer\n     *         an amount of ether.\n     * @param amount The amount of ether (in wei) you want to ask about\n     */\n    function havvensReceivedForEther(uint amount)\n        public\n        view\n        returns (uint)\n    {\n        // How much is the ETH they sent us worth in nUSD (ignoring the transfer fee)?\n        uint valueSentInNomins = safeMul_dec(amount, usdToEthPrice);\n\n        // Now, how many HAV will that USD amount buy?\n        return havvensReceivedForNomins(valueSentInNomins);\n    }\n\n    /**\n     * @notice Calculate how many nomins you will receive if you transfer\n     *         an amount of ether.\n     * @param amount The amount of ether (in wei) you want to ask about\n     */\n    function nominsReceivedForEther(uint amount)\n        public\n        view\n        returns (uint)\n    {\n        // How many nomins would that amount of ether be worth?\n        uint nominsTransferred = safeMul_dec(amount, usdToEthPrice);\n\n        // And how many of those would you receive after a transfer (deducting the transfer fee)\n        return nomin.amountReceived(nominsTransferred);\n    }\n\n    /* ========== MODIFIERS ========== */\n\n    modifier onlyOracle\n    {\n        require(msg.sender == oracle, \"Only the oracle can perform this action\");\n        _;\n    }\n\n    modifier onlyNomin\n    {\n        // We're only interested in doing anything on receiving nUSD.\n        require(msg.sender == address(nomin), \"Only the nomin contract can perform this action\");\n        _;\n    }\n\n    modifier pricesNotStale\n    {\n        require(!pricesAreStale(), \"Prices must not be stale to perform this action\");\n        _;\n    }\n\n    /* ========== EVENTS ========== */\n\n    event FundsWalletUpdated(address newFundsWallet);\n    event OracleUpdated(address newOracle);\n    event NominUpdated(Nomin newNominContract);\n    event HavvenUpdated(Havven newHavvenContract);\n    event PriceStalePeriodUpdated(uint priceStalePeriod);\n    event PricesUpdated(uint newEthPrice, uint newHavvenPrice, uint timeSent);\n    event Exchange(string fromCurrency, uint fromAmount, string toCurrency, uint toAmount);\n    event NominWithdrawal(address user, uint amount);\n    event NominDeposit(address user, uint amount);\n    event NominDepositNotAccepted(address user, uint amount, uint minimum);\n    event MinimumDepositAmountUpdated(uint amount);\n}\n",
  "sourcePath": "/Users/clintonennis/Projects/havven/havven/contracts/Depot.sol",
  "compiler": {
    "name": "solc",
    "version": "0.4.24+commit.e67f0147.Emscripten.clang"
  },
  "schemaVersion": "3.0.0-beta.0",
  "updatedAt": "2018-11-16T06:41:20.123Z"
}