{
  "contractName": "ExchangeRates",
  "abi": [
    {
      "constant": true,
      "inputs": [],
      "name": "rateStalePeriod",
      "outputs": [
        {
          "name": "",
          "type": "uint256"
        }
      ],
      "payable": false,
      "stateMutability": "view",
      "type": "function"
    },
    {
      "constant": false,
      "inputs": [
        {
          "name": "_owner",
          "type": "address"
        }
      ],
      "name": "nominateNewOwner",
      "outputs": [],
      "payable": false,
      "stateMutability": "nonpayable",
      "type": "function"
    },
    {
      "constant": true,
      "inputs": [],
      "name": "initiationTime",
      "outputs": [
        {
          "name": "",
          "type": "uint256"
        }
      ],
      "payable": false,
      "stateMutability": "view",
      "type": "function"
    },
    {
      "constant": false,
      "inputs": [
        {
          "name": "_beneficiary",
          "type": "address"
        }
      ],
      "name": "setSelfDestructBeneficiary",
      "outputs": [],
      "payable": false,
      "stateMutability": "nonpayable",
      "type": "function"
    },
    {
      "constant": false,
      "inputs": [],
      "name": "terminateSelfDestruct",
      "outputs": [],
      "payable": false,
      "stateMutability": "nonpayable",
      "type": "function"
    },
    {
      "constant": true,
      "inputs": [],
      "name": "nominatedOwner",
      "outputs": [
        {
          "name": "",
          "type": "address"
        }
      ],
      "payable": false,
      "stateMutability": "view",
      "type": "function"
    },
    {
      "constant": true,
      "inputs": [
        {
          "name": "",
          "type": "uint256"
        }
      ],
      "name": "hdrParticipants",
      "outputs": [
        {
          "name": "",
          "type": "bytes4"
        }
      ],
      "payable": false,
      "stateMutability": "view",
      "type": "function"
    },
    {
      "constant": false,
      "inputs": [],
      "name": "acceptOwnership",
      "outputs": [],
      "payable": false,
      "stateMutability": "nonpayable",
      "type": "function"
    },
    {
      "constant": true,
      "inputs": [],
      "name": "oracle",
      "outputs": [
        {
          "name": "",
          "type": "address"
        }
      ],
      "payable": false,
      "stateMutability": "view",
      "type": "function"
    },
    {
      "constant": true,
      "inputs": [],
      "name": "owner",
      "outputs": [
        {
          "name": "",
          "type": "address"
        }
      ],
      "payable": false,
      "stateMutability": "view",
      "type": "function"
    },
    {
      "constant": false,
      "inputs": [],
      "name": "selfDestruct",
      "outputs": [],
      "payable": false,
      "stateMutability": "nonpayable",
      "type": "function"
    },
    {
      "constant": true,
      "inputs": [],
      "name": "SELFDESTRUCT_DELAY",
      "outputs": [
        {
          "name": "",
          "type": "uint256"
        }
      ],
      "payable": false,
      "stateMutability": "view",
      "type": "function"
    },
    {
      "constant": true,
      "inputs": [],
      "name": "selfDestructInitiated",
      "outputs": [
        {
          "name": "",
          "type": "bool"
        }
      ],
      "payable": false,
      "stateMutability": "view",
      "type": "function"
    },
    {
      "constant": false,
      "inputs": [],
      "name": "initiateSelfDestruct",
      "outputs": [],
      "payable": false,
      "stateMutability": "nonpayable",
      "type": "function"
    },
    {
      "constant": true,
      "inputs": [],
      "name": "selfDestructBeneficiary",
      "outputs": [
        {
          "name": "",
          "type": "address"
        }
      ],
      "payable": false,
      "stateMutability": "view",
      "type": "function"
    },
    {
      "constant": true,
      "inputs": [
        {
          "name": "",
          "type": "bytes4"
        }
      ],
      "name": "rates",
      "outputs": [
        {
          "name": "",
          "type": "uint256"
        }
      ],
      "payable": false,
      "stateMutability": "view",
      "type": "function"
    },
    {
      "constant": true,
      "inputs": [
        {
          "name": "",
          "type": "bytes4"
        }
      ],
      "name": "lastRateUpdateTimes",
      "outputs": [
        {
          "name": "",
          "type": "uint256"
        }
      ],
      "payable": false,
      "stateMutability": "view",
      "type": "function"
    },
    {
      "inputs": [
        {
          "name": "_owner",
          "type": "address"
        },
        {
          "name": "_oracle",
          "type": "address"
        },
        {
          "name": "_currencyKeys",
          "type": "bytes4[]"
        },
        {
          "name": "_newRates",
          "type": "uint256[]"
        }
      ],
      "payable": false,
      "stateMutability": "nonpayable",
      "type": "constructor"
    },
    {
      "anonymous": false,
      "inputs": [
        {
          "indexed": false,
          "name": "newOracle",
          "type": "address"
        }
      ],
      "name": "OracleUpdated",
      "type": "event"
    },
    {
      "anonymous": false,
      "inputs": [
        {
          "indexed": false,
          "name": "rateStalePeriod",
          "type": "uint256"
        }
      ],
      "name": "RateStalePeriodUpdated",
      "type": "event"
    },
    {
      "anonymous": false,
      "inputs": [
        {
          "indexed": false,
          "name": "currencyKeys",
          "type": "bytes4[]"
        },
        {
          "indexed": false,
          "name": "newRates",
          "type": "uint256[]"
        }
      ],
      "name": "RatesUpdated",
      "type": "event"
    },
    {
      "anonymous": false,
      "inputs": [
        {
          "indexed": false,
          "name": "currencyKey",
          "type": "bytes4"
        }
      ],
      "name": "RateDeleted",
      "type": "event"
    },
    {
      "anonymous": false,
      "inputs": [],
      "name": "SelfDestructTerminated",
      "type": "event"
    },
    {
      "anonymous": false,
      "inputs": [
        {
          "indexed": false,
          "name": "beneficiary",
          "type": "address"
        }
      ],
      "name": "SelfDestructed",
      "type": "event"
    },
    {
      "anonymous": false,
      "inputs": [
        {
          "indexed": false,
          "name": "selfDestructDelay",
          "type": "uint256"
        }
      ],
      "name": "SelfDestructInitiated",
      "type": "event"
    },
    {
      "anonymous": false,
      "inputs": [
        {
          "indexed": false,
          "name": "newBeneficiary",
          "type": "address"
        }
      ],
      "name": "SelfDestructBeneficiaryUpdated",
      "type": "event"
    },
    {
      "anonymous": false,
      "inputs": [
        {
          "indexed": false,
          "name": "newOwner",
          "type": "address"
        }
      ],
      "name": "OwnerNominated",
      "type": "event"
    },
    {
      "anonymous": false,
      "inputs": [
        {
          "indexed": false,
          "name": "oldOwner",
          "type": "address"
        },
        {
          "indexed": false,
          "name": "newOwner",
          "type": "address"
        }
      ],
      "name": "OwnerChanged",
      "type": "event"
    },
    {
      "constant": false,
      "inputs": [
        {
          "name": "currencyKeys",
          "type": "bytes4[]"
        },
        {
          "name": "newRates",
          "type": "uint256[]"
        },
        {
          "name": "timeSent",
          "type": "uint256"
        }
      ],
      "name": "updateRates",
      "outputs": [
        {
          "name": "",
          "type": "bool"
        }
      ],
      "payable": false,
      "stateMutability": "nonpayable",
      "type": "function"
    },
    {
      "constant": false,
      "inputs": [
        {
          "name": "currencyKey",
          "type": "bytes4"
        }
      ],
      "name": "deleteRate",
      "outputs": [],
      "payable": false,
      "stateMutability": "nonpayable",
      "type": "function"
    },
    {
      "constant": false,
      "inputs": [
        {
          "name": "_oracle",
          "type": "address"
        }
      ],
      "name": "setOracle",
      "outputs": [],
      "payable": false,
      "stateMutability": "nonpayable",
      "type": "function"
    },
    {
      "constant": false,
      "inputs": [
        {
          "name": "_time",
          "type": "uint256"
        }
      ],
      "name": "setRateStalePeriod",
      "outputs": [],
      "payable": false,
      "stateMutability": "nonpayable",
      "type": "function"
    },
    {
      "constant": true,
      "inputs": [
        {
          "name": "currencyKey",
          "type": "bytes4"
        }
      ],
      "name": "rateForCurrency",
      "outputs": [
        {
          "name": "",
          "type": "uint256"
        }
      ],
      "payable": false,
      "stateMutability": "view",
      "type": "function"
    },
    {
      "constant": true,
      "inputs": [
        {
          "name": "currencyKeys",
          "type": "bytes4[]"
        }
      ],
      "name": "ratesForCurrencies",
      "outputs": [
        {
          "name": "",
          "type": "uint256[]"
        }
      ],
      "payable": false,
      "stateMutability": "view",
      "type": "function"
    },
    {
      "constant": true,
      "inputs": [
        {
          "name": "currencyKey",
          "type": "bytes4"
        }
      ],
      "name": "lastRateUpdateTimeForCurrency",
      "outputs": [
        {
          "name": "",
          "type": "uint256"
        }
      ],
      "payable": false,
      "stateMutability": "view",
      "type": "function"
    },
    {
      "constant": true,
      "inputs": [
        {
          "name": "currencyKeys",
          "type": "bytes4[]"
        }
      ],
      "name": "lastRateUpdateTimesForCurrencies",
      "outputs": [
        {
          "name": "",
          "type": "uint256[]"
        }
      ],
      "payable": false,
      "stateMutability": "view",
      "type": "function"
    },
    {
      "constant": true,
      "inputs": [
        {
          "name": "currencyKey",
          "type": "bytes4"
        }
      ],
      "name": "rateIsStale",
      "outputs": [
        {
          "name": "",
          "type": "bool"
        }
      ],
      "payable": false,
      "stateMutability": "view",
      "type": "function"
    },
    {
      "constant": true,
      "inputs": [
        {
          "name": "currencyKeys",
          "type": "bytes4[]"
        }
      ],
      "name": "anyRateIsStale",
      "outputs": [
        {
          "name": "",
          "type": "bool"
        }
      ],
      "payable": false,
      "stateMutability": "view",
      "type": "function"
    }
  ],
  "bytecode": "0x6080604052612a306007553480156200001757600080fd5b50604051620024a7380380620024a783398101604090815281516020830151918301516060840151919390810191018380600160a060020a0381161515620000c057604080517f08c379a000000000000000000000000000000000000000000000000000000000815260206004820152601960248201527f4f776e657220616464726573732063616e6e6f74206265203000000000000000604482015290519081900360640190fd5b60008054600160a060020a031916600160a060020a038316908117825560408051928352602083019190915280517fb532073b38c83145e3e5135377a08bf9aab55bc0fd7c1179cd4fb995d2a5159c9281900390910190a150600160a060020a0381161515620001b757604080517f08c379a000000000000000000000000000000000000000000000000000000000815260206004820152602260248201527f4f776e6572206d757374206e6f7420626520746865207a65726f20616464726560448201527f7373000000000000000000000000000000000000000000000000000000000000606482015290519081900360840190fd5b60038054600160a060020a038316610100810261010060a860020a03199092169190911790915560408051918252517fd5da63a0b864b315bc04128dedbc93888c8529ee6cf47ce664dc204339228c539181900360200190a1508051825114620002a857604080517f08c379a000000000000000000000000000000000000000000000000000000000815260206004820152602f60248201527f43757272656e6379206b6579206c656e67746820616e642072617465206c656e60448201527f677468206d757374206d617463682e0000000000000000000000000000000000606482015290519081900360840190fd5b60068054600160a060020a031916600160a060020a038516179055604080517f907af6c0000000000000000000000000000000000000000000000000000000008152905173__SafeDecimalMath_______________________9163907af6c0916004808301926020929190829003018186803b1580156200032857600080fd5b505af41580156200033d573d6000803e3d6000fd5b505050506040513d60208110156200035457600080fd5b50517f6e555344000000000000000000000000000000000000000000000000000000006000819052600460209081527f4089c4db282af60d1657bed6da41a83431d4e7ab980ec5f2941d8ab356ea22fd929092556040805160a0810182529182527f6e41554400000000000000000000000000000000000000000000000000000000928201929092527f6e43484600000000000000000000000000000000000000000000000000000000918101919091527f6e4555520000000000000000000000000000000000000000000000000000000060608201527f6e4742500000000000000000000000000000000000000000000000000000000060808201526200046190600890600562000ab8565b506200047882824264010000000062000483810204565b505050505062000b9c565b600080835185511415156200051f57604080517f08c379a000000000000000000000000000000000000000000000000000000000815260206004820152603860248201527f43757272656e6379206b6579206172726179206c656e677468206d757374206d60448201527f61746368207261746573206172726179206c656e6774682e0000000000000000606482015290519081900360840190fd5b426102580183106200059257604080517f08c379a000000000000000000000000000000000000000000000000000000000815260206004820152601f60248201527f54696d6520697320746f6f2066617220696e746f207468652066757475726500604482015290519081900360640190fd5b5060005b84518160ff1610156200071157838160ff16815181101515620005b557fe5b6020908102909101015115156200065357604080517f08c379a000000000000000000000000000000000000000000000000000000000815260206004820152603960248201527f5a65726f206973206e6f7420612076616c696420726174652c20706c6561736560448201527f2063616c6c2064656c6574655261746520696e73746561642e00000000000000606482015290519081900360840190fd5b838160ff168151811015156200066557fe5b9060200190602002015160046000878460ff168151811015156200068557fe5b90602001906020020151600160e060020a031916600160e060020a0319168152602001908152602001600020819055508260056000878460ff16815181101515620006cc57fe5b60209081029091018101517fffffffff000000000000000000000000000000000000000000000000000000001682528101919091526040016000205560010162000596565b600080516020620024678339815191528585604051808060200180602001838103835285818151815260200191508051906020019060200280838360005b83811015620007695781810151838201526020016200074f565b50505050905001838103825284818151815260200191508051906020019060200280838360005b83811015620007aa57818101518382015260200162000790565b5050505090500194505050505060405180910390a1620007d383640100000000620007de810204565b506001949350505050565b6000806060805b60058360ff1610156200088f57620008818460046000600860ff8816600581106200080c57fe5b600891828204019190066004029054906101000a90047c010000000000000000000000000000000000000000000000000000000002600160e060020a031916600160e060020a03191681526020019081526020016000205462000a9e640100000000026200158d179091906401000000009004565b9350600190920191620007e5565b7f48445200000000000000000000000000000000000000000000000000000000006000526000805160206200248783398151915284905560056020527f6530a12eb6f58126cd9e416435341efba62071e11a3906cd8b744df20fb43254859055604080516001808252818301909252908160200160208202803883390190505091507f48445200000000000000000000000000000000000000000000000000000000008260008151811015156200094257fe5b7fffffffff000000000000000000000000000000000000000000000000000000009290921660209283029190910182015260408051600180825281830190925291828101908038833950507f48445200000000000000000000000000000000000000000000000000000000006000908152600460205260008051602062002487833981519152548351939450928492508110620009db57fe5b9060200190602002018181525050600080516020620024678339815191528282604051808060200180602001838103835285818151815260200191508051906020019060200280838360005b8381101562000a4157818101518382015260200162000a27565b50505050905001838103825284818151815260200191508051906020019060200280838360005b8381101562000a8257818101518382015260200162000a68565b5050505090500194505050505060405180910390a15050505050565b60008282018381101562000ab157600080fd5b9392505050565b60018301918390821562000b635791602002820160005b8382111562000b2f57835183826101000a81548163ffffffff02191690837c010000000000000000000000000000000000000000000000000000000090040217905550926020019260040160208160030104928301926001030262000acf565b801562000b615782816101000a81549063ffffffff021916905560040160208160030104928301926001030262000b2f565b505b5062000b7192915062000b75565b5090565b62000b9991905b8082111562000b7157805463ffffffff1916815560010162000b7c565b90565b6118bb8062000bac6000396000f3006080604052600436106101455763ffffffff60e060020a6000350416630ee4951b811461014a5780631627540c1461017157806317c70de4146101945780631d2fed16146101a957806320714f88146101ec5780633278c9601461020d5780633608069414610222578063370d62ad1461024457806353a47bb7146102645780635dc2944a146102955780636559a38e1461033a57806379ba50971461036f57806379cb657a146103845780637adbf9731461039c5780637dc0d1d0146103bd57806389f8ab94146103d25780638da5cb5b146104275780639cb8a26a1461043c578063a461fc8214610451578063af1ff97214610466578063b8225dec14610488578063bd32aa441461049d578063c0e59e4d146104b2578063c58aaae6146104d4578063de5eb832146104e9578063e1686e721461050b578063ea3d41091461052d575b600080fd5b34801561015657600080fd5b5061015f61054f565b60408051918252519081900360200190f35b34801561017d57600080fd5b50610192600160a060020a0360043516610555565b005b3480156101a057600080fd5b5061015f61061a565b3480156101b557600080fd5b506101d86024600480358281019290820135918135918201910135604435610620565b604080519115158252519081900360200190f35b3480156101f857600080fd5b50610192600160a060020a0360043516610718565b34801561021957600080fd5b5061019261086b565b34801561022e57600080fd5b50610192600160e060020a031960043516610909565b34801561025057600080fd5b506101d86004803560248101910135610a5e565b34801561027057600080fd5b50610279610b22565b60408051600160a060020a039092168252519081900360200190f35b3480156102a157600080fd5b50604080516020600480358082013583810280860185019096528085526102ea95369593946024949385019291829185019084908082843750949750610b319650505050505050565b60408051602080825283518183015283519192839290830191858101910280838360005b8381101561032657818101518382015260200161030e565b505050509050019250505060405180910390f35b34801561034657600080fd5b50610352600435610bd1565b60408051600160e060020a03199092168252519081900360200190f35b34801561037b57600080fd5b50610192610bfe565b34801561039057600080fd5b50610192600435610d06565b3480156103a857600080fd5b50610192600160a060020a0360043516610da5565b3480156103c957600080fd5b50610279610e70565b3480156103de57600080fd5b50604080516020600480358082013583810280860185019096528085526102ea95369593946024949385019291829185019084908082843750949750610e7f9650505050505050565b34801561043357600080fd5b50610279610f1f565b34801561044857600080fd5b50610192610f2e565b34801561045d57600080fd5b5061015f6110f3565b34801561047257600080fd5b5061015f600160e060020a0319600435166110fa565b34801561049457600080fd5b506101d861111a565b3480156104a957600080fd5b50610192611123565b3480156104be57600080fd5b5061015f600160e060020a0319600435166111d0565b3480156104e057600080fd5b506102796111ec565b3480156104f557600080fd5b5061015f600160e060020a031960043516611200565b34801561051757600080fd5b5061015f600160e060020a031960043516611212565b34801561053957600080fd5b506101d8600160e060020a031960043516611224565b60075481565b600054600160a060020a031633146105b9576040805160e560020a62461bcd02815260206004820152602f60248201526000805160206118508339815191526044820152600080516020611870833981519152606482015290519081900360840190fd5b60018054600160a060020a03831673ffffffffffffffffffffffffffffffffffffffff19909116811790915560408051918252517f906a1c6bd7e3091ea86693dd029a831c19049ce77f1dce2ce0bab1cacbabce229181900360200190a150565b60025481565b600654600090600160a060020a031633146106ab576040805160e560020a62461bcd02815260206004820152602760248201527f4f6e6c7920746865206f7261636c652063616e20706572666f726d207468697360448201527f20616374696f6e00000000000000000000000000000000000000000000000000606482015290519081900360840190fd5b61070e8686808060200260200160405190810160405280939291908181526020018383602002808284375050604080516020808c0282810182019093528b82529095508b94508a9350839250850190849080828437508994506112969350505050565b9695505050505050565b600054600160a060020a0316331461077c576040805160e560020a62461bcd02815260206004820152602f60248201526000805160206118508339815191526044820152600080516020611870833981519152606482015290519081900360840190fd5b600160a060020a0381161515610802576040805160e560020a62461bcd02815260206004820152602860248201527f42656e6566696369617279206d757374206e6f7420626520746865207a65726f60448201527f2061646472657373000000000000000000000000000000000000000000000000606482015290519081900360840190fd5b60038054600160a060020a038316610100810274ffffffffffffffffffffffffffffffffffffffff00199092169190911790915560408051918252517fd5da63a0b864b315bc04128dedbc93888c8529ee6cf47ce664dc204339228c539181900360200190a150565b600054600160a060020a031633146108cf576040805160e560020a62461bcd02815260206004820152602f60248201526000805160206118508339815191526044820152600080516020611870833981519152606482015290519081900360840190fd5b600060028190556003805460ff191690556040517f6adcc7125002935e0aa31697538ebbd65cfddf20431eb6ecdcfc3e238bfd082c9190a1565b600654600160a060020a03163314610991576040805160e560020a62461bcd02815260206004820152602760248201527f4f6e6c7920746865206f7261636c652063616e20706572666f726d207468697360448201527f20616374696f6e00000000000000000000000000000000000000000000000000606482015290519081900360840190fd5b600160e060020a0319811660009081526004602052604081205411610a00576040805160e560020a62461bcd02815260206004820152600c60248201527f52617465206973207a65726f0000000000000000000000000000000000000000604482015290519081900360640190fd5b600160e060020a0319811660008181526004602090815260408083208390556005825280832092909255815192835290517f2cefb058ca1556b021b67f710e3df89c564650f01fef8cd944cbb14d7358680b9281900390910190a150565b6000805b82811015610b1657838382818110610a7657fe5b90506020020135600160e060020a031916600160e060020a0319167f6e5553440000000000000000000000000000000000000000000000000000000014158015610b00575042610afe600754600560008888878181101515610ad457fe5b60209081029290920135600160e060020a031916835250810191909152604001600020549061158d565b105b15610b0e5760019150610b1b565b600101610a62565b600091505b5092915050565b600154600160a060020a031681565b60608060008351604051908082528060200260200182016040528015610b61578160200160208202803883390190505b509150600090505b83518160ff161015610b1b5760046000858360ff16815181101515610b8a57fe5b6020908102909101810151600160e060020a0319168252810191909152604001600020548251839060ff8416908110610bbf57fe5b60209081029091010152600101610b69565b60088160058110610bde57fe5b60089182820401919006600402915054906101000a900460e060020a0281565b600154600160a060020a03163314610c86576040805160e560020a62461bcd02815260206004820152603560248201527f596f75206d757374206265206e6f6d696e61746564206265666f726520796f7560448201527f2063616e20616363657074206f776e6572736869700000000000000000000000606482015290519081900360840190fd5b60005460015460408051600160a060020a03938416815292909116602083015280517fb532073b38c83145e3e5135377a08bf9aab55bc0fd7c1179cd4fb995d2a5159c9281900390910190a1600180546000805473ffffffffffffffffffffffffffffffffffffffff19908116600160a060020a03841617909155169055565b600054600160a060020a03163314610d6a576040805160e560020a62461bcd02815260206004820152602f60248201526000805160206118508339815191526044820152600080516020611870833981519152606482015290519081900360840190fd5b60078190556040805182815290517f16529d8c407b08938da67de7fa4319199baffce4f5d1971f812cc770b0237e669181900360200190a150565b600054600160a060020a03163314610e09576040805160e560020a62461bcd02815260206004820152602f60248201526000805160206118508339815191526044820152600080516020611870833981519152606482015290519081900360840190fd5b6006805473ffffffffffffffffffffffffffffffffffffffff1916600160a060020a03838116919091179182905560408051929091168252517f3df77beb5db05fcdd70a30fc8adf3f83f9501b68579455adbd100b8180940394916020908290030190a150565b600654600160a060020a031681565b60608060008351604051908082528060200260200182016040528015610eaf578160200160208202803883390190505b509150600090505b83518160ff161015610b1b5760056000858360ff16815181101515610ed857fe5b6020908102909101810151600160e060020a0319168252810191909152604001600020548251839060ff8416908110610f0d57fe5b60209081029091010152600101610eb7565b600054600160a060020a031681565b60008054600160a060020a03163314610f93576040805160e560020a62461bcd02815260206004820152602f60248201526000805160206118508339815191526044820152600080516020611870833981519152606482015290519081900360840190fd5b60035460ff161515611015576040805160e560020a62461bcd02815260206004820152602860248201527f53656c6620646573747275637420686173206e6f7420796574206265656e206960448201527f6e69746961746564000000000000000000000000000000000000000000000000606482015290519081900360840190fd5b426224ea006002540110151561109b576040805160e560020a62461bcd02815260206004820152602760248201527f53656c662064657374727563742064656c617920686173206e6f74207965742060448201527f656c617073656400000000000000000000000000000000000000000000000000606482015290519081900360840190fd5b5060035460408051600160a060020a0361010090930492909216808352905190917f8a09e1677ced846cb537dc2b172043bd05a1a81ad7e0033a7ef8ba762df990b7919081900360200190a180600160a060020a0316ff5b6224ea0081565b600160e060020a031981166000908152600460205260409020545b919050565b60035460ff1681565b600054600160a060020a03163314611187576040805160e560020a62461bcd02815260206004820152602f60248201526000805160206118508339815191526044820152600080516020611870833981519152606482015290519081900360840190fd5b426002556003805460ff19166001179055604080516224ea00815290517fcbd94ca75b8dc45c9d80c77e851670e78843c0d75180cb81db3e2158228fa9a69181900360200190a1565b600160e060020a03191660009081526005602052604090205490565b6003546101009004600160a060020a031681565b60046020526000908152604090205481565b60056020526000908152604090205481565b60007f6e55534400000000000000000000000000000000000000000000000000000000600160e060020a03198316141561126057506000611115565b600754600160e060020a03198316600090815260056020526040902054429161128f919063ffffffff61158d16565b1092915050565b6000808351855114151561131a576040805160e560020a62461bcd02815260206004820152603860248201527f43757272656e6379206b6579206172726179206c656e677468206d757374206d60448201527f61746368207261746573206172726179206c656e6774682e0000000000000000606482015290519081900360840190fd5b42610258018310611375576040805160e560020a62461bcd02815260206004820152601f60248201527f54696d6520697320746f6f2066617220696e746f207468652066757475726500604482015290519081900360640190fd5b5060005b84518160ff1610156114be57838160ff1681518110151561139657fe5b60209081029091010151151561141c576040805160e560020a62461bcd02815260206004820152603960248201527f5a65726f206973206e6f7420612076616c696420726174652c20706c6561736560448201527f2063616c6c2064656c6574655261746520696e73746561642e00000000000000606482015290519081900360840190fd5b838160ff1681518110151561142d57fe5b9060200190602002015160046000878460ff1681518110151561144c57fe5b90602001906020020151600160e060020a031916600160e060020a0319168152602001908152602001600020819055508260056000878460ff1681518110151561149257fe5b6020908102909101810151600160e060020a031916825281019190915260400160002055600101611379565b7f7a72efae5f6b256f1ca71728b01f9dd7004ff3770dcaef4c44872b94d9f9e91b8585604051808060200180602001838103835285818151815260200191508051906020019060200280838360005b8381101561152557818101518382015260200161150d565b50505050905001838103825284818151815260200191508051906020019060200280838360005b8381101561156457818101518382015260200161154c565b5050505090500194505050505060405180910390a1611582836115a6565b506001949350505050565b60008282018381101561159f57600080fd5b9392505050565b6000806060805b60058360ff16101561162b5761161e8460046000600860ff8816600581106115d157fe5b600891828204019190066004029054906101000a900460e060020a02600160e060020a031916600160e060020a03191681526020019081526020016000205461158d90919063ffffffff16565b93506001909201916115ad565b7f48445200000000000000000000000000000000000000000000000000000000006000527ffeaa6eaac818b49023ba1f75c1b8001cbb2ebdfe5d623a252187fcea0a47c36784905560056020527f6530a12eb6f58126cd9e416435341efba62071e11a3906cd8b744df20fb43254859055604080516001808252818301909252908160200160208202803883390190505091507f48445200000000000000000000000000000000000000000000000000000000008260008151811015156116ee57fe5b600160e060020a03199290921660209283029190910182015260408051600180825281830190925291828101908038833950507f4844520000000000000000000000000000000000000000000000000000000000600090815260046020527ffeaa6eaac818b49023ba1f75c1b8001cbb2ebdfe5d623a252187fcea0a47c36754835193945092849250811061177f57fe5b90602001906020020181815250507f7a72efae5f6b256f1ca71728b01f9dd7004ff3770dcaef4c44872b94d9f9e91b8282604051808060200180602001838103835285818151815260200191508051906020019060200280838360005b838110156117f45781810151838201526020016117dc565b50505050905001838103825284818151815260200191508051906020019060200280838360005b8381101561183357818101518382015260200161181b565b5050505090500194505050505060405180910390a1505050505056004f6e6c792074686520636f6e7472616374206f776e6572206d617920706572666f726d207468697320616374696f6e0000000000000000000000000000000000a165627a7a723058208034c20999262fb251cfb77e95fd774c430cbf804bb61b7dfd26dfe629a95f4d00297a72efae5f6b256f1ca71728b01f9dd7004ff3770dcaef4c44872b94d9f9e91bfeaa6eaac818b49023ba1f75c1b8001cbb2ebdfe5d623a252187fcea0a47c367",
  "source": "/*\n-----------------------------------------------------------------\nFILE INFORMATION\n-----------------------------------------------------------------\n\nfile:       ExchangeRates.sol\nversion:    1.0\nauthor:     Kevin Brown\ndate:       2018-09-12\n\n-----------------------------------------------------------------\nMODULE DESCRIPTION\n-----------------------------------------------------------------\n\nA contract that any other contract in the Havven system can query\nfor the current market value of various assets, including\ncrypto assets as well as various fiat assets.\n\nThis contract assumes that rate updates will completely update\nall rates to their current values. If a rate shock happens\non a single asset, the oracle will still push updated rates \nfor all other assets.\n\n-----------------------------------------------------------------\n*/\n\npragma solidity 0.4.25;\n\nimport \"openzeppelin-solidity/contracts/math/SafeMath.sol\";\nimport \"./SafeDecimalMath.sol\";\nimport \"./SelfDestructible.sol\";\n\n/**\n * @title The repository for exchange rates\n */\ncontract ExchangeRates is SelfDestructible {\n\n    using SafeMath for uint;\n\n    // Exchange rates stored by currency code, e.g. 'HAV', or 'nUSD'\n    mapping(bytes4 => uint) public rates;\n\n    // Update times stored by currency code, e.g. 'HAV', or 'nUSD'\n    mapping(bytes4 => uint) public lastRateUpdateTimes;\n\n    // The address of the oracle which pushes rate updates to this contract\n    address public oracle;\n\n    // Do not allow the oracle to submit times any further forward into the future than this constant.\n    uint constant ORACLE_FUTURE_LIMIT = 10 minutes;\n\n    // How long will the contract assume the rate of any asset is correct \n    uint public rateStalePeriod = 3 hours;\n\n    // Each participating currency in the HDR basket is represented as a currency key with\n    // equal weighting.\n    // There are 5 participating currencies, so we'll declare that clearly.\n    bytes4[5] public hdrParticipants;\n\n    // \n    // ========== CONSTRUCTOR ==========\n\n    /**\n     * @dev Constructor\n     * @param _owner The owner of this contract.\n     * @param _oracle The address which is able to update rate information.\n     * @param _currencyKeys The initial currency rates to store (in order).\n     * @param _newRates The initial currency amounts for each currency (in order).\n     */\n    constructor(\n        // SelfDestructible (Ownable)\n        address _owner,\n\n        // Oracle values - Allows for rate updates\n        address _oracle,\n        bytes4[] _currencyKeys,\n        uint[] _newRates \n    )\n        /* Owned is initialised in SelfDestructible */\n        SelfDestructible(_owner)\n        public\n    {\n        require(_currencyKeys.length == _newRates.length, \"Currency key length and rate length must match.\");\n\n        oracle = _oracle;\n\n        // The nUSD rate is always 1 and is never stale.\n        rates[\"nUSD\"] = SafeDecimalMath.unit();\n\n        // These are the currencies that make up the HDR basket.\n        // These are hard coded because:\n        //  - This way users can depend on the calculation and know it won't change for this deployment of the contract.\n        //  - Adding new currencies would likely introduce some kind of weighting factor, which\n        //    isn't worth preemptively adding when all of the currencies in the current basket are weighted at 1.\n        //  - The expectation is if this logic needs to be updated, we'll simply deploy a new version of this contract\n        //    then point the system at the new version.\n        hdrParticipants = [\n            bytes4(\"nUSD\"),\n            bytes4(\"nAUD\"),\n            bytes4(\"nCHF\"),\n            bytes4(\"nEUR\"),\n            bytes4(\"nGBP\")\n        ];\n        \n        internalUpdateRates(_currencyKeys, _newRates, now);\n    }\n\n    /* ========== SETTERS ========== */\n\n    /**\n     * @notice Set the rates stored in this contract\n     * @param currencyKeys The currency keys you wish to update the rates for (in order)\n     * @param newRates The rates for each currency (in order)\n     * @param timeSent The timestamp of when the update was sent, specified in seconds since epoch (e.g. the same as the now keyword in solidity).contract\n     *                 This is useful because transactions can take a while to confirm, so this way we know how old the oracle's datapoint was exactly even\n     *                 if it takes a long time for the transaction to confirm.\n     */\n    function updateRates(bytes4[] currencyKeys, uint[] newRates, uint timeSent)\n        external \n        onlyOracle\n        returns(bool)\n    {\n        return internalUpdateRates(currencyKeys, newRates, timeSent);\n    }\n\n    /**\n     * @notice Internal function which sets the rates stored in this contract\n     * @param currencyKeys The currency keys you wish to update the rates for (in order)\n     * @param newRates The rates for each currency (in order)\n     * @param timeSent The timestamp of when the update was sent, specified in seconds since epoch (e.g. the same as the now keyword in solidity).contract\n     *                 This is useful because transactions can take a while to confirm, so this way we know how old the oracle's datapoint was exactly even\n     *                 if it takes a long time for the transaction to confirm.\n     */\n    function internalUpdateRates(bytes4[] currencyKeys, uint[] newRates, uint timeSent)\n        internal \n        returns(bool)\n    {\n        require(currencyKeys.length == newRates.length, \"Currency key array length must match rates array length.\");\n        require(timeSent < (now + ORACLE_FUTURE_LIMIT), \"Time is too far into the future\");\n\n        // Loop through each key and perform update.\n        for (uint8 i = 0; i < currencyKeys.length; i++) {\n            // Should not set any rate to zero ever, as no asset will ever be\n            // truely worthless and still valid. In this scenario, we should\n            // delete the rate and remove it from the system.\n            require(newRates[i] != 0, \"Zero is not a valid rate, please call deleteRate instead.\");\n\n            rates[currencyKeys[i]] = newRates[i];\n            lastRateUpdateTimes[currencyKeys[i]] = timeSent;\n        }\n\n        emit RatesUpdated(currencyKeys, newRates);\n\n        // Now update our HDR rate.\n        updateHDRRate(timeSent);\n\n        return true;\n    }\n\n    /**\n     * @notice Update the Havven Drawing Rights exchange rate based on other rates already updated.\n     */\n    function updateHDRRate(uint timeSent)\n        internal\n    {\n        uint total = 0;\n\n        for (uint8 i = 0; i < hdrParticipants.length; i++) {\n            total = rates[hdrParticipants[i]].add(total);\n        }\n\n        // Set the rate\n        rates[\"HDR\"] = total;\n\n        // Record that we updated the HDR rate.\n        lastRateUpdateTimes[\"HDR\"] = timeSent;\n\n        // Emit our updated event separate to the others to save\n        // moving data around between arrays.\n        bytes4[] memory eventCurrencyCode = new bytes4[](1);\n        eventCurrencyCode[0] = \"HDR\";\n\n        uint[] memory eventRate = new uint[](1);\n        eventRate[0] = rates[\"HDR\"];\n\n        emit RatesUpdated(eventCurrencyCode, eventRate);\n    }\n\n    /**\n     * @notice Delete a rate stored in the contract\n     * @param currencyKey The currency key you wish to delete the rate for\n     */\n    function deleteRate(bytes4 currencyKey)\n        external\n        onlyOracle\n    {\n        require(rates[currencyKey] > 0, \"Rate is zero\");\n\n        delete rates[currencyKey];\n        delete lastRateUpdateTimes[currencyKey];\n\n        emit RateDeleted(currencyKey);\n    }\n\n    /**\n     * @notice Set the Oracle that pushes the rate information to this contract\n     * @param _oracle The new oracle address\n     */\n    function setOracle(address _oracle)\n        external\n        onlyOwner\n    {\n        oracle = _oracle;\n        emit OracleUpdated(oracle);\n    }\n\n    /**\n     * @notice Set the stale period on the updated rate variables\n     * @param _time The new rateStalePeriod\n     */\n    function setRateStalePeriod(uint _time)\n        external\n        onlyOwner \n    {\n        rateStalePeriod = _time;\n        emit RateStalePeriodUpdated(rateStalePeriod);\n    }\n\n    /* ========== VIEWS ========== */\n\n    /**\n     * @notice Retrieve the rate for a specific currency\n     */\n    function rateForCurrency(bytes4 currencyKey)\n        public\n        view\n        returns (uint)\n    {\n        return rates[currencyKey];\n    }\n\n    /**\n     * @notice Retrieve the rates for a set of currencies\n     */\n    function ratesForCurrencies(bytes4[] currencyKeys)\n        public\n        view\n        returns (uint[])\n    {\n        uint[] memory _rates = new uint[](currencyKeys.length);\n\n        for (uint8 i = 0; i < currencyKeys.length; i++) {\n            _rates[i] = rates[currencyKeys[i]];\n        }\n\n        return _rates;\n    }\n\n    /**\n     * @notice Retrieve the last update time for a specific currency\n     */\n    function lastRateUpdateTimeForCurrency(bytes4 currencyKey)\n        public\n        view\n        returns (uint)\n    {\n        return lastRateUpdateTimes[currencyKey];\n    }\n\n    /**\n     * @notice Retrieve the last update time for a specific currency\n     */\n    function lastRateUpdateTimesForCurrencies(bytes4[] currencyKeys)\n        public\n        view\n        returns (uint[])\n    {\n        uint[] memory lastUpdateTimes = new uint[](currencyKeys.length);\n\n        for (uint8 i = 0; i < currencyKeys.length; i++) {\n            lastUpdateTimes[i] = lastRateUpdateTimes[currencyKeys[i]];\n        }\n\n        return lastUpdateTimes;\n    }\n\n    /**\n     * @notice Check if a specific currency's rate hasn't been updated for longer than the stale period.\n     */\n    function rateIsStale(bytes4 currencyKey)\n        external \n        view\n        returns (bool)\n    {\n        // nUSD is a special case and is never stale.\n        if (currencyKey == \"nUSD\") return false;\n\n        return lastRateUpdateTimes[currencyKey].add(rateStalePeriod) < now;\n    }\n\n    /**\n     * @notice Check if any of the currency rates passed in haven't been updated for longer than the stale period.\n     */\n    function anyRateIsStale(bytes4[] currencyKeys)\n        external\n        view\n        returns (bool)\n    {\n        // Loop through each key and check whether the data point is stale.\n        uint256 i = 0;\n        \n        while (i < currencyKeys.length) {\n            // nUSD is a special case and is never false\n            if (currencyKeys[i] != \"nUSD\" && lastRateUpdateTimes[currencyKeys[i]].add(rateStalePeriod) < now) {\n                return true;\n            }\n            i += 1;\n        }\n\n        return false;\n    }\n\n    /* ========== MODIFIERS ========== */\n\n    modifier onlyOracle\n    {\n        require(msg.sender == oracle, \"Only the oracle can perform this action\");\n        _;\n    }\n\n    /* ========== EVENTS ========== */\n\n    event OracleUpdated(address newOracle);\n    event RateStalePeriodUpdated(uint rateStalePeriod);\n    event RatesUpdated(bytes4[] currencyKeys, uint[] newRates);\n    event RateDeleted(bytes4 currencyKey);\n}",
  "sourcePath": "/Users/clintonennis/Projects/havven/havven/contracts/ExchangeRates.sol",
  "compiler": {
    "name": "solc",
    "version": "0.4.25+commit.59dbf8f1.Emscripten.clang"
  },
  "schemaVersion": "3.0.0-beta.1",
  "updatedAt": "2018-11-21T03:50:47.534Z"
}