{
  "contractName": "FeePool",
  "abi": [
    {
      "constant": true,
      "inputs": [],
      "name": "exchangeFeeRate",
      "outputs": [
        {
          "name": "",
          "type": "uint256"
        }
      ],
      "payable": false,
      "stateMutability": "view",
      "type": "function"
    },
    {
      "constant": false,
      "inputs": [
        {
          "name": "_owner",
          "type": "address"
        }
      ],
      "name": "nominateNewOwner",
      "outputs": [],
      "payable": false,
      "stateMutability": "nonpayable",
      "type": "function"
    },
    {
      "constant": true,
      "inputs": [],
      "name": "initiationTime",
      "outputs": [
        {
          "name": "",
          "type": "uint256"
        }
      ],
      "payable": false,
      "stateMutability": "view",
      "type": "function"
    },
    {
      "constant": false,
      "inputs": [
        {
          "name": "_beneficiary",
          "type": "address"
        }
      ],
      "name": "setSelfDestructBeneficiary",
      "outputs": [],
      "payable": false,
      "stateMutability": "nonpayable",
      "type": "function"
    },
    {
      "constant": true,
      "inputs": [],
      "name": "feePeriodDuration",
      "outputs": [
        {
          "name": "",
          "type": "uint256"
        }
      ],
      "payable": false,
      "stateMutability": "view",
      "type": "function"
    },
    {
      "constant": true,
      "inputs": [],
      "name": "feeAuthority",
      "outputs": [
        {
          "name": "",
          "type": "address"
        }
      ],
      "payable": false,
      "stateMutability": "view",
      "type": "function"
    },
    {
      "constant": false,
      "inputs": [],
      "name": "terminateSelfDestruct",
      "outputs": [],
      "payable": false,
      "stateMutability": "nonpayable",
      "type": "function"
    },
    {
      "constant": true,
      "inputs": [],
      "name": "transferFeeRate",
      "outputs": [
        {
          "name": "",
          "type": "uint256"
        }
      ],
      "payable": false,
      "stateMutability": "view",
      "type": "function"
    },
    {
      "constant": true,
      "inputs": [
        {
          "name": "",
          "type": "uint256"
        }
      ],
      "name": "recentFeePeriods",
      "outputs": [
        {
          "name": "feePeriodId",
          "type": "uint256"
        },
        {
          "name": "startingDebtIndex",
          "type": "uint256"
        },
        {
          "name": "startTime",
          "type": "uint256"
        },
        {
          "name": "feesToDistribute",
          "type": "uint256"
        },
        {
          "name": "feesClaimed",
          "type": "uint256"
        }
      ],
      "payable": false,
      "stateMutability": "view",
      "type": "function"
    },
    {
      "constant": true,
      "inputs": [],
      "name": "nominatedOwner",
      "outputs": [
        {
          "name": "",
          "type": "address"
        }
      ],
      "payable": false,
      "stateMutability": "view",
      "type": "function"
    },
    {
      "constant": true,
      "inputs": [],
      "name": "nextFeePeriodId",
      "outputs": [
        {
          "name": "",
          "type": "uint256"
        }
      ],
      "payable": false,
      "stateMutability": "view",
      "type": "function"
    },
    {
      "constant": true,
      "inputs": [],
      "name": "MAX_TRANSFER_FEE_RATE",
      "outputs": [
        {
          "name": "",
          "type": "uint256"
        }
      ],
      "payable": false,
      "stateMutability": "view",
      "type": "function"
    },
    {
      "constant": false,
      "inputs": [],
      "name": "acceptOwnership",
      "outputs": [],
      "payable": false,
      "stateMutability": "nonpayable",
      "type": "function"
    },
    {
      "constant": true,
      "inputs": [
        {
          "name": "",
          "type": "address"
        }
      ],
      "name": "lastFeeWithdrawal",
      "outputs": [
        {
          "name": "",
          "type": "uint256"
        }
      ],
      "payable": false,
      "stateMutability": "view",
      "type": "function"
    },
    {
      "constant": true,
      "inputs": [],
      "name": "owner",
      "outputs": [
        {
          "name": "",
          "type": "address"
        }
      ],
      "payable": false,
      "stateMutability": "view",
      "type": "function"
    },
    {
      "constant": false,
      "inputs": [
        {
          "name": "_proxy",
          "type": "address"
        }
      ],
      "name": "setProxy",
      "outputs": [],
      "payable": false,
      "stateMutability": "nonpayable",
      "type": "function"
    },
    {
      "constant": true,
      "inputs": [],
      "name": "havven",
      "outputs": [
        {
          "name": "",
          "type": "address"
        }
      ],
      "payable": false,
      "stateMutability": "view",
      "type": "function"
    },
    {
      "constant": false,
      "inputs": [],
      "name": "selfDestruct",
      "outputs": [],
      "payable": false,
      "stateMutability": "nonpayable",
      "type": "function"
    },
    {
      "constant": true,
      "inputs": [],
      "name": "SELFDESTRUCT_DELAY",
      "outputs": [
        {
          "name": "",
          "type": "uint256"
        }
      ],
      "payable": false,
      "stateMutability": "view",
      "type": "function"
    },
    {
      "constant": true,
      "inputs": [],
      "name": "selfDestructInitiated",
      "outputs": [
        {
          "name": "",
          "type": "bool"
        }
      ],
      "payable": false,
      "stateMutability": "view",
      "type": "function"
    },
    {
      "constant": false,
      "inputs": [
        {
          "name": "sender",
          "type": "address"
        }
      ],
      "name": "setMessageSender",
      "outputs": [],
      "payable": false,
      "stateMutability": "nonpayable",
      "type": "function"
    },
    {
      "constant": false,
      "inputs": [],
      "name": "initiateSelfDestruct",
      "outputs": [],
      "payable": false,
      "stateMutability": "nonpayable",
      "type": "function"
    },
    {
      "constant": true,
      "inputs": [],
      "name": "selfDestructBeneficiary",
      "outputs": [
        {
          "name": "",
          "type": "address"
        }
      ],
      "payable": false,
      "stateMutability": "view",
      "type": "function"
    },
    {
      "constant": true,
      "inputs": [],
      "name": "FEE_PERIOD_LENGTH",
      "outputs": [
        {
          "name": "",
          "type": "uint8"
        }
      ],
      "payable": false,
      "stateMutability": "view",
      "type": "function"
    },
    {
      "constant": true,
      "inputs": [],
      "name": "MIN_FEE_PERIOD_DURATION",
      "outputs": [
        {
          "name": "",
          "type": "uint256"
        }
      ],
      "payable": false,
      "stateMutability": "view",
      "type": "function"
    },
    {
      "constant": true,
      "inputs": [],
      "name": "FEE_ADDRESS",
      "outputs": [
        {
          "name": "",
          "type": "address"
        }
      ],
      "payable": false,
      "stateMutability": "view",
      "type": "function"
    },
    {
      "constant": true,
      "inputs": [],
      "name": "proxy",
      "outputs": [
        {
          "name": "",
          "type": "address"
        }
      ],
      "payable": false,
      "stateMutability": "view",
      "type": "function"
    },
    {
      "constant": true,
      "inputs": [],
      "name": "MAX_FEE_PERIOD_DURATION",
      "outputs": [
        {
          "name": "",
          "type": "uint256"
        }
      ],
      "payable": false,
      "stateMutability": "view",
      "type": "function"
    },
    {
      "constant": true,
      "inputs": [],
      "name": "MAX_EXCHANGE_FEE_RATE",
      "outputs": [
        {
          "name": "",
          "type": "uint256"
        }
      ],
      "payable": false,
      "stateMutability": "view",
      "type": "function"
    },
    {
      "inputs": [
        {
          "name": "_proxy",
          "type": "address"
        },
        {
          "name": "_owner",
          "type": "address"
        },
        {
          "name": "_havven",
          "type": "address"
        },
        {
          "name": "_feeAuthority",
          "type": "address"
        },
        {
          "name": "_transferFeeRate",
          "type": "uint256"
        },
        {
          "name": "_exchangeFeeRate",
          "type": "uint256"
        }
      ],
      "payable": false,
      "stateMutability": "nonpayable",
      "type": "constructor"
    },
    {
      "anonymous": false,
      "inputs": [
        {
          "indexed": false,
          "name": "newFeeRate",
          "type": "uint256"
        }
      ],
      "name": "TransferFeeUpdated",
      "type": "event"
    },
    {
      "anonymous": false,
      "inputs": [
        {
          "indexed": false,
          "name": "newFeeRate",
          "type": "uint256"
        }
      ],
      "name": "ExchangeFeeUpdated",
      "type": "event"
    },
    {
      "anonymous": false,
      "inputs": [
        {
          "indexed": false,
          "name": "newFeePeriodDuration",
          "type": "uint256"
        }
      ],
      "name": "FeePeriodDurationUpdated",
      "type": "event"
    },
    {
      "anonymous": false,
      "inputs": [
        {
          "indexed": false,
          "name": "newFeeAuthority",
          "type": "address"
        }
      ],
      "name": "FeeAuthorityUpdated",
      "type": "event"
    },
    {
      "anonymous": false,
      "inputs": [
        {
          "indexed": false,
          "name": "feePeriodId",
          "type": "uint256"
        }
      ],
      "name": "FeePeriodClosed",
      "type": "event"
    },
    {
      "anonymous": false,
      "inputs": [
        {
          "indexed": false,
          "name": "account",
          "type": "address"
        },
        {
          "indexed": false,
          "name": "hdrAmount",
          "type": "uint256"
        }
      ],
      "name": "FeesClaimed",
      "type": "event"
    },
    {
      "anonymous": false,
      "inputs": [
        {
          "indexed": false,
          "name": "newHavven",
          "type": "address"
        }
      ],
      "name": "HavvenUpdated",
      "type": "event"
    },
    {
      "anonymous": false,
      "inputs": [],
      "name": "SelfDestructTerminated",
      "type": "event"
    },
    {
      "anonymous": false,
      "inputs": [
        {
          "indexed": false,
          "name": "beneficiary",
          "type": "address"
        }
      ],
      "name": "SelfDestructed",
      "type": "event"
    },
    {
      "anonymous": false,
      "inputs": [
        {
          "indexed": false,
          "name": "selfDestructDelay",
          "type": "uint256"
        }
      ],
      "name": "SelfDestructInitiated",
      "type": "event"
    },
    {
      "anonymous": false,
      "inputs": [
        {
          "indexed": false,
          "name": "newBeneficiary",
          "type": "address"
        }
      ],
      "name": "SelfDestructBeneficiaryUpdated",
      "type": "event"
    },
    {
      "anonymous": false,
      "inputs": [
        {
          "indexed": false,
          "name": "proxyAddress",
          "type": "address"
        }
      ],
      "name": "ProxyUpdated",
      "type": "event"
    },
    {
      "anonymous": false,
      "inputs": [
        {
          "indexed": false,
          "name": "newOwner",
          "type": "address"
        }
      ],
      "name": "OwnerNominated",
      "type": "event"
    },
    {
      "anonymous": false,
      "inputs": [
        {
          "indexed": false,
          "name": "oldOwner",
          "type": "address"
        },
        {
          "indexed": false,
          "name": "newOwner",
          "type": "address"
        }
      ],
      "name": "OwnerChanged",
      "type": "event"
    },
    {
      "constant": false,
      "inputs": [
        {
          "name": "_exchangeFeeRate",
          "type": "uint256"
        }
      ],
      "name": "setExchangeFeeRate",
      "outputs": [],
      "payable": false,
      "stateMutability": "nonpayable",
      "type": "function"
    },
    {
      "constant": false,
      "inputs": [
        {
          "name": "_transferFeeRate",
          "type": "uint256"
        }
      ],
      "name": "setTransferFeeRate",
      "outputs": [],
      "payable": false,
      "stateMutability": "nonpayable",
      "type": "function"
    },
    {
      "constant": false,
      "inputs": [
        {
          "name": "_feeAuthority",
          "type": "address"
        }
      ],
      "name": "setFeeAuthority",
      "outputs": [],
      "payable": false,
      "stateMutability": "nonpayable",
      "type": "function"
    },
    {
      "constant": false,
      "inputs": [
        {
          "name": "_feePeriodDuration",
          "type": "uint256"
        }
      ],
      "name": "setFeePeriodDuration",
      "outputs": [],
      "payable": false,
      "stateMutability": "nonpayable",
      "type": "function"
    },
    {
      "constant": false,
      "inputs": [
        {
          "name": "_havven",
          "type": "address"
        }
      ],
      "name": "setHavven",
      "outputs": [],
      "payable": false,
      "stateMutability": "nonpayable",
      "type": "function"
    },
    {
      "constant": false,
      "inputs": [
        {
          "name": "currencyKey",
          "type": "bytes4"
        },
        {
          "name": "amount",
          "type": "uint256"
        }
      ],
      "name": "feePaid",
      "outputs": [],
      "payable": false,
      "stateMutability": "nonpayable",
      "type": "function"
    },
    {
      "constant": false,
      "inputs": [],
      "name": "closeCurrentFeePeriod",
      "outputs": [],
      "payable": false,
      "stateMutability": "nonpayable",
      "type": "function"
    },
    {
      "constant": false,
      "inputs": [
        {
          "name": "currencyKey",
          "type": "bytes4"
        }
      ],
      "name": "claimFees",
      "outputs": [
        {
          "name": "",
          "type": "bool"
        }
      ],
      "payable": false,
      "stateMutability": "nonpayable",
      "type": "function"
    },
    {
      "constant": true,
      "inputs": [
        {
          "name": "value",
          "type": "uint256"
        }
      ],
      "name": "transferFeeIncurred",
      "outputs": [
        {
          "name": "",
          "type": "uint256"
        }
      ],
      "payable": false,
      "stateMutability": "view",
      "type": "function"
    },
    {
      "constant": true,
      "inputs": [
        {
          "name": "value",
          "type": "uint256"
        }
      ],
      "name": "transferredAmountToReceive",
      "outputs": [
        {
          "name": "",
          "type": "uint256"
        }
      ],
      "payable": false,
      "stateMutability": "view",
      "type": "function"
    },
    {
      "constant": true,
      "inputs": [
        {
          "name": "value",
          "type": "uint256"
        }
      ],
      "name": "amountReceivedFromTransfer",
      "outputs": [
        {
          "name": "",
          "type": "uint256"
        }
      ],
      "payable": false,
      "stateMutability": "view",
      "type": "function"
    },
    {
      "constant": true,
      "inputs": [
        {
          "name": "value",
          "type": "uint256"
        }
      ],
      "name": "exchangeFeeIncurred",
      "outputs": [
        {
          "name": "",
          "type": "uint256"
        }
      ],
      "payable": false,
      "stateMutability": "view",
      "type": "function"
    },
    {
      "constant": true,
      "inputs": [
        {
          "name": "value",
          "type": "uint256"
        }
      ],
      "name": "exchangedAmountToReceive",
      "outputs": [
        {
          "name": "",
          "type": "uint256"
        }
      ],
      "payable": false,
      "stateMutability": "view",
      "type": "function"
    },
    {
      "constant": true,
      "inputs": [
        {
          "name": "value",
          "type": "uint256"
        }
      ],
      "name": "amountReceivedFromExchange",
      "outputs": [
        {
          "name": "",
          "type": "uint256"
        }
      ],
      "payable": false,
      "stateMutability": "view",
      "type": "function"
    },
    {
      "constant": true,
      "inputs": [
        {
          "name": "currencyKey",
          "type": "bytes4"
        }
      ],
      "name": "totalFeesAvailable",
      "outputs": [
        {
          "name": "",
          "type": "uint256"
        }
      ],
      "payable": false,
      "stateMutability": "view",
      "type": "function"
    },
    {
      "constant": true,
      "inputs": [
        {
          "name": "account",
          "type": "address"
        },
        {
          "name": "currencyKey",
          "type": "bytes4"
        }
      ],
      "name": "feesAvailable",
      "outputs": [
        {
          "name": "",
          "type": "uint256"
        }
      ],
      "payable": false,
      "stateMutability": "view",
      "type": "function"
    },
    {
      "constant": true,
      "inputs": [
        {
          "name": "account",
          "type": "address"
        }
      ],
      "name": "currentPenalty",
      "outputs": [
        {
          "name": "",
          "type": "uint256"
        }
      ],
      "payable": false,
      "stateMutability": "view",
      "type": "function"
    },
    {
      "constant": true,
      "inputs": [
        {
          "name": "account",
          "type": "address"
        }
      ],
      "name": "feesByPeriod",
      "outputs": [
        {
          "name": "",
          "type": "uint256[6]"
        }
      ],
      "payable": false,
      "stateMutability": "view",
      "type": "function"
    }
  ],
  "bytecode": "0x608060405262093a806029553480156200001857600080fd5b5060405160c08062003ef283398101604090815281516020830151918301516060840151608085015160a0909501519294919290919084868180600160a060020a0381161515620000ca57604080517f08c379a000000000000000000000000000000000000000000000000000000000815260206004820152601960248201527f4f776e657220616464726573732063616e6e6f74206265203000000000000000604482015290519081900360640190fd5b60008054600160a060020a031916600160a060020a038316908117825560408051928352602083019190915280517fb532073b38c83145e3e5135377a08bf9aab55bc0fd7c1179cd4fb995d2a5159c9281900390910190a15060028054600160a060020a038416600160a060020a0319909116811790915560408051918252517ffc80377ca9c49cc11ae6982f390a42db976d5530af7c43889264b13fbbd7c57e9181900360200190a15050600160a060020a03811615156200021457604080517f08c379a000000000000000000000000000000000000000000000000000000000815260206004820152602260248201527f4f776e6572206d757374206e6f7420626520746865207a65726f20616464726560448201527f7373000000000000000000000000000000000000000000000000000000000000606482015290519081900360840190fd5b60058054600160a060020a038316610100810261010060a860020a03199092169190911790915560408051918252517fd5da63a0b864b315bc04128dedbc93888c8529ee6cf47ce664dc204339228c539181900360200190a150600a73__SafeDecimalMath_______________________63907af6c06040518163ffffffff167c010000000000000000000000000000000000000000000000000000000002815260040160206040518083038186803b158015620002d157600080fd5b505af4158015620002e6573d6000803e3d6000fd5b505050506040513d6020811015620002fd57600080fd5b50518115156200030957fe5b04821115620003b457604080517f08c379a000000000000000000000000000000000000000000000000000000000815260206004820152604160248201527f436f6e7374727563746564207472616e73666572206665652072617465207368604482015260008051602062003ed283398151915260648201527f6500000000000000000000000000000000000000000000000000000000000000608482015290519081900360a40190fd5b600a73__SafeDecimalMath_______________________63907af6c06040518163ffffffff167c010000000000000000000000000000000000000000000000000000000002815260040160206040518083038186803b1580156200041757600080fd5b505af41580156200042c573d6000803e3d6000fd5b505050506040513d60208110156200044357600080fd5b50518115156200044f57fe5b04811115620004fa57604080517f08c379a000000000000000000000000000000000000000000000000000000000815260206004820152604160248201527f436f6e73747275637465642065786368616e6765206665652072617465207368604482015260008051602062003ed283398151915260648201527f6500000000000000000000000000000000000000000000000000000000000000608482015290519081900360a40190fd5b60068054600160a060020a03958616600160a060020a031991821617909155600980549490951693169290921790925560079190915560085550506001600a556000600b81905542600c55600d81905560026028556139729081906200056090396000f3006080604052600436106102215763ffffffff60e060020a60003504166304c49f2c81146102265780630f9b49551461024057806310adda0e146102675780631627540c1461029557806317c70de4146102b657806320714f88146102cb57806322425fa4146102ec57806331dbd8a5146103015780633278c960146103325780633314001614610347578063351bf518146103a05780633ebc457a146103b55780633fcd2240146103ca5780634fa2b0a51461040d57806353a47bb71461042e578063578a791d14610443578063639cd59c1461045b57806367fbc4501461047d57806376d752a11461049257806379ba5097146104a75780638a957929146104bc5780638cf61204146104dd5780638da5cb5b146104fe57806397107d6d146105135780639c4de81f146105345780639cb8a26a14610549578063a3fd6d0e1461055e578063a461fc8214610583578063b6dc8e2514610598578063b7fcfa69146105b0578063b8225dec146105c8578063bc67f832146105f1578063bd32aa4414610612578063c58aaae614610627578063c894e1e51461063c578063cc9b31c914610654578063cd503c0b1461066c578063cf427d1b1461068e578063cff2ddad146106af578063d62ae399146106da578063da46e6c4146106ef578063e05bac8214610707578063e9d36c561461071f578063eb1edd6114610737578063ec5568891461074c578063f344da6714610761578063fb1b4c7e14610492575b600080fd5b34801561023257600080fd5b5061023e600435610776565b005b34801561024c57600080fd5b5061025561093e565b60408051918252519081900360200190f35b34801561027357600080fd5b50610255600160a060020a0360043516600160e060020a031960243516610944565b3480156102a157600080fd5b5061023e600160a060020a0360043516610a44565b3480156102c257600080fd5b50610255610afc565b3480156102d757600080fd5b5061023e600160a060020a0360043516610b02565b3480156102f857600080fd5b50610255610c55565b34801561030d57600080fd5b50610316610c5b565b60408051600160a060020a039092168252519081900360200190f35b34801561033e57600080fd5b5061023e610c6a565b34801561035357600080fd5b50610368600160a060020a0360043516610d08565b604051808260c080838360005b8381101561038d578181015183820152602001610375565b5050505090500191505060405180910390f35b3480156103ac57600080fd5b506102556110c0565b3480156103c157600080fd5b5061023e6110c6565b3480156103d657600080fd5b506103e2600435611507565b6040805195865260208601949094528484019290925260608401526080830152519081900360a00190f35b34801561041957600080fd5b5061023e600160a060020a0360043516611539565b34801561043a57600080fd5b5061031661164c565b34801561044f57600080fd5b5061023e60043561165b565b34801561046757600080fd5b50610255600160e060020a0319600435166117f4565b34801561048957600080fd5b50610255611909565b34801561049e57600080fd5b5061025561190f565b3480156104b357600080fd5b5061023e611991565b3480156104c857600080fd5b5061023e600160a060020a0360043516611a8c565b3480156104e957600080fd5b50610255600160a060020a0360043516611b3f565b34801561050a57600080fd5b50610316611b51565b34801561051f57600080fd5b5061023e600160a060020a0360043516611b60565b34801561054057600080fd5b50610316611c18565b34801561055557600080fd5b5061023e611c27565b34801561056a57600080fd5b5061023e600160e060020a031960043516602435611dec565b34801561058f57600080fd5b50610255611f30565b3480156105a457600080fd5b50610255600435611f37565b3480156105bc57600080fd5b50610255600435611f58565b3480156105d457600080fd5b506105dd611fef565b604080519115158252519081900360200190f35b3480156105fd57600080fd5b5061023e600160a060020a0360043516611ff8565b34801561061e57600080fd5b5061023e6120a2565b34801561063357600080fd5b5061031661214f565b34801561064857600080fd5b5061023e600435612163565b34801561066057600080fd5b506102556004356122fc565b34801561067857600080fd5b506105dd600160e060020a031960043516612313565b34801561069a57600080fd5b50610255600160a060020a036004351661243b565b3480156106bb57600080fd5b506106c4612941565b6040805160ff9092168252519081900360200190f35b3480156106e657600080fd5b50610255612946565b3480156106fb57600080fd5b5061025560043561294d565b34801561071357600080fd5b50610255600435612964565b34801561072b57600080fd5b506102556004356129ee565b34801561074357600080fd5b506103166129fc565b34801561075857600080fd5b50610316612a14565b34801561076d57600080fd5b50610255612a23565b600254600160a060020a0316331461079b5760038054600160a060020a031916331790555b600054600354600160a060020a03908116911614610805576040805160e560020a62461bcd02815260206004820152602e60248201526000805160206138e78339815191526044820152600080516020613927833981519152606482015290519081900360840190fd5b62015180811015610886576040805160e560020a62461bcd02815260206004820152603e60248201527f4e65772066656520706572696f642063616e6e6f74206265206c65737320746860448201527f616e206d696e696d756d2066656520706572696f64206475726174696f6e0000606482015290519081900360840190fd5b624f1a0081111561092d576040805160e560020a62461bcd02815260206004820152604160248201527f4e65772066656520706572696f642063616e6e6f74206265206772656174657260448201527f207468616e206d6178696d756d2066656520706572696f64206475726174696f60648201527f6e00000000000000000000000000000000000000000000000000000000000000608482015290519081900360a40190fd5b602981905561093b81612a2a565b50565b60085481565b600061094e613877565b60008061095a86610d08565b925060009150600190505b600660ff8216101561099f576109958360ff83166006811061098357fe5b6020020151839063ffffffff612b9016565b9150600101610965565b6006546040805160e660020a62e759bf02815260e960020a6224222902600482015260248101859052600160e060020a0319881660448201529051600160a060020a03909216916339d66fc0916064808201926020929091908290030181600087803b158015610a0e57600080fd5b505af1158015610a22573d6000803e3d6000fd5b505050506040513d6020811015610a3857600080fd5b50519695505050505050565b600054600160a060020a03163314610aa8576040805160e560020a62461bcd02815260206004820152602f60248201526000805160206138c78339815191526044820152600080516020613907833981519152606482015290519081900360840190fd5b60018054600160a060020a038316600160a060020a0319909116811790915560408051918252517f906a1c6bd7e3091ea86693dd029a831c19049ce77f1dce2ce0bab1cacbabce229181900360200190a150565b60045481565b600054600160a060020a03163314610b66576040805160e560020a62461bcd02815260206004820152602f60248201526000805160206138c78339815191526044820152600080516020613907833981519152606482015290519081900360840190fd5b600160a060020a0381161515610bec576040805160e560020a62461bcd02815260206004820152602860248201527f42656e6566696369617279206d757374206e6f7420626520746865207a65726f60448201527f2061646472657373000000000000000000000000000000000000000000000000606482015290519081900360840190fd5b60058054600160a060020a038316610100810274ffffffffffffffffffffffffffffffffffffffff00199092169190911790915560408051918252517fd5da63a0b864b315bc04128dedbc93888c8529ee6cf47ce664dc204339228c539181900360200190a150565b60295481565b600954600160a060020a031681565b600054600160a060020a03163314610cce576040805160e560020a62461bcd02815260206004820152602f60248201526000805160206138c78339815191526044820152600080516020613907833981519152606482015290519081900360840190fd5b600060048190556005805460ff191690556040517f6adcc7125002935e0aa31697538ebbd65cfddf20431eb6ecdcfc3e238bfd082c9190a1565b610d10613877565b600080600080600080610d21613877565b600080600080600660009054906101000a9004600160a060020a0316600160a060020a03166384f7efc66040518163ffffffff1660e060020a028152600401602060405180830381600087803b158015610d7a57600080fd5b505af1158015610d8e573d6000803e3d6000fd5b505050506040513d6020811015610da457600080fd5b8101908080519060200190929190505050600160a060020a0316638b3f80888e6040518263ffffffff1660e060020a0281526004018082600160a060020a0316600160a060020a031681526020019150506040805180830381600087803b158015610e0e57600080fd5b505af1158015610e22573d6000803e3d6000fd5b505050506040513d6040811015610e3857600080fd5b810190808051906020019092919080519060200190929190505050809b50819c505050600660009054906101000a9004600160a060020a0316600160a060020a031663274ed2888e6040518263ffffffff1660e060020a0281526004018082600160a060020a0316600160a060020a031681526020018060e960020a6224222902815250602001915050602060405180830381600087803b158015610edc57600080fd5b505af1158015610ef0573d6000803e3d6000fd5b505050506040513d6020811015610f0657600080fd5b5051600654604080517fe8dc7eed00000000000000000000000000000000000000000000000000000000815260e960020a622422290260048201529051929b50600160a060020a039091169163e8dc7eed916024808201926020929091908290030181600087803b158015610f7a57600080fd5b505af1158015610f8e573d6000803e3d6000fd5b505050506040513d6020811015610fa457600080fd5b50519750610fb8898963ffffffff612bad16565b9650610fc38d61243b565b95508a1515610fd457849b506110b0565b600093505b600660ff851610156110ac5789600a60ff861660068110610ff657fe5b60050201600101541180156110365750600a60ff85166006811061101657fe5b6005020154600160a060020a038e166000908152602a6020526040902054105b156110a15761106587600a60ff87166006811061104f57fe5b6005020160030154612bde90919063ffffffff16565b9250611077838763ffffffff612bde16565b9150611089838363ffffffff612c0216565b9050808560ff86166006811061109b57fe5b60200201525b600190930192610fd9565b849b505b5050505050505050505050919050565b60075481565b6110ce613896565b6110d6613896565b6009546000908190600160a060020a03163314611163576040805160e560020a62461bcd02815260206004820152602e60248201527f4f6e6c79207468652066656520617574686f726974792063616e20706572666f60448201527f726d207468697320616374696f6e000000000000000000000000000000000000606482015290519081900360840190fd5b602954600c54429190910310156111ea576040805160e560020a62461bcd02815260206004820152602f60248201527f497420697320746f6f206561726c7920746f20636c6f7365207468652063757260448201527f72656e742066656520706572696f640000000000000000000000000000000000606482015290519081900360840190fd5b6040805160a08082018352601e548252601f54602080840191909152805483850152602154606080850191825260225460808087019190915286519485018752602354855260245493850193909352602554958401959095526026549483018590526027549183018290525192975090955061127b9261126f9163ffffffff612c0216565b9063ffffffff612b9016565b602155600491505b600660ff831610156113a6575060018101600a60ff8316600681106112a457fe5b6005020154600a60ff8316600681106112b957fe5b6005020155600a60ff8316600681106112ce57fe5b6005020160010154600a8260ff166006811015156112e857fe5b6005020160010181905550600a8260ff1660068110151561130557fe5b6005020160020154600a8260ff1660068110151561131f57fe5b6005020160020181905550600a8260ff1660068110151561133c57fe5b6005020160030154600a8260ff1660068110151561135657fe5b6005020160030181905550600a8260ff1660068110151561137357fe5b6005020160040154600a8260ff1660068110151561138d57fe5b6005020160040181905550818060019003925050611283565b6000600b819055600c819055600d819055600e819055602854600a55600654604080517f84f7efc60000000000000000000000000000000000000000000000000000000081529051600160a060020a03909216926384f7efc6926004838101936020939083900390910190829087803b15801561142257600080fd5b505af1158015611436573d6000803e3d6000fd5b505050506040513d602081101561144c57600080fd5b5051604080517fcd92eba90000000000000000000000000000000000000000000000000000000081529051600160a060020a039092169163cd92eba9916004808201926020929091908290030181600087803b1580156114ab57600080fd5b505af11580156114bf573d6000803e3d6000fd5b505050506040513d60208110156114d557600080fd5b5051600b5542600c556028546114f290600163ffffffff612b9016565b602855600f5461150190612c19565b50505050565b600a816006811061151457fe5b6005020180546001820154600283015460038401546004909401549294509092909185565b600254600160a060020a0316331461155e5760038054600160a060020a031916331790555b600054600354600160a060020a039081169116146115c8576040805160e560020a62461bcd02815260206004820152602e60248201526000805160206138e78339815191526044820152600080516020613927833981519152606482015290519081900360840190fd5b600160a060020a0381161515611628576040805160e560020a62461bcd02815260206004820152601b60248201527f4e65772048617676656e206d757374206265206e6f6e2d7a65726f0000000000604482015290519081900360640190fd5b60068054600160a060020a031916600160a060020a03831617905561093b81612cec565b600154600160a060020a031681565b600254600160a060020a031633146116805760038054600160a060020a031916331790555b600054600354600160a060020a039081169116146116ea576040805160e560020a62461bcd02815260206004820152602e60248201526000805160206138e78339815191526044820152600080516020613927833981519152606482015290519081900360840190fd5b600a73__SafeDecimalMath_______________________63907af6c06040518163ffffffff1660e060020a02815260040160206040518083038186803b15801561173357600080fd5b505af4158015611747573d6000803e3d6000fd5b505050506040513d602081101561175d57600080fd5b505181151561176857fe5b048111156117e6576040805160e560020a62461bcd02815260206004820152603560248201527f45786368616e6765206665652072617465206d7573742062652062656c6f772060448201527f4d41585f45584348414e47455f4645455f524154450000000000000000000000606482015290519081900360840190fd5b600881905561093b81612dc8565b60008060015b600660ff8216101561186657611830600a60ff83166006811061181957fe5b600502016003015483612b9090919063ffffffff16565b915061185c600a60ff83166006811061184557fe5b600502016004015483612c0290919063ffffffff16565b91506001016117fa565b6006546040805160e660020a62e759bf02815260e960020a6224222902600482015260248101859052600160e060020a0319871660448201529051600160a060020a03909216916339d66fc0916064808201926020929091908290030181600087803b1580156118d557600080fd5b505af11580156118e9573d6000803e3d6000fd5b505050506040513d60208110156118ff57600080fd5b5051949350505050565b60285481565b600a73__SafeDecimalMath_______________________63907af6c06040518163ffffffff1660e060020a02815260040160206040518083038186803b15801561195857600080fd5b505af415801561196c573d6000803e3d6000fd5b505050506040513d602081101561198257600080fd5b505181151561198d57fe5b0481565b600154600160a060020a03163314611a19576040805160e560020a62461bcd02815260206004820152603560248201527f596f75206d757374206265206e6f6d696e61746564206265666f726520796f7560448201527f2063616e20616363657074206f776e6572736869700000000000000000000000606482015290519081900360840190fd5b60005460015460408051600160a060020a03938416815292909116602083015280517fb532073b38c83145e3e5135377a08bf9aab55bc0fd7c1179cd4fb995d2a5159c9281900390910190a16001805460008054600160a060020a0319908116600160a060020a03841617909155169055565b600254600160a060020a03163314611ab15760038054600160a060020a031916331790555b600054600354600160a060020a03908116911614611b1b576040805160e560020a62461bcd02815260206004820152602e60248201526000805160206138e78339815191526044820152600080516020613927833981519152606482015290519081900360840190fd5b60098054600160a060020a031916600160a060020a03831617905561093b81612e9b565b602a6020526000908152604090205481565b600054600160a060020a031681565b600054600160a060020a03163314611bc4576040805160e560020a62461bcd02815260206004820152602f60248201526000805160206138c78339815191526044820152600080516020613907833981519152606482015290519081900360840190fd5b60028054600160a060020a038316600160a060020a0319909116811790915560408051918252517ffc80377ca9c49cc11ae6982f390a42db976d5530af7c43889264b13fbbd7c57e9181900360200190a150565b600654600160a060020a031681565b60008054600160a060020a03163314611c8c576040805160e560020a62461bcd02815260206004820152602f60248201526000805160206138c78339815191526044820152600080516020613907833981519152606482015290519081900360840190fd5b60055460ff161515611d0e576040805160e560020a62461bcd02815260206004820152602860248201527f53656c6620646573747275637420686173206e6f7420796574206265656e206960448201527f6e69746961746564000000000000000000000000000000000000000000000000606482015290519081900360840190fd5b426224ea0060045401101515611d94576040805160e560020a62461bcd02815260206004820152602760248201527f53656c662064657374727563742064656c617920686173206e6f74207965742060448201527f656c617073656400000000000000000000000000000000000000000000000000606482015290519081900360840190fd5b5060055460408051600160a060020a0361010090930492909216808352905190917f8a09e1677ced846cb537dc2b172043bd05a1a81ad7e0033a7ef8ba762df990b7919081900360200190a180600160a060020a0316ff5b600654600090600160a060020a03163314611e77576040805160e560020a62461bcd02815260206004820152603060248201527f4f6e6c79207468652068617676656e20636f6e74726163742063616e2070657260448201527f666f726d207468697320616374696f6e00000000000000000000000000000000606482015290519081900360840190fd5b6006546040805160e660020a62e759bf028152600160e060020a0319861660048201526024810185905260e960020a622422290260448201529051600160a060020a03909216916339d66fc0916064808201926020929091908290030181600087803b158015611ee657600080fd5b505af1158015611efa573d6000803e3d6000fd5b505050506040513d6020811015611f1057600080fd5b5051600d54909150611f28908263ffffffff612b9016565b600d55505050565b6224ea0081565b6000611f52611f45836122fc565b839063ffffffff612b9016565b92915050565b6000611f52611fe273__SafeDecimalMath_______________________63907af6c06040518163ffffffff1660e060020a02815260040160206040518083038186803b158015611fa757600080fd5b505af4158015611fbb573d6000803e3d6000fd5b505050506040513d6020811015611fd157600080fd5b50516007549063ffffffff612b9016565b839063ffffffff612bad16565b60055460ff1681565b600254600160a060020a03163314612080576040805160e560020a62461bcd02815260206004820152602560248201527f4f6e6c79207468652070726f78792063616e2063616c6c20746869732066756e60448201527f6374696f6e000000000000000000000000000000000000000000000000000000606482015290519081900360840190fd5b60038054600160a060020a031916600160a060020a0392909216919091179055565b600054600160a060020a03163314612106576040805160e560020a62461bcd02815260206004820152602f60248201526000805160206138c78339815191526044820152600080516020613907833981519152606482015290519081900360840190fd5b426004556005805460ff19166001179055604080516224ea00815290517fcbd94ca75b8dc45c9d80c77e851670e78843c0d75180cb81db3e2158228fa9a69181900360200190a1565b6005546101009004600160a060020a031681565b600254600160a060020a031633146121885760038054600160a060020a031916331790555b600054600354600160a060020a039081169116146121f2576040805160e560020a62461bcd02815260206004820152602e60248201526000805160206138e78339815191526044820152600080516020613927833981519152606482015290519081900360840190fd5b600a73__SafeDecimalMath_______________________63907af6c06040518163ffffffff1660e060020a02815260040160206040518083038186803b15801561223b57600080fd5b505af415801561224f573d6000803e3d6000fd5b505050506040513d602081101561226557600080fd5b505181151561227057fe5b048111156122ee576040805160e560020a62461bcd02815260206004820152603560248201527f5472616e73666572206665652072617465206d7573742062652062656c6f772060448201527f4d41585f5452414e534645525f4645455f524154450000000000000000000000606482015290519081900360840190fd5b600781905561093b81612f77565b6000611f5260085483612bde90919063ffffffff16565b6002546000908190600160a060020a0316331461233d5760038054600160a060020a031916331790555b60035461235c90600160a060020a031660e960020a6224222902610944565b9050600081116123dc576040805160e560020a62461bcd02815260206004820152603560248201527f4e6f206665657320617661696c61626c6520666f7220706572696f642c206f7260448201527f206665657320616c726561647920636c61696d65640000000000000000000000606482015290519081900360840190fd5b600f54600354600160a060020a03166000908152602a60205260409020556124038161304a565b60035461241a90600160a060020a03168285613136565b60035461243090600160a060020a0316826136d5565b600191505b50919050565b600654604080517fa311c7c2000000000000000000000000000000000000000000000000000000008152600160a060020a03848116600483015291516000938493169163a311c7c291602480830192602092919082900301818787803b1580156124a457600080fd5b505af11580156124b8573d6000803e3d6000fd5b505050506040513d60208110156124ce57600080fd5b5051604080517f907af6c0000000000000000000000000000000000000000000000000000000008152905191925060649173__SafeDecimalMath_______________________9163907af6c0916004808301926020929190829003018186803b15801561253a57600080fd5b505af415801561254e573d6000803e3d6000fd5b505050506040513d602081101561256457600080fd5b505160140281151561257257fe5b0481116125825760009150612435565b606473__SafeDecimalMath_______________________63907af6c06040518163ffffffff1660e060020a02815260040160206040518083038186803b1580156125cb57600080fd5b505af41580156125df573d6000803e3d6000fd5b505050506040513d60208110156125f557600080fd5b505160140281151561260357fe5b04811180156126935750606473__SafeDecimalMath_______________________63907af6c06040518163ffffffff1660e060020a02815260040160206040518083038186803b15801561265657600080fd5b505af415801561266a573d6000803e3d6000fd5b505050506040513d602081101561268057600080fd5b5051601e0281151561268e57fe5b048111155b1561272157606473__SafeDecimalMath_______________________63907af6c06040518163ffffffff1660e060020a02815260040160206040518083038186803b1580156126e157600080fd5b505af41580156126f5573d6000803e3d6000fd5b505050506040513d602081101561270b57600080fd5b505160190281151561271957fe5b049150612435565b606473__SafeDecimalMath_______________________63907af6c06040518163ffffffff1660e060020a02815260040160206040518083038186803b15801561276a57600080fd5b505af415801561277e573d6000803e3d6000fd5b505050506040513d602081101561279457600080fd5b5051601e028115156127a257fe5b04811180156128325750606473__SafeDecimalMath_______________________63907af6c06040518163ffffffff1660e060020a02815260040160206040518083038186803b1580156127f557600080fd5b505af4158015612809573d6000803e3d6000fd5b505050506040513d602081101561281f57600080fd5b505160280281151561282d57fe5b048111155b156128b857606473__SafeDecimalMath_______________________63907af6c06040518163ffffffff1660e060020a02815260040160206040518083038186803b15801561288057600080fd5b505af4158015612894573d6000803e3d6000fd5b505050506040513d60208110156128aa57600080fd5b505160320281151561271957fe5b606473__SafeDecimalMath_______________________63907af6c06040518163ffffffff1660e060020a02815260040160206040518083038186803b15801561290157600080fd5b505af4158015612915573d6000803e3d6000fd5b505050506040513d602081101561292b57600080fd5b5051604b0281151561293957fe5b049392505050565b600681565b6201518081565b6000611f5260075483612bde90919063ffffffff16565b6000611f52611fe273__SafeDecimalMath_______________________63907af6c06040518163ffffffff1660e060020a02815260040160206040518083038186803b1580156129b357600080fd5b505af41580156129c7573d6000803e3d6000fd5b505050506040513d60208110156129dd57600080fd5b50516008549063ffffffff612b9016565b6000611f52611f458361294d565b73feefeefeefeefeefeefeefeefeefeefeefeefeef81565b600254600160a060020a031681565b624f1a0081565b6002546040805160208082018590528251808303820181528284018085527f466565506572696f644475726174696f6e557064617465642875696e7432353690527f29000000000000000000000000000000000000000000000000000000000000006060840152925191829003606101822060e060020a63907dff97028352600160248401819052604484018290526000606485018190526084850181905260a4850181905260c060048601908152865160c48701528651600160a060020a039098169763907dff979796939592938493849392839260e401918a0190808383885b83811015612b24578181015183820152602001612b0c565b50505050905090810190601f168015612b515780820380516001836020036101000a031916815260200191505b50975050505050505050600060405180830381600087803b158015612b7557600080fd5b505af1158015612b89573d6000803e3d6000fd5b5050505050565b600082820183811015612ba257600080fd5b8091505b5092915050565b6000612bd782612bcb85670de0b6b3a764000063ffffffff61382616565b9063ffffffff61385416565b9392505050565b6000670de0b6b3a7640000612bf9848463ffffffff61382616565b81151561293957fe5b60008083831115612c1257600080fd5b5050900390565b6002546040805160208082018590528251808303820181528284018085527f466565506572696f64436c6f7365642875696e743235362900000000000000009052925191829003605801822060e060020a63907dff97028352600160248401819052604484018290526000606485018190526084850181905260a4850181905260c060048601908152865160c48701528651600160a060020a039098169763907dff979796939592938493849392839260e401918a01908083838883811015612b24578181015183820152602001612b0c565b60025460408051600160a060020a038481166020808401919091528351808403820181528385018086527f48617676656e55706461746564286164647265737329000000000000000000009052935192839003605601832060e060020a63907dff97028452600160248501819052604485018290526000606486018190526084860181905260a4860181905260c060048701908152875160c48801528751959098169763907dff97979692959394919384938493839260e490920191908a01908083838883811015612b24578181015183820152602001612b0c565b6002546040805160208082018590528251808303820181528284018085527f45786368616e6765466565557064617465642875696e743235362900000000009052925191829003605b01822060e060020a63907dff97028352600160248401819052604484018290526000606485018190526084850181905260a4850181905260c060048601908152865160c48701528651600160a060020a039098169763907dff979796939592938493849392839260e401918a01908083838883811015612b24578181015183820152602001612b0c565b60025460408051600160a060020a038481166020808401919091528351808403820181528385018086527f466565417574686f7269747955706461746564286164647265737329000000009052935192839003605c01832060e060020a63907dff97028452600160248501819052604485018290526000606486018190526084860181905260a4860181905260c060048701908152875160c48801528751959098169763907dff97979692959394919384938493839260e490920191908a01908083838883811015612b24578181015183820152602001612b0c565b6002546040805160208082018590528251808303820181528284018085527f5472616e73666572466565557064617465642875696e743235362900000000009052925191829003605b01822060e060020a63907dff97028352600160248401819052604484018290526000606485018190526084850181905260a4850181905260c060048601908152865160c48701528651600160a060020a039098169763907dff979796939592938493849392839260e401918a01908083838883811015612b24578181015183820152602001612b0c565b8060056000805b600660ff8416101561312e576130a0600a60ff85166006811061307057fe5b6005020160040154600a8560ff1660068110151561308a57fe5b6005020160030154612c0290919063ffffffff16565b91506000821115613122578382106130b857836130ba565b815b90506130e681600a60ff8616600681106130d057fe5b6005020160040154612b9090919063ffffffff16565b600a60ff8516600681106130f657fe5b60050201600401819055506131148185612c0290919063ffffffff16565b935083151561312257612b89565b60001990920191613051565b8315612b8957fe5b6000808085600160a060020a03811673feefeefeefeefeefeefeefeefeefeefeefeefeef14156131b0576040805160e560020a62461bcd02815260206004820152601760248201527f4665652061646472657373206e6f7420616c6c6f776564000000000000000000604482015290519081900360640190fd5b600160a060020a0387161515613210576040805160e560020a62461bcd02815260206004820152601260248201527f4163636f756e742063616e277420626520300000000000000000000000000000604482015290519081900360640190fd5b600160a060020a038716301415613271576040805160e560020a62461bcd02815260206004820152601b60248201527f43616e27742073656e64206665657320746f2066656520706f6f6c0000000000604482015290519081900360640190fd5b600254600160a060020a03888116911614156132d7576040805160e560020a62461bcd02815260206004820152601860248201527f43616e27742073656e64206665657320746f2070726f78790000000000000000604482015290519081900360640190fd5b600654600160a060020a038881169116141561333d576040805160e560020a62461bcd02815260206004820152601960248201527f43616e27742073656e64206665657320746f2068617676656e00000000000000604482015290519081900360640190fd5b600654604080517ffe88e54100000000000000000000000000000000000000000000000000000000815260e960020a622422290260048201529051600160a060020a039092169163fe88e541916024808201926020929091908290030181600087803b1580156133ac57600080fd5b505af11580156133c0573d6000803e3d6000fd5b505050506040513d60208110156133d657600080fd5b5051600654604080517ffe88e541000000000000000000000000000000000000000000000000000000008152600160e060020a0319891660048201529051929650600160a060020a039091169163fe88e541916024808201926020929091908290030181600087803b15801561344b57600080fd5b505af115801561345f573d6000803e3d6000fd5b505050506040513d602081101561347557600080fd5b5051604080517f9dc29fac00000000000000000000000000000000000000000000000000000000815273feefeefeefeefeefeefeefeefeefeefeefeefeef6004820152602481018990529051919450600160a060020a03861691639dc29fac9160448082019260009290919082900301818387803b1580156134f657600080fd5b505af115801561350a573d6000803e3d6000fd5b50506006546040805160e660020a62e759bf02815260e960020a62242229026004820152602481018b9052600160e060020a03198a1660448201529051600160a060020a0390921693506339d66fc092506064808201926020929091908290030181600087803b15801561357d57600080fd5b505af1158015613591573d6000803e3d6000fd5b505050506040513d60208110156135a757600080fd5b5051604080517f867904b4000000000000000000000000000000000000000000000000000000008152600160a060020a038a811660048301526024820184905291519294509085169163867904b49160448082019260009290919082900301818387803b15801561361757600080fd5b505af115801561362b573d6000803e3d6000fd5b5050604080517feb6ecc0300000000000000000000000000000000000000000000000000000000815273feefeefeefeefeefeefeefeefeefeefeefeefeef6004820152600160a060020a038b81166024830152604482018790529151918716935063eb6ecc03925060648082019260009290919082900301818387803b1580156136b457600080fd5b505af11580156136c8573d6000803e3d6000fd5b5050505050505050505050565b60025460408051600160a060020a03858116602080840191909152828401869052835180840385018152606084018086527f46656573436c61696d656428616464726573732c75696e7432353629000000009052935192839003607c01832060e060020a63907dff97028452600160248501819052604485018290526000606486018190526084860181905260a4860181905260c060048701908152875160c48801528751959098169763907dff97979692959394919384938493839260e490920191908a0190808383885b838110156137b95781810151838201526020016137a1565b50505050905090810190601f1680156137e65780820380516001836020036101000a031916815260200191505b50975050505050505050600060405180830381600087803b15801561380a57600080fd5b505af115801561381e573d6000803e3d6000fd5b505050505050565b6000808315156138395760009150612ba6565b5082820282848281151561384957fe5b0414612ba257600080fd5b60008080831161386357600080fd5b828481151561386e57fe5b04949350505050565b60c0604051908101604052806006906020820280388339509192915050565b60a0604051908101604052806000815260200160008152602001600081526020016000815260200160008152509056004f6e6c792074686520636f6e7472616374206f776e6572206d617920706572665468697320616374696f6e2063616e206f6e6c7920626520706572666f726d656f726d207468697320616374696f6e00000000000000000000000000000000006420627920746865206f776e6572000000000000000000000000000000000000a165627a7a723058203ef7e069b998a6522442d1578f9699a9cdcbf741959b09930c72a9d90730b4d800296f756c64207265737065637420746865206d6178696d756d2066656520726174",
  "source": "/*\n-----------------------------------------------------------------\nFILE INFORMATION\n-----------------------------------------------------------------\n\nfile:       FeePool.sol\nversion:    1.0\nauthor:     Kevin Brown\ndate:       2018-10-15\n\n-----------------------------------------------------------------\nMODULE DESCRIPTION\n-----------------------------------------------------------------\n\n\n-----------------------------------------------------------------\n*/\n\npragma solidity 0.4.25;\n\nimport \"./Havven.sol\";\nimport \"./Proxyable.sol\";\nimport \"./SelfDestructible.sol\";\nimport \"./SafeDecimalMath.sol\";\n\ncontract FeePool is Proxyable, SelfDestructible {\n\n    using SafeMath for uint;\n    using SafeDecimalMath for uint;\n\n    Havven public havven;\n\n    // A percentage fee charged on each transfer.\n    uint public transferFeeRate;\n\n    // Transfer fee may not exceed 10%.\n    uint constant public MAX_TRANSFER_FEE_RATE = SafeDecimalMath.unit() / 10;\n\n    // A percentage fee charged on each exchange between currencies.\n    uint public exchangeFeeRate;\n\n    // Exchange fee may not exceed 10%.\n    uint constant public MAX_EXCHANGE_FEE_RATE = SafeDecimalMath.unit() / 10;\n    \n    // The address with the authority to distribute fees.\n    address public feeAuthority;\n\n    // Where fees are pooled in HDRs.\n    address public constant FEE_ADDRESS = 0xfeEFEEfeefEeFeefEEFEEfEeFeefEEFeeFEEFEeF;\n\n    // This struct represents the issuance activity that's happened in a fee period.\n    struct FeePeriod {\n        uint feePeriodId;\n        uint startingDebtIndex;\n        uint startTime;\n        uint feesToDistribute;\n        uint feesClaimed;\n    }\n\n    // The last 6 fee periods are all that you can claim from. \n    // These are stored and managed from [0], such that [0] is always\n    // the most recent fee period, and [5] is always the oldest fee\n    // period that users can claim for.\n    uint8 constant public FEE_PERIOD_LENGTH = 6;\n    FeePeriod[FEE_PERIOD_LENGTH] public recentFeePeriods;\n\n    // The next fee period will have this ID.\n    uint public nextFeePeriodId;\n\n    // How long a fee period lasts at a minimum. It is required for the\n    // fee authority to roll over the periods, so they are not guaranteed\n    // to roll over at exactly this duration, but the contract enforces\n    // that they cannot roll over any quicker than this duration.\n    uint public feePeriodDuration = 1 weeks;\n\n    // The fee period must be between 1 day and 60 days.\n    uint public constant MIN_FEE_PERIOD_DURATION = 1 days;\n    uint public constant MAX_FEE_PERIOD_DURATION = 60 days;\n\n    // The last period a user has withdrawn their fees in, identified by the feePeriodId\n    mapping(address => uint) public lastFeeWithdrawal;\n\n    // Users receive penalties if their collateralisation ratio drifts out of our desired brackets\n    // We precompute the brackets and penalties to save gas.\n    uint constant TWENTY_PERCENT = (20 * SafeDecimalMath.unit()) / 100;\n    uint constant TWENTY_FIVE_PERCENT = (25 * SafeDecimalMath.unit()) / 100;\n    uint constant THIRTY_PERCENT = (30 * SafeDecimalMath.unit()) / 100;\n    uint constant FOURTY_PERCENT = (40 * SafeDecimalMath.unit()) / 100;\n    uint constant FIFTY_PERCENT = (50 * SafeDecimalMath.unit()) / 100;\n    uint constant SEVENTY_FIVE_PERCENT = (75 * SafeDecimalMath.unit()) / 100;\n\n    constructor(address _proxy, address _owner, Havven _havven, address _feeAuthority, uint _transferFeeRate, uint _exchangeFeeRate)\n        SelfDestructible(_owner)\n        Proxyable(_proxy, _owner)\n        public\n    {\n        // Constructed fee rates should respect the maximum fee rates.\n        require(_transferFeeRate <= MAX_TRANSFER_FEE_RATE, \"Constructed transfer fee rate should respect the maximum fee rate\");\n        require(_exchangeFeeRate <= MAX_EXCHANGE_FEE_RATE, \"Constructed exchange fee rate should respect the maximum fee rate\");\n\n        havven = _havven;\n        feeAuthority = _feeAuthority;\n        transferFeeRate = _transferFeeRate;\n        exchangeFeeRate = _exchangeFeeRate;\n\n        // Set our initial fee period\n        recentFeePeriods[0].feePeriodId = 1;\n        recentFeePeriods[0].startingDebtIndex = 0;\n        recentFeePeriods[0].startTime = now;\n        recentFeePeriods[0].feesToDistribute = 0;\n\n        // And the next one starts at 2.\n        nextFeePeriodId = 2;\n    }\n\n    /**\n     * @notice Set the exchange fee, anywhere within the range 0-10%.\n     * @dev The fee rate is in decimal format, with UNIT being the value of 100%.\n     */\n    function setExchangeFeeRate(uint _exchangeFeeRate)\n        external\n        optionalProxy_onlyOwner\n    {\n        require(_exchangeFeeRate <= MAX_TRANSFER_FEE_RATE, \"Exchange fee rate must be below MAX_EXCHANGE_FEE_RATE\");\n\n        exchangeFeeRate = _exchangeFeeRate;\n\n        emitExchangeFeeUpdated(_exchangeFeeRate);\n    }\n\n    /**\n     * @notice Set the transfer fee, anywhere within the range 0-10%.\n     * @dev The fee rate is in decimal format, with UNIT being the value of 100%.\n     */\n    function setTransferFeeRate(uint _transferFeeRate)\n        external\n        optionalProxy_onlyOwner\n    {\n        require(_transferFeeRate <= MAX_TRANSFER_FEE_RATE, \"Transfer fee rate must be below MAX_TRANSFER_FEE_RATE\");\n\n        transferFeeRate = _transferFeeRate;\n\n        emitTransferFeeUpdated(_transferFeeRate);\n    }\n\n    /**\n     * @notice Set the address of the user/contract responsible for collecting or\n     * distributing fees.\n     */\n    function setFeeAuthority(address _feeAuthority)\n        public\n        optionalProxy_onlyOwner\n    {\n        feeAuthority = _feeAuthority;\n\n        emitFeeAuthorityUpdated(_feeAuthority);\n    }\n\n    /**\n     * @notice Set the fee period duration\n     */\n    function setFeePeriodDuration(uint _feePeriodDuration)\n        public\n        optionalProxy_onlyOwner\n    {\n        require(_feePeriodDuration >= MIN_FEE_PERIOD_DURATION, \"New fee period cannot be less than minimum fee period duration\");\n        require(_feePeriodDuration <= MAX_FEE_PERIOD_DURATION, \"New fee period cannot be greater than maximum fee period duration\");\n\n        feePeriodDuration = _feePeriodDuration;\n\n        emitFeePeriodDurationUpdated(_feePeriodDuration);\n    }\n\n    /**\n     * @notice Set the havven contract\n     */\n    function setHavven(Havven _havven)\n        public\n        optionalProxy_onlyOwner\n    {\n        require(address(_havven) != address(0), \"New Havven must be non-zero\");\n\n        havven = _havven;\n\n        emitHavvenUpdated(_havven);\n    }\n    \n    /**\n     * @notice The Havven contract informs us when fees are paid.\n     */\n    function feePaid(bytes4 currencyKey, uint amount) \n        external\n        onlyHavven\n    {\n        uint hdrAmount = havven.effectiveValue(currencyKey, amount, \"HDR\");\n\n        // Which we keep track of in HDRs in our fee pool.\n        recentFeePeriods[0].feesToDistribute = recentFeePeriods[0].feesToDistribute.add(hdrAmount);\n    }\n\n    /**\n     * @notice Close the current fee period and start a new one. Only callable by the fee authority.\n     */\n    function closeCurrentFeePeriod()\n        external\n        onlyFeeAuthority\n    {\n        require(recentFeePeriods[0].startTime <= (now - feePeriodDuration), \"It is too early to close the current fee period\");\n\n        FeePeriod memory secondLastFeePeriod = recentFeePeriods[FEE_PERIOD_LENGTH - 2];\n        FeePeriod memory lastFeePeriod = recentFeePeriods[FEE_PERIOD_LENGTH - 1];\n\n        // Any unclaimed fees from the last period in the array roll back one period.\n        // Because of the subtraction here, they're effectively proportionally redistributed to those who\n        // have already claimed from the old period, available in the new period.\n        // The subtraction is important so we don't create a ticking time bomb of an ever growing\n        // number of fees that can never decrease and will eventually overflow at the end of the fee pool.\n        recentFeePeriods[FEE_PERIOD_LENGTH - 2].feesToDistribute = lastFeePeriod.feesToDistribute\n            .sub(lastFeePeriod.feesClaimed)\n            .add(secondLastFeePeriod.feesToDistribute);\n\n        // Shift the previous fee periods across to make room for the new one.\n        // Condition checks for overflow when uint subtracts one from zero\n        // Could be written with int8 instead of uint8, but then we have to convert everywhere\n        // so it felt better from a gas perspective to just change the condition to check\n        // for overflow after subtracting one from zero.\n        for (uint8 i = FEE_PERIOD_LENGTH - 2; i < FEE_PERIOD_LENGTH; i--) {\n            uint8 next = i + 1;\n\n            recentFeePeriods[next].feePeriodId = recentFeePeriods[i].feePeriodId;\n            recentFeePeriods[next].startingDebtIndex = recentFeePeriods[i].startingDebtIndex;\n            recentFeePeriods[next].startTime = recentFeePeriods[i].startTime;\n            recentFeePeriods[next].feesToDistribute = recentFeePeriods[i].feesToDistribute;\n            recentFeePeriods[next].feesClaimed = recentFeePeriods[i].feesClaimed;\n        }\n\n        // Clear the first element of the array to make sure we don't have any stale values.\n        delete recentFeePeriods[0];\n\n        // Open up the new fee period\n        recentFeePeriods[0].feePeriodId = nextFeePeriodId;\n        recentFeePeriods[0].startingDebtIndex = havven.havvenState().debtLedgerLength();\n        recentFeePeriods[0].startTime = now;\n\n        nextFeePeriodId = nextFeePeriodId.add(1);\n\n        emitFeePeriodClosed(recentFeePeriods[1].feePeriodId);\n    }\n\n    function claimFees(bytes4 currencyKey)\n        external\n        optionalProxy\n        returns (bool)\n    {\n        uint availableFees = feesAvailable(messageSender, \"HDR\");\n\n        require(availableFees > 0, \"No fees available for period, or fees already claimed\");\n\n        lastFeeWithdrawal[messageSender] = recentFeePeriods[1].feePeriodId;\n\n        // Record the fee payment in our recentFeePeriods\n        _recordFeePayment(availableFees);\n\n        // Send them their fees\n        _payFees(messageSender, availableFees, currencyKey);\n\n        emitFeesClaimed(messageSender, availableFees);\n\n        return true;\n    }\n\n    function _recordFeePayment(uint hdrAmount)\n        internal\n    {\n        // Don't assign to the parameter\n        uint remainingToAllocate = hdrAmount;\n\n        // Start at the oldest period and record the amount, moving to newer periods\n        // until we've exhausted the amount.\n        // The condition checks for overflow because we're going to 0 with an unsigned int.\n        for (uint8 i = FEE_PERIOD_LENGTH - 1; i < FEE_PERIOD_LENGTH; i--) {\n            uint delta = recentFeePeriods[i].feesToDistribute.sub(recentFeePeriods[i].feesClaimed);\n\n            if (delta > 0) {\n                // Take the smaller of the amount left to claim in the period and the amount we need to allocate\n                uint amountInPeriod = delta < remainingToAllocate ? delta : remainingToAllocate;\n\n                recentFeePeriods[i].feesClaimed = recentFeePeriods[i].feesClaimed.add(amountInPeriod);\n                remainingToAllocate = remainingToAllocate.sub(amountInPeriod);\n\n                // No need to continue iterating if we've recorded the whole amount;\n                if (remainingToAllocate == 0) return;\n            }\n        }\n\n        // If we hit this line, we've exhausted our fee periods, but still have more to allocate. Wat?\n        // If this happens it's a definite bug in the code, so assert instead of require.\n        assert(remainingToAllocate == 0);\n    }\n\n    function _payFees(address account, uint hdrAmount, bytes4 destinationCurrencyKey)\n        internal\n        notFeeAddress(account)\n    {\n        require(account != address(0), \"Account can't be 0\");\n        require(account != address(this), \"Can't send fees to fee pool\");\n        require(account != address(proxy), \"Can't send fees to proxy\");\n        require(account != address(havven), \"Can't send fees to havven\");\n\n        Nomin hdrNomin = havven.nomins(\"HDR\");\n        Nomin destinationNomin = havven.nomins(destinationCurrencyKey);\n        \n        // Note: We don't need to check the fee pool balance as the burn() below will do a safe subtraction which requires \n        // the subtraction to not overflow, which would happen if the balance is not sufficient.\n\n        // Burn the source amount\n        hdrNomin.burn(FEE_ADDRESS, hdrAmount);\n\n        // How much should they get in the destination currency?\n        uint destinationAmount = havven.effectiveValue(\"HDR\", hdrAmount, destinationCurrencyKey);\n\n        // There's no fee on withdrawing fees, as that'd be way too meta.\n\n        // Mint their new nomins\n        destinationNomin.issue(account, destinationAmount);\n\n        // Nothing changes as far as issuance data goes because the total value in the system hasn't changed.\n\n        // Call the ERC223 transfer callback if needed\n        destinationNomin.triggerTokenFallbackIfNeeded(FEE_ADDRESS, account, destinationAmount);\n    }\n\n    /**\n     * @notice Calculate the Fee charged on top of a value being sent\n     * @return Return the fee charged\n     */\n    function transferFeeIncurred(uint value)\n        public\n        view\n        returns (uint)\n    {\n        return value.multiplyDecimal(transferFeeRate);\n\n        // Transfers less than the reciprocal of transferFeeRate should be completely eaten up by fees.\n        // This is on the basis that transfers less than this value will result in a nil fee.\n        // Probably too insignificant to worry about, but the following code will achieve it. \n        //      if (fee == 0 && transferFeeRate != 0) {\n        //          return _value;\n        //      }\n        //      return fee;\n    }\n\n    /**\n     * @notice The value that you would need to send so that the recipient receives\n     * a specified value.\n     * @param value The value you want the recipient to receive\n     */\n    function transferredAmountToReceive(uint value)\n        external\n        view\n        returns (uint)\n    {\n        return value.add(transferFeeIncurred(value));\n    }\n\n    /**\n     * @notice The amount the recipient will receive if you send a certain number of tokens.\n     * @param value The amount of tokens you intend to send.\n     */\n    function amountReceivedFromTransfer(uint value)\n        public\n        view\n        returns (uint)\n    {\n        return value.divideDecimal(transferFeeRate.add(SafeDecimalMath.unit()));\n    }\n\n    /**\n     * @notice Calculate the fee charged on top of a value being sent via an exchange\n     * @return Return the fee charged\n     */\n    function exchangeFeeIncurred(uint value)\n        public\n        view\n        returns (uint)\n    {\n        return value.multiplyDecimal(exchangeFeeRate);\n\n        // Exchanges less than the reciprocal of exchangeFeeRate should be completely eaten up by fees.\n        // This is on the basis that exchanges less than this value will result in a nil fee.\n        // Probably too insignificant to worry about, but the following code will achieve it. \n        //      if (fee == 0 && exchangeFeeRate != 0) {\n        //          return _value;\n        //      }\n        //      return fee;\n    }\n\n    /**\n     * @notice The value that you would need to get after currency exchange so that the recipient receives\n     * a specified value.\n     * @param value The value you want the recipient to receive\n     */\n    function exchangedAmountToReceive(uint value)\n        external\n        view\n        returns (uint)\n    {\n        return value.add(exchangeFeeIncurred(value));\n    }\n\n    /**\n     * @notice The amount the recipient will receive if you are performing an exchange and the\n     * destination currency will be worth a certain number of tokens.\n     * @param value The amount of destination currency tokens they received after the exchange.\n     */\n    function amountReceivedFromExchange(uint value)\n        public\n        view\n        returns (uint)\n    {\n        return value.divideDecimal(exchangeFeeRate.add(SafeDecimalMath.unit()));\n    }\n\n    /**\n     * @notice The total fees available in the system to be withdrawn, priced in currencyKey currency\n     * @param currencyKey The currency you want to price the fees in\n     */\n    function totalFeesAvailable(bytes4 currencyKey)\n        external\n        view\n        returns (uint)\n    {\n        uint totalFees = 0;\n\n        // Fees in fee period [0] are not yet available for withdrawal\n        for (uint8 i = 1; i < FEE_PERIOD_LENGTH; i++) {\n            totalFees = totalFees.add(recentFeePeriods[i].feesToDistribute);\n            totalFees = totalFees.sub(recentFeePeriods[i].feesClaimed);\n        }\n\n        return havven.effectiveValue(\"HDR\", totalFees, currencyKey);\n    }\n\n    /**\n     * @notice The fees available to be withdrawn by a specific account, priced in currencyKey currency\n     * @param currencyKey The currency you want to price the fees in\n     */\n    function feesAvailable(address account, bytes4 currencyKey)\n        public \n        view\n        returns (uint)\n    {\n        // Add up the fees\n        uint[FEE_PERIOD_LENGTH] memory userFees = feesByPeriod(account);\n\n        uint totalFees = 0;\n\n        // Fees in fee period [0] are not yet available for withdrawal\n        for (uint8 i = 1; i < FEE_PERIOD_LENGTH; i++) {\n            totalFees = totalFees.add(userFees[i]);\n        }\n\n        // And convert them to their desired currency\n        return havven.effectiveValue(\"HDR\", totalFees, currencyKey);\n    }\n\n    /**\n     * @notice The penalty a particular address would incur if its fees were withdrawn right now\n     * @param account The address you want to query the penalty for\n     */\n    function currentPenalty(address account)\n        public\n        view\n        returns (uint)\n    {\n        uint ratio = havven.collateralisationRatio(account);\n\n        // Users receive a different amount of fees depending on how their collateralisation ratio looks right now.\n        // 0% - 20%: Fee is calculated based on percentage of economy issued.\n        // 20% - 30%: 25% reduction in fees\n        // 30% - 40%: 50% reduction in fees\n        // >40% - 75% reduction in fees\n        if (ratio <= TWENTY_PERCENT) {\n            return 0;\n        } else if (ratio > TWENTY_PERCENT && ratio <= THIRTY_PERCENT) {\n            return TWENTY_FIVE_PERCENT;\n        } else if (ratio > THIRTY_PERCENT && ratio <= FOURTY_PERCENT) {\n            return FIFTY_PERCENT;\n        } \n\n        return SEVENTY_FIVE_PERCENT;\n    }\n\n    /**\n     * @notice Calculates fees by period for an account, priced in HDRs\n     * @param account The address you want to query the fees by penalty for\n     */\n    function feesByPeriod(address account)\n        public\n        view\n        returns (uint[FEE_PERIOD_LENGTH])\n    {\n        // What's the user's debt entry index and the debt they owe to the system\n        uint initialDebtOwnership;\n        uint debtEntryIndex;\n        (initialDebtOwnership, debtEntryIndex) = havven.havvenState().issuanceData(account);\n        uint debtBalance = havven.debtBalanceOf(account, \"HDR\");\n        uint totalNomins = havven.totalIssuedNomins(\"HDR\");\n        uint userOwnershipPercentage = debtBalance.divideDecimal(totalNomins);\n        uint penalty = currentPenalty(account);\n\n        uint[FEE_PERIOD_LENGTH] memory result;\n\n        // If they don't have any debt ownership, they don't have any fees\n        if (initialDebtOwnership == 0) return result;\n\n        // Go through our fee periods and figure out what we owe them.\n        // The [0] fee period does is not yet ready to claim, but it is a fee period that they can have\n        // fees owing for, so we need to report on it anyway.\n        for (uint8 i = 0; i < FEE_PERIOD_LENGTH; i++) {\n            // Were they a part of this period in its entirety?\n            // We don't allow pro-rata participation to reduce the ability to game the system by\n            // issuing and burning multiple times in a period or close to the ends of periods.\n            if (recentFeePeriods[i].startingDebtIndex > debtEntryIndex &&\n                lastFeeWithdrawal[account] < recentFeePeriods[i].feePeriodId) {\n\n                // And since they were, they're entitled to their percentage of the fees in this period\n                uint feesFromPeriodWithoutPenalty = recentFeePeriods[i].feesToDistribute\n                    .multiplyDecimal(userOwnershipPercentage);\n\n                // Less their penalty if they have one.\n                uint penaltyFromPeriod = feesFromPeriodWithoutPenalty.multiplyDecimal(penalty);\n                uint feesFromPeriod = feesFromPeriodWithoutPenalty.sub(penaltyFromPeriod);\n\n                result[i] = feesFromPeriod;\n            }\n        }\n\n        return result;\n    }\n\n    modifier onlyFeeAuthority\n    {\n        require(msg.sender == feeAuthority, \"Only the fee authority can perform this action\");\n        _;\n    }\n\n    modifier onlyHavven\n    {\n        require(msg.sender == address(havven), \"Only the havven contract can perform this action\");\n        _;\n    }\n\n    modifier notFeeAddress(address account) {\n        require(account != FEE_ADDRESS, \"Fee address not allowed\");\n        _;\n    }\n\n    event TransferFeeUpdated(uint newFeeRate);\n    bytes32 constant TRANSFERFEEUPDATED_SIG = keccak256(\"TransferFeeUpdated(uint256)\");\n    function emitTransferFeeUpdated(uint newFeeRate) internal {\n        proxy._emit(abi.encode(newFeeRate), 1, TRANSFERFEEUPDATED_SIG, 0, 0, 0);\n    }\n\n    event ExchangeFeeUpdated(uint newFeeRate);\n    bytes32 constant EXCHANGEFEEUPDATED_SIG = keccak256(\"ExchangeFeeUpdated(uint256)\");\n    function emitExchangeFeeUpdated(uint newFeeRate) internal {\n        proxy._emit(abi.encode(newFeeRate), 1, EXCHANGEFEEUPDATED_SIG, 0, 0, 0);\n    }\n\n    event FeePeriodDurationUpdated(uint newFeePeriodDuration);\n    bytes32 constant FEEPERIODDURATIONUPDATED_SIG = keccak256(\"FeePeriodDurationUpdated(uint256)\");\n    function emitFeePeriodDurationUpdated(uint newFeePeriodDuration) internal {\n        proxy._emit(abi.encode(newFeePeriodDuration), 1, FEEPERIODDURATIONUPDATED_SIG, 0, 0, 0);\n    }\n\n    event FeeAuthorityUpdated(address newFeeAuthority);\n    bytes32 constant FEEAUTHORITYUPDATED_SIG = keccak256(\"FeeAuthorityUpdated(address)\");\n    function emitFeeAuthorityUpdated(address newFeeAuthority) internal {\n        proxy._emit(abi.encode(newFeeAuthority), 1, FEEAUTHORITYUPDATED_SIG, 0, 0, 0);\n    }\n\n    event FeePeriodClosed(uint feePeriodId);\n    bytes32 constant FEEPERIODCLOSED_SIG = keccak256(\"FeePeriodClosed(uint256)\");\n    function emitFeePeriodClosed(uint feePeriodId) internal {\n        proxy._emit(abi.encode(feePeriodId), 1, FEEPERIODCLOSED_SIG, 0, 0, 0);\n    }\n\n    event FeesClaimed(address account, uint hdrAmount);\n    bytes32 constant FEESCLAIMED_SIG = keccak256(\"FeesClaimed(address,uint256)\");\n    function emitFeesClaimed(address account, uint hdrAmount) internal {\n        proxy._emit(abi.encode(account, hdrAmount), 1, FEESCLAIMED_SIG, 0, 0, 0);\n    }\n\n    event HavvenUpdated(address newHavven);\n    bytes32 constant HAVVENUPDATED_SIG = keccak256(\"HavvenUpdated(address)\");\n    function emitHavvenUpdated(address newHavven) internal {\n        proxy._emit(abi.encode(newHavven), 1, HAVVENUPDATED_SIG, 0, 0, 0);\n    }\n}",
  "sourcePath": "/Users/clintonennis/Projects/havven/havven/contracts/FeePool.sol",
  "compiler": {
    "name": "solc",
    "version": "0.4.25+commit.59dbf8f1.Emscripten.clang"
  },
  "schemaVersion": "3.0.0-beta.1",
  "updatedAt": "2018-11-21T03:50:47.537Z"
}