{
  "contractName": "FeeToken",
  "abi": [
    {
      "constant": true,
      "inputs": [],
      "name": "name",
      "outputs": [
        {
          "name": "",
          "type": "string"
        }
      ],
      "payable": false,
      "stateMutability": "view",
      "type": "function"
    },
    {
      "constant": false,
      "inputs": [
        {
          "name": "spender",
          "type": "address"
        },
        {
          "name": "value",
          "type": "uint256"
        }
      ],
      "name": "approve",
      "outputs": [
        {
          "name": "",
          "type": "bool"
        }
      ],
      "payable": false,
      "stateMutability": "nonpayable",
      "type": "function"
    },
    {
      "constant": false,
      "inputs": [
        {
          "name": "_owner",
          "type": "address"
        }
      ],
      "name": "nominateNewOwner",
      "outputs": [],
      "payable": false,
      "stateMutability": "nonpayable",
      "type": "function"
    },
    {
      "constant": true,
      "inputs": [],
      "name": "initiationTime",
      "outputs": [
        {
          "name": "",
          "type": "uint256"
        }
      ],
      "payable": false,
      "stateMutability": "view",
      "type": "function"
    },
    {
      "constant": true,
      "inputs": [],
      "name": "totalSupply",
      "outputs": [
        {
          "name": "",
          "type": "uint256"
        }
      ],
      "payable": false,
      "stateMutability": "view",
      "type": "function"
    },
    {
      "constant": false,
      "inputs": [
        {
          "name": "_beneficiary",
          "type": "address"
        }
      ],
      "name": "setSelfDestructBeneficiary",
      "outputs": [],
      "payable": false,
      "stateMutability": "nonpayable",
      "type": "function"
    },
    {
      "constant": true,
      "inputs": [],
      "name": "decimals",
      "outputs": [
        {
          "name": "",
          "type": "uint8"
        }
      ],
      "payable": false,
      "stateMutability": "view",
      "type": "function"
    },
    {
      "constant": true,
      "inputs": [],
      "name": "feeAuthority",
      "outputs": [
        {
          "name": "",
          "type": "address"
        }
      ],
      "payable": false,
      "stateMutability": "view",
      "type": "function"
    },
    {
      "constant": false,
      "inputs": [],
      "name": "terminateSelfDestruct",
      "outputs": [],
      "payable": false,
      "stateMutability": "nonpayable",
      "type": "function"
    },
    {
      "constant": true,
      "inputs": [],
      "name": "transferFeeRate",
      "outputs": [
        {
          "name": "",
          "type": "uint256"
        }
      ],
      "payable": false,
      "stateMutability": "view",
      "type": "function"
    },
    {
      "constant": true,
      "inputs": [],
      "name": "nominatedOwner",
      "outputs": [
        {
          "name": "",
          "type": "address"
        }
      ],
      "payable": false,
      "stateMutability": "view",
      "type": "function"
    },
    {
      "constant": true,
      "inputs": [
        {
          "name": "account",
          "type": "address"
        }
      ],
      "name": "balanceOf",
      "outputs": [
        {
          "name": "",
          "type": "uint256"
        }
      ],
      "payable": false,
      "stateMutability": "view",
      "type": "function"
    },
    {
      "constant": false,
      "inputs": [],
      "name": "acceptOwnership",
      "outputs": [],
      "payable": false,
      "stateMutability": "nonpayable",
      "type": "function"
    },
    {
      "constant": true,
      "inputs": [],
      "name": "owner",
      "outputs": [
        {
          "name": "",
          "type": "address"
        }
      ],
      "payable": false,
      "stateMutability": "view",
      "type": "function"
    },
    {
      "constant": true,
      "inputs": [],
      "name": "symbol",
      "outputs": [
        {
          "name": "",
          "type": "string"
        }
      ],
      "payable": false,
      "stateMutability": "view",
      "type": "function"
    },
    {
      "constant": false,
      "inputs": [
        {
          "name": "_proxy",
          "type": "address"
        }
      ],
      "name": "setProxy",
      "outputs": [],
      "payable": false,
      "stateMutability": "nonpayable",
      "type": "function"
    },
    {
      "constant": false,
      "inputs": [],
      "name": "selfDestruct",
      "outputs": [],
      "payable": false,
      "stateMutability": "nonpayable",
      "type": "function"
    },
    {
      "constant": true,
      "inputs": [],
      "name": "UNIT",
      "outputs": [
        {
          "name": "",
          "type": "uint256"
        }
      ],
      "payable": false,
      "stateMutability": "view",
      "type": "function"
    },
    {
      "constant": false,
      "inputs": [
        {
          "name": "_tokenState",
          "type": "address"
        }
      ],
      "name": "setTokenState",
      "outputs": [],
      "payable": false,
      "stateMutability": "nonpayable",
      "type": "function"
    },
    {
      "constant": true,
      "inputs": [],
      "name": "SELFDESTRUCT_DELAY",
      "outputs": [
        {
          "name": "",
          "type": "uint256"
        }
      ],
      "payable": false,
      "stateMutability": "view",
      "type": "function"
    },
    {
      "constant": true,
      "inputs": [],
      "name": "selfDestructInitiated",
      "outputs": [
        {
          "name": "",
          "type": "bool"
        }
      ],
      "payable": false,
      "stateMutability": "view",
      "type": "function"
    },
    {
      "constant": false,
      "inputs": [
        {
          "name": "sender",
          "type": "address"
        }
      ],
      "name": "setMessageSender",
      "outputs": [],
      "payable": false,
      "stateMutability": "nonpayable",
      "type": "function"
    },
    {
      "constant": false,
      "inputs": [],
      "name": "initiateSelfDestruct",
      "outputs": [],
      "payable": false,
      "stateMutability": "nonpayable",
      "type": "function"
    },
    {
      "constant": true,
      "inputs": [],
      "name": "selfDestructBeneficiary",
      "outputs": [
        {
          "name": "",
          "type": "address"
        }
      ],
      "payable": false,
      "stateMutability": "view",
      "type": "function"
    },
    {
      "constant": true,
      "inputs": [
        {
          "name": "owner",
          "type": "address"
        },
        {
          "name": "spender",
          "type": "address"
        }
      ],
      "name": "allowance",
      "outputs": [
        {
          "name": "",
          "type": "uint256"
        }
      ],
      "payable": false,
      "stateMutability": "view",
      "type": "function"
    },
    {
      "constant": true,
      "inputs": [],
      "name": "tokenState",
      "outputs": [
        {
          "name": "",
          "type": "address"
        }
      ],
      "payable": false,
      "stateMutability": "view",
      "type": "function"
    },
    {
      "constant": true,
      "inputs": [],
      "name": "FEE_ADDRESS",
      "outputs": [
        {
          "name": "",
          "type": "address"
        }
      ],
      "payable": false,
      "stateMutability": "view",
      "type": "function"
    },
    {
      "constant": true,
      "inputs": [],
      "name": "proxy",
      "outputs": [
        {
          "name": "",
          "type": "address"
        }
      ],
      "payable": false,
      "stateMutability": "view",
      "type": "function"
    },
    {
      "inputs": [
        {
          "name": "_proxy",
          "type": "address"
        },
        {
          "name": "_tokenState",
          "type": "address"
        },
        {
          "name": "_name",
          "type": "string"
        },
        {
          "name": "_symbol",
          "type": "string"
        },
        {
          "name": "_totalSupply",
          "type": "uint256"
        },
        {
          "name": "_transferFeeRate",
          "type": "uint256"
        },
        {
          "name": "_feeAuthority",
          "type": "address"
        },
        {
          "name": "_owner",
          "type": "address"
        }
      ],
      "payable": false,
      "stateMutability": "nonpayable",
      "type": "constructor"
    },
    {
      "anonymous": false,
      "inputs": [
        {
          "indexed": false,
          "name": "newFeeRate",
          "type": "uint256"
        }
      ],
      "name": "TransferFeeRateUpdated",
      "type": "event"
    },
    {
      "anonymous": false,
      "inputs": [
        {
          "indexed": false,
          "name": "newFeeAuthority",
          "type": "address"
        }
      ],
      "name": "FeeAuthorityUpdated",
      "type": "event"
    },
    {
      "anonymous": false,
      "inputs": [
        {
          "indexed": true,
          "name": "account",
          "type": "address"
        },
        {
          "indexed": false,
          "name": "value",
          "type": "uint256"
        }
      ],
      "name": "FeesWithdrawn",
      "type": "event"
    },
    {
      "anonymous": false,
      "inputs": [
        {
          "indexed": true,
          "name": "donor",
          "type": "address"
        },
        {
          "indexed": false,
          "name": "value",
          "type": "uint256"
        }
      ],
      "name": "FeesDonated",
      "type": "event"
    },
    {
      "anonymous": false,
      "inputs": [
        {
          "indexed": true,
          "name": "from",
          "type": "address"
        },
        {
          "indexed": true,
          "name": "to",
          "type": "address"
        },
        {
          "indexed": false,
          "name": "value",
          "type": "uint256"
        }
      ],
      "name": "Transfer",
      "type": "event"
    },
    {
      "anonymous": false,
      "inputs": [
        {
          "indexed": true,
          "name": "owner",
          "type": "address"
        },
        {
          "indexed": true,
          "name": "spender",
          "type": "address"
        },
        {
          "indexed": false,
          "name": "value",
          "type": "uint256"
        }
      ],
      "name": "Approval",
      "type": "event"
    },
    {
      "anonymous": false,
      "inputs": [
        {
          "indexed": false,
          "name": "newTokenState",
          "type": "address"
        }
      ],
      "name": "TokenStateUpdated",
      "type": "event"
    },
    {
      "anonymous": false,
      "inputs": [
        {
          "indexed": false,
          "name": "proxyAddress",
          "type": "address"
        }
      ],
      "name": "ProxyUpdated",
      "type": "event"
    },
    {
      "anonymous": false,
      "inputs": [],
      "name": "SelfDestructTerminated",
      "type": "event"
    },
    {
      "anonymous": false,
      "inputs": [
        {
          "indexed": false,
          "name": "beneficiary",
          "type": "address"
        }
      ],
      "name": "SelfDestructed",
      "type": "event"
    },
    {
      "anonymous": false,
      "inputs": [
        {
          "indexed": false,
          "name": "selfDestructDelay",
          "type": "uint256"
        }
      ],
      "name": "SelfDestructInitiated",
      "type": "event"
    },
    {
      "anonymous": false,
      "inputs": [
        {
          "indexed": false,
          "name": "newBeneficiary",
          "type": "address"
        }
      ],
      "name": "SelfDestructBeneficiaryUpdated",
      "type": "event"
    },
    {
      "anonymous": false,
      "inputs": [
        {
          "indexed": false,
          "name": "newOwner",
          "type": "address"
        }
      ],
      "name": "OwnerNominated",
      "type": "event"
    },
    {
      "anonymous": false,
      "inputs": [
        {
          "indexed": false,
          "name": "oldOwner",
          "type": "address"
        },
        {
          "indexed": false,
          "name": "newOwner",
          "type": "address"
        }
      ],
      "name": "OwnerChanged",
      "type": "event"
    },
    {
      "constant": false,
      "inputs": [
        {
          "name": "_transferFeeRate",
          "type": "uint256"
        }
      ],
      "name": "setTransferFeeRate",
      "outputs": [],
      "payable": false,
      "stateMutability": "nonpayable",
      "type": "function"
    },
    {
      "constant": false,
      "inputs": [
        {
          "name": "_feeAuthority",
          "type": "address"
        }
      ],
      "name": "setFeeAuthority",
      "outputs": [],
      "payable": false,
      "stateMutability": "nonpayable",
      "type": "function"
    },
    {
      "constant": true,
      "inputs": [
        {
          "name": "value",
          "type": "uint256"
        }
      ],
      "name": "transferFeeIncurred",
      "outputs": [
        {
          "name": "",
          "type": "uint256"
        }
      ],
      "payable": false,
      "stateMutability": "view",
      "type": "function"
    },
    {
      "constant": true,
      "inputs": [
        {
          "name": "value",
          "type": "uint256"
        }
      ],
      "name": "transferPlusFee",
      "outputs": [
        {
          "name": "",
          "type": "uint256"
        }
      ],
      "payable": false,
      "stateMutability": "view",
      "type": "function"
    },
    {
      "constant": true,
      "inputs": [
        {
          "name": "value",
          "type": "uint256"
        }
      ],
      "name": "amountReceived",
      "outputs": [
        {
          "name": "",
          "type": "uint256"
        }
      ],
      "payable": false,
      "stateMutability": "view",
      "type": "function"
    },
    {
      "constant": true,
      "inputs": [],
      "name": "feePool",
      "outputs": [
        {
          "name": "",
          "type": "uint256"
        }
      ],
      "payable": false,
      "stateMutability": "view",
      "type": "function"
    },
    {
      "constant": false,
      "inputs": [
        {
          "name": "account",
          "type": "address"
        },
        {
          "name": "value",
          "type": "uint256"
        }
      ],
      "name": "withdrawFees",
      "outputs": [
        {
          "name": "",
          "type": "bool"
        }
      ],
      "payable": false,
      "stateMutability": "nonpayable",
      "type": "function"
    },
    {
      "constant": false,
      "inputs": [
        {
          "name": "n",
          "type": "uint256"
        }
      ],
      "name": "donateToFeePool",
      "outputs": [
        {
          "name": "",
          "type": "bool"
        }
      ],
      "payable": false,
      "stateMutability": "nonpayable",
      "type": "function"
    }
  ],
  "bytecode": "0x60806040526005805460a060020a60ff02191690553480156200002157600080fd5b50604051620029963803806200299683398101604090815281516020830151918301516060840151608085015160a086015160c087015160e08801519597948501959390940193919290919087878787878585818080600160a060020a0381161515620000ef57604080517f08c379a000000000000000000000000000000000000000000000000000000000815260206004820152601960248201527f4f776e657220616464726573732063616e6e6f74206265203000000000000000604482015290519081900360640190fd5b60008054600160a060020a031916600160a060020a038316908117825560408051928352602083019190915280517fb532073b38c83145e3e5135377a08bf9aab55bc0fd7c1179cd4fb995d2a5159c9281900390910190a150600160a060020a0381161515620001e657604080517f08c379a000000000000000000000000000000000000000000000000000000000815260206004820152602260248201527f4f776e6572206d757374206e6f7420626520746865207a65726f20616464726560448201527f7373000000000000000000000000000000000000000000000000000000000000606482015290519081900360840190fd5b60038054600160a060020a038316610100810261010060a860020a03199092169190911790915560408051918252517fd5da63a0b864b315bc04128dedbc93888c8529ee6cf47ce664dc204339228c539181900360200190a15060048054600160a060020a038416600160a060020a0319909116811790915560408051918252517ffc80377ca9c49cc11ae6982f390a42db976d5530af7c43889264b13fbbd7c57e9181900360200190a150508351620002a8906007906020870190620003ca565b508251620002be906008906020860190620003ca565b5050600955505060068054600160a060020a0319908116600160a060020a0393841617909155600b80549091169185169190911790555067016345785d8a0000831115620003b957604080517f08c379a000000000000000000000000000000000000000000000000000000000815260206004820152604160248201527f436f6e7374727563746564207472616e7366657220666565207261746520736860448201527f6f756c64207265737065637420746865206d6178696d756d206665652072617460648201527f6500000000000000000000000000000000000000000000000000000000000000608482015290519081900360a40190fd5b5050600a55506200046f9350505050565b828054600181600116156101000203166002900490600052602060002090601f016020900481019282601f106200040d57805160ff19168380011785556200043d565b828001600101855582156200043d579182015b828111156200043d57825182559160200191906001019062000420565b506200044b9291506200044f565b5090565b6200046c91905b808211156200044b576000815560010162000456565b90565b612517806200047f6000396000f3006080604052600436106101a85763ffffffff60e060020a60003504166306fdde0381146101ad578063095ea7b3146102375780631627540c1461026f57806317c70de41461029257806318160ddd146102b95780631a463a7d146102ce57806320714f88146102e6578063313ce5671461030757806331dbd8a5146103325780633278c96014610363578063351bf5181461037857806345df30d21461038d57806353a47bb7146103a557806363ff6125146103ba57806370a08231146103d257806379ba5097146103f35780638a957929146104085780638da5cb5b1461042957806395d89b411461043e57806397107d6d146104535780639cb8a26a146104745780639d8e2177146104895780639f7698071461049e578063a461fc82146104bf578063ad3b1b47146104d4578063ae2e933b146104f8578063b8225dec1461050d578063bc67f83214610522578063bd32aa4414610543578063c58aaae614610558578063c894e1e51461056d578063da46e6c414610585578063dd62ed3e1461059d578063e90dd9e2146105c4578063eb1edd61146105d9578063ec556889146105ee575b600080fd5b3480156101b957600080fd5b506101c2610603565b6040805160208082528351818301528351919283929083019185019080838360005b838110156101fc5781810151838201526020016101e4565b50505050905090810190601f1680156102295780820380516001836020036101000a031916815260200191505b509250505060405180910390f35b34801561024357600080fd5b5061025b600160a060020a0360043516602435610691565b604080519115158252519081900360200190f35b34801561027b57600080fd5b50610290600160a060020a0360043516610767565b005b34801561029e57600080fd5b506102a761081f565b60408051918252519081900360200190f35b3480156102c557600080fd5b506102a7610825565b3480156102da57600080fd5b506102a760043561082b565b3480156102f257600080fd5b50610290600160a060020a036004351661084f565b34801561031357600080fd5b5061031c6109a2565b6040805160ff9092168252519081900360200190f35b34801561033e57600080fd5b506103476109a7565b60408051600160a060020a039092168252519081900360200190f35b34801561036f57600080fd5b506102906109b6565b34801561038457600080fd5b506102a7610a54565b34801561039957600080fd5b506102a7600435610a5a565b3480156103b157600080fd5b50610347610a6e565b3480156103c657600080fd5b5061025b600435610a7d565b3480156103de57600080fd5b506102a7600160a060020a0360043516610d77565b3480156103ff57600080fd5b50610290610dfe565b34801561041457600080fd5b50610290600160a060020a0360043516610ef9565b34801561043557600080fd5b50610347610fd3565b34801561044a57600080fd5b506101c2610fe2565b34801561045f57600080fd5b50610290600160a060020a036004351661103d565b34801561048057600080fd5b506102906110f5565b34801561049557600080fd5b506102a76112ba565b3480156104aa57600080fd5b50610290600160a060020a03600435166112c6565b3480156104cb57600080fd5b506102a761139d565b3480156104e057600080fd5b5061025b600160a060020a03600435166024356113a4565b34801561050457600080fd5b506102a7611700565b34801561051957600080fd5b5061025b611794565b34801561052e57600080fd5b50610290600160a060020a036004351661179d565b34801561054f57600080fd5b50610290611847565b34801561056457600080fd5b506103476118f4565b34801561057957600080fd5b50610290600435611908565b34801561059157600080fd5b506102a7600435611a4f565b3480156105a957600080fd5b506102a7600160a060020a0360043581169060243516611a5d565b3480156105d057600080fd5b50610347611b03565b3480156105e557600080fd5b50610347611b12565b3480156105fa57600080fd5b50610347611b2a565b6007805460408051602060026001851615610100026000190190941693909304601f810184900484028201840190925281815292918301828280156106895780601f1061065e57610100808354040283529160200191610689565b820191906000526020600020905b81548152906001019060200180831161066c57829003601f168201915b505050505081565b6004546000908190600160a060020a031633146106bb5760058054600160a060020a031916331790555b50600554600654604080517fda46098c000000000000000000000000000000000000000000000000000000008152600160a060020a0393841660048201819052878516602483015260448201879052915191939092169163da46098c91606480830192600092919082900301818387803b15801561073857600080fd5b505af115801561074c573d6000803e3d6000fd5b5050505061075b818585611b39565b600191505b5092915050565b600054600160a060020a031633146107cb576040805160e560020a62461bcd02815260206004820152602f60248201526000805160206124ac83398151915260448201526000805160206124cc833981519152606482015290519081900360840190fd5b60018054600160a060020a038316600160a060020a0319909116811790915560408051918252517f906a1c6bd7e3091ea86693dd029a831c19049ce77f1dce2ce0bab1cacbabce229181900360200190a150565b60025481565b60095481565b600061084982610844601260ff16600a0a600a54611caa565b611d0b565b92915050565b600054600160a060020a031633146108b3576040805160e560020a62461bcd02815260206004820152602f60248201526000805160206124ac83398151915260448201526000805160206124cc833981519152606482015290519081900360840190fd5b600160a060020a0381161515610939576040805160e560020a62461bcd02815260206004820152602860248201527f42656e6566696369617279206d757374206e6f7420626520746865207a65726f60448201527f2061646472657373000000000000000000000000000000000000000000000000606482015290519081900360840190fd5b60038054600160a060020a038316610100810274ffffffffffffffffffffffffffffffffffffffff00199092169190911790915560408051918252517fd5da63a0b864b315bc04128dedbc93888c8529ee6cf47ce664dc204339228c539181900360200190a150565b601281565b600b54600160a060020a031681565b600054600160a060020a03163314610a1a576040805160e560020a62461bcd02815260206004820152602f60248201526000805160206124ac83398151915260448201526000805160206124cc833981519152606482015290519081900360840190fd5b600060028190556003805460ff191690556040517f6adcc7125002935e0aa31697538ebbd65cfddf20431eb6ecdcfc3e238bfd082c9190a1565b600a5481565b600061084982610a6984611a4f565b611caa565b600154600160a060020a031681565b60045460009081908190600160a060020a03163314610aa95760058054600160a060020a031916331790555b6005546006546040805160e060020a6370a08231028152600160a060020a0393841660048201819052915191955092909116916370a082319160248083019260209291908290030181600087803b158015610b0357600080fd5b505af1158015610b17573d6000803e3d6000fd5b505050506040513d6020811015610b2d57600080fd5b50519050801515610bae576040805160e560020a62461bcd02815260206004820152603660248201527f4d757374206861766520612062616c616e636520696e206f7264657220746f2060448201527f646f6e61746520746f207468652066656520706f6f6c00000000000000000000606482015290519081900360840190fd5b600654600160a060020a031663b46310f683610bca8488611d2f565b6040518363ffffffff1660e060020a0281526004018083600160a060020a0316600160a060020a0316815260200182815260200192505050600060405180830381600087803b158015610c1c57600080fd5b505af1158015610c30573d6000803e3d6000fd5b50506006546040805160e060020a6370a0823102815273feefeefeefeefeefeefeefeefeefeefeefeefeef600482018190529151600160a060020a03909316945063b46310f693509091610cda9185916370a08231916024808201926020929091908290030181600087803b158015610ca857600080fd5b505af1158015610cbc573d6000803e3d6000fd5b505050506040513d6020811015610cd257600080fd5b505188611caa565b6040518363ffffffff1660e060020a0281526004018083600160a060020a0316600160a060020a0316815260200182815260200192505050600060405180830381600087803b158015610d2c57600080fd5b505af1158015610d40573d6000803e3d6000fd5b50505050610d4e8285611d8f565b610d6d8273feefeefeefeefeefeefeefeefeefeefeefeefeef86611ed7565b5060019392505050565b6006546040805160e060020a6370a08231028152600160a060020a038481166004830152915160009392909216916370a082319160248082019260209290919082900301818787803b158015610dcc57600080fd5b505af1158015610de0573d6000803e3d6000fd5b505050506040513d6020811015610df657600080fd5b505192915050565b600154600160a060020a03163314610e86576040805160e560020a62461bcd02815260206004820152603560248201527f596f75206d757374206265206e6f6d696e61746564206265666f726520796f7560448201527f2063616e20616363657074206f776e6572736869700000000000000000000000606482015290519081900360840190fd5b60005460015460408051600160a060020a03938416815292909116602083015280517fb532073b38c83145e3e5135377a08bf9aab55bc0fd7c1179cd4fb995d2a5159c9281900390910190a16001805460008054600160a060020a0319908116600160a060020a03841617909155169055565b600454600160a060020a03163314610f1e5760058054600160a060020a031916331790555b600054600554600160a060020a03908116911614610fac576040805160e560020a62461bcd02815260206004820152602e60248201527f5468697320616374696f6e2063616e206f6e6c7920626520706572666f726d6560448201527f6420627920746865206f776e6572000000000000000000000000000000000000606482015290519081900360840190fd5b600b8054600160a060020a031916600160a060020a038316179055610fd081611fd9565b50565b600054600160a060020a031681565b6008805460408051602060026001851615610100026000190190941693909304601f810184900484028201840190925281815292918301828280156106895780601f1061065e57610100808354040283529160200191610689565b600054600160a060020a031633146110a1576040805160e560020a62461bcd02815260206004820152602f60248201526000805160206124ac83398151915260448201526000805160206124cc833981519152606482015290519081900360840190fd5b60048054600160a060020a038316600160a060020a0319909116811790915560408051918252517ffc80377ca9c49cc11ae6982f390a42db976d5530af7c43889264b13fbbd7c57e9181900360200190a150565b60008054600160a060020a0316331461115a576040805160e560020a62461bcd02815260206004820152602f60248201526000805160206124ac83398151915260448201526000805160206124cc833981519152606482015290519081900360840190fd5b60035460ff1615156111dc576040805160e560020a62461bcd02815260206004820152602860248201527f53656c6620646573747275637420686173206e6f7420796574206265656e206960448201527f6e69746961746564000000000000000000000000000000000000000000000000606482015290519081900360840190fd5b426224ea0060025401101515611262576040805160e560020a62461bcd02815260206004820152602760248201527f53656c662064657374727563742064656c617920686173206e6f74207965742060448201527f656c617073656400000000000000000000000000000000000000000000000000606482015290519081900360840190fd5b5060035460408051600160a060020a0361010090930492909216808352905190917f8a09e1677ced846cb537dc2b172043bd05a1a81ad7e0033a7ef8ba762df990b7919081900360200190a180600160a060020a0316ff5b670de0b6b3a764000081565b600454600160a060020a031633146112eb5760058054600160a060020a031916331790555b600054600554600160a060020a03908116911614611379576040805160e560020a62461bcd02815260206004820152602e60248201527f5468697320616374696f6e2063616e206f6e6c7920626520706572666f726d6560448201527f6420627920746865206f776e6572000000000000000000000000000000000000606482015290519081900360840190fd5b60068054600160a060020a031916600160a060020a038316179055610fd081612120565b6224ea0081565b600b54600090600160a060020a0316331461142f576040805160e560020a62461bcd02815260206004820152602960248201527f4f6e6c79207468652066656520617574686f726974792063616e20646f20746860448201527f697320616374696f6e0000000000000000000000000000000000000000000000606482015290519081900360840190fd5b600160a060020a03831615156114b5576040805160e560020a62461bcd02815260206004820152602f60248201527f4d75737420737570706c7920616e206163636f756e742061646472657373207460448201527f6f20776974686472617720666565730000000000000000000000000000000000606482015290519081900360840190fd5b8115156114c457506000610849565b6006546040805160e060020a6370a0823102815273feefeefeefeefeefeefeefeefeefeefeefeefeef600482018190529151600160a060020a039093169263b46310f692916115689185916370a082319160248083019260209291908290030181600087803b15801561153657600080fd5b505af115801561154a573d6000803e3d6000fd5b505050506040513d602081101561156057600080fd5b505186611d2f565b6040518363ffffffff1660e060020a0281526004018083600160a060020a0316600160a060020a0316815260200182815260200192505050600060405180830381600087803b1580156115ba57600080fd5b505af11580156115ce573d6000803e3d6000fd5b50506006546040805160e060020a6370a08231028152600160a060020a038881166004830152915191909216935063b46310f6925086916116649185916370a082319160248083019260209291908290030181600087803b15801561163257600080fd5b505af1158015611646573d6000803e3d6000fd5b505050506040513d602081101561165c57600080fd5b505186611caa565b6040518363ffffffff1660e060020a0281526004018083600160a060020a0316600160a060020a0316815260200182815260200192505050600060405180830381600087803b1580156116b657600080fd5b505af11580156116ca573d6000803e3d6000fd5b505050506116d883836121fa565b6116f773feefeefeefeefeefeefeefeefeefeefeefeefeef8484611ed7565b50600192915050565b6006546040805160e060020a6370a0823102815273feefeefeefeefeefeefeefeefeefeefeefeefeef60048201529051600092600160a060020a0316916370a0823191602480830192602092919082900301818787803b15801561176357600080fd5b505af1158015611777573d6000803e3d6000fd5b505050506040513d602081101561178d57600080fd5b5051905090565b60035460ff1681565b600454600160a060020a03163314611825576040805160e560020a62461bcd02815260206004820152602560248201527f4f6e6c79207468652070726f78792063616e2063616c6c20746869732066756e60448201527f6374696f6e000000000000000000000000000000000000000000000000000000606482015290519081900360840190fd5b60058054600160a060020a031916600160a060020a0392909216919091179055565b600054600160a060020a031633146118ab576040805160e560020a62461bcd02815260206004820152602f60248201526000805160206124ac83398151915260448201526000805160206124cc833981519152606482015290519081900360840190fd5b426002556003805460ff19166001179055604080516224ea00815290517fcbd94ca75b8dc45c9d80c77e851670e78843c0d75180cb81db3e2158228fa9a69181900360200190a1565b6003546101009004600160a060020a031681565b600454600160a060020a0316331461192d5760058054600160a060020a031916331790555b600054600554600160a060020a039081169116146119bb576040805160e560020a62461bcd02815260206004820152602e60248201527f5468697320616374696f6e2063616e206f6e6c7920626520706572666f726d6560448201527f6420627920746865206f776e6572000000000000000000000000000000000000606482015290519081900360840190fd5b67016345785d8a0000811115611a41576040805160e560020a62461bcd02815260206004820152603560248201527f5472616e73666572206665652072617465206d7573742062652062656c6f772060448201527f4d41585f5452414e534645525f4645455f524154450000000000000000000000606482015290519081900360840190fd5b600a819055610fd0816122d4565b600061084982600a546123a8565b600654604080517fdd62ed3e000000000000000000000000000000000000000000000000000000008152600160a060020a03858116600483015284811660248301529151600093929092169163dd62ed3e9160448082019260209290919082900301818787803b158015611ad057600080fd5b505af1158015611ae4573d6000803e3d6000fd5b505050506040513d6020811015611afa57600080fd5b50519392505050565b600654600160a060020a031681565b73feefeefeefeefeefeefeefeefeefeefeefeefeef81565b600454600160a060020a031681565b600480546040805160208082018690528251808303820181528284018085527f417070726f76616c28616464726573732c616464726573732c75696e7432353690527f29000000000000000000000000000000000000000000000000000000000000006060840152925191829003606101822060e060020a63907dff9702835260036024840181905260448401829052600160a060020a038a8116606486018190528a821660848701819052600060a4880181905260c09a88019a8b52885160c48901528851939099169963907dff97999497959692959194939092839260e40191908a0190808383885b83811015611c3c578181015183820152602001611c24565b50505050905090810190601f168015611c695780820380516001836020036101000a031916815260200191505b50975050505050505050600060405180830381600087803b158015611c8d57600080fd5b505af1158015611ca1573d6000803e3d6000fd5b50505050505050565b6000828201821115611d06576040805160e560020a62461bcd02815260206004820152600f60248201527f5361666520616464206661696c65640000000000000000000000000000000000604482015290519081900360640190fd5b500190565b6000611d28611d2284670de0b6b3a76400006123ce565b83612447565b9392505050565b600082821115611d89576040805160e560020a62461bcd02815260206004820152600f60248201527f5361666520737562206661696c65640000000000000000000000000000000000604482015290519081900360640190fd5b50900390565b600480546040805160208082018690528251808303820181528284018085527f46656573446f6e6174656428616464726573732c75696e7432353629000000009052925191829003605c01822060e060020a63907dff9702835260026024840181905260448401829052600160a060020a038981166064860181905260006084870181905260a4870181905260c0998701998a52875160c48801528751929098169863907dff979893969495919484939192839260e490920191908a0190808383885b83811015611e6a578181015183820152602001611e52565b50505050905090810190601f168015611e975780820380516001836020036101000a031916815260200191505b50975050505050505050600060405180830381600087803b158015611ebb57600080fd5b505af1158015611ecf573d6000803e3d6000fd5b505050505050565b600480546040805160208082018690528251808303820181528284018085527f5472616e7366657228616464726573732c616464726573732c75696e7432353690527f29000000000000000000000000000000000000000000000000000000000000006060840152925191829003606101822060e060020a63907dff9702835260036024840181905260448401829052600160a060020a038a8116606486018190528a821660848701819052600060a4880181905260c09a88019a8b52885160c48901528851939099169963907dff97999497959692959194939092839260e40191908a01908083838883811015611c3c578181015183820152602001611c24565b6004805460408051600160a060020a038581166020808401919091528351808403820181528385018086527f466565417574686f7269747955706461746564286164647265737329000000009052935192839003605c01832060e060020a63907dff97028452600160248501819052604485018290526000606486018190526084860181905260a4860181905260c0988601988952865160c48701528651949097169763907dff979791959294919384938493839260e4909201918a0190808383885b838110156120b457818101518382015260200161209c565b50505050905090810190601f1680156120e15780820380516001836020036101000a031916815260200191505b50975050505050505050600060405180830381600087803b15801561210557600080fd5b505af1158015612119573d6000803e3d6000fd5b5050505050565b6004805460408051600160a060020a038581166020808401919091528351808403820181528385018086527f546f6b656e5374617465557064617465642861646472657373290000000000009052935192839003605a01832060e060020a63907dff97028452600160248501819052604485018290526000606486018190526084860181905260a4860181905260c0988601988952865160c48701528651949097169763907dff979791959294919384938493839260e4909201918a019080838388838110156120b457818101518382015260200161209c565b600480546040805160208082018690528251808303820181528284018085527f4665657357697468647261776e28616464726573732c75696e743235362900009052925191829003605e01822060e060020a63907dff9702835260026024840181905260448401829052600160a060020a038981166064860181905260006084870181905260a4870181905260c0998701998a52875160c48801528751929098169863907dff979893969495919484939192839260e490920191908a01908083838883811015611e6a578181015183820152602001611e52565b600480546040805160208082018690528251808303820181528284018085527f5472616e7366657246656552617465557064617465642875696e7432353629009052925191829003605f01822060e060020a63907dff97028352600160248401819052604484018290526000606485018190526084850181905260a4850181905260c0978501978852855160c48601528551600160a060020a039097169763907dff979792959394919384938493839260e40191908a019080838388838110156120b457818101518382015260200161209c565b6000670de0b6b3a76400006123bd84846123ce565b8115156123c657fe5b049392505050565b6000808315156123e15760009150610760565b508282028284828115156123f157fe5b0414611d28576040805160e560020a62461bcd02815260206004820152600f60248201527f53616665206d756c206661696c65640000000000000000000000000000000000604482015290519081900360640190fd5b60008115156124a0576040805160e560020a62461bcd02815260206004820152601a60248201527f44656e6f6d696e61746f722063616e6e6f74206265207a65726f000000000000604482015290519081900360640190fd5b81838115156123c657fe004f6e6c792074686520636f6e7472616374206f776e6572206d617920706572666f726d207468697320616374696f6e0000000000000000000000000000000000a165627a7a72305820fa33a48f70127eac1c7f6ac4df31085dd26d22bfc60f6bba2bcd309646f06f470029",
  "source": "/*\n-----------------------------------------------------------------\nFILE INFORMATION\n-----------------------------------------------------------------\n\nfile:       FeeToken.sol\nversion:    1.3\nauthor:     Anton Jurisevic\n            Dominic Romanowski\n            Kevin Brown\n\ndate:       2018-05-29\n\n-----------------------------------------------------------------\nMODULE DESCRIPTION\n-----------------------------------------------------------------\n\nA token which also has a configurable fee rate\ncharged on its transfers. This is designed to be overridden in\norder to produce an ERC20-compliant token.\n\nThese fees accrue into a pool, from which a nominated authority\nmay withdraw.\n\nThis contract utilises an external state for upgradeability.\n\n-----------------------------------------------------------------\n*/\n\npragma solidity 0.4.24;\n\n\nimport \"./ExternStateToken.sol\";\n\n/**\n * @title ERC20 Token contract, with detached state.\n * Additionally charges fees on each transfer.\n */\ncontract FeeToken is ExternStateToken {\n\n    /* ========== STATE VARIABLES ========== */\n\n    /* ERC20 members are declared in ExternStateToken. */\n\n    /* A percentage fee charged on each transfer. */\n    uint public transferFeeRate;\n    /* Fee may not exceed 10%. */\n    uint constant MAX_TRANSFER_FEE_RATE = UNIT / 10;\n    /* The address with the authority to distribute fees. */\n    address public feeAuthority;\n    /* The address that fees will be pooled in. */\n    address public constant FEE_ADDRESS = 0xfeefeefeefeefeefeefeefeefeefeefeefeefeef;\n\n\n    /* ========== CONSTRUCTOR ========== */\n\n    /**\n     * @dev Constructor.\n     * @param _proxy The proxy associated with this contract.\n     * @param _name Token's ERC20 name.\n     * @param _symbol Token's ERC20 symbol.\n     * @param _totalSupply The total supply of the token.\n     * @param _transferFeeRate The fee rate to charge on transfers.\n     * @param _feeAuthority The address which has the authority to withdraw fees from the accumulated pool.\n     * @param _owner The owner of this contract.\n     */\n    constructor(address _proxy, TokenState _tokenState, string _name, string _symbol, uint _totalSupply,\n                uint _transferFeeRate, address _feeAuthority, address _owner)\n        ExternStateToken(_proxy, _tokenState,\n                         _name, _symbol, _totalSupply,\n                         _owner)\n        public\n    {\n        feeAuthority = _feeAuthority;\n\n        /* Constructed transfer fee rate should respect the maximum fee rate. */\n        require(_transferFeeRate <= MAX_TRANSFER_FEE_RATE, \"Constructed transfer fee rate should respect the maximum fee rate\");\n        transferFeeRate = _transferFeeRate;\n    }\n\n    /* ========== SETTERS ========== */\n\n    /**\n     * @notice Set the transfer fee, anywhere within the range 0-10%.\n     * @dev The fee rate is in decimal format, with UNIT being the value of 100%.\n     */\n    function setTransferFeeRate(uint _transferFeeRate)\n        external\n        optionalProxy_onlyOwner\n    {\n        require(_transferFeeRate <= MAX_TRANSFER_FEE_RATE, \"Transfer fee rate must be below MAX_TRANSFER_FEE_RATE\");\n        transferFeeRate = _transferFeeRate;\n        emitTransferFeeRateUpdated(_transferFeeRate);\n    }\n\n    /**\n     * @notice Set the address of the user/contract responsible for collecting or\n     * distributing fees.\n     */\n    function setFeeAuthority(address _feeAuthority)\n        public\n        optionalProxy_onlyOwner\n    {\n        feeAuthority = _feeAuthority;\n        emitFeeAuthorityUpdated(_feeAuthority);\n    }\n\n    /* ========== VIEWS ========== */\n\n    /**\n     * @notice Calculate the Fee charged on top of a value being sent\n     * @return Return the fee charged\n     */\n    function transferFeeIncurred(uint value)\n        public\n        view\n        returns (uint)\n    {\n        return safeMul_dec(value, transferFeeRate);\n        /* Transfers less than the reciprocal of transferFeeRate should be completely eaten up by fees.\n         * This is on the basis that transfers less than this value will result in a nil fee.\n         * Probably too insignificant to worry about, but the following code will achieve it.\n         *      if (fee == 0 && transferFeeRate != 0) {\n         *          return _value;\n         *      }\n         *      return fee;\n         */\n    }\n\n    /**\n     * @notice The value that you would need to send so that the recipient receives\n     * a specified value.\n     */\n    function transferPlusFee(uint value)\n        external\n        view\n        returns (uint)\n    {\n        return safeAdd(value, transferFeeIncurred(value));\n    }\n\n    /**\n     * @notice The amount the recipient will receive if you send a certain number of tokens.\n     */\n    function amountReceived(uint value)\n        public\n        view\n        returns (uint)\n    {\n        return safeDiv_dec(value, safeAdd(UNIT, transferFeeRate));\n    }\n\n    /**\n     * @notice Collected fees sit here until they are distributed.\n     * @dev The balance of the nomin contract itself is the fee pool.\n     */\n    function feePool()\n        external\n        view\n        returns (uint)\n    {\n        return tokenState.balanceOf(FEE_ADDRESS);\n    }\n\n    /* ========== MUTATIVE FUNCTIONS ========== */\n\n    /**\n     * @notice Base of transfer functions\n     */\n    function _internalTransfer(address from, address to, uint amount, uint fee, bytes data)\n        internal\n        returns (bool)\n    {\n        /* Disallow transfers to irretrievable-addresses. */\n        require(to != address(0), \"Cannot transfer to the 0 address\");\n        require(to != address(this), \"Cannot transfer to the underlying contract\");\n        require(to != address(proxy), \"Cannot transfer to the proxy contract\");\n\n        /* Insufficient balance will be handled by the safe subtraction. */\n        tokenState.setBalanceOf(from, safeSub(tokenState.balanceOf(from), safeAdd(amount, fee)));\n        tokenState.setBalanceOf(to, safeAdd(tokenState.balanceOf(to), amount));\n        tokenState.setBalanceOf(FEE_ADDRESS, safeAdd(tokenState.balanceOf(FEE_ADDRESS), fee));\n\n        callTokenFallbackIfNeeded(from, to, amount, data);\n\n        /* Emit events for both the transfer itself and the fee. */\n        emitTransfer(from, to, amount);\n        emitTransfer(from, FEE_ADDRESS, fee);\n\n        return true;\n    }\n\n    /**\n     * @notice ERC20 / ERC223 friendly transfer function.\n     */\n    function _transfer_byProxy(address sender, address to, uint value, bytes data)\n        internal\n        returns (bool)\n    {\n        uint received = amountReceived(value);\n        uint fee = safeSub(value, received);\n\n        return _internalTransfer(sender, to, received, fee, data);\n    }\n\n    /**\n     * @notice ERC20 friendly transferFrom function.\n     */\n    function _transferFrom_byProxy(address sender, address from, address to, uint value, bytes data)\n        internal\n        returns (bool)\n    {\n        /* The fee is deducted from the amount sent. */\n        uint received = amountReceived(value);\n        uint fee = safeSub(value, received);\n\n        /* Reduce the allowance by the amount we're transferring.\n         * The safeSub call will handle an insufficient allowance. */\n        tokenState.setAllowance(from, sender, safeSub(tokenState.allowance(from, sender), value));\n\n        return _internalTransfer(from, to, received, fee, data);\n    }\n\n    /**\n     * @notice Ability to transfer where the sender pays the fees (not ERC20)\n     */\n    function _transferSenderPaysFee_byProxy(address sender, address to, uint value, bytes data)\n        internal\n        returns (bool)\n    {\n        /* The fee is added to the amount sent. */\n        uint fee = transferFeeIncurred(value);\n        return _internalTransfer(sender, to, value, fee, data);\n    }\n\n    /**\n     * @notice Ability to transferFrom where they sender pays the fees (not ERC20).\n     */\n    function _transferFromSenderPaysFee_byProxy(address sender, address from, address to, uint value, bytes data)\n        internal\n        returns (bool)\n    {\n        /* The fee is added to the amount sent. */\n        uint fee = transferFeeIncurred(value);\n        uint total = safeAdd(value, fee);\n\n        /* Reduce the allowance by the amount we're transferring. */\n        tokenState.setAllowance(from, sender, safeSub(tokenState.allowance(from, sender), total));\n\n        return _internalTransfer(from, to, value, fee, data);\n    }\n\n    /**\n     * @notice Withdraw tokens from the fee pool into a given account.\n     * @dev Only the fee authority may call this.\n     */\n    function withdrawFees(address account, uint value)\n        external\n        onlyFeeAuthority\n        returns (bool)\n    {\n        require(account != address(0), \"Must supply an account address to withdraw fees\");\n\n        /* 0-value withdrawals do nothing. */\n        if (value == 0) {\n            return false;\n        }\n\n        /* Safe subtraction ensures an exception is thrown if the balance is insufficient. */\n        tokenState.setBalanceOf(FEE_ADDRESS, safeSub(tokenState.balanceOf(FEE_ADDRESS), value));\n        tokenState.setBalanceOf(account, safeAdd(tokenState.balanceOf(account), value));\n\n        emitFeesWithdrawn(account, value);\n        emitTransfer(FEE_ADDRESS, account, value);\n\n        return true;\n    }\n\n    /**\n     * @notice Donate tokens from the sender's balance into the fee pool.\n     */\n    function donateToFeePool(uint n)\n        external\n        optionalProxy\n        returns (bool)\n    {\n        address sender = messageSender;\n        /* Empty donations are disallowed. */\n        uint balance = tokenState.balanceOf(sender);\n        require(balance != 0, \"Must have a balance in order to donate to the fee pool\");\n\n        /* safeSub ensures the donor has sufficient balance. */\n        tokenState.setBalanceOf(sender, safeSub(balance, n));\n        tokenState.setBalanceOf(FEE_ADDRESS, safeAdd(tokenState.balanceOf(FEE_ADDRESS), n));\n\n        emitFeesDonated(sender, n);\n        emitTransfer(sender, FEE_ADDRESS, n);\n\n        return true;\n    }\n\n\n    /* ========== MODIFIERS ========== */\n\n    modifier onlyFeeAuthority\n    {\n        require(msg.sender == feeAuthority, \"Only the fee authority can do this action\");\n        _;\n    }\n\n\n    /* ========== EVENTS ========== */\n\n    event TransferFeeRateUpdated(uint newFeeRate);\n    bytes32 constant TRANSFERFEERATEUPDATED_SIG = keccak256(\"TransferFeeRateUpdated(uint256)\");\n    function emitTransferFeeRateUpdated(uint newFeeRate) internal {\n        proxy._emit(abi.encode(newFeeRate), 1, TRANSFERFEERATEUPDATED_SIG, 0, 0, 0);\n    }\n\n    event FeeAuthorityUpdated(address newFeeAuthority);\n    bytes32 constant FEEAUTHORITYUPDATED_SIG = keccak256(\"FeeAuthorityUpdated(address)\");\n    function emitFeeAuthorityUpdated(address newFeeAuthority) internal {\n        proxy._emit(abi.encode(newFeeAuthority), 1, FEEAUTHORITYUPDATED_SIG, 0, 0, 0);\n    } \n\n    event FeesWithdrawn(address indexed account, uint value);\n    bytes32 constant FEESWITHDRAWN_SIG = keccak256(\"FeesWithdrawn(address,uint256)\");\n    function emitFeesWithdrawn(address account, uint value) internal {\n        proxy._emit(abi.encode(value), 2, FEESWITHDRAWN_SIG, bytes32(account), 0, 0);\n    }\n\n    event FeesDonated(address indexed donor, uint value);\n    bytes32 constant FEESDONATED_SIG = keccak256(\"FeesDonated(address,uint256)\");\n    function emitFeesDonated(address donor, uint value) internal {\n        proxy._emit(abi.encode(value), 2, FEESDONATED_SIG, bytes32(donor), 0, 0);\n    }\n}\n",
  "sourcePath": "/Users/clintonennis/Projects/havven/havven/contracts/FeeToken.sol",
  "compiler": {
    "name": "solc",
    "version": "0.4.24+commit.e67f0147.Emscripten.clang"
  },
  "schemaVersion": "3.0.0-beta.0",
  "updatedAt": "2018-11-13T02:08:18.242Z"
}