{
  "contractName": "HavvenState",
  "abi": [
    {
      "constant": true,
      "inputs": [
        {
          "name": "",
          "type": "uint256"
        }
      ],
      "name": "debtLedger",
      "outputs": [
        {
          "name": "",
          "type": "uint256"
        }
      ],
      "payable": false,
      "stateMutability": "view",
      "type": "function"
    },
    {
      "constant": false,
      "inputs": [
        {
          "name": "_owner",
          "type": "address"
        }
      ],
      "name": "nominateNewOwner",
      "outputs": [],
      "payable": false,
      "stateMutability": "nonpayable",
      "type": "function"
    },
    {
      "constant": false,
      "inputs": [
        {
          "name": "_associatedContract",
          "type": "address"
        }
      ],
      "name": "setAssociatedContract",
      "outputs": [],
      "payable": false,
      "stateMutability": "nonpayable",
      "type": "function"
    },
    {
      "constant": true,
      "inputs": [],
      "name": "nominatedOwner",
      "outputs": [
        {
          "name": "",
          "type": "address"
        }
      ],
      "payable": false,
      "stateMutability": "view",
      "type": "function"
    },
    {
      "constant": false,
      "inputs": [],
      "name": "acceptOwnership",
      "outputs": [],
      "payable": false,
      "stateMutability": "nonpayable",
      "type": "function"
    },
    {
      "constant": true,
      "inputs": [
        {
          "name": "",
          "type": "address"
        }
      ],
      "name": "issuanceData",
      "outputs": [
        {
          "name": "initialDebtOwnership",
          "type": "uint256"
        },
        {
          "name": "debtEntryIndex",
          "type": "uint256"
        }
      ],
      "payable": false,
      "stateMutability": "view",
      "type": "function"
    },
    {
      "constant": true,
      "inputs": [],
      "name": "owner",
      "outputs": [
        {
          "name": "",
          "type": "address"
        }
      ],
      "payable": false,
      "stateMutability": "view",
      "type": "function"
    },
    {
      "constant": true,
      "inputs": [],
      "name": "totalIssuerCount",
      "outputs": [
        {
          "name": "",
          "type": "uint256"
        }
      ],
      "payable": false,
      "stateMutability": "view",
      "type": "function"
    },
    {
      "constant": true,
      "inputs": [],
      "name": "associatedContract",
      "outputs": [
        {
          "name": "",
          "type": "address"
        }
      ],
      "payable": false,
      "stateMutability": "view",
      "type": "function"
    },
    {
      "constant": true,
      "inputs": [],
      "name": "issuanceRatio",
      "outputs": [
        {
          "name": "",
          "type": "uint256"
        }
      ],
      "payable": false,
      "stateMutability": "view",
      "type": "function"
    },
    {
      "constant": true,
      "inputs": [
        {
          "name": "",
          "type": "address"
        }
      ],
      "name": "preferredCurrency",
      "outputs": [
        {
          "name": "",
          "type": "bytes4"
        }
      ],
      "payable": false,
      "stateMutability": "view",
      "type": "function"
    },
    {
      "inputs": [
        {
          "name": "_owner",
          "type": "address"
        },
        {
          "name": "_associatedContract",
          "type": "address"
        }
      ],
      "payable": false,
      "stateMutability": "nonpayable",
      "type": "constructor"
    },
    {
      "anonymous": false,
      "inputs": [
        {
          "indexed": false,
          "name": "newRatio",
          "type": "uint256"
        }
      ],
      "name": "IssuanceRatioUpdated",
      "type": "event"
    },
    {
      "anonymous": false,
      "inputs": [
        {
          "indexed": false,
          "name": "associatedContract",
          "type": "address"
        }
      ],
      "name": "AssociatedContractUpdated",
      "type": "event"
    },
    {
      "anonymous": false,
      "inputs": [
        {
          "indexed": false,
          "name": "newOwner",
          "type": "address"
        }
      ],
      "name": "OwnerNominated",
      "type": "event"
    },
    {
      "anonymous": false,
      "inputs": [
        {
          "indexed": false,
          "name": "oldOwner",
          "type": "address"
        },
        {
          "indexed": false,
          "name": "newOwner",
          "type": "address"
        }
      ],
      "name": "OwnerChanged",
      "type": "event"
    },
    {
      "constant": false,
      "inputs": [
        {
          "name": "account",
          "type": "address"
        },
        {
          "name": "initialDebtOwnership",
          "type": "uint256"
        }
      ],
      "name": "setCurrentIssuanceData",
      "outputs": [],
      "payable": false,
      "stateMutability": "nonpayable",
      "type": "function"
    },
    {
      "constant": false,
      "inputs": [
        {
          "name": "account",
          "type": "address"
        }
      ],
      "name": "clearIssuanceData",
      "outputs": [],
      "payable": false,
      "stateMutability": "nonpayable",
      "type": "function"
    },
    {
      "constant": false,
      "inputs": [],
      "name": "incrementTotalIssuerCount",
      "outputs": [],
      "payable": false,
      "stateMutability": "nonpayable",
      "type": "function"
    },
    {
      "constant": false,
      "inputs": [],
      "name": "decrementTotalIssuerCount",
      "outputs": [],
      "payable": false,
      "stateMutability": "nonpayable",
      "type": "function"
    },
    {
      "constant": false,
      "inputs": [
        {
          "name": "value",
          "type": "uint256"
        }
      ],
      "name": "appendDebtLedgerValue",
      "outputs": [],
      "payable": false,
      "stateMutability": "nonpayable",
      "type": "function"
    },
    {
      "constant": false,
      "inputs": [
        {
          "name": "account",
          "type": "address"
        },
        {
          "name": "currencyKey",
          "type": "bytes4"
        }
      ],
      "name": "setPreferredCurrency",
      "outputs": [],
      "payable": false,
      "stateMutability": "nonpayable",
      "type": "function"
    },
    {
      "constant": false,
      "inputs": [
        {
          "name": "_issuanceRatio",
          "type": "uint256"
        }
      ],
      "name": "setIssuanceRatio",
      "outputs": [],
      "payable": false,
      "stateMutability": "nonpayable",
      "type": "function"
    },
    {
      "constant": false,
      "inputs": [
        {
          "name": "accounts",
          "type": "address[]"
        },
        {
          "name": "nUSDAmounts",
          "type": "uint256[]"
        }
      ],
      "name": "importIssuerData",
      "outputs": [],
      "payable": false,
      "stateMutability": "nonpayable",
      "type": "function"
    },
    {
      "constant": true,
      "inputs": [],
      "name": "debtLedgerLength",
      "outputs": [
        {
          "name": "",
          "type": "uint256"
        }
      ],
      "payable": false,
      "stateMutability": "view",
      "type": "function"
    },
    {
      "constant": true,
      "inputs": [],
      "name": "lastDebtLedgerEntry",
      "outputs": [
        {
          "name": "",
          "type": "uint256"
        }
      ],
      "payable": false,
      "stateMutability": "view",
      "type": "function"
    },
    {
      "constant": true,
      "inputs": [
        {
          "name": "account",
          "type": "address"
        }
      ],
      "name": "hasIssued",
      "outputs": [
        {
          "name": "",
          "type": "bool"
        }
      ],
      "payable": false,
      "stateMutability": "view",
      "type": "function"
    }
  ],
  "bytecode": "0x608060408190527f907af6c000000000000000000000000000000000000000000000000000000000815260059073__SafeDecimalMath_______________________9063907af6c09060849060209060048186803b15801561006057600080fd5b505af4158015610074573d6000803e3d6000fd5b505050506040513d602081101561008a57600080fd5b505181151561009557fe5b046007553480156100a557600080fd5b5060405160408061161983398101604052805160209091015162093a80828281600160a060020a038116151561013c57604080517f08c379a000000000000000000000000000000000000000000000000000000000815260206004820152601960248201527f4f776e657220616464726573732063616e6e6f74206265203000000000000000604482015290519081900360640190fd5b60008054600160a060020a031916600160a060020a038316908117825560408051928352602083019190915280517fb532073b38c83145e3e5135377a08bf9aab55bc0fd7c1179cd4fb995d2a5159c9281900390910190a15060028054600160a060020a038316600160a060020a0319909116811790915560408051918252517f73f20cff579e8a4086fa607db83867595f1b6a798e718c0bfa0b94a404128e039181900360200190a150504201600355505061141b806101fe6000396000f30060806040526004361061010e5763ffffffff60e060020a600035041663054be0b7811461011357806308d95cd51461012d5780631627540c146101575780631bfba595146101785780633d31e97b1461018d57806346317712146101a557806351dc7f7d146101ba57806352f445ca146101fd57806353a47bb71461021e57806379ba50971461024f5780638b3f8088146102645780638da5cb5b1461029e5780639371bede146102b35780639e49e976146102c8578063a764eb45146102f4578063aefc4ccb14610318578063b16c09f01461032d578063b410a0341461034e578063b992812e14610363578063ba08f29914610398578063caca2516146103ad578063cd92eba914610400575b600080fd5b34801561011f57600080fd5b5061012b600435610415565b005b34801561013957600080fd5b506101456004356105a4565b60408051918252519081900360200190f35b34801561016357600080fd5b5061012b600160a060020a03600435166105c3565b34801561018457600080fd5b5061012b610688565b34801561019957600080fd5b5061012b600435610705565b3480156101b157600080fd5b5061014561079e565b3480156101c657600080fd5b5061012b600160a060020a03600435167bffffffffffffffffffffffffffffffffffffffffffffffffffffffff19602435166107c4565b34801561020957600080fd5b5061012b600160a060020a036004351661085b565b34801561022a57600080fd5b50610233610920565b60408051600160a060020a039092168252519081900360200190f35b34801561025b57600080fd5b5061012b61092f565b34801561027057600080fd5b50610285600160a060020a0360043516610a37565b6040805192835260208301919091528051918290030190f35b3480156102aa57600080fd5b50610233610a50565b3480156102bf57600080fd5b50610145610a5f565b3480156102d457600080fd5b5061012b6024600480358281019290820135918135918201910135610a65565b34801561030057600080fd5b5061012b600160a060020a0360043516602435610bfd565b34801561032457600080fd5b50610233610c88565b34801561033957600080fd5b5061012b600160a060020a0360043516610c97565b34801561035a57600080fd5b50610145610d1b565b34801561036f57600080fd5b50610384600160a060020a0360043516610d21565b604080519115158252519081900360200190f35b3480156103a457600080fd5b5061012b610d3d565b3480156103b957600080fd5b506103ce600160a060020a0360043516610db5565b604080517bffffffffffffffffffffffffffffffffffffffffffffffffffffffff199092168252519081900360200190f35b34801561040c57600080fd5b50610145610dcd565b600054600160a060020a03163314610479576040805160e560020a62461bcd02815260206004820152602f60248201526000805160206113708339815191526044820152600080516020611390833981519152606482015290519081900360840190fd5b73__SafeDecimalMath_______________________63907af6c06040518163ffffffff1660e060020a02815260040160206040518083038186803b1580156104c057600080fd5b505af41580156104d4573d6000803e3d6000fd5b505050506040513d60208110156104ea57600080fd5b5051811115610569576040805160e560020a62461bcd02815260206004820152603360248201527f4e65772069737375616e636520726174696f2063616e6e6f742065786365656460448201527f204d41585f49535355414e43455f524154494f00000000000000000000000000606482015290519081900360840190fd5b60078190556040805182815290517f63b22e09cc3a33e847c063e35f887bd4ea96bc8c0f93f1f8c311e4fa6d8854529181900360200190a150565b60068054829081106105b257fe5b600091825260209091200154905081565b600054600160a060020a03163314610627576040805160e560020a62461bcd02815260206004820152602f60248201526000805160206113708339815191526044820152600080516020611390833981519152606482015290519081900360840190fd5b60018054600160a060020a03831673ffffffffffffffffffffffffffffffffffffffff19909116811790915560408051918252517f906a1c6bd7e3091ea86693dd029a831c19049ce77f1dce2ce0bab1cacbabce229181900360200190a150565b600254600160a060020a031633146106ec576040805160e560020a62461bcd02815260206004820152603460248201526000805160206113b083398151915260448201526000805160206113d0833981519152606482015290519081900360840190fd5b60055461070090600163ffffffff610dd316565b600555565b600254600160a060020a03163314610769576040805160e560020a62461bcd02815260206004820152603460248201526000805160206113b083398151915260448201526000805160206113d0833981519152606482015290519081900360840190fd5b600680546001810182556000919091527ff652222313e28459528d920b65115c16c04f3efc82aaedc97be59f3f377c0d3f0155565b600680546000919060001981019081106107b457fe5b9060005260206000200154905090565b600254600160a060020a03163314610828576040805160e560020a62461bcd02815260206004820152603460248201526000805160206113b083398151915260448201526000805160206113d0833981519152606482015290519081900360840190fd5b600160a060020a03919091166000908152600860205260409020805463ffffffff191660e060020a909204919091179055565b600054600160a060020a031633146108bf576040805160e560020a62461bcd02815260206004820152602f60248201526000805160206113708339815191526044820152600080516020611390833981519152606482015290519081900360840190fd5b60028054600160a060020a03831673ffffffffffffffffffffffffffffffffffffffff19909116811790915560408051918252517f73f20cff579e8a4086fa607db83867595f1b6a798e718c0bfa0b94a404128e039181900360200190a150565b600154600160a060020a031681565b600154600160a060020a031633146109b7576040805160e560020a62461bcd02815260206004820152603560248201527f596f75206d757374206265206e6f6d696e61746564206265666f726520796f7560448201527f2063616e20616363657074206f776e6572736869700000000000000000000000606482015290519081900360840190fd5b60005460015460408051600160a060020a03938416815292909116602083015280517fb532073b38c83145e3e5135377a08bf9aab55bc0fd7c1179cd4fb995d2a5159c9281900390910190a1600180546000805473ffffffffffffffffffffffffffffffffffffffff19908116600160a060020a03841617909155169055565b6004602052600090815260409020805460019091015482565b600054600160a060020a031681565b60055481565b60008054600160a060020a03163314610aca576040805160e560020a62461bcd02815260206004820152602f60248201526000805160206113708339815191526044820152600080516020611390833981519152606482015290519081900360840190fd5b6003544210610b49576040805160e560020a62461bcd02815260206004820152602960248201527f43616e206f6e6c7920706572666f726d207468697320616374696f6e2064757260448201527f696e672073657475700000000000000000000000000000000000000000000000606482015290519081900360840190fd5b838214610ba0576040805160e560020a62461bcd02815260206004820152600f60248201527f4c656e677468206d69736d617463680000000000000000000000000000000000604482015290519081900360640190fd5b5060005b60ff8116841115610bf657610bee858560ff8416818110610bc157fe5b90506020020135600160a060020a031684848460ff168181101515610be257fe5b90506020020135610df0565b600101610ba4565b5050505050565b600254600160a060020a03163314610c61576040805160e560020a62461bcd02815260206004820152603460248201526000805160206113b083398151915260448201526000805160206113d0833981519152606482015290519081900360840190fd5b600160a060020a039091166000908152600460205260409020908155600654600190910155565b600254600160a060020a031681565b600254600160a060020a03163314610cfb576040805160e560020a62461bcd02815260206004820152603460248201526000805160206113b083398151915260448201526000805160206113d0833981519152606482015290519081900360840190fd5b600160a060020a0316600090815260046020526040812081815560010155565b60075481565b600160a060020a03166000908152600460205260408120541190565b600254600160a060020a03163314610da1576040805160e560020a62461bcd02815260206004820152603460248201526000805160206113b083398151915260448201526000805160206113d0833981519152606482015290519081900360840190fd5b60055461070090600163ffffffff61125d16565b60086020526000908152604090205460e060020a0281565b60065490565b600082820183811015610de557600080fd5b8091505b5092915050565b600254604080517f39d66fc00000000000000000000000000000000000000000000000000000000081527f6e555344000000000000000000000000000000000000000000000000000000006004820152602481018490527f484452000000000000000000000000000000000000000000000000000000000060448201529051600160a060020a03909216916000918291829182918291829188916339d66fc091606480830192602092919082900301818787803b158015610eb057600080fd5b505af1158015610ec4573d6000803e3d6000fd5b505050506040513d6020811015610eda57600080fd5b5051604080517fe8dc7eed0000000000000000000000000000000000000000000000000000000081527f484452000000000000000000000000000000000000000000000000000000000060048201529051919750600160a060020a0389169163e8dc7eed916024808201926020929091908290030181600087803b158015610f6157600080fd5b505af1158015610f75573d6000803e3d6000fd5b505050506040513d6020811015610f8b57600080fd5b50519450610f9f868663ffffffff610dd316565b9350610fb1868563ffffffff61127416565b92506110368373__SafeDecimalMath_______________________63d5e5e6e66040518163ffffffff1660e060020a02815260040160206040518083038186803b158015610ffe57600080fd5b505af4158015611012573d6000803e3d6000fd5b505050506040513d602081101561102857600080fd5b50519063ffffffff61125d16565b915086600160a060020a031663274ed2888a6040518263ffffffff1660e060020a0281526004018082600160a060020a0316600160a060020a03168152602001807f4844520000000000000000000000000000000000000000000000000000000000815250602001915050602060405180830381600087803b1580156110bb57600080fd5b505af11580156110cf573d6000803e3d6000fd5b505050506040513d60208110156110e557600080fd5b5051905060008111156111155761111284611106888463ffffffff610dd316565b9063ffffffff61127416565b92505b600160a060020a038916600090815260046020526040902054151561114c5760055461114890600163ffffffff610dd316565b6005555b600160a060020a0389166000908152600460205260408120848155600654600190910181905511156111c657600680546111ab9084908390600019810190811061119257fe5b906000526020600020015461129490919063ffffffff16565b81546001810183556000928352602090922090910155611252565b600673__SafeDecimalMath_______________________63d5e5e6e66040518163ffffffff1660e060020a02815260040160206040518083038186803b15801561120f57600080fd5b505af4158015611223573d6000803e3d6000fd5b505050506040513d602081101561123957600080fd5b5051815460018101835560009283526020909220909101555b505050505050505050565b6000808383111561126d57600080fd5b5050900390565b600061128d83836b033b2e3c9fd0803ce80000006112ad565b9392505050565b600061128d83836b033b2e3c9fd0803ce80000006112f1565b6000806112d3846112c787600a870263ffffffff61131e16565b9063ffffffff61134c16565b90506005600a825b06106112e557600a015b600a9004949350505050565b600080600a8304611308868663ffffffff61131e16565b81151561131157fe5b0490506005600a826112db565b6000808315156113315760009150610de9565b5082820282848281151561134157fe5b0414610de557600080fd5b60008080831161135b57600080fd5b828481151561136657fe5b0494935050505056004f6e6c792074686520636f6e7472616374206f776e6572206d617920706572666f726d207468697320616374696f6e00000000000000000000000000000000004f6e6c7920746865206173736f63696174656420636f6e74726163742063616e20706572666f726d207468697320616374696f6e000000000000000000000000a165627a7a72305820e37461133a88ba4a65389f6c895cd29bfee08f513a8bbb1841eaca251775b0030029",
  "deployedBytecode": "0x60806040526004361061010e5763ffffffff60e060020a600035041663054be0b7811461011357806308d95cd51461012d5780631627540c146101575780631bfba595146101785780633d31e97b1461018d57806346317712146101a557806351dc7f7d146101ba57806352f445ca146101fd57806353a47bb71461021e57806379ba50971461024f5780638b3f8088146102645780638da5cb5b1461029e5780639371bede146102b35780639e49e976146102c8578063a764eb45146102f4578063aefc4ccb14610318578063b16c09f01461032d578063b410a0341461034e578063b992812e14610363578063ba08f29914610398578063caca2516146103ad578063cd92eba914610400575b600080fd5b34801561011f57600080fd5b5061012b600435610415565b005b34801561013957600080fd5b506101456004356105a4565b60408051918252519081900360200190f35b34801561016357600080fd5b5061012b600160a060020a03600435166105c3565b34801561018457600080fd5b5061012b610688565b34801561019957600080fd5b5061012b600435610705565b3480156101b157600080fd5b5061014561079e565b3480156101c657600080fd5b5061012b600160a060020a03600435167bffffffffffffffffffffffffffffffffffffffffffffffffffffffff19602435166107c4565b34801561020957600080fd5b5061012b600160a060020a036004351661085b565b34801561022a57600080fd5b50610233610920565b60408051600160a060020a039092168252519081900360200190f35b34801561025b57600080fd5b5061012b61092f565b34801561027057600080fd5b50610285600160a060020a0360043516610a37565b6040805192835260208301919091528051918290030190f35b3480156102aa57600080fd5b50610233610a50565b3480156102bf57600080fd5b50610145610a5f565b3480156102d457600080fd5b5061012b6024600480358281019290820135918135918201910135610a65565b34801561030057600080fd5b5061012b600160a060020a0360043516602435610bfd565b34801561032457600080fd5b50610233610c88565b34801561033957600080fd5b5061012b600160a060020a0360043516610c97565b34801561035a57600080fd5b50610145610d1b565b34801561036f57600080fd5b50610384600160a060020a0360043516610d21565b604080519115158252519081900360200190f35b3480156103a457600080fd5b5061012b610d3d565b3480156103b957600080fd5b506103ce600160a060020a0360043516610db5565b604080517bffffffffffffffffffffffffffffffffffffffffffffffffffffffff199092168252519081900360200190f35b34801561040c57600080fd5b50610145610dcd565b600054600160a060020a03163314610479576040805160e560020a62461bcd02815260206004820152602f60248201526000805160206113708339815191526044820152600080516020611390833981519152606482015290519081900360840190fd5b73__SafeDecimalMath_______________________63907af6c06040518163ffffffff1660e060020a02815260040160206040518083038186803b1580156104c057600080fd5b505af41580156104d4573d6000803e3d6000fd5b505050506040513d60208110156104ea57600080fd5b5051811115610569576040805160e560020a62461bcd02815260206004820152603360248201527f4e65772069737375616e636520726174696f2063616e6e6f742065786365656460448201527f204d41585f49535355414e43455f524154494f00000000000000000000000000606482015290519081900360840190fd5b60078190556040805182815290517f63b22e09cc3a33e847c063e35f887bd4ea96bc8c0f93f1f8c311e4fa6d8854529181900360200190a150565b60068054829081106105b257fe5b600091825260209091200154905081565b600054600160a060020a03163314610627576040805160e560020a62461bcd02815260206004820152602f60248201526000805160206113708339815191526044820152600080516020611390833981519152606482015290519081900360840190fd5b60018054600160a060020a03831673ffffffffffffffffffffffffffffffffffffffff19909116811790915560408051918252517f906a1c6bd7e3091ea86693dd029a831c19049ce77f1dce2ce0bab1cacbabce229181900360200190a150565b600254600160a060020a031633146106ec576040805160e560020a62461bcd02815260206004820152603460248201526000805160206113b083398151915260448201526000805160206113d0833981519152606482015290519081900360840190fd5b60055461070090600163ffffffff610dd316565b600555565b600254600160a060020a03163314610769576040805160e560020a62461bcd02815260206004820152603460248201526000805160206113b083398151915260448201526000805160206113d0833981519152606482015290519081900360840190fd5b600680546001810182556000919091527ff652222313e28459528d920b65115c16c04f3efc82aaedc97be59f3f377c0d3f0155565b600680546000919060001981019081106107b457fe5b9060005260206000200154905090565b600254600160a060020a03163314610828576040805160e560020a62461bcd02815260206004820152603460248201526000805160206113b083398151915260448201526000805160206113d0833981519152606482015290519081900360840190fd5b600160a060020a03919091166000908152600860205260409020805463ffffffff191660e060020a909204919091179055565b600054600160a060020a031633146108bf576040805160e560020a62461bcd02815260206004820152602f60248201526000805160206113708339815191526044820152600080516020611390833981519152606482015290519081900360840190fd5b60028054600160a060020a03831673ffffffffffffffffffffffffffffffffffffffff19909116811790915560408051918252517f73f20cff579e8a4086fa607db83867595f1b6a798e718c0bfa0b94a404128e039181900360200190a150565b600154600160a060020a031681565b600154600160a060020a031633146109b7576040805160e560020a62461bcd02815260206004820152603560248201527f596f75206d757374206265206e6f6d696e61746564206265666f726520796f7560448201527f2063616e20616363657074206f776e6572736869700000000000000000000000606482015290519081900360840190fd5b60005460015460408051600160a060020a03938416815292909116602083015280517fb532073b38c83145e3e5135377a08bf9aab55bc0fd7c1179cd4fb995d2a5159c9281900390910190a1600180546000805473ffffffffffffffffffffffffffffffffffffffff19908116600160a060020a03841617909155169055565b6004602052600090815260409020805460019091015482565b600054600160a060020a031681565b60055481565b60008054600160a060020a03163314610aca576040805160e560020a62461bcd02815260206004820152602f60248201526000805160206113708339815191526044820152600080516020611390833981519152606482015290519081900360840190fd5b6003544210610b49576040805160e560020a62461bcd02815260206004820152602960248201527f43616e206f6e6c7920706572666f726d207468697320616374696f6e2064757260448201527f696e672073657475700000000000000000000000000000000000000000000000606482015290519081900360840190fd5b838214610ba0576040805160e560020a62461bcd02815260206004820152600f60248201527f4c656e677468206d69736d617463680000000000000000000000000000000000604482015290519081900360640190fd5b5060005b60ff8116841115610bf657610bee858560ff8416818110610bc157fe5b90506020020135600160a060020a031684848460ff168181101515610be257fe5b90506020020135610df0565b600101610ba4565b5050505050565b600254600160a060020a03163314610c61576040805160e560020a62461bcd02815260206004820152603460248201526000805160206113b083398151915260448201526000805160206113d0833981519152606482015290519081900360840190fd5b600160a060020a039091166000908152600460205260409020908155600654600190910155565b600254600160a060020a031681565b600254600160a060020a03163314610cfb576040805160e560020a62461bcd02815260206004820152603460248201526000805160206113b083398151915260448201526000805160206113d0833981519152606482015290519081900360840190fd5b600160a060020a0316600090815260046020526040812081815560010155565b60075481565b600160a060020a03166000908152600460205260408120541190565b600254600160a060020a03163314610da1576040805160e560020a62461bcd02815260206004820152603460248201526000805160206113b083398151915260448201526000805160206113d0833981519152606482015290519081900360840190fd5b60055461070090600163ffffffff61125d16565b60086020526000908152604090205460e060020a0281565b60065490565b600082820183811015610de557600080fd5b8091505b5092915050565b600254604080517f39d66fc00000000000000000000000000000000000000000000000000000000081527f6e555344000000000000000000000000000000000000000000000000000000006004820152602481018490527f484452000000000000000000000000000000000000000000000000000000000060448201529051600160a060020a03909216916000918291829182918291829188916339d66fc091606480830192602092919082900301818787803b158015610eb057600080fd5b505af1158015610ec4573d6000803e3d6000fd5b505050506040513d6020811015610eda57600080fd5b5051604080517fe8dc7eed0000000000000000000000000000000000000000000000000000000081527f484452000000000000000000000000000000000000000000000000000000000060048201529051919750600160a060020a0389169163e8dc7eed916024808201926020929091908290030181600087803b158015610f6157600080fd5b505af1158015610f75573d6000803e3d6000fd5b505050506040513d6020811015610f8b57600080fd5b50519450610f9f868663ffffffff610dd316565b9350610fb1868563ffffffff61127416565b92506110368373__SafeDecimalMath_______________________63d5e5e6e66040518163ffffffff1660e060020a02815260040160206040518083038186803b158015610ffe57600080fd5b505af4158015611012573d6000803e3d6000fd5b505050506040513d602081101561102857600080fd5b50519063ffffffff61125d16565b915086600160a060020a031663274ed2888a6040518263ffffffff1660e060020a0281526004018082600160a060020a0316600160a060020a03168152602001807f4844520000000000000000000000000000000000000000000000000000000000815250602001915050602060405180830381600087803b1580156110bb57600080fd5b505af11580156110cf573d6000803e3d6000fd5b505050506040513d60208110156110e557600080fd5b5051905060008111156111155761111284611106888463ffffffff610dd316565b9063ffffffff61127416565b92505b600160a060020a038916600090815260046020526040902054151561114c5760055461114890600163ffffffff610dd316565b6005555b600160a060020a0389166000908152600460205260408120848155600654600190910181905511156111c657600680546111ab9084908390600019810190811061119257fe5b906000526020600020015461129490919063ffffffff16565b81546001810183556000928352602090922090910155611252565b600673__SafeDecimalMath_______________________63d5e5e6e66040518163ffffffff1660e060020a02815260040160206040518083038186803b15801561120f57600080fd5b505af4158015611223573d6000803e3d6000fd5b505050506040513d602081101561123957600080fd5b5051815460018101835560009283526020909220909101555b505050505050505050565b6000808383111561126d57600080fd5b5050900390565b600061128d83836b033b2e3c9fd0803ce80000006112ad565b9392505050565b600061128d83836b033b2e3c9fd0803ce80000006112f1565b6000806112d3846112c787600a870263ffffffff61131e16565b9063ffffffff61134c16565b90506005600a825b06106112e557600a015b600a9004949350505050565b600080600a8304611308868663ffffffff61131e16565b81151561131157fe5b0490506005600a826112db565b6000808315156113315760009150610de9565b5082820282848281151561134157fe5b0414610de557600080fd5b60008080831161135b57600080fd5b828481151561136657fe5b0494935050505056004f6e6c792074686520636f6e7472616374206f776e6572206d617920706572666f726d207468697320616374696f6e00000000000000000000000000000000004f6e6c7920746865206173736f63696174656420636f6e74726163742063616e20706572666f726d207468697320616374696f6e000000000000000000000000a165627a7a72305820e37461133a88ba4a65389f6c895cd29bfee08f513a8bbb1841eaca251775b0030029",
  "source": "/*\n-----------------------------------------------------------------\nFILE INFORMATION\n-----------------------------------------------------------------\n\nfile:       HavvenState.sol\nversion:    1.0\nauthor:     Kevin Brown\ndate:       2018-10-19\n\n-----------------------------------------------------------------\nMODULE DESCRIPTION\n-----------------------------------------------------------------\n\nA contract that holds issuance state and preferred currency of \nusers in the Havven system.\n\nThis contract is used side by side with the Havven contract\nto make it easier to upgrade the contract logic while maintaining\nissuance state.\n\nThe Havven contract is also quite large and on the edge of\nbeing beyond the contract size limit without moving this information\nout to another contract.\n\nThe first deployed contract would create this state contract,\nusing it as its store of issuance data.\n\nWhen a new contract is deployed, it links to the existing\nstate contract, whose owner would then change its associated\ncontract to the new one.\n\n-----------------------------------------------------------------\n*/\n\npragma solidity 0.4.25;\n\nimport \"./Havven.sol\";\nimport \"./LimitedSetup.sol\";\nimport \"./SafeDecimalMath.sol\";\nimport \"./State.sol\";\n\n/**\n * @title Havven State\n * @notice Stores issuance information and preferred currency information of the Havven contract.\n */\ncontract HavvenState is State, LimitedSetup {\n    using SafeMath for uint;\n    using SafeDecimalMath for uint;\n\n    // A struct for handing values associated with an individual user's debt position\n    struct IssuanceData {\n        // Percentage of the total debt owned at the time\n        // of issuance. This number is modified by the global debt\n        // delta array. You can figure out a user's exit price and\n        // collateralisation ratio using a combination of their initial\n        // debt and the slice of global debt delta which applies to them.\n        uint initialDebtOwnership;\n        // This lets us know when (in relative terms) the user entered\n        // the debt pool so we can calculate their exit price and\n        // collateralistion ratio\n        uint debtEntryIndex;\n    }\n\n    // Issued nomin balances for individual fee entitlements and exit price calculations\n    mapping(address => IssuanceData) public issuanceData;\n\n    // The total count of people that have outstanding issued nomins in any flavour\n    uint public totalIssuerCount;\n\n    // Global debt pool tracking\n    uint[] public debtLedger;\n\n    // A quantity of nomins greater than this ratio\n    // may not be issued against a given value of havvens.\n    uint public issuanceRatio = SafeDecimalMath.unit() / 5;\n    // No more nomins may be issued than the value of havvens backing them.\n    uint constant MAX_ISSUANCE_RATIO = SafeDecimalMath.unit();\n\n    // Users can specify their preferred currency, in which case all nomins they receive\n    // will automatically exchange to that preferred currency upon receipt in their wallet\n    mapping(address => bytes4) public preferredCurrency;\n\n    /**\n     * @dev Constructor\n     * @param _owner The address which controls this contract.\n     * @param _associatedContract The ERC20 contract whose state this composes.\n     */\n    constructor(address _owner, address _associatedContract)\n        State(_owner, _associatedContract)\n        LimitedSetup(1 weeks)\n        public\n    {}\n\n    /* ========== SETTERS ========== */\n\n    /**\n     * @notice Set issuance data for an address\n     * @dev Only the associated contract may call this.\n     * @param account The address to set the data for.\n     * @param initialDebtOwnership The initial debt ownership for this address.\n     */\n    function setCurrentIssuanceData(address account, uint initialDebtOwnership)\n        external\n        onlyAssociatedContract\n    {\n        issuanceData[account].initialDebtOwnership = initialDebtOwnership;\n        issuanceData[account].debtEntryIndex = debtLedger.length;\n    }\n\n    /**\n     * @notice Clear issuance data for an address\n     * @dev Only the associated contract may call this.\n     * @param account The address to clear the data for.\n     */\n    function clearIssuanceData(address account)\n        external\n        onlyAssociatedContract\n    {\n        delete issuanceData[account];\n    }\n\n    /**\n     * @notice Increment the total issuer count\n     * @dev Only the associated contract may call this.\n     */\n    function incrementTotalIssuerCount()\n        external\n        onlyAssociatedContract\n    {\n        totalIssuerCount = totalIssuerCount.add(1);\n    }\n\n    /**\n     * @notice Decrement the total issuer count\n     * @dev Only the associated contract may call this.\n     */\n    function decrementTotalIssuerCount()\n        external\n        onlyAssociatedContract\n    {\n        totalIssuerCount = totalIssuerCount.sub(1);\n    }\n\n    /**\n     * @notice Append a value to the debt ledger\n     * @dev Only the associated contract may call this.\n     * @param value The new value to be added to the debt ledger.\n     */\n    function appendDebtLedgerValue(uint value)\n        external\n        onlyAssociatedContract\n    {\n        debtLedger.push(value);\n    }\n\n    /**\n     * @notice Set preferred currency for a user\n     * @dev Only the associated contract may call this.\n     * @param account The account to set the preferred currency for\n     * @param currencyKey The new preferred currency\n     */\n    function setPreferredCurrency(address account, bytes4 currencyKey)\n        external\n        onlyAssociatedContract\n    {\n        preferredCurrency[account] = currencyKey;\n    }\n\n    /**\n     * @notice Set the issuanceRatio for issuance calculations.\n     * @dev Only callable by the contract owner.\n     */\n    function setIssuanceRatio(uint _issuanceRatio)\n        external\n        onlyOwner\n    {\n        require(_issuanceRatio <= MAX_ISSUANCE_RATIO, \"New issuance ratio cannot exceed MAX_ISSUANCE_RATIO\");\n        issuanceRatio = _issuanceRatio;\n        emit IssuanceRatioUpdated(_issuanceRatio);\n    }\n\n    /**\n     * @notice Import issuer data from the old Havven contract before multicurrency\n     * @dev Only callable by the contract owner, and only for 1 week after deployment.\n     */\n    function importIssuerData(address[] accounts, uint[] nUSDAmounts)\n        external\n        onlyOwner\n        onlyDuringSetup\n    {\n        require(accounts.length == nUSDAmounts.length, \"Length mismatch\");\n\n        for (uint8 i = 0; i < accounts.length; i++) {\n            _addToDebtRegister(accounts[i], nUSDAmounts[i]);\n        }\n    }\n\n    /**\n     * @notice Import issuer data from the old Havven contract before multicurrency\n     * @dev Only used from importIssuerData above, meant to be disposable\n     */\n    function _addToDebtRegister(address account, uint amount)\n        internal\n    {\n        // This code is duplicated from Havven so that we can call it directly here\n        // during setup only.\n        Havven havven = Havven(associatedContract);\n\n        // What is the value of the requested debt in HDRs?\n        uint hdrValue = havven.effectiveValue(\"nUSD\", amount, \"HDR\");\n        \n        // What is the value of all issued nomins of the system (priced in HDRs)?\n        uint totalDebtIssued = havven.totalIssuedNomins(\"HDR\");\n\n        // What will the new total be including the new value?\n        uint newTotalDebtIssued = hdrValue.add(totalDebtIssued);\n\n        // What is their percentage (as a high precision int) of the total debt?\n        uint debtPercentage = hdrValue.divideDecimalRoundPrecise(newTotalDebtIssued);\n\n        // And what effect does this percentage have on the global debt holding of other issuers?\n        // The delta specifically needs to not take into account any existing debt as it's already\n        // accounted for in the delta from when they issued previously.\n        // The delta is a high precision integer.\n        uint delta = SafeDecimalMath.preciseUnit().sub(debtPercentage);\n\n        uint existingDebt = havven.debtBalanceOf(account, \"HDR\");\n         \n        // And what does their debt ownership look like including this previous stake?\n        if (existingDebt > 0) {\n            debtPercentage = hdrValue.add(existingDebt).divideDecimalRoundPrecise(newTotalDebtIssued);\n        }\n\n        // Are they a new issuer? If so, record them.\n        if (issuanceData[account].initialDebtOwnership == 0) {\n            totalIssuerCount = totalIssuerCount.add(1);\n        }\n\n        // Save the debt entry parameters\n        issuanceData[account].initialDebtOwnership = debtPercentage;\n        issuanceData[account].debtEntryIndex = debtLedger.length;\n\n        // And if we're the first, push 1 as there was no effect to any other holders, otherwise push \n        // the change for the rest of the debt holders. The debt ledger holds high precision integers.\n        if (debtLedger.length > 0) {\n            debtLedger.push(\n                debtLedger[debtLedger.length - 1].multiplyDecimalRoundPrecise(delta)\n            );\n        } else {\n            debtLedger.push(SafeDecimalMath.preciseUnit());\n        }\n    }\n\n    /* ========== VIEWS ========== */\n\n    /**\n     * @notice Retrieve the length of the debt ledger array\n     */\n    function debtLedgerLength()\n        external\n        view\n        returns (uint)\n    {\n        return debtLedger.length;\n    }\n\n    /**\n     * @notice Retrieve the most recent entry from the debt ledger\n     */\n    function lastDebtLedgerEntry()\n        external\n        view\n        returns (uint)\n    {\n        return debtLedger[debtLedger.length - 1];\n    }\n\n    /**\n     * @notice Query whether an account has issued and has an outstanding debt balance\n     * @param account The address to query for\n     */\n    function hasIssued(address account)\n        external\n        view\n        returns (bool)\n    {\n        return issuanceData[account].initialDebtOwnership > 0;\n    }\n\n    event IssuanceRatioUpdated(uint newRatio);\n}\n",
  "sourcePath": "/Users/clintonennis/Projects/havven/havven/contracts/HavvenState.sol",
  "compiler": {
    "name": "solc",
    "version": "0.4.25+commit.59dbf8f1.Emscripten.clang"
  },
  "schemaVersion": "3.0.0-beta.1",
  "updatedAt": "2018-11-21T03:50:47.549Z"
}