{
  "contractName": "Havven",
  "abi": [
    {
      "constant": true,
      "inputs": [],
      "name": "name",
      "outputs": [
        {
          "name": "",
          "type": "string"
        }
      ],
      "payable": false,
      "stateMutability": "view",
      "type": "function"
    },
    {
      "constant": false,
      "inputs": [
        {
          "name": "spender",
          "type": "address"
        },
        {
          "name": "value",
          "type": "uint256"
        }
      ],
      "name": "approve",
      "outputs": [
        {
          "name": "",
          "type": "bool"
        }
      ],
      "payable": false,
      "stateMutability": "nonpayable",
      "type": "function"
    },
    {
      "constant": false,
      "inputs": [
        {
          "name": "_owner",
          "type": "address"
        }
      ],
      "name": "nominateNewOwner",
      "outputs": [],
      "payable": false,
      "stateMutability": "nonpayable",
      "type": "function"
    },
    {
      "constant": true,
      "inputs": [],
      "name": "initiationTime",
      "outputs": [
        {
          "name": "",
          "type": "uint256"
        }
      ],
      "payable": false,
      "stateMutability": "view",
      "type": "function"
    },
    {
      "constant": true,
      "inputs": [],
      "name": "totalSupply",
      "outputs": [
        {
          "name": "",
          "type": "uint256"
        }
      ],
      "payable": false,
      "stateMutability": "view",
      "type": "function"
    },
    {
      "constant": false,
      "inputs": [
        {
          "name": "_beneficiary",
          "type": "address"
        }
      ],
      "name": "setSelfDestructBeneficiary",
      "outputs": [],
      "payable": false,
      "stateMutability": "nonpayable",
      "type": "function"
    },
    {
      "constant": true,
      "inputs": [],
      "name": "decimals",
      "outputs": [
        {
          "name": "",
          "type": "uint256"
        }
      ],
      "payable": false,
      "stateMutability": "view",
      "type": "function"
    },
    {
      "constant": false,
      "inputs": [],
      "name": "terminateSelfDestruct",
      "outputs": [],
      "payable": false,
      "stateMutability": "nonpayable",
      "type": "function"
    },
    {
      "constant": true,
      "inputs": [],
      "name": "exchangeRates",
      "outputs": [
        {
          "name": "",
          "type": "address"
        }
      ],
      "payable": false,
      "stateMutability": "view",
      "type": "function"
    },
    {
      "constant": true,
      "inputs": [],
      "name": "nominatedOwner",
      "outputs": [
        {
          "name": "",
          "type": "address"
        }
      ],
      "payable": false,
      "stateMutability": "view",
      "type": "function"
    },
    {
      "constant": true,
      "inputs": [
        {
          "name": "account",
          "type": "address"
        }
      ],
      "name": "balanceOf",
      "outputs": [
        {
          "name": "",
          "type": "uint256"
        }
      ],
      "payable": false,
      "stateMutability": "view",
      "type": "function"
    },
    {
      "constant": false,
      "inputs": [],
      "name": "acceptOwnership",
      "outputs": [],
      "payable": false,
      "stateMutability": "nonpayable",
      "type": "function"
    },
    {
      "constant": true,
      "inputs": [],
      "name": "havvenState",
      "outputs": [
        {
          "name": "",
          "type": "address"
        }
      ],
      "payable": false,
      "stateMutability": "view",
      "type": "function"
    },
    {
      "constant": true,
      "inputs": [],
      "name": "owner",
      "outputs": [
        {
          "name": "",
          "type": "address"
        }
      ],
      "payable": false,
      "stateMutability": "view",
      "type": "function"
    },
    {
      "constant": true,
      "inputs": [],
      "name": "symbol",
      "outputs": [
        {
          "name": "",
          "type": "string"
        }
      ],
      "payable": false,
      "stateMutability": "view",
      "type": "function"
    },
    {
      "constant": false,
      "inputs": [
        {
          "name": "_proxy",
          "type": "address"
        }
      ],
      "name": "setProxy",
      "outputs": [],
      "payable": false,
      "stateMutability": "nonpayable",
      "type": "function"
    },
    {
      "constant": false,
      "inputs": [],
      "name": "selfDestruct",
      "outputs": [],
      "payable": false,
      "stateMutability": "nonpayable",
      "type": "function"
    },
    {
      "constant": false,
      "inputs": [
        {
          "name": "_tokenState",
          "type": "address"
        }
      ],
      "name": "setTokenState",
      "outputs": [],
      "payable": false,
      "stateMutability": "nonpayable",
      "type": "function"
    },
    {
      "constant": true,
      "inputs": [],
      "name": "SELFDESTRUCT_DELAY",
      "outputs": [
        {
          "name": "",
          "type": "uint256"
        }
      ],
      "payable": false,
      "stateMutability": "view",
      "type": "function"
    },
    {
      "constant": true,
      "inputs": [],
      "name": "feePool",
      "outputs": [
        {
          "name": "",
          "type": "address"
        }
      ],
      "payable": false,
      "stateMutability": "view",
      "type": "function"
    },
    {
      "constant": true,
      "inputs": [],
      "name": "selfDestructInitiated",
      "outputs": [
        {
          "name": "",
          "type": "bool"
        }
      ],
      "payable": false,
      "stateMutability": "view",
      "type": "function"
    },
    {
      "constant": false,
      "inputs": [
        {
          "name": "sender",
          "type": "address"
        }
      ],
      "name": "setMessageSender",
      "outputs": [],
      "payable": false,
      "stateMutability": "nonpayable",
      "type": "function"
    },
    {
      "constant": false,
      "inputs": [],
      "name": "initiateSelfDestruct",
      "outputs": [],
      "payable": false,
      "stateMutability": "nonpayable",
      "type": "function"
    },
    {
      "constant": true,
      "inputs": [],
      "name": "selfDestructBeneficiary",
      "outputs": [
        {
          "name": "",
          "type": "address"
        }
      ],
      "payable": false,
      "stateMutability": "view",
      "type": "function"
    },
    {
      "constant": true,
      "inputs": [
        {
          "name": "owner",
          "type": "address"
        },
        {
          "name": "spender",
          "type": "address"
        }
      ],
      "name": "allowance",
      "outputs": [
        {
          "name": "",
          "type": "uint256"
        }
      ],
      "payable": false,
      "stateMutability": "view",
      "type": "function"
    },
    {
      "constant": true,
      "inputs": [],
      "name": "escrow",
      "outputs": [
        {
          "name": "",
          "type": "address"
        }
      ],
      "payable": false,
      "stateMutability": "view",
      "type": "function"
    },
    {
      "constant": true,
      "inputs": [],
      "name": "tokenState",
      "outputs": [
        {
          "name": "",
          "type": "address"
        }
      ],
      "payable": false,
      "stateMutability": "view",
      "type": "function"
    },
    {
      "constant": true,
      "inputs": [],
      "name": "proxy",
      "outputs": [
        {
          "name": "",
          "type": "address"
        }
      ],
      "payable": false,
      "stateMutability": "view",
      "type": "function"
    },
    {
      "constant": true,
      "inputs": [
        {
          "name": "",
          "type": "uint256"
        }
      ],
      "name": "availableNomins",
      "outputs": [
        {
          "name": "",
          "type": "address"
        }
      ],
      "payable": false,
      "stateMutability": "view",
      "type": "function"
    },
    {
      "constant": true,
      "inputs": [
        {
          "name": "",
          "type": "bytes4"
        }
      ],
      "name": "nomins",
      "outputs": [
        {
          "name": "",
          "type": "address"
        }
      ],
      "payable": false,
      "stateMutability": "view",
      "type": "function"
    },
    {
      "inputs": [
        {
          "name": "_proxy",
          "type": "address"
        },
        {
          "name": "_tokenState",
          "type": "address"
        },
        {
          "name": "_havvenState",
          "type": "address"
        },
        {
          "name": "_owner",
          "type": "address"
        },
        {
          "name": "_exchangeRates",
          "type": "address"
        },
        {
          "name": "_feePool",
          "type": "address"
        }
      ],
      "payable": false,
      "stateMutability": "nonpayable",
      "type": "constructor"
    },
    {
      "anonymous": false,
      "inputs": [
        {
          "indexed": true,
          "name": "account",
          "type": "address"
        },
        {
          "indexed": false,
          "name": "newPreferredCurrency",
          "type": "bytes4"
        }
      ],
      "name": "PreferredCurrencyChanged",
      "type": "event"
    },
    {
      "anonymous": false,
      "inputs": [
        {
          "indexed": false,
          "name": "currencyKey",
          "type": "bytes4"
        },
        {
          "indexed": false,
          "name": "newNomin",
          "type": "address"
        }
      ],
      "name": "NominAdded",
      "type": "event"
    },
    {
      "anonymous": false,
      "inputs": [
        {
          "indexed": false,
          "name": "currencyKey",
          "type": "bytes4"
        },
        {
          "indexed": false,
          "name": "removedNomin",
          "type": "address"
        }
      ],
      "name": "NominRemoved",
      "type": "event"
    },
    {
      "anonymous": false,
      "inputs": [
        {
          "indexed": true,
          "name": "from",
          "type": "address"
        },
        {
          "indexed": true,
          "name": "to",
          "type": "address"
        },
        {
          "indexed": false,
          "name": "value",
          "type": "uint256"
        }
      ],
      "name": "Transfer",
      "type": "event"
    },
    {
      "anonymous": false,
      "inputs": [
        {
          "indexed": true,
          "name": "owner",
          "type": "address"
        },
        {
          "indexed": true,
          "name": "spender",
          "type": "address"
        },
        {
          "indexed": false,
          "name": "value",
          "type": "uint256"
        }
      ],
      "name": "Approval",
      "type": "event"
    },
    {
      "anonymous": false,
      "inputs": [
        {
          "indexed": false,
          "name": "newTokenState",
          "type": "address"
        }
      ],
      "name": "TokenStateUpdated",
      "type": "event"
    },
    {
      "anonymous": false,
      "inputs": [
        {
          "indexed": false,
          "name": "proxyAddress",
          "type": "address"
        }
      ],
      "name": "ProxyUpdated",
      "type": "event"
    },
    {
      "anonymous": false,
      "inputs": [],
      "name": "SelfDestructTerminated",
      "type": "event"
    },
    {
      "anonymous": false,
      "inputs": [
        {
          "indexed": false,
          "name": "beneficiary",
          "type": "address"
        }
      ],
      "name": "SelfDestructed",
      "type": "event"
    },
    {
      "anonymous": false,
      "inputs": [
        {
          "indexed": false,
          "name": "selfDestructDelay",
          "type": "uint256"
        }
      ],
      "name": "SelfDestructInitiated",
      "type": "event"
    },
    {
      "anonymous": false,
      "inputs": [
        {
          "indexed": false,
          "name": "newBeneficiary",
          "type": "address"
        }
      ],
      "name": "SelfDestructBeneficiaryUpdated",
      "type": "event"
    },
    {
      "anonymous": false,
      "inputs": [
        {
          "indexed": false,
          "name": "newOwner",
          "type": "address"
        }
      ],
      "name": "OwnerNominated",
      "type": "event"
    },
    {
      "anonymous": false,
      "inputs": [
        {
          "indexed": false,
          "name": "oldOwner",
          "type": "address"
        },
        {
          "indexed": false,
          "name": "newOwner",
          "type": "address"
        }
      ],
      "name": "OwnerChanged",
      "type": "event"
    },
    {
      "constant": false,
      "inputs": [
        {
          "name": "nomin",
          "type": "address"
        }
      ],
      "name": "addNomin",
      "outputs": [],
      "payable": false,
      "stateMutability": "nonpayable",
      "type": "function"
    },
    {
      "constant": false,
      "inputs": [
        {
          "name": "currencyKey",
          "type": "bytes4"
        }
      ],
      "name": "removeNomin",
      "outputs": [],
      "payable": false,
      "stateMutability": "nonpayable",
      "type": "function"
    },
    {
      "constant": false,
      "inputs": [
        {
          "name": "_escrow",
          "type": "address"
        }
      ],
      "name": "setEscrow",
      "outputs": [],
      "payable": false,
      "stateMutability": "nonpayable",
      "type": "function"
    },
    {
      "constant": false,
      "inputs": [
        {
          "name": "_exchangeRates",
          "type": "address"
        }
      ],
      "name": "setExchangeRates",
      "outputs": [],
      "payable": false,
      "stateMutability": "nonpayable",
      "type": "function"
    },
    {
      "constant": false,
      "inputs": [
        {
          "name": "_havvenState",
          "type": "address"
        }
      ],
      "name": "sethavvenState",
      "outputs": [],
      "payable": false,
      "stateMutability": "nonpayable",
      "type": "function"
    },
    {
      "constant": false,
      "inputs": [
        {
          "name": "currencyKey",
          "type": "bytes4"
        }
      ],
      "name": "setPreferredCurrency",
      "outputs": [],
      "payable": false,
      "stateMutability": "nonpayable",
      "type": "function"
    },
    {
      "constant": true,
      "inputs": [
        {
          "name": "sourceCurrencyKey",
          "type": "bytes4"
        },
        {
          "name": "sourceAmount",
          "type": "uint256"
        },
        {
          "name": "destinationCurrencyKey",
          "type": "bytes4"
        }
      ],
      "name": "effectiveValue",
      "outputs": [
        {
          "name": "",
          "type": "uint256"
        }
      ],
      "payable": false,
      "stateMutability": "view",
      "type": "function"
    },
    {
      "constant": true,
      "inputs": [
        {
          "name": "currencyKey",
          "type": "bytes4"
        }
      ],
      "name": "totalIssuedNomins",
      "outputs": [
        {
          "name": "",
          "type": "uint256"
        }
      ],
      "payable": false,
      "stateMutability": "view",
      "type": "function"
    },
    {
      "constant": true,
      "inputs": [],
      "name": "availableNominCount",
      "outputs": [
        {
          "name": "",
          "type": "uint256"
        }
      ],
      "payable": false,
      "stateMutability": "view",
      "type": "function"
    },
    {
      "constant": false,
      "inputs": [
        {
          "name": "to",
          "type": "address"
        },
        {
          "name": "value",
          "type": "uint256"
        }
      ],
      "name": "transfer",
      "outputs": [
        {
          "name": "",
          "type": "bool"
        }
      ],
      "payable": false,
      "stateMutability": "nonpayable",
      "type": "function"
    },
    {
      "constant": false,
      "inputs": [
        {
          "name": "to",
          "type": "address"
        },
        {
          "name": "value",
          "type": "uint256"
        },
        {
          "name": "data",
          "type": "bytes"
        }
      ],
      "name": "transfer",
      "outputs": [
        {
          "name": "",
          "type": "bool"
        }
      ],
      "payable": false,
      "stateMutability": "nonpayable",
      "type": "function"
    },
    {
      "constant": false,
      "inputs": [
        {
          "name": "from",
          "type": "address"
        },
        {
          "name": "to",
          "type": "address"
        },
        {
          "name": "value",
          "type": "uint256"
        },
        {
          "name": "data",
          "type": "bytes"
        }
      ],
      "name": "transferFrom",
      "outputs": [
        {
          "name": "",
          "type": "bool"
        }
      ],
      "payable": false,
      "stateMutability": "nonpayable",
      "type": "function"
    },
    {
      "constant": false,
      "inputs": [
        {
          "name": "from",
          "type": "address"
        },
        {
          "name": "to",
          "type": "address"
        },
        {
          "name": "value",
          "type": "uint256"
        }
      ],
      "name": "transferFrom",
      "outputs": [
        {
          "name": "",
          "type": "bool"
        }
      ],
      "payable": false,
      "stateMutability": "nonpayable",
      "type": "function"
    },
    {
      "constant": false,
      "inputs": [
        {
          "name": "sourceCurrencyKey",
          "type": "bytes4"
        },
        {
          "name": "sourceAmount",
          "type": "uint256"
        },
        {
          "name": "destinationCurrencyKey",
          "type": "bytes4"
        },
        {
          "name": "destinationAddress",
          "type": "address"
        }
      ],
      "name": "exchange",
      "outputs": [
        {
          "name": "",
          "type": "bool"
        }
      ],
      "payable": false,
      "stateMutability": "nonpayable",
      "type": "function"
    },
    {
      "constant": false,
      "inputs": [
        {
          "name": "from",
          "type": "address"
        },
        {
          "name": "sourceCurrencyKey",
          "type": "bytes4"
        },
        {
          "name": "sourceAmount",
          "type": "uint256"
        },
        {
          "name": "destinationCurrencyKey",
          "type": "bytes4"
        },
        {
          "name": "destinationAddress",
          "type": "address"
        }
      ],
      "name": "nominInitiatedExchange",
      "outputs": [
        {
          "name": "",
          "type": "bool"
        }
      ],
      "payable": false,
      "stateMutability": "nonpayable",
      "type": "function"
    },
    {
      "constant": false,
      "inputs": [
        {
          "name": "from",
          "type": "address"
        },
        {
          "name": "sourceCurrencyKey",
          "type": "bytes4"
        },
        {
          "name": "sourceAmount",
          "type": "uint256"
        }
      ],
      "name": "nominInitiatedFeePayment",
      "outputs": [
        {
          "name": "",
          "type": "bool"
        }
      ],
      "payable": false,
      "stateMutability": "nonpayable",
      "type": "function"
    },
    {
      "constant": false,
      "inputs": [
        {
          "name": "currencyKey",
          "type": "bytes4"
        },
        {
          "name": "amount",
          "type": "uint256"
        }
      ],
      "name": "issueNomins",
      "outputs": [],
      "payable": false,
      "stateMutability": "nonpayable",
      "type": "function"
    },
    {
      "constant": false,
      "inputs": [
        {
          "name": "currencyKey",
          "type": "bytes4"
        }
      ],
      "name": "issueMaxNomins",
      "outputs": [],
      "payable": false,
      "stateMutability": "nonpayable",
      "type": "function"
    },
    {
      "constant": false,
      "inputs": [
        {
          "name": "currencyKey",
          "type": "bytes4"
        },
        {
          "name": "amount",
          "type": "uint256"
        }
      ],
      "name": "burnNomins",
      "outputs": [],
      "payable": false,
      "stateMutability": "nonpayable",
      "type": "function"
    },
    {
      "constant": true,
      "inputs": [
        {
          "name": "issuer",
          "type": "address"
        },
        {
          "name": "currencyKey",
          "type": "bytes4"
        }
      ],
      "name": "maxIssuableNomins",
      "outputs": [
        {
          "name": "",
          "type": "uint256"
        }
      ],
      "payable": false,
      "stateMutability": "view",
      "type": "function"
    },
    {
      "constant": true,
      "inputs": [
        {
          "name": "issuer",
          "type": "address"
        }
      ],
      "name": "collateralisationRatio",
      "outputs": [
        {
          "name": "",
          "type": "uint256"
        }
      ],
      "payable": false,
      "stateMutability": "view",
      "type": "function"
    },
    {
      "constant": true,
      "inputs": [
        {
          "name": "issuer",
          "type": "address"
        },
        {
          "name": "currencyKey",
          "type": "bytes4"
        }
      ],
      "name": "debtBalanceOf",
      "outputs": [
        {
          "name": "",
          "type": "uint256"
        }
      ],
      "payable": false,
      "stateMutability": "view",
      "type": "function"
    },
    {
      "constant": true,
      "inputs": [
        {
          "name": "issuer",
          "type": "address"
        },
        {
          "name": "currencyKey",
          "type": "bytes4"
        }
      ],
      "name": "remainingIssuableNomins",
      "outputs": [
        {
          "name": "",
          "type": "uint256"
        }
      ],
      "payable": false,
      "stateMutability": "view",
      "type": "function"
    },
    {
      "constant": true,
      "inputs": [
        {
          "name": "account",
          "type": "address"
        }
      ],
      "name": "collateral",
      "outputs": [
        {
          "name": "",
          "type": "uint256"
        }
      ],
      "payable": false,
      "stateMutability": "view",
      "type": "function"
    },
    {
      "constant": true,
      "inputs": [
        {
          "name": "account",
          "type": "address"
        }
      ],
      "name": "transferableHavvens",
      "outputs": [
        {
          "name": "",
          "type": "uint256"
        }
      ],
      "payable": false,
      "stateMutability": "view",
      "type": "function"
    }
  ],
  "bytecode": "0x60806040526005805460a060020a60ff02191690553480156200002157600080fd5b5060405160c08062005d188339810160408181528251602080850151838601516060870151608088015160a0909801518688018752600688527f48617676656e00000000000000000000000000000000000000000000000000008589015286518088018852600381527f48415600000000000000000000000000000000000000000000000000000000008187015287517f907af6c000000000000000000000000000000000000000000000000000000000815297519699949893979296949591948a948a94909373__SafeDecimalMath_______________________9263907af6c0926004808201939291829003018186803b1580156200012157600080fd5b505af415801562000136573d6000803e3d6000fd5b505050506040513d60208110156200014d57600080fd5b50516305f5e1000260128886818080600160a060020a0381161515620001d457604080517f08c379a000000000000000000000000000000000000000000000000000000000815260206004820152601960248201527f4f776e657220616464726573732063616e6e6f74206265203000000000000000604482015290519081900360640190fd5b60008054600160a060020a031916600160a060020a038316908117825560408051928352602083019190915280517fb532073b38c83145e3e5135377a08bf9aab55bc0fd7c1179cd4fb995d2a5159c9281900390910190a150600160a060020a0381161515620002cb57604080517f08c379a000000000000000000000000000000000000000000000000000000000815260206004820152602260248201527f4f776e6572206d757374206e6f7420626520746865207a65726f20616464726560448201527f7373000000000000000000000000000000000000000000000000000000000000606482015290519081900360840190fd5b60038054600160a060020a038316610100810261010060a860020a03199092169190911790915560408051918252517fd5da63a0b864b315bc04128dedbc93888c8529ee6cf47ce664dc204339228c539181900360200190a15060048054600160a060020a038416600160a060020a0319909116811790915560408051918252517ffc80377ca9c49cc11ae6982f390a42db976d5530af7c43889264b13fbbd7c57e9181900360200190a1505060068054600160a060020a031916600160a060020a0388161790558451620003a890600790602088019062000415565b508351620003be90600890602087019062000415565b5050600991909155600a55505060108054600160a060020a03978816600160a060020a031991821617909155600f8054958816958216959095179094555050600d80549190941691161790915550620004ba915050565b828054600181600116156101000203166002900490600052602060002090601f016020900481019282601f106200045857805160ff191683800117855562000488565b8280016001018555821562000488579182015b82811115620004885782518255916020019190600101906200046b565b50620004969291506200049a565b5090565b620004b791905b80821115620004965760008155600101620004a1565b90565b61584e80620004ca6000396000f3006080604052600436106102795763ffffffff60e060020a60003504166302c5c2d4811461027e57806306fdde03146102a5578063095ea7b31461032f5780630d8842cf146103675780631627540c146103a657806317c70de4146103c957806318160ddd146103de57806320714f88146103f357806323b872dd14610414578063274ed2881461043e578063313ce5671461046c5780633278c960146104815780633364e29b1461049657806339d66fc0146104bb578063405d3adf146104e7578063412b5ad71461051f5780634ffcd9df1461055057806351dfc5e61461058157806353a47bb7146105af57806355206f87146105c457806356e44954146105e6578063628a7319146106075780636bef6ffe1461063557806370a082311461065657806379ba50971461067757806384f7efc61461068c5780638da5cb5b146106a157806395d89b41146106b657806397107d6d146106cb5780639cb8a26a146106ec5780639f76980714610701578063a08038be14610722578063a311c7c214610744578063a461fc8214610765578063a5fdc5de1461077a578063a9059cbb1461079b578063aa673c47146107bf578063ab67aa58146107e1578063ae2e933b14610850578063b8225dec14610865578063bc67f8321461087a578063bd32aa441461089b578063be45fd62146108b0578063bf9b851214610919578063c10c35461461093a578063c58aaae61461095b578063dd62ed3e14610970578063dffcf9a714610997578063e2fdcc17146109b8578063e4e17b37146109cd578063e8dc7eed146109f2578063e90dd9e214610a14578063ec55688914610a29578063fe80622914610a3e578063fe88e54114610a56575b600080fd5b34801561028a57600080fd5b50610293610a78565b60408051918252519081900360200190f35b3480156102b157600080fd5b506102ba610a7f565b6040805160208082528351818301528351919283929083019185019080838360005b838110156102f45781810151838201526020016102dc565b50505050905090810190601f1680156103215780820380516001836020036101000a031916815260200191505b509250505060405180910390f35b34801561033b57600080fd5b50610353600160a060020a0360043516602435610b0d565b604080519115158252519081900360200190f35b34801561037357600080fd5b50610353600160a060020a03600435811690600160e060020a031960243581169160443591606435169060843516610be3565b3480156103b257600080fd5b506103c7600160a060020a0360043516610d64565b005b3480156103d557600080fd5b50610293610e1c565b3480156103ea57600080fd5b50610293610e22565b3480156103ff57600080fd5b506103c7600160a060020a0360043516610e28565b34801561042057600080fd5b50610353600160a060020a0360043581169060243516604435610f7b565b34801561044a57600080fd5b50610293600160a060020a0360043516600160e060020a031960243516610f94565b34801561047857600080fd5b506102936111c0565b34801561048d57600080fd5b506103c76111c6565b3480156104a257600080fd5b506103c7600160e060020a031960043516602435611264565b3480156104c757600080fd5b50610293600160e060020a031960043581169060243590604435166113b8565b3480156104f357600080fd5b50610353600160e060020a03196004358116906024359060443516600160a060020a03606435166116e5565b34801561052b57600080fd5b50610353600160a060020a0360043516600160e060020a0319602435166044356118f1565b34801561055c57600080fd5b50610565611b2b565b60408051600160a060020a039092168252519081900360200190f35b34801561058d57600080fd5b50610293600160a060020a0360043516600160e060020a031960243516611b3a565b3480156105bb57600080fd5b50610565611bf2565b3480156105d057600080fd5b506103c7600160e060020a031960043516611c01565b3480156105f257600080fd5b506103c7600160a060020a0360043516611f55565b34801561061357600080fd5b50610293600160a060020a0360043516600160e060020a031960243516612006565b34801561064157600080fd5b506103c7600160a060020a036004351661204e565b34801561066257600080fd5b50610293600160a060020a0360043516612240565b34801561068357600080fd5b506103c76122c7565b34801561069857600080fd5b506105656123c2565b3480156106ad57600080fd5b506105656123d1565b3480156106c257600080fd5b506102ba6123e0565b3480156106d757600080fd5b506103c7600160a060020a036004351661243b565b3480156106f857600080fd5b506103c76124f3565b34801561070d57600080fd5b506103c7600160a060020a03600435166126b8565b34801561072e57600080fd5b506103c7600160e060020a03196004351661276e565b34801561075057600080fd5b50610293600160a060020a0360043516612952565b34801561077157600080fd5b506102936129a1565b34801561078657600080fd5b50610293600160a060020a03600435166129a8565b3480156107a757600080fd5b50610353600160a060020a0360043516602435612ad4565b3480156107cb57600080fd5b506103c7600160e060020a031960043516612ae3565b3480156107ed57600080fd5b50604080516020601f60643560048181013592830184900484028501840190955281845261035394600160a060020a038135811695602480359092169560443595369560849401918190840183828082843750949750612b2d9650505050505050565b34801561085c57600080fd5b50610565612bda565b34801561087157600080fd5b50610353612be9565b34801561088657600080fd5b506103c7600160a060020a0360043516612bf2565b3480156108a757600080fd5b506103c7612c9c565b3480156108bc57600080fd5b50604080516020600460443581810135601f8101849004840285018401909552848452610353948235600160a060020a0316946024803595369594606494920191908190840183828082843750949750612d499650505050505050565b34801561092557600080fd5b506103c7600160a060020a0360043516612e00565b34801561094657600080fd5b506103c7600160a060020a0360043516612eb1565b34801561096757600080fd5b50610565612f62565b34801561097c57600080fd5b50610293600160a060020a0360043581169060243516612f76565b3480156109a357600080fd5b50610293600160a060020a036004351661301c565b3480156109c457600080fd5b5061056561324d565b3480156109d957600080fd5b506103c7600160e060020a03196004351660243561325c565b3480156109fe57600080fd5b50610293600160e060020a031960043516613395565b348015610a2057600080fd5b50610565613898565b348015610a3557600080fd5b506105656138a7565b348015610a4a57600080fd5b506105656004356138b6565b348015610a6257600080fd5b50610565600160e060020a0319600435166138de565b600b545b90565b6007805460408051602060026001851615610100026000190190941693909304601f81018490048402820184019092528181529291830182828015610b055780601f10610ada57610100808354040283529160200191610b05565b820191906000526020600020905b815481529060010190602001808311610ae857829003601f168201915b505050505081565b6004546000908190600160a060020a03163314610b375760058054600160a060020a031916331790555b50600554600654604080517fda46098c000000000000000000000000000000000000000000000000000000008152600160a060020a0393841660048201819052878516602483015260448201879052915191939092169163da46098c91606480830192600092919082900301818387803b158015610bb457600080fd5b505af1158015610bc8573d6000803e3d6000fd5b50505050610bd78185856138f9565b600191505b5092915050565b600080805b600b5460ff82161015610c3557600b805433919060ff8416908110610c0957fe5b600091825260209091200154600160a060020a03161415610c2d5760019150610c35565b600101610be8565b811515610c8c576040805160e560020a62461bcd02815260206004820152601260248201527f4f6e6c79206e6f6d696e20616c6c6f7765640000000000000000000000000000604482015290519081900360640190fd5b600160e060020a03198781169086161415610cf1576040805160e560020a62461bcd02815260206004820152601360248201527f43616e27742062652073616d65206e6f6d696e00000000000000000000000000604482015290519081900360640190fd5b60008611610d49576040805160e560020a62461bcd02815260206004820152600b60248201527f5a65726f20616d6f756e74000000000000000000000000000000000000000000604482015290519081900360640190fd5b610d5888888888886000613a6a565b98975050505050505050565b600054600160a060020a03163314610dc8576040805160e560020a62461bcd02815260206004820152602f602482015260008051602061578383398151915260448201526000805160206157c3833981519152606482015290519081900360840190fd5b60018054600160a060020a038316600160a060020a0319909116811790915560408051918252517f906a1c6bd7e3091ea86693dd029a831c19049ce77f1dce2ce0bab1cacbabce229181900360200190a150565b60025481565b60095481565b600054600160a060020a03163314610e8c576040805160e560020a62461bcd02815260206004820152602f602482015260008051602061578383398151915260448201526000805160206157c3833981519152606482015290519081900360840190fd5b600160a060020a0381161515610f12576040805160e560020a62461bcd02815260206004820152602860248201527f42656e6566696369617279206d757374206e6f7420626520746865207a65726f60448201527f2061646472657373000000000000000000000000000000000000000000000000606482015290519081900360840190fd5b60038054600160a060020a038316610100810274ffffffffffffffffffffffffffffffffffffffff00199092169190911790915560408051918252517fd5da63a0b864b315bc04128dedbc93888c8529ee6cf47ce664dc204339228c539181900360200190a150565b60006060610f8b85858584612b2d565b95945050505050565b601054604080517f8b3f8088000000000000000000000000000000000000000000000000000000008152600160a060020a0385811660048301528251600094859485948594859485949190911692638b3f8088926024808201939182900301818787803b15801561100457600080fd5b505af1158015611018573d6000803e3d6000fd5b505050506040513d604081101561102e57600080fd5b508051602090910151909550935084151561104c57600095506111b5565b601054604080517f08d95cd500000000000000000000000000000000000000000000000000000000815260048101879052905161118d92889261118192600160a060020a03909216916308d95cd5916024808201926020929091908290030181600087803b1580156110bd57600080fd5b505af11580156110d1573d6000803e3d6000fd5b505050506040513d60208110156110e757600080fd5b5051601054604080517f463177120000000000000000000000000000000000000000000000000000000081529051600160a060020a03909216916346317712916004808201926020929091908290030181600087803b15801561114957600080fd5b505af115801561115d573d6000803e3d6000fd5b505050506040513d602081101561117357600080fd5b50519063ffffffff6140ba16565b9063ffffffff6140da16565b925061119887613395565b91506111a783611181846140f3565b90506111b281614109565b95505b505050505092915050565b600a5481565b600054600160a060020a0316331461122a576040805160e560020a62461bcd02815260206004820152602f602482015260008051602061578383398151915260448201526000805160206157c3833981519152606482015290519081900360840190fd5b600060028190556003805460ff191690556040517f6adcc7125002935e0aa31697538ebbd65cfddf20431eb6ecdcfc3e238bfd082c9190a1565b6004546000908190600160a060020a0316331461128e5760058054600160a060020a031916331790555b6005546112a490600160a060020a031685610f94565b9150600082116112fe576040805160e560020a62461bcd02815260206004820152601260248201527f4e6f206465627420746f20666f72676976650000000000000000000000000000604482015290519081900360640190fd5b82821061130b578261130d565b815b9050611319848261412b565b600160e060020a031984166000908152600c60205260408082205460055482517f9dc29fac000000000000000000000000000000000000000000000000000000008152600160a060020a039182166004820152602481018690529251911692639dc29fac926044808201939182900301818387803b15801561139a57600080fd5b505af11580156113ae573d6000803e3d6000fd5b5050505050505050565b600f546040805160e060020a63ea3d4109028152600160e060020a03198616600482015290516000928692600160a060020a039091169163ea3d41099160248082019260209290919082900301818887803b15801561141657600080fd5b505af115801561142a573d6000803e3d6000fd5b505050506040513d602081101561144057600080fd5b505115611493576040805160e560020a62461bcd02815260206004820152602260248201526000805160206157e3833981519152604482015260f060020a61637902606482015290519081900360840190fd5b600f546040805160e060020a63ea3d4109028152600160e060020a03198616600482015290518592600160a060020a03169163ea3d41099160248083019260209291908290030181600087803b1580156114ec57600080fd5b505af1158015611500573d6000803e3d6000fd5b505050506040513d602081101561151657600080fd5b505115611569576040805160e560020a62461bcd02815260206004820152602260248201526000805160206157e3833981519152604482015260f060020a61637902606482015290519081900360840190fd5b600160e060020a03198681169085161415611586578492506116dc565b600f54604080517faf1ff972000000000000000000000000000000000000000000000000000000008152600160e060020a03198716600482015290516116d992600160a060020a03169163af1ff9729160248083019260209291908290030181600087803b1580156115f757600080fd5b505af115801561160b573d6000803e3d6000fd5b505050506040513d602081101561162157600080fd5b5051600f54604080517faf1ff972000000000000000000000000000000000000000000000000000000008152600160e060020a03198b16600482015290516116cd92600160a060020a03169163af1ff9729160248083019260209291908290030181600087803b15801561169457600080fd5b505af11580156116a8573d6000803e3d6000fd5b505050506040513d60208110156116be57600080fd5b5051889063ffffffff6144d716565b9063ffffffff6144ec16565b92505b50509392505050565b600454600090600160a060020a0316331461170d5760058054600160a060020a031916331790555b600160e060020a03198581169084161415611798576040805160e560020a62461bcd02815260206004820152602260248201527f45786368616e6765206d7573742075736520646966666572656e74206e6f6d6960448201527f6e73000000000000000000000000000000000000000000000000000000000000606482015290519081900360840190fd5b600084116117f0576040805160e560020a62461bcd02815260206004820152600b60248201527f5a65726f20616d6f756e74000000000000000000000000000000000000000000604482015290519081900360640190fd5b600160a060020a038216301415611851576040805160e560020a62461bcd02815260206004820152601d60248201527f48617676656e20697320696e76616c69642064657374696e6174696f6e000000604482015290519081900360640190fd5b600454600160a060020a03838116911614156118b7576040805160e560020a62461bcd02815260206004820152601c60248201527f50726f787920697320696e76616c69642064657374696e6174696f6e00000000604482015290519081900360640190fd5b600554610f8b90600160a060020a03908116908790879087908716156118dd57866118ea565b600554600160a060020a03165b6001613a6a565b60008080805b600b5460ff8216101561194457600b805433919060ff841690811061191857fe5b600091825260209091200154600160a060020a0316141561193c5760019150611944565b6001016118f7565b81151561199b576040805160e560020a62461bcd02815260206004820152601260248201527f4f6e6c79206e6f6d696e20616c6c6f7765640000000000000000000000000000604482015290519081900360640190fd5b600085116119f3576040805160e560020a62461bcd02815260206004820152601160248201527f536f757263652063616e27742062652030000000000000000000000000000000604482015290519081900360640190fd5b611a8987878760e960020a6224222902600d60009054906101000a9004600160a060020a0316600160a060020a031663eb1edd616040518163ffffffff1660e060020a028152600401602060405180830381600087803b158015611a5657600080fd5b505af1158015611a6a573d6000803e3d6000fd5b505050506040513d6020811015611a8057600080fd5b50516000613a6a565b92508215611b2057600d54604080517fa3fd6d0e000000000000000000000000000000000000000000000000000000008152600160e060020a031989166004820152602481018890529051600160a060020a039092169163a3fd6d0e9160448082019260009290919082900301818387803b158015611b0757600080fd5b505af1158015611b1b573d6000803e3d6000fd5b505050505b509095945050505050565b600f54600160a060020a031681565b600080611b5960e960020a622420ab02611b53866129a8565b856113b8565b9050611bea601060009054906101000a9004600160a060020a0316600160a060020a031663b410a0346040518163ffffffff1660e060020a028152600401602060405180830381600087803b158015611bb157600080fd5b505af1158015611bc5573d6000803e3d6000fd5b505050506040513d6020811015611bdb57600080fd5b5051829063ffffffff61450116565b949350505050565b600154600160a060020a031681565b6004546000908190600160a060020a03163314611c2b5760058054600160a060020a031916331790555b600054600554600160a060020a03908116911614611c95576040805160e560020a62461bcd02815260206004820152602e60248201526000805160206157a38339815191526044820152600080516020615803833981519152606482015290519081900360840190fd5b600160e060020a031983166000908152600c6020526040902054600160a060020a03161515611d0e576040805160e560020a62461bcd02815260206004820152601460248201527f4e6f6d696e20646f6573206e6f74206578697374000000000000000000000000604482015290519081900360640190fd5b600160e060020a031983166000908152600c602090815260408083205481517f18160ddd0000000000000000000000000000000000000000000000000000000081529151600160a060020a03909116936318160ddd93600480850194919392918390030190829087803b158015611d8457600080fd5b505af1158015611d98573d6000803e3d6000fd5b505050506040513d6020811015611dae57600080fd5b505115611e05576040805160e560020a62461bcd02815260206004820152601360248201527f4e6f6d696e20737570706c792065786973747300000000000000000000000000604482015290519081900360640190fd5b5050600160e060020a031981166000908152600c6020526040812054600160a060020a0316905b600b5460ff82161015611f1f5781600160a060020a0316600b8260ff16815481101515611e5557fe5b600091825260209091200154600160a060020a03161415611f1757600b805460ff8316908110611e8157fe5b60009182526020909120018054600160a060020a0319169055600b80546000198101908110611eac57fe5b600091825260209091200154600b8054600160a060020a039092169160ff8416908110611ed557fe5b60009182526020909120018054600160a060020a031916600160a060020a0392909216919091179055600b805490611f11906000198301615745565b50611f1f565b600101611e2c565b600160e060020a031983166000908152600c602052604090208054600160a060020a0319169055611f50838361452d565b505050565b600454600160a060020a03163314611f7a5760058054600160a060020a031916331790555b600054600554600160a060020a03908116911614611fe4576040805160e560020a62461bcd02815260206004820152602e60248201526000805160206157a38339815191526044820152600080516020615803833981519152606482015290519081900360840190fd5b600f8054600160a060020a031916600160a060020a0392909216919091179055565b60008060006120158585610f94565b91506120218585611b3a565b90508082106120335760009250612046565b612043818363ffffffff61466a16565b92505b505092915050565b600454600090600160a060020a031633146120765760058054600160a060020a031916331790555b600054600554600160a060020a039081169116146120e0576040805160e560020a62461bcd02815260206004820152602e60248201526000805160206157a38339815191526044820152600080516020615803833981519152606482015290519081900360840190fd5b81600160a060020a031663dbd06c856040518163ffffffff1660e060020a028152600401602060405180830381600087803b15801561211e57600080fd5b505af1158015612132573d6000803e3d6000fd5b505050506040513d602081101561214857600080fd5b5051600160e060020a031981166000908152600c6020526040902054909150600160a060020a0316156121c5576040805160e560020a62461bcd02815260206004820152601460248201527f4e6f6d696e20616c726561647920657869737473000000000000000000000000604482015290519081900360640190fd5b600b8054600181019091557f0175b7a638427703f0dbe7bb9bbf987a2551717b34e79f33b5b1008d1fa01db9018054600160a060020a038416600160a060020a03199182168117909255600160e060020a031983166000908152600c602052604090208054909116909117905561223c8183614681565b5050565b6006546040805160e060020a6370a08231028152600160a060020a038481166004830152915160009392909216916370a082319160248082019260209290919082900301818787803b15801561229557600080fd5b505af11580156122a9573d6000803e3d6000fd5b505050506040513d60208110156122bf57600080fd5b505192915050565b600154600160a060020a0316331461234f576040805160e560020a62461bcd02815260206004820152603560248201527f596f75206d757374206265206e6f6d696e61746564206265666f726520796f7560448201527f2063616e20616363657074206f776e6572736869700000000000000000000000606482015290519081900360840190fd5b60005460015460408051600160a060020a03938416815292909116602083015280517fb532073b38c83145e3e5135377a08bf9aab55bc0fd7c1179cd4fb995d2a5159c9281900390910190a16001805460008054600160a060020a0319908116600160a060020a03841617909155169055565b601054600160a060020a031681565b600054600160a060020a031681565b6008805460408051602060026001851615610100026000190190941693909304601f81018490048402820184019092528181529291830182828015610b055780601f10610ada57610100808354040283529160200191610b05565b600054600160a060020a0316331461249f576040805160e560020a62461bcd02815260206004820152602f602482015260008051602061578383398151915260448201526000805160206157c3833981519152606482015290519081900360840190fd5b60048054600160a060020a038316600160a060020a0319909116811790915560408051918252517ffc80377ca9c49cc11ae6982f390a42db976d5530af7c43889264b13fbbd7c57e9181900360200190a150565b60008054600160a060020a03163314612558576040805160e560020a62461bcd02815260206004820152602f602482015260008051602061578383398151915260448201526000805160206157c3833981519152606482015290519081900360840190fd5b60035460ff1615156125da576040805160e560020a62461bcd02815260206004820152602860248201527f53656c6620646573747275637420686173206e6f7420796574206265656e206960448201527f6e69746961746564000000000000000000000000000000000000000000000000606482015290519081900360840190fd5b426224ea0060025401101515612660576040805160e560020a62461bcd02815260206004820152602760248201527f53656c662064657374727563742064656c617920686173206e6f74207965742060448201527f656c617073656400000000000000000000000000000000000000000000000000606482015290519081900360840190fd5b5060035460408051600160a060020a0361010090930492909216808352905190917f8a09e1677ced846cb537dc2b172043bd05a1a81ad7e0033a7ef8ba762df990b7919081900360200190a180600160a060020a0316ff5b600454600160a060020a031633146126dd5760058054600160a060020a031916331790555b600054600554600160a060020a03908116911614612747576040805160e560020a62461bcd02815260206004820152602e60248201526000805160206157a38339815191526044820152600080516020615803833981519152606482015290519081900360840190fd5b60068054600160a060020a031916600160a060020a03831617905561276b8161476c565b50565b600454600160a060020a031633146127935760058054600160a060020a031916331790555b600160e060020a03198116158061282d5750600f546040805160e060020a63ea3d4109028152600160e060020a0319841660048201529051600160a060020a039092169163ea3d4109916024808201926020929091908290030181600087803b1580156127ff57600080fd5b505af1158015612813573d6000803e3d6000fd5b505050506040513d602081101561282957600080fd5b5051155b15156128a9576040805160e560020a62461bcd02815260206004820152602860248201527f43757272656e63792072617465206973207374616c65206f7220646f65736e2760448201527f742065786973742e000000000000000000000000000000000000000000000000606482015290519081900360840190fd5b601054600554604080517f51dc7f7d000000000000000000000000000000000000000000000000000000008152600160a060020a039283166004820152600160e060020a031985166024820152905191909216916351dc7f7d91604480830192600092919082900301818387803b15801561292357600080fd5b505af1158015612937573d6000803e3d6000fd5b505060055461276b9250600160a060020a03169050826148b3565b600080600061296a8460e960020a622420ab02610f94565b9150612975846129a8565b9050801515612987576000925061299a565b612997828263ffffffff6144ec16565b92505b5050919050565b6224ea0081565b6006546040805160e060020a6370a08231028152600160a060020a0384811660048301529151600093849316916370a0823191602480830192602092919082900301818787803b1580156129fb57600080fd5b505af1158015612a0f573d6000803e3d6000fd5b505050506040513d6020811015612a2557600080fd5b5051600e54909150600160a060020a031615612ace57600e546040805160e060020a6370a08231028152600160a060020a0386811660048301529151612acb9392909216916370a08231916024808201926020929091908290030181600087803b158015612a9257600080fd5b505af1158015612aa6573d6000803e3d6000fd5b505050506040513d6020811015612abc57600080fd5b5051829063ffffffff6149bf16565b90505b92915050565b60006060611bea848483612d49565b600454600090600160a060020a03163314612b0b5760058054600160a060020a031916331790555b600554612b2190600160a060020a031683612006565b905061223c828261325c565b600454600090600160a060020a03163314612b555760058054600160a060020a031916331790555b612b5e8561301c565b831115612bb5576040805160e560020a62461bcd02815260206004820152601460248201527f496e73756666696369656e742062616c616e6365000000000000000000000000604482015290519081900360640190fd5b600554612bce90600160a060020a0316868686866149d1565b50600195945050505050565b600d54600160a060020a031681565b60035460ff1681565b600454600160a060020a03163314612c7a576040805160e560020a62461bcd02815260206004820152602560248201527f4f6e6c79207468652070726f78792063616e2063616c6c20746869732066756e60448201527f6374696f6e000000000000000000000000000000000000000000000000000000606482015290519081900360840190fd5b60058054600160a060020a031916600160a060020a0392909216919091179055565b600054600160a060020a03163314612d00576040805160e560020a62461bcd02815260206004820152602f602482015260008051602061578383398151915260448201526000805160206157c3833981519152606482015290519081900360840190fd5b426002556003805460ff19166001179055604080516224ea00815290517fcbd94ca75b8dc45c9d80c77e851670e78843c0d75180cb81db3e2158228fa9a69181900360200190a1565b600454600090600160a060020a03163314612d715760058054600160a060020a031916331790555b600554612d8690600160a060020a031661301c565b831115612ddd576040805160e560020a62461bcd02815260206004820152601460248201527f496e73756666696369656e742062616c616e6365000000000000000000000000604482015290519081900360640190fd5b600554612df590600160a060020a0316858585614b0f565b506001949350505050565b600454600160a060020a03163314612e255760058054600160a060020a031916331790555b600054600554600160a060020a03908116911614612e8f576040805160e560020a62461bcd02815260206004820152602e60248201526000805160206157a38339815191526044820152600080516020615803833981519152606482015290519081900360840190fd5b60108054600160a060020a031916600160a060020a0392909216919091179055565b600454600160a060020a03163314612ed65760058054600160a060020a031916331790555b600054600554600160a060020a03908116911614612f40576040805160e560020a62461bcd02815260206004820152602e60248201526000805160206157a38339815191526044820152600080516020615803833981519152606482015290519081900360840190fd5b600e8054600160a060020a031916600160a060020a0392909216919091179055565b6003546101009004600160a060020a031681565b600654604080517fdd62ed3e000000000000000000000000000000000000000000000000000000008152600160a060020a03858116600483015284811660248301529151600093929092169163dd62ed3e9160448082019260209290919082900301818787803b158015612fe957600080fd5b505af1158015612ffd573d6000803e3d6000fd5b505050506040513d602081101561301357600080fd5b50519392505050565b600f546040805160e060020a63ea3d410902815260e960020a622420ab02600482018190529151600093849384939092600160a060020a039092169163ea3d41099160248082019260209290919082900301818887803b15801561307f57600080fd5b505af1158015613093573d6000803e3d6000fd5b505050506040513d60208110156130a957600080fd5b5051156130fc576040805160e560020a62461bcd02815260206004820152602260248201526000805160206157e3833981519152604482015260f060020a61637902606482015290519081900360840190fd5b6006546040805160e060020a6370a08231028152600160a060020a038881166004830152915191909216916370a082319160248083019260209291908290030181600087803b15801561314e57600080fd5b505af1158015613162573d6000803e3d6000fd5b505050506040513d602081101561317857600080fd5b5051601054604080517fb410a034000000000000000000000000000000000000000000000000000000008152905192955061322092600160a060020a039092169163b410a034916004808201926020929091908290030181600087803b1580156131e157600080fd5b505af11580156131f5573d6000803e3d6000fd5b505050506040513d602081101561320b57600080fd5b50516116cd8760e960020a622420ab02610f94565b91508282106132325760009350613245565b613242838363ffffffff61466a16565b93505b505050919050565b600e54600160a060020a031681565b600454600160a060020a031633146132815760058054600160a060020a031916331790555b60055461329790600160a060020a031683612006565b8111156132ee576040805160e560020a62461bcd02815260206004820152601060248201527f416d6f756e7420746f6f206c6172676500000000000000000000000000000000604482015290519081900360640190fd5b6132f88282614b1d565b600160e060020a031982166000908152600c60205260408082205460055482517f867904b4000000000000000000000000000000000000000000000000000000008152600160a060020a03918216600482015260248101869052925191169263867904b4926044808201939182900301818387803b15801561337957600080fd5b505af115801561338d573d6000803e3d6000fd5b505050505050565b600f546040805160e060020a63ea3d4109028152600160e060020a031984166004820152905160009283928392839283928892600160a060020a039092169163ea3d41099160248082019260209290919082900301818887803b1580156133fb57600080fd5b505af115801561340f573d6000803e3d6000fd5b505050506040513d602081101561342557600080fd5b505115613478576040805160e560020a62461bcd02815260206004820152602260248201526000805160206157e3833981519152604482015260f060020a61637902606482015290519081900360840190fd5b600f54604080517faf1ff972000000000000000000000000000000000000000000000000000000008152600160e060020a03198a166004820152905160009750600160a060020a039092169163af1ff9729160248082019260209290919082900301818b87803b1580156134eb57600080fd5b505af11580156134ff573d6000803e3d6000fd5b505050506040513d602081101561351557600080fd5b50519350600092505b600b5460ff8416101561388d57600f54600b8054600160a060020a039092169163ea3d4109919060ff871690811061355257fe5b9060005260206000200160009054906101000a9004600160a060020a0316600160a060020a031663dbd06c856040518163ffffffff1660e060020a028152600401602060405180830381600087803b1580156135ad57600080fd5b505af11580156135c1573d6000803e3d6000fd5b505050506040513d60208110156135d757600080fd5b50516040805160e060020a63ffffffff8516028152600160e060020a031990921660048301525160248083019260209291908290030181600087803b15801561361f57600080fd5b505af1158015613633573d6000803e3d6000fd5b505050506040513d602081101561364957600080fd5b5051156136a0576040805160e560020a62461bcd02815260206004820152600d60248201527f52617465206973207374616c6500000000000000000000000000000000000000604482015290519081900360640190fd5b600f54600b805461386e9287926116cd92600160a060020a039092169163af1ff972919060ff8a169081106136d157fe5b9060005260206000200160009054906101000a9004600160a060020a0316600160a060020a031663dbd06c856040518163ffffffff1660e060020a028152600401602060405180830381600087803b15801561372c57600080fd5b505af1158015613740573d6000803e3d6000fd5b505050506040513d602081101561375657600080fd5b50516040805160e060020a63ffffffff8516028152600160e060020a031990921660048301525160248083019260209291908290030181600087803b15801561379e57600080fd5b505af11580156137b2573d6000803e3d6000fd5b505050506040513d60208110156137c857600080fd5b5051600b805460ff89169081106137db57fe5b9060005260206000200160009054906101000a9004600160a060020a0316600160a060020a03166318160ddd6040518163ffffffff1660e060020a028152600401602060405180830381600087803b15801561383657600080fd5b505af115801561384a573d6000803e3d6000fd5b505050506040513d602081101561386057600080fd5b50519063ffffffff6144d716565b9150613880858363ffffffff6149bf16565b945060019092019161351e565b509295945050505050565b600654600160a060020a031681565b600454600160a060020a031681565b600b8054829081106138c457fe5b600091825260209091200154600160a060020a0316905081565b600c60205260009081526040902054600160a060020a031681565b600480546040805160208082018690528251808303820181528284018085527f417070726f76616c28616464726573732c616464726573732c75696e7432353690527f29000000000000000000000000000000000000000000000000000000000000006060840152925191829003606101822060e060020a63907dff9702835260036024840181905260448401829052600160a060020a038a8116606486018190528a821660848701819052600060a4880181905260c09a88019a8b52885160c48901528851939099169963907dff97999497959692959194939092839260e40191908a0190808383885b838110156139fc5781810151838201526020016139e4565b50505050905090810190601f168015613a295780820380516001836020036101000a031916815260200191505b50975050505050505050600060405180830381600087803b158015613a4d57600080fd5b505af1158015613a61573d6000803e3d6000fd5b50505050505050565b60008060008060008a600d60009054906101000a9004600160a060020a0316600160a060020a031663eb1edd616040518163ffffffff1660e060020a028152600401602060405180830381600087803b158015613ac657600080fd5b505af1158015613ada573d6000803e3d6000fd5b505050506040513d6020811015613af057600080fd5b5051600160a060020a0382811691161415613b55576040805160e560020a62461bcd02815260206004820152601760248201527f4665652061646472657373206e6f7420616c6c6f776564000000000000000000604482015290519081900360640190fd5b600160a060020a0388161515613bb5576040805160e560020a62461bcd02815260206004820152601060248201527f5a65726f2064657374696e6174696f6e00000000000000000000000000000000604482015290519081900360640190fd5b600160a060020a038816301415613c16576040805160e560020a62461bcd02815260206004820152601d60248201527f48617676656e20697320696e76616c69642064657374696e6174696f6e000000604482015290519081900360640190fd5b600454600160a060020a0389811691161415613c7c576040805160e560020a62461bcd02815260206004820152601c60248201527f50726f787920697320696e76616c69642064657374696e6174696f6e00000000604482015290519081900360640190fd5b600c60008c600160e060020a031916600160e060020a031916815260200190815260200160002060009054906101000a9004600160a060020a0316600160a060020a0316639dc29fac8d8c6040518363ffffffff1660e060020a0281526004018083600160a060020a0316600160a060020a0316815260200182815260200192505050600060405180830381600087803b158015613d1957600080fd5b505af1158015613d2d573d6000803e3d6000fd5b50505050613d3c8b8b8b6113b8565b9450849350600092508615613df357600d54604080517fe05bac82000000000000000000000000000000000000000000000000000000008152600481018890529051600160a060020a039092169163e05bac82916024808201926020929091908290030181600087803b158015613db257600080fd5b505af1158015613dc6573d6000803e3d6000fd5b505050506040513d6020811015613ddc57600080fd5b50519350613df0858563ffffffff61466a16565b92505b600160e060020a031989166000908152600c60205260408082205481517f867904b4000000000000000000000000000000000000000000000000000000008152600160a060020a038c81166004830152602482018990529251929091169263867904b49260448084019382900301818387803b158015613e7257600080fd5b505af1158015613e86573d6000803e3d6000fd5b505050506000831115613fd957613ea7898460e960020a62242229026113b8565b60e960020a62242229026000908152600c60209081527f9faee827d33c840e62362ba781b916bad6121f26ed95a6529a66e32c413735e054600d54604080517feb1edd610000000000000000000000000000000000000000000000000000000081529051959750600160a060020a039283169563867904b495939092169363eb1edd619360048084019492938390030190829087803b158015613f4957600080fd5b505af1158015613f5d573d6000803e3d6000fd5b505050506040513d6020811015613f7357600080fd5b50516040805160e060020a63ffffffff8516028152600160a060020a0390921660048301526024820186905251604480830192600092919082900301818387803b158015613fc057600080fd5b505af1158015613fd4573d6000803e3d6000fd5b505050505b600c60008a600160e060020a031916600160e060020a031916815260200190815260200160002060009054906101000a9004600160a060020a0316600160a060020a031663eb6ecc038d8a876040518463ffffffff1660e060020a0281526004018084600160a060020a0316600160a060020a0316815260200183600160a060020a0316600160a060020a031681526020018281526020019350505050600060405180830381600087803b15801561409057600080fd5b505af11580156140a4573d6000803e3d6000fd5b5060019f9e505050505050505050505050505050565b60006140d383836b033b2e3c9fd0803ce800000061501e565b9392505050565b60006140d383836b033b2e3c9fd0803ce8000000615062565b6000612ace82633b9aca0063ffffffff61508f16565b60006305f5e10082046005600a82061061412157600a015b600a900492915050565b60008060008060008060008061414b8a8a60e960020a62242229026113b8565b60055490985061416d90600160a060020a031660e960020a6224222902610f94565b965061418160e960020a6224222902613395565b9550614193888763ffffffff6140ba16565b94506142188573__SafeDecimalMath_______________________63d5e5e6e66040518163ffffffff1660e060020a02815260040160206040518083038186803b1580156141e057600080fd5b505af41580156141f4573d6000803e3d6000fd5b505050506040513d602081101561420a57600080fd5b50519063ffffffff6149bf16565b93508688141561431457601054600554604080517fb16c09f0000000000000000000000000000000000000000000000000000000008152600160a060020a0392831660048201529051919092169163b16c09f091602480830192600092919082900301818387803b15801561428c57600080fd5b505af11580156142a0573d6000803e3d6000fd5b50505050601060009054906101000a9004600160a060020a0316600160a060020a031663ba08f2996040518163ffffffff1660e060020a028152600401600060405180830381600087803b1580156142f757600080fd5b505af115801561430b573d6000803e3d6000fd5b505050506143d4565b614324878963ffffffff61466a16565b9250614336868963ffffffff61466a16565b9150614348838363ffffffff6140ba16565b601054600554604080517fa764eb45000000000000000000000000000000000000000000000000000000008152600160a060020a03928316600482015260248101859052905193945091169163a764eb459160448082019260009290919082900301818387803b1580156143bb57600080fd5b505af11580156143cf573d6000803e3d6000fd5b505050505b601054604080517f463177120000000000000000000000000000000000000000000000000000000081529051600160a060020a0390921691633d31e97b9161447a91889185916346317712916004808201926020929091908290030181600087803b15801561444257600080fd5b505af1158015614456573d6000803e3d6000fd5b505050506040513d602081101561446c57600080fd5b50519063ffffffff6140da16565b6040518263ffffffff1660e060020a02815260040180828152602001915050600060405180830381600087803b1580156144b357600080fd5b505af11580156144c7573d6000803e3d6000fd5b5050505050505050505050505050565b60006140d38383670de0b6b3a7640000615062565b60006140d38383670de0b6b3a764000061501e565b6000670de0b6b3a764000061451c848463ffffffff61508f16565b81151561452557fe5b049392505050565b6004805460408051600160e060020a03198616602080830191909152600160a060020a0386811683850152835180840385018152606084018086527f4e6f6d696e52656d6f766564286279746573342c6164647265737329000000009052935192839003607c01832060e060020a63907dff97028452600160248501819052604485018290526000606486018190526084860181905260a4860181905260c0988601988952865160c48701528651939097169763907dff979791959294919384938493839260e490920191908a0190808383885b83811015614619578181015183820152602001614601565b50505050905090810190601f1680156146465780820380516001836020036101000a031916815260200191505b50975050505050505050600060405180830381600087803b15801561337957600080fd5b6000808383111561467a57600080fd5b5050900390565b6004805460408051600160e060020a03198616602080830191909152600160a060020a0386811683850152835180840385018152606084018086527f4e6f6d696e4164646564286279746573342c61646472657373290000000000009052935192839003607a01832060e060020a63907dff97028452600160248501819052604485018290526000606486018190526084860181905260a4860181905260c0988601988952865160c48701528651939097169763907dff979791959294919384938493839260e490920191908a01908083838883811015614619578181015183820152602001614601565b6004805460408051600160a060020a038581166020808401919091528351808403820181528385018086527f546f6b656e5374617465557064617465642861646472657373290000000000009052935192839003605a01832060e060020a63907dff97028452600160248501819052604485018290526000606486018190526084860181905260a4860181905260c0988601988952865160c48701528651949097169763907dff979791959294919384938493839260e4909201918a0190808383885b8381101561484757818101518382015260200161482f565b50505050905090810190601f1680156148745780820380516001836020036101000a031916815260200191505b50975050505050505050600060405180830381600087803b15801561489857600080fd5b505af11580156148ac573d6000803e3d6000fd5b5050505050565b6004805460408051600160e060020a031985166020808301919091528251808303820181528284018085527f50726566657272656443757272656e63794368616e676564286164647265737390527f2c627974657334290000000000000000000000000000000000000000000000006060840152925191829003606801822060e060020a63907dff9702835260026024840181905260448401829052600160a060020a038981166064860181905260006084870181905260a4870181905260c0998701998a52875160c48801528751929098169863907dff979893969495919484939192839260e490920191908a01908083838883811015614619578181015183820152602001614601565b6000828201838110156140d357600080fd5b600654604080517fdd62ed3e000000000000000000000000000000000000000000000000000000008152600160a060020a03878116600483015288811660248301529151600093929092169163da46098c9188918a91614a8e918991879163dd62ed3e9160448082019260209290919082900301818d87803b158015614a5657600080fd5b505af1158015614a6a573d6000803e3d6000fd5b505050506040513d6020811015614a8057600080fd5b50519063ffffffff61466a16565b6040805160e060020a63ffffffff8716028152600160a060020a03948516600482015292909316602483015260448201529051606480830192600092919082900301818387803b158015614ae157600080fd5b505af1158015614af5573d6000803e3d6000fd5b50505050614b05858585856150bd565b9695505050505050565b6000610f8b858585856150bd565b60045460009081908190819081908190600160a060020a03163314614b4f5760058054600160a060020a031916331790555b614b63888860e960020a62242229026113b8565b9550614b7760e960020a6224222902613395565b9450614b89868663ffffffff6149bf16565b9350614b9b868563ffffffff6140ba16565b9250614bfc8373__SafeDecimalMath_______________________63d5e5e6e66040518163ffffffff1660e060020a02815260040160206040518083038186803b158015614be857600080fd5b505af4158015614a6a573d6000803e3d6000fd5b600554909250614c1e90600160a060020a031660e960020a6224222902610f94565b90506000811115614c4c57614c4984614c3d888463ffffffff6149bf16565b9063ffffffff6140ba16565b92505b601054600554604080517fb992812e000000000000000000000000000000000000000000000000000000008152600160a060020a0392831660048201529051919092169163b992812e9160248083019260209291908290030181600087803b158015614cb757600080fd5b505af1158015614ccb573d6000803e3d6000fd5b505050506040513d6020811015614ce157600080fd5b50511515614d5557601060009054906101000a9004600160a060020a0316600160a060020a0316631bfba5956040518163ffffffff1660e060020a028152600401600060405180830381600087803b158015614d3c57600080fd5b505af1158015614d50573d6000803e3d6000fd5b505050505b601054600554604080517fa764eb45000000000000000000000000000000000000000000000000000000008152600160a060020a039283166004820152602481018790529051919092169163a764eb4591604480830192600092919082900301818387803b158015614dc657600080fd5b505af1158015614dda573d6000803e3d6000fd5b505050506000601060009054906101000a9004600160a060020a0316600160a060020a031663cd92eba96040518163ffffffff1660e060020a028152600401602060405180830381600087803b158015614e3357600080fd5b505af1158015614e47573d6000803e3d6000fd5b505050506040513d6020811015614e5d57600080fd5b50511115614f2957601054604080517f463177120000000000000000000000000000000000000000000000000000000081529051600160a060020a0390921691633d31e97b91614ed391869185916346317712916004808201926020929091908290030181600087803b15801561444257600080fd5b6040518263ffffffff1660e060020a02815260040180828152602001915050600060405180830381600087803b158015614f0c57600080fd5b505af1158015614f20573d6000803e3d6000fd5b505050506113ae565b601060009054906101000a9004600160a060020a0316600160a060020a0316633d31e97b73__SafeDecimalMath_______________________63d5e5e6e66040518163ffffffff1660e060020a02815260040160206040518083038186803b158015614f9457600080fd5b505af4158015614fa8573d6000803e3d6000fd5b505050506040513d6020811015614fbe57600080fd5b50516040805160e060020a63ffffffff8516028152600481019290925251602480830192600092919082900301818387803b158015614ffc57600080fd5b505af1158015615010573d6000803e3d6000fd5b505050505050505050505050565b6000806150448461503887600a870263ffffffff61508f16565b9063ffffffff6153f716565b90506005600a825b061061505657600a015b600a9004949350505050565b600080600a8304615079868663ffffffff61508f16565b81151561508257fe5b0490506005600a8261504c565b6000808315156150a25760009150610bdc565b508282028284828115156150b257fe5b04146140d357600080fd5b6000600160a060020a038416151561511f576040805160e560020a62461bcd02815260206004820181905260248201527f43616e6e6f74207472616e7366657220746f2074686520302061646472657373604482015290519081900360640190fd5b600160a060020a0384163014156151a6576040805160e560020a62461bcd02815260206004820152602a60248201527f43616e6e6f74207472616e7366657220746f2074686520756e6465726c79696e60448201527f6720636f6e747261637400000000000000000000000000000000000000000000606482015290519081900360840190fd5b600454600160a060020a0385811691161415615232576040805160e560020a62461bcd02815260206004820152602560248201527f43616e6e6f74207472616e7366657220746f207468652070726f787920636f6e60448201527f7472616374000000000000000000000000000000000000000000000000000000606482015290519081900360840190fd5b6006546040805160e060020a6370a08231028152600160a060020a0388811660048301529151919092169163b46310f691889161529591889186916370a08231916024808201926020929091908290030181600087803b158015614a5657600080fd5b6040518363ffffffff1660e060020a0281526004018083600160a060020a0316600160a060020a0316815260200182815260200192505050600060405180830381600087803b1580156152e757600080fd5b505af11580156152fb573d6000803e3d6000fd5b50506006546040805160e060020a6370a08231028152600160a060020a038981166004830152915191909216935063b46310f69250879161537691889186916370a08231916024808201926020929091908290030181600087803b15801561536257600080fd5b505af11580156141f4573d6000803e3d6000fd5b6040518363ffffffff1660e060020a0281526004018083600160a060020a0316600160a060020a0316815260200182815260200192505050600060405180830381600087803b1580156153c857600080fd5b505af11580156153dc573d6000803e3d6000fd5b505050506153ec8585858561541a565b612df5858585615643565b60008080831161540657600080fd5b828481151561541157fe5b04949350505050565b60055460009074010000000000000000000000000000000000000000900460ff1615615490576040805160e560020a62461bcd02815260206004820152601e60248201527f526576657274656420746f2070726576656e74207265656e7472616e63790000604482015290519081900360640190fd5b506005805474ff0000000000000000000000000000000000000000191674010000000000000000000000000000000000000000179055823b600081111561561e5783600160a060020a03168584846040516024018084600160a060020a0316600160a060020a0316815260200183815260200180602001828103825283818151815260200191508051906020019080838360005b8381101561553c578181015183820152602001615524565b50505050905090810190601f1680156155695780820380516001836020036101000a031916815260200191505b5060408051601f19818403018152918152602082018051600160e060020a03167fc0ee0b8a000000000000000000000000000000000000000000000000000000001781529051825192975095508594509250905080838360005b838110156155db5781810151838201526020016155c3565b50505050905090810190601f1680156156085780820380516001836020036101000a031916815260200191505b509150506000604051808303816000865af15050505b50506005805474ff000000000000000000000000000000000000000019169055505050565b600480546040805160208082018690528251808303820181528284018085527f5472616e7366657228616464726573732c616464726573732c75696e7432353690527f29000000000000000000000000000000000000000000000000000000000000006060840152925191829003606101822060e060020a63907dff9702835260036024840181905260448401829052600160a060020a038a8116606486018190528a821660848701819052600060a4880181905260c09a88019a8b52885160c48901528851939099169963907dff97999497959692959194939092839260e40191908a019080838388838110156139fc5781810151838201526020016139e4565b815481835581811115611f5057600083815260209020611f50918101908301610a7c91905b8082111561577e576000815560010161576a565b509056004f6e6c792074686520636f6e7472616374206f776e6572206d617920706572665468697320616374696f6e2063616e206f6e6c7920626520706572666f726d656f726d207468697320616374696f6e000000000000000000000000000000000052617465207374616c65206f72206e6f6e6578697374616e742063757272656e6420627920746865206f776e6572000000000000000000000000000000000000a165627a7a7230582074c4129c6af1ef28c29f5134d5f3e040d2d872c00b3ea79606bdf82dc4cbd8df0029",
  "source": "/*\n-----------------------------------------------------------------\nFILE INFORMATION\n-----------------------------------------------------------------\n\nfile:       Havven.sol\nversion:    2.0\nauthor:     Kevin Brown\n            Gavin Conway\ndate:       2018-09-14\n\n-----------------------------------------------------------------\nMODULE DESCRIPTION\n-----------------------------------------------------------------\n\nHavven token contract. Havvens are transferable ERC20 tokens,\nand also give their holders the following privileges.\nAn owner of havvens has the right to issue nomins in all nomin flavours.\n\nAfter a fee period terminates, the duration and fees collected for that\nperiod are computed, and the next period begins. Thus an account may only\nwithdraw the fees owed to them for the previous period, and may only do\nso once per period. Any unclaimed fees roll over into the common pot for\nthe next period.\n\n== Average Balance Calculations ==\n\nThe fee entitlement of a havven holder is proportional to their average\nissued nomin balance over the last fee period. This is computed by\nmeasuring the area under the graph of a user's issued nomin balance over\ntime, and then when a new fee period begins, dividing through by the\nduration of the fee period.\n\nWe need only update values when the balances of an account is modified.\nThis occurs when issuing or burning for issued nomin balances,\nand when transferring for havven balances. This is for efficiency,\nand adds an implicit friction to interacting with havvens.\nA havven holder pays for his own recomputation whenever he wants to change\nhis position, which saves the foundation having to maintain a pot dedicated\nto resourcing this.\n\nA hypothetical user's balance history over one fee period, pictorially:\n\n      s ____\n       |    |\n       |    |___ p\n       |____|___|___ __ _  _\n       f    t   n\n\nHere, the balance was s between times f and t, at which time a transfer\noccurred, updating the balance to p, until n, when the present transfer occurs.\nWhen a new transfer occurs at time n, the balance being p,\nwe must:\n\n  - Add the area p * (n - t) to the total area recorded so far\n  - Update the last transfer time to n\n\nSo if this graph represents the entire current fee period,\nthe average havvens held so far is ((t-f)*s + (n-t)*p) / (n-f).\nThe complementary computations must be performed for both sender and\nrecipient.\n\nNote that a transfer keeps global supply of havvens invariant.\nThe sum of all balances is constant, and unmodified by any transfer.\nSo the sum of all balances multiplied by the duration of a fee period is also\nconstant, and this is equivalent to the sum of the area of every user's\ntime/balance graph. Dividing through by that duration yields back the total\nhavven supply. So, at the end of a fee period, we really do yield a user's\naverage share in the havven supply over that period.\n\nA slight wrinkle is introduced if we consider the time r when the fee period\nrolls over. Then the previous fee period k-1 is before r, and the current fee\nperiod k is afterwards. If the last transfer took place before r,\nbut the latest transfer occurred afterwards:\n\nk-1       |        k\n      s __|_\n       |  | |\n       |  | |____ p\n       |__|_|____|___ __ _  _\n          |\n       f  | t    n\n          r\n\nIn this situation the area (r-f)*s contributes to fee period k-1, while\nthe area (t-r)*s contributes to fee period k. We will implicitly consider a\nzero-value transfer to have occurred at time r. Their fee entitlement for the\nprevious period will be finalised at the time of their first transfer during the\ncurrent fee period, or when they query or withdraw their fee entitlement.\n\nIn the implementation, the duration of different fee periods may be slightly irregular,\nas the check that they have rolled over occurs only when state-changing havven\noperations are performed.\n\n== Issuance and Burning ==\n\nIn this version of the havven contract, nomins can only be issued by\nthose that have been nominated by the havven foundation. Nomins are assumed\nto be valued at $1, as they are a stable unit of account.\n\nAll nomins issued require a proportional value of havvens to be locked,\nwhere the proportion is governed by the current issuance ratio. This\nmeans for every $1 of Havvens locked up, $(issuanceRatio) nomins can be issued.\ni.e. to issue 100 nomins, 100/issuanceRatio dollars of havvens need to be locked up.\n\nTo determine the value of some amount of havvens(H), an oracle is used to push\nthe price of havvens (P_H) in dollars to the contract. The value of H\nwould then be: H * P_H.\n\nAny havvens that are locked up by this issuance process cannot be transferred.\nThe amount that is locked floats based on the price of havvens. If the price\nof havvens moves up, less havvens are locked, so they can be issued against,\nor transferred freely. If the price of havvens moves down, more havvens are locked,\neven going above the initial wallet balance.\n\n-----------------------------------------------------------------\n*/\n\npragma solidity 0.4.25;\n\n\nimport \"./FeePool.sol\";\nimport \"./ExternStateToken.sol\";\nimport \"./Nomin.sol\";\nimport \"./HavvenEscrow.sol\";\nimport \"./HavvenState.sol\";\nimport \"./TokenState.sol\";\nimport \"./ExchangeRates.sol\";\n\n/**\n * @title Havven ERC20 contract.\n * @notice The Havven contracts not only facilitates transfers, exchanges, and tracks balances,\n * but it also computes the quantity of fees each havven holder is entitled to.\n */\ncontract Havven is ExternStateToken {\n\n    // ========== STATE VARIABLES ==========\n\n    // Available Nomins which can be used with the system\n    Nomin[] public availableNomins;\n    mapping(bytes4 => Nomin) public nomins;\n\n    FeePool public feePool;\n    HavvenEscrow public escrow;\n    ExchangeRates public exchangeRates;\n    HavvenState public havvenState;\n\n    uint constant HAVVEN_SUPPLY = 1e8 * SafeDecimalMath.unit();\n    string constant TOKEN_NAME = \"Havven\";\n    string constant TOKEN_SYMBOL = \"HAV\";\n    uint constant DECIMALS = 18;\n    \n    // ========== CONSTRUCTOR ==========\n\n    /**\n     * @dev Constructor\n     * @param _tokenState A pre-populated contract containing token balances.\n     * If the provided address is 0x0, then a fresh one will be constructed with the contract owning all tokens.\n     * @param _owner The owner of this contract.\n     */\n    constructor(address _proxy, TokenState _tokenState, HavvenState _havvenState, \n        address _owner, ExchangeRates _exchangeRates, FeePool _feePool\n    )\n        ExternStateToken(_proxy, _tokenState, TOKEN_NAME, TOKEN_SYMBOL, HAVVEN_SUPPLY, DECIMALS, _owner)\n        public\n    {\n        havvenState = _havvenState;\n        exchangeRates = _exchangeRates;\n        feePool = _feePool;\n    }\n\n    // ========== SETTERS ========== */\n\n    /**\n     * @notice Add an associated Nomin contract to the Havven system\n     * @dev Only the contract owner may call this.\n     */\n    function addNomin(Nomin nomin)\n        external\n        optionalProxy_onlyOwner\n    {\n        bytes4 currencyKey = nomin.currencyKey();\n\n        require(nomins[currencyKey] == Nomin(0), \"Nomin already exists\");\n\n        availableNomins.push(nomin);\n        nomins[currencyKey] = nomin;\n\n        emitNominAdded(currencyKey, nomin);\n    }\n\n    /**\n     * @notice Remove an associated Nomin contract from the Havven system\n     * @dev Only the contract owner may call this.\n     */\n    function removeNomin(bytes4 currencyKey)\n        external\n        optionalProxy_onlyOwner\n    {\n        require(nomins[currencyKey] != address(0), \"Nomin does not exist\");\n        require(nomins[currencyKey].totalSupply() == 0, \"Nomin supply exists\");\n\n        // Save the address we're removing for emitting the event at the end.\n        address nominToRemove = nomins[currencyKey];\n\n        // Remove the nomin from the availableNomins array.\n        for (uint8 i = 0; i < availableNomins.length; i++) {\n            if (availableNomins[i] == nominToRemove) {\n                delete availableNomins[i];\n\n                // Copy the last nomin into the place of the one we just deleted\n                // If there's only one nomin, this is nomins[0] = nomins[0].\n                // If we're deleting the last one, it's also a NOOP in the same way.\n                availableNomins[i] = availableNomins[availableNomins.length - 1];\n\n                // Decrease the size of the array by one.\n                availableNomins.length--;\n\n                break;\n            }\n        }\n\n        // And remove it from the nomins mapping\n        delete nomins[currencyKey];\n        \n        emitNominRemoved(currencyKey, nominToRemove);\n    }\n\n    /**\n     * @notice Set the associated havven escrow contract.\n     * @dev Only the contract owner may call this.\n     */\n    function setEscrow(HavvenEscrow _escrow)\n        external\n        optionalProxy_onlyOwner\n    {\n        escrow = _escrow;\n        // Note: No event here as our contract exceeds max contract size\n        // with these events, and it's unlikely people will need to\n        // track these events specifically.\n    }\n\n    /**\n     * @notice Set the ExchangeRates contract address where rates are held.\n     * @dev Only callable by the contract owner.\n     */\n    function setExchangeRates(ExchangeRates _exchangeRates)\n        external\n        optionalProxy_onlyOwner\n    {\n        exchangeRates = _exchangeRates;\n        // Note: No event here as our contract exceeds max contract size\n        // with these events, and it's unlikely people will need to\n        // track these events specifically.\n    }\n\n    /**\n     * @notice Set the havvenState contract address where issuance data is held.\n     * @dev Only callable by the contract owner.\n     */\n    function sethavvenState(HavvenState _havvenState)\n        external\n        optionalProxy_onlyOwner\n    {\n        havvenState = _havvenState;\n        // Note: No event here as our contract exceeds max contract size\n        // with these events, and it's unlikely people will need to\n        // track these events specifically.\n    }\n\n    /**\n     * @notice Set your preferred currency. Note: This does not automatically exchange any balances you've held previously in\n     * other nomin currencies in this address, it will apply for any new payments you receive at this address.\n     */\n    function setPreferredCurrency(bytes4 currencyKey)\n        external\n        optionalProxy\n    {\n        require(currencyKey == 0 || !exchangeRates.rateIsStale(currencyKey), \"Currency rate is stale or doesn't exist.\");\n\n        havvenState.setPreferredCurrency(messageSender, currencyKey);\n\n        emitPreferredCurrencyChanged(messageSender, currencyKey);\n    }\n\n    // ========== VIEWS ==========\n\n    /**\n     * @notice A function that lets you easily convert an amount in a source currency to an amount in the destination currency\n     * @param sourceCurrencyKey The currency the amount is specified in\n     * @param sourceAmount The source amount, specified in UNIT base\n     * @param destinationCurrencyKey The destination currency\n     */\n    function effectiveValue(bytes4 sourceCurrencyKey, uint sourceAmount, bytes4 destinationCurrencyKey)\n        public\n        view\n        rateNotStale(sourceCurrencyKey)\n        rateNotStale(destinationCurrencyKey)\n        returns (uint)\n    {\n        // If there's no change in the currency, then just return the amount they gave us\n        if (sourceCurrencyKey == destinationCurrencyKey) return sourceAmount;\n\n        // Calcuate the effective value by going from source -> USD -> destination\n        return sourceAmount.multiplyDecimalRound(exchangeRates.rateForCurrency(sourceCurrencyKey))\n            .divideDecimalRound(exchangeRates.rateForCurrency(destinationCurrencyKey));\n    }\n\n    /**\n     * @notice Total amount of nomins issued by the system, priced in currencyKey\n     * @param currencyKey The currency to value the nomins in\n     */\n    function totalIssuedNomins(bytes4 currencyKey)\n        public\n        view\n        rateNotStale(currencyKey)\n        returns (uint)\n    {\n        uint total = 0;\n        uint currencyRate = exchangeRates.rateForCurrency(currencyKey);\n\n        for (uint8 i = 0; i < availableNomins.length; i++) {\n            // Ensure the rate isn't stale.\n            // TODO: Investigate gas cost optimisation of doing a single call with all keys in it vs\n            // individual calls like this.\n            require(!exchangeRates.rateIsStale(availableNomins[i].currencyKey()), \"Rate is stale\");\n\n            // What's the total issued value of that nomin in the destination currency?\n            // Note: We're not using our effectiveValue function because we don't want to go get the\n            //       rate for the destination currency and check if it's stale repeatedly on every\n            //       iteration of the loop\n            uint nominValue = availableNomins[i].totalSupply()\n                .multiplyDecimalRound(exchangeRates.rateForCurrency(availableNomins[i].currencyKey()))\n                .divideDecimalRound(currencyRate);\n            total = total.add(nominValue);\n        }\n\n        return total; \n    }\n\n    /**\n     * @notice Returns the count of available nomins in the system, which you can use to iterate availableNomins\n     */\n    function availableNominCount()\n        public\n        view\n        returns (uint)\n    {\n        return availableNomins.length;\n    }\n\n    // ========== MUTATIVE FUNCTIONS ==========\n\n    /**\n     * @notice ERC20 transfer function.\n     */\n    function transfer(address to, uint value)\n        public\n        returns (bool)\n    {\n        bytes memory empty;\n        return transfer(to, value, empty);\n    }\n\n    /**\n     * @notice ERC223 transfer function. Does not conform with the ERC223 spec, as:\n     *         - Transaction doesn't revert if the recipient doesn't implement tokenFallback()\n     *         - Emits a standard ERC20 event without the bytes data parameter so as not to confuse\n     *           tooling such as Etherscan.\n     */\n    function transfer(address to, uint value, bytes data)\n        public\n        optionalProxy\n        returns (bool)\n    {\n        // Ensure they're not trying to exceed their locked amount\n        require(value <= transferableHavvens(messageSender), \"Insufficient balance\");\n\n        // Perform the transfer: if there is a problem an exception will be thrown in this call.\n        _transfer_byProxy(messageSender, to, value, data);\n\n        return true;\n    }\n\n    /**\n     * @notice ERC20 transferFrom function.\n     */\n    function transferFrom(address from, address to, uint value)\n        public\n        returns (bool)\n    {\n        bytes memory empty;\n        return transferFrom(from, to, value, empty);\n    }\n\n    /**\n     * @notice ERC223 transferFrom function. Does not conform with the ERC223 spec, as:\n     *         - Transaction doesn't revert if the recipient doesn't implement tokenFallback()\n     *         - Emits a standard ERC20 event without the bytes data parameter so as not to confuse\n     *           tooling such as Etherscan.\n     */\n    function transferFrom(address from, address to, uint value, bytes data)\n        public\n        optionalProxy\n        returns (bool)\n    {\n        // Ensure they're not trying to exceed their locked amount\n        require(value <= transferableHavvens(from), \"Insufficient balance\");\n\n        // Perform the transfer: if there is a problem,\n        // an exception will be thrown in this call.\n        _transferFrom_byProxy(messageSender, from, to, value, data);\n\n        return true;\n    }\n\n    /**\n     * @notice Function that allows you to exchange nomins you hold in one flavour for another.\n     * @param sourceCurrencyKey The source currency you wish to exchange from\n     * @param sourceAmount The amount, specified in UNIT of source currency you wish to exchange\n     * @param destinationCurrencyKey The destination currency you wish to obtain.\n     * @param destinationAddress Where the result should go. If this is address(0), or if it's the message sender, no fee\n     *        is deducted, otherwise the standard transfer fee is deducted.\n     * @return Boolean that indicates whether the transfer succeeded or failed.\n     */\n    function exchange(bytes4 sourceCurrencyKey, uint sourceAmount, bytes4 destinationCurrencyKey, address destinationAddress)\n        external\n        optionalProxy\n        // Note: We don't need to insist on non-stale rates because effectiveValue will do it for us.\n        returns (bool)\n    {\n        require(sourceCurrencyKey != destinationCurrencyKey, \"Exchange must use different nomins\");\n        require(sourceAmount > 0, \"Zero amount\");\n        require(destinationAddress != address(this), \"Havven is invalid destination\");\n        require(destinationAddress != address(proxy), \"Proxy is invalid destination\");\n\n        // Pass it along, defaulting to the sender as the recipient.\n        return _internalExchange(\n            messageSender,\n            sourceCurrencyKey,\n            sourceAmount,\n            destinationCurrencyKey,\n            destinationAddress == address(0) ? messageSender : destinationAddress,\n            true // Charge fee on the exchange\n        );\n    }\n\n    function nominInitiatedExchange(\n        address from,\n        bytes4 sourceCurrencyKey,\n        uint sourceAmount,\n        bytes4 destinationCurrencyKey,\n        address destinationAddress\n    )\n        external\n        onlyNomin\n        returns (bool)\n    {\n        require(sourceCurrencyKey != destinationCurrencyKey, \"Can't be same nomin\");\n        require(sourceAmount > 0, \"Zero amount\");\n\n        // Pass it along\n        return _internalExchange(\n            from,\n            sourceCurrencyKey,\n            sourceAmount,\n            destinationCurrencyKey,\n            destinationAddress,\n            false // Don't charge fee on the exchange, as they've already been charged a transfer fee in the nomin contract\n        );\n    }\n\n    function nominInitiatedFeePayment(\n        address from,\n        bytes4 sourceCurrencyKey,\n        uint sourceAmount\n    )\n        external\n        onlyNomin\n        returns (bool)\n    {\n        require(sourceAmount > 0, \"Source can't be 0\");\n\n        // Pass it along, defaulting to the sender as the recipient.\n        bool result = _internalExchange(\n            from,\n            sourceCurrencyKey,\n            sourceAmount,\n            \"HDR\",\n            feePool.FEE_ADDRESS(),\n            false // Don't charge a fee on the exchange because this is already a fee\n        );\n\n        // Tell the fee pool about this.\n        if (result) {\n            feePool.feePaid(sourceCurrencyKey, sourceAmount);\n        }\n\n        return result;\n    }\n    \n    function _internalExchange(\n        address from,\n        bytes4 sourceCurrencyKey,\n        uint sourceAmount,\n        bytes4 destinationCurrencyKey,\n        address destinationAddress,\n        bool chargeFee\n    )\n        internal\n        notFeeAddress(from)\n        returns (bool)\n    {\n        require(destinationAddress != address(0), \"Zero destination\");\n        require(destinationAddress != address(this), \"Havven is invalid destination\");\n        require(destinationAddress != address(proxy), \"Proxy is invalid destination\");\n        \n        // Note: We don't need to check their balance as the burn() below will do a safe subtraction which requires \n        // the subtraction to not overflow, which would happen if their balance is not sufficient.\n\n        // Burn the source amount\n        nomins[sourceCurrencyKey].burn(from, sourceAmount);\n\n        // How much should they get in the destination currency?\n        uint destinationAmount = effectiveValue(sourceCurrencyKey, sourceAmount, destinationCurrencyKey);\n\n        // What's the fee on that currency that we should deduct?\n        uint amountReceived = destinationAmount;\n        uint fee = 0;\n\n        if (chargeFee) {\n            amountReceived = feePool.amountReceivedFromExchange(destinationAmount);\n            fee = destinationAmount.sub(amountReceived);\n        } \n\n        // Issue their new nomins\n        nomins[destinationCurrencyKey].issue(destinationAddress, amountReceived);\n\n        // Remit the fee in HDRs\n        if (fee > 0) {\n            uint hdrFeeAmount = effectiveValue(destinationCurrencyKey, fee, \"HDR\");\n            nomins[\"HDR\"].issue(feePool.FEE_ADDRESS(), hdrFeeAmount);\n        }\n\n        // Nothing changes as far as issuance data goes because the total value in the system hasn't changed.\n\n        // Call the ERC223 transfer callback if needed\n        nomins[destinationCurrencyKey].triggerTokenFallbackIfNeeded(from, destinationAddress, amountReceived);\n\n        // Gas optimisation:\n        // No event emitted as it's assumed users will be able to track transfers to the zero address, followed\n        // by a transfer on another nomin from the zero address and ascertain the info required here.\n\n        return true;\n    }\n\n   \n    function _addToDebtRegister(bytes4 currencyKey, uint amount) \n        internal\n        optionalProxy\n    {\n        // What is the value of the requested debt in HDRs?\n        uint hdrValue = effectiveValue(currencyKey, amount, \"HDR\");\n        \n        // What is the value of all issued nomins of the system (priced in HDRs)?\n        uint totalDebtIssued = totalIssuedNomins(\"HDR\");\n\n        // What will the new total be including the new value?\n        uint newTotalDebtIssued = hdrValue.add(totalDebtIssued);\n\n        // What is their percentage (as a high precision int) of the total debt?\n        uint debtPercentage = hdrValue.divideDecimalRoundPrecise(newTotalDebtIssued);\n\n        // And what effect does this percentage have on the global debt holding of other issuers?\n        // The delta specifically needs to not take into account any existing debt as it's already\n        // accounted for in the delta from when they issued previously.\n        // The delta is a high precision integer.\n        uint delta = SafeDecimalMath.preciseUnit().sub(debtPercentage);\n\n        // How much existing debt do they have?\n        uint existingDebt = debtBalanceOf(messageSender, \"HDR\");\n         \n        // And what does their debt ownership look like including this previous stake?\n        if (existingDebt > 0) {\n            debtPercentage = hdrValue.add(existingDebt).divideDecimalRoundPrecise(newTotalDebtIssued);\n        }\n\n        // Are they a new issuer? If so, record them.\n        if (!havvenState.hasIssued(messageSender)) {\n            havvenState.incrementTotalIssuerCount();\n        }\n\n        // Save the debt entry parameters\n        havvenState.setCurrentIssuanceData(messageSender, debtPercentage);\n\n        // And if we're the first, push 1 as there was no effect to any other holders, otherwise push \n        // the change for the rest of the debt holders. The debt ledger holds high precision integers.\n        if (havvenState.debtLedgerLength() > 0) {\n            havvenState.appendDebtLedgerValue(\n                havvenState.lastDebtLedgerEntry().multiplyDecimalRoundPrecise(delta)\n            );\n        } else {\n            havvenState.appendDebtLedgerValue(SafeDecimalMath.preciseUnit());\n        }\n    }\n\n    /**\n     * @notice Issue nomins against the sender's havvens.\n     * @dev Issuance is only allowed if the havven price isn't stale and the sender is an issuer.\n     * @param currencyKey The currency you wish to issue nomins in, for example nUSD or nAUD\n     * @param amount The amount of nomins you wish to issue with a base of UNIT\n     */\n    function issueNomins(bytes4 currencyKey, uint amount)\n        public\n        optionalProxy\n        // No need to check if price is stale, as it is checked in issuableNomins.\n    {\n        require(amount <= remainingIssuableNomins(messageSender, currencyKey), \"Amount too large\");\n\n        // Keep track of the debt they're about to create\n        _addToDebtRegister(currencyKey, amount);\n\n        // Create their nomins\n        nomins[currencyKey].issue(messageSender, amount);\n    }\n\n    /**\n     * @notice Issue the maximum amount of Nomins possible against the sender's havvens.\n     * @dev Issuance is only allowed if the havven price isn't stale and the sender is an issuer.\n     * @param currencyKey The currency you wish to issue nomins in, for example nUSD or nAUD\n     */\n    function issueMaxNomins(bytes4 currencyKey)\n        external\n        optionalProxy\n    {\n        // Figure out the maximum we can issue in that currency\n        uint maxIssuable = remainingIssuableNomins(messageSender, currencyKey);\n\n        // And issue them\n        issueNomins(currencyKey, maxIssuable);\n    }\n\n    /**\n     * @notice Burn nomins to clear issued nomins/free havvens.\n     * @param currencyKey The currency you're specifying to burn\n     * @param amount The amount (in UNIT base) you wish to burn\n     */\n    function burnNomins(bytes4 currencyKey, uint amount)\n        external\n        optionalProxy\n        // No need to check for stale rates as _removeFromDebtRegister calls effectiveValue\n        // which does this for us\n    {\n        // If they're trying to burn more debt than they actually owe, rather than fail the transaction, let's just\n        // clear their debt and leave them be.\n        // How much debt do they have?\n        uint debt = debtBalanceOf(messageSender, currencyKey);\n\n        require(debt > 0, \"No debt to forgive\");\n\n        // If they're requesting to burn more than their debt, just burn their debt\n        uint amountToBurn = debt < amount ? debt : amount;\n\n        // Remove their debt from the ledger\n        _removeFromDebtRegister(currencyKey, amountToBurn);\n\n        // nomin.burn does a safe subtraction on balance (so it will revert if there are not enough nomins).\n        nomins[currencyKey].burn(messageSender, amountToBurn);\n    }\n\n    /**\n     * @notice Remove a debt position from the register\n     * @param currencyKey The currency the user is presenting to forgive their debt\n     * @param amount The amount (in UNIT base) being presented\n     */\n    function _removeFromDebtRegister(bytes4 currencyKey, uint amount) \n        internal\n    {\n        // How much debt are they trying to remove in HDRs?\n        uint debtToRemove = effectiveValue(currencyKey, amount, \"HDR\");\n\n        // How much debt do they have?\n        uint existingDebt = debtBalanceOf(messageSender, \"HDR\"); \n\n        // What percentage of the total debt are they trying to remove?\n        uint totalDebtIssued = totalIssuedNomins(\"HDR\");\n        uint debtPercentage = debtToRemove.divideDecimalRoundPrecise(totalDebtIssued);\n\n        // And what effect does this percentage have on the global debt holding of other issuers?\n        // The delta specifically needs to not take into account any existing debt as it's already\n        // accounted for in the delta from when they issued previously.\n        uint delta = SafeDecimalMath.preciseUnit().add(debtPercentage);\n\n        // Are they exiting the system, or are they just decreasing their debt position?\n        if (debtToRemove == existingDebt) {\n            havvenState.clearIssuanceData(messageSender);\n            havvenState.decrementTotalIssuerCount();\n        } else {\n            // What percentage of the debt will they be left with?\n            uint newDebt = existingDebt.sub(debtToRemove);\n            uint newTotalDebtIssued = totalDebtIssued.sub(debtToRemove);\n            uint newDebtPercentage = newDebt.divideDecimalRoundPrecise(newTotalDebtIssued);\n\n            // Store the debt percentage and debt ledger as high precision integers\n            havvenState.setCurrentIssuanceData(messageSender, newDebtPercentage);\n        }\n\n        // Update our cumulative ledger. This is also a high precision integer.\n        havvenState.appendDebtLedgerValue(\n            havvenState.lastDebtLedgerEntry().multiplyDecimalRoundPrecise(delta)\n        );\n    }\n\n    // ========== Issuance/Burning ==========\n\n    /**\n     * @notice The maximum nomins an issuer can issue against their total havven quantity, priced in HDRs.\n     * This ignores any already issued nomins, and is purely giving you the maximimum amount the user can issue.\n     */\n    function maxIssuableNomins(address issuer, bytes4 currencyKey)\n        public\n        view\n        // We don't need to check stale rates here as effectiveValue will do it for us.\n        returns (uint)\n    {\n        // What is the value of their HAV balance in the destination currency?\n        uint destinationValue = effectiveValue(\"HAV\", collateral(issuer), currencyKey);\n\n        // They're allowed to issue up to issuanceRatio of that value\n        return destinationValue.multiplyDecimal(havvenState.issuanceRatio());\n    }\n\n    function collateralisationRatio(address issuer)\n        public\n        view\n        returns (uint)\n    {\n        uint debtBalance = debtBalanceOf(issuer, \"HAV\");\n        uint totalOwnedHavvens = collateral(issuer);\n\n        if (totalOwnedHavvens == 0) return 0;\n\n        return debtBalance.divideDecimalRound(totalOwnedHavvens);\n    }\n\n    function debtBalanceOf(address issuer, bytes4 currencyKey)\n        public\n        view\n        // Don't need to check for stale rates here because totalIssuedNomins will do it for us\n        returns (uint)\n    {\n        // What was their initial debt ownership?\n        uint initialDebtOwnership;\n        uint debtEntryIndex;\n        (initialDebtOwnership, debtEntryIndex) = havvenState.issuanceData(issuer);\n\n        // If it's zero, they haven't issued, and they have no debt.\n        if (initialDebtOwnership == 0) return 0;\n\n        // Figure out the global debt percentage delta from when they entered the system.\n        // This is a high precision integer.\n        uint currentDebtOwnership = havvenState.lastDebtLedgerEntry()\n            .divideDecimalRoundPrecise(havvenState.debtLedger(debtEntryIndex))\n            .multiplyDecimalRoundPrecise(initialDebtOwnership);\n\n        // What's the total value of the system in their requested currency?\n        uint totalSystemValue = totalIssuedNomins(currencyKey);\n\n        // Their debt balance is their portion of the total system value.\n        uint highPrecisionBalance = totalSystemValue.decimalToPreciseDecimal()\n            .multiplyDecimalRoundPrecise(currentDebtOwnership);\n\n        return highPrecisionBalance.preciseDecimalToDecimal();\n    }\n\n    /**\n     * @notice The remaining nomins an issuer can issue against their total havven balance.\n     * @param issuer The account that intends to issue\n     * @param currencyKey The currency to price issuable value in\n     */\n    function remainingIssuableNomins(address issuer, bytes4 currencyKey)\n        public\n        view\n        // Don't need to check for nomin existing or stale rates because maxIssuableNomins will do it for us.\n        returns (uint)\n    {\n        uint alreadyIssued = debtBalanceOf(issuer, currencyKey);\n        uint max = maxIssuableNomins(issuer, currencyKey);\n\n        if (alreadyIssued >= max) {\n            return 0;\n        } else {\n            return max.sub(alreadyIssued);\n        }\n    }\n\n    /**\n     * @notice The total havvens owned by this account, both escrowed and unescrowed,\n     * against which nomins can be issued.\n     * This includes those already being used as collateral (locked), and those\n     * available for further issuance (unlocked).\n     */\n    function collateral(address account)\n        public\n        view\n        returns (uint)\n    {\n        uint balance = tokenState.balanceOf(account);\n\n        if (escrow != address(0)) {\n            balance = balance.add(escrow.balanceOf(account));\n        }\n\n        return balance;\n    }\n\n    /**\n     * @notice The number of havvens that are free to be transferred by an account.\n     * @dev When issuing, escrowed havvens are locked first, then non-escrowed\n     * havvens are locked last, but escrowed havvens are not transferable, so they are not included\n     * in this calculation.\n     */\n    function transferableHavvens(address account)\n        public\n        view\n        rateNotStale(\"HAV\")\n        returns (uint)\n    {\n        // How many havvens do they have, excluding escrow?\n        // Note: We're excluding escrow here because we're interested in their transferable amount\n        // and escrowed Havvens are not transferable.\n        uint balance = tokenState.balanceOf(account);\n\n        // How many of those will be locked by the amount they've issued?\n        // Assuming issuance ratio is 20%, then issuing 20 HAV of value would require \n        // 100 HAV to be locked in their wallet to maintain their collateralisation ratio\n        // The locked havven value can exceed their balance.\n        uint lockedHavvenValue = debtBalanceOf(account, \"HAV\").divideDecimalRound(havvenState.issuanceRatio());\n\n        // If we exceed the balance, no Havvens are transferable, otherwise the difference is.\n        if (lockedHavvenValue >= balance) {\n            return 0;\n        } else {\n            return balance.sub(lockedHavvenValue);\n        }\n    }\n\n    // ========== MODIFIERS ==========\n\n    modifier rateNotStale(bytes4 currencyKey) {\n        require(!exchangeRates.rateIsStale(currencyKey), \"Rate stale or nonexistant currency\");\n        _;\n    }\n\n    modifier onlyFeePool() {\n        require(msg.sender == address(feePool), \"Only fee pool allowed\");\n        _;\n    }\n\n    modifier notFeeAddress(address account) {\n        require(account != feePool.FEE_ADDRESS(), \"Fee address not allowed\");\n        _;\n    }\n\n    modifier onlyNomin() {\n        bool isNomin = false;\n\n        // No need to repeatedly call this function either\n        for (uint8 i = 0; i < availableNomins.length; i++) {\n            if (availableNomins[i] == msg.sender) {\n                isNomin = true;\n                break;\n            }\n        }\n\n        require(isNomin, \"Only nomin allowed\");\n        _;\n    }\n\n    // ========== EVENTS ==========\n\n    event PreferredCurrencyChanged(address indexed account, bytes4 newPreferredCurrency);\n    bytes32 constant PREFERREDCURRENCYCHANGED_SIG = keccak256(\"PreferredCurrencyChanged(address,bytes4)\");\n    function emitPreferredCurrencyChanged(address account, bytes4 newPreferredCurrency) internal {\n        proxy._emit(abi.encode(newPreferredCurrency), 2, PREFERREDCURRENCYCHANGED_SIG, bytes32(account), 0, 0);\n    }\n\n    event NominAdded(bytes4 currencyKey, address newNomin);\n    bytes32 constant NOMINADDED_SIG = keccak256(\"NominAdded(bytes4,address)\");\n    function emitNominAdded(bytes4 currencyKey, address newNomin) internal {\n        proxy._emit(abi.encode(currencyKey, newNomin), 1, NOMINADDED_SIG, 0, 0, 0);\n    }\n\n    event NominRemoved(bytes4 currencyKey, address removedNomin);\n    bytes32 constant NOMINREMOVED_SIG = keccak256(\"NominRemoved(bytes4,address)\");\n    function emitNominRemoved(bytes4 currencyKey, address removedNomin) internal {\n        proxy._emit(abi.encode(currencyKey, removedNomin), 1, NOMINREMOVED_SIG, 0, 0, 0);\n    }\n}\n",
  "sourcePath": "/Users/clintonennis/Projects/havven/havven/contracts/Havven.sol",
  "compiler": {
    "name": "solc",
    "version": "0.4.25+commit.59dbf8f1.Emscripten.clang"
  },
  "schemaVersion": "3.0.0-beta.1",
  "updatedAt": "2018-11-21T03:50:47.704Z"
}