{
  "contractName": "HavvenEscrow",
  "abi": [
    {
      "constant": false,
      "inputs": [
        {
          "name": "_owner",
          "type": "address"
        }
      ],
      "name": "nominateNewOwner",
      "outputs": [],
      "payable": false,
      "stateMutability": "nonpayable",
      "type": "function"
    },
    {
      "constant": true,
      "inputs": [
        {
          "name": "",
          "type": "address"
        }
      ],
      "name": "totalVestedAccountBalance",
      "outputs": [
        {
          "name": "",
          "type": "uint256"
        }
      ],
      "payable": false,
      "stateMutability": "view",
      "type": "function"
    },
    {
      "constant": true,
      "inputs": [
        {
          "name": "",
          "type": "address"
        },
        {
          "name": "",
          "type": "uint256"
        },
        {
          "name": "",
          "type": "uint256"
        }
      ],
      "name": "vestingSchedules",
      "outputs": [
        {
          "name": "",
          "type": "uint256"
        }
      ],
      "payable": false,
      "stateMutability": "view",
      "type": "function"
    },
    {
      "constant": true,
      "inputs": [],
      "name": "nominatedOwner",
      "outputs": [
        {
          "name": "",
          "type": "address"
        }
      ],
      "payable": false,
      "stateMutability": "view",
      "type": "function"
    },
    {
      "constant": false,
      "inputs": [],
      "name": "acceptOwnership",
      "outputs": [],
      "payable": false,
      "stateMutability": "nonpayable",
      "type": "function"
    },
    {
      "constant": true,
      "inputs": [],
      "name": "owner",
      "outputs": [
        {
          "name": "",
          "type": "address"
        }
      ],
      "payable": false,
      "stateMutability": "view",
      "type": "function"
    },
    {
      "constant": true,
      "inputs": [],
      "name": "havven",
      "outputs": [
        {
          "name": "",
          "type": "address"
        }
      ],
      "payable": false,
      "stateMutability": "view",
      "type": "function"
    },
    {
      "constant": true,
      "inputs": [],
      "name": "totalVestedBalance",
      "outputs": [
        {
          "name": "",
          "type": "uint256"
        }
      ],
      "payable": false,
      "stateMutability": "view",
      "type": "function"
    },
    {
      "inputs": [
        {
          "name": "_owner",
          "type": "address"
        },
        {
          "name": "_havven",
          "type": "address"
        }
      ],
      "payable": false,
      "stateMutability": "nonpayable",
      "type": "constructor"
    },
    {
      "anonymous": false,
      "inputs": [
        {
          "indexed": false,
          "name": "newHavven",
          "type": "address"
        }
      ],
      "name": "HavvenUpdated",
      "type": "event"
    },
    {
      "anonymous": false,
      "inputs": [
        {
          "indexed": true,
          "name": "beneficiary",
          "type": "address"
        },
        {
          "indexed": false,
          "name": "time",
          "type": "uint256"
        },
        {
          "indexed": false,
          "name": "value",
          "type": "uint256"
        }
      ],
      "name": "Vested",
      "type": "event"
    },
    {
      "anonymous": false,
      "inputs": [
        {
          "indexed": false,
          "name": "newOwner",
          "type": "address"
        }
      ],
      "name": "OwnerNominated",
      "type": "event"
    },
    {
      "anonymous": false,
      "inputs": [
        {
          "indexed": false,
          "name": "oldOwner",
          "type": "address"
        },
        {
          "indexed": false,
          "name": "newOwner",
          "type": "address"
        }
      ],
      "name": "OwnerChanged",
      "type": "event"
    },
    {
      "constant": false,
      "inputs": [
        {
          "name": "_havven",
          "type": "address"
        }
      ],
      "name": "setHavven",
      "outputs": [],
      "payable": false,
      "stateMutability": "nonpayable",
      "type": "function"
    },
    {
      "constant": true,
      "inputs": [
        {
          "name": "account",
          "type": "address"
        }
      ],
      "name": "balanceOf",
      "outputs": [
        {
          "name": "",
          "type": "uint256"
        }
      ],
      "payable": false,
      "stateMutability": "view",
      "type": "function"
    },
    {
      "constant": true,
      "inputs": [
        {
          "name": "account",
          "type": "address"
        }
      ],
      "name": "numVestingEntries",
      "outputs": [
        {
          "name": "",
          "type": "uint256"
        }
      ],
      "payable": false,
      "stateMutability": "view",
      "type": "function"
    },
    {
      "constant": true,
      "inputs": [
        {
          "name": "account",
          "type": "address"
        },
        {
          "name": "index",
          "type": "uint256"
        }
      ],
      "name": "getVestingScheduleEntry",
      "outputs": [
        {
          "name": "",
          "type": "uint256[2]"
        }
      ],
      "payable": false,
      "stateMutability": "view",
      "type": "function"
    },
    {
      "constant": true,
      "inputs": [
        {
          "name": "account",
          "type": "address"
        },
        {
          "name": "index",
          "type": "uint256"
        }
      ],
      "name": "getVestingTime",
      "outputs": [
        {
          "name": "",
          "type": "uint256"
        }
      ],
      "payable": false,
      "stateMutability": "view",
      "type": "function"
    },
    {
      "constant": true,
      "inputs": [
        {
          "name": "account",
          "type": "address"
        },
        {
          "name": "index",
          "type": "uint256"
        }
      ],
      "name": "getVestingQuantity",
      "outputs": [
        {
          "name": "",
          "type": "uint256"
        }
      ],
      "payable": false,
      "stateMutability": "view",
      "type": "function"
    },
    {
      "constant": true,
      "inputs": [
        {
          "name": "account",
          "type": "address"
        }
      ],
      "name": "getNextVestingIndex",
      "outputs": [
        {
          "name": "",
          "type": "uint256"
        }
      ],
      "payable": false,
      "stateMutability": "view",
      "type": "function"
    },
    {
      "constant": true,
      "inputs": [
        {
          "name": "account",
          "type": "address"
        }
      ],
      "name": "getNextVestingEntry",
      "outputs": [
        {
          "name": "",
          "type": "uint256[2]"
        }
      ],
      "payable": false,
      "stateMutability": "view",
      "type": "function"
    },
    {
      "constant": true,
      "inputs": [
        {
          "name": "account",
          "type": "address"
        }
      ],
      "name": "getNextVestingTime",
      "outputs": [
        {
          "name": "",
          "type": "uint256"
        }
      ],
      "payable": false,
      "stateMutability": "view",
      "type": "function"
    },
    {
      "constant": true,
      "inputs": [
        {
          "name": "account",
          "type": "address"
        }
      ],
      "name": "getNextVestingQuantity",
      "outputs": [
        {
          "name": "",
          "type": "uint256"
        }
      ],
      "payable": false,
      "stateMutability": "view",
      "type": "function"
    },
    {
      "constant": false,
      "inputs": [
        {
          "name": "quantity",
          "type": "uint256"
        }
      ],
      "name": "withdrawHavvens",
      "outputs": [],
      "payable": false,
      "stateMutability": "nonpayable",
      "type": "function"
    },
    {
      "constant": false,
      "inputs": [
        {
          "name": "account",
          "type": "address"
        }
      ],
      "name": "purgeAccount",
      "outputs": [],
      "payable": false,
      "stateMutability": "nonpayable",
      "type": "function"
    },
    {
      "constant": false,
      "inputs": [
        {
          "name": "account",
          "type": "address"
        },
        {
          "name": "time",
          "type": "uint256"
        },
        {
          "name": "quantity",
          "type": "uint256"
        }
      ],
      "name": "appendVestingEntry",
      "outputs": [],
      "payable": false,
      "stateMutability": "nonpayable",
      "type": "function"
    },
    {
      "constant": false,
      "inputs": [
        {
          "name": "account",
          "type": "address"
        },
        {
          "name": "times",
          "type": "uint256[]"
        },
        {
          "name": "quantities",
          "type": "uint256[]"
        }
      ],
      "name": "addVestingSchedule",
      "outputs": [],
      "payable": false,
      "stateMutability": "nonpayable",
      "type": "function"
    },
    {
      "constant": false,
      "inputs": [],
      "name": "vest",
      "outputs": [],
      "payable": false,
      "stateMutability": "nonpayable",
      "type": "function"
    }
  ],
  "bytecode": "0x608060405234801561001057600080fd5b5060405160408061161b8339810160405280516020909101516249d40082600160a060020a03811615156100a557604080517f08c379a000000000000000000000000000000000000000000000000000000000815260206004820152601960248201527f4f776e657220616464726573732063616e6e6f74206265203000000000000000604482015290519081900360640190fd5b60008054600160a060020a031916600160a060020a038316908117825560408051928352602083019190915280517fb532073b38c83145e3e5135377a08bf9aab55bc0fd7c1179cd4fb995d2a5159c9281900390910190a150420160025560038054600160a060020a031916600160a060020a0392909216919091179055506114e8806101336000396000f3006080604052600436106101325763ffffffff7c0100000000000000000000000000000000000000000000000000000000600035041663135c070181146101375780631627540c1461015a57806319dc831a1461017b57806319e740c0146101935780631bb47b44146101c6578063204b676a146101ed578063227d517a1461020e5780632f5bb6611461022f578063458efde31461028b57806345e5441f146102a05780634fa2b0a5146102c757806353a47bb7146102e85780636b3905c41461031957806370a082311461033a57806379ba50971461035b5780638da5cb5b1461037057806397f46527146103855780639b217f90146103a65780639c4de81f146103ca578063a15d59ce146103df578063bb2a7d0c146103f4578063da7bd3e91461042d578063ee1d036c14610451575b600080fd5b34801561014357600080fd5b50610158600160a060020a0360043516610475565b005b34801561016657600080fd5b50610158600160a060020a036004351661059d565b34801561018757600080fd5b50610158600435610662565b34801561019f57600080fd5b506101b4600160a060020a03600435166107be565b60408051918252519081900360200190f35b3480156101d257600080fd5b50610158600160a060020a0360043516602435604435610805565b3480156101f957600080fd5b506101b4600160a060020a0360043516610c85565b34801561021a57600080fd5b506101b4600160a060020a0360043516610ca0565b34801561023b57600080fd5b50610250600160a060020a0360043516610cb2565b6040518082600260200280838360005b83811015610278578181015183820152602001610260565b5050505090500191505060405180910390f35b34801561029757600080fd5b50610158610d05565b3480156102ac57600080fd5b506101b4600160a060020a0360043516602435604435610ee6565b3480156102d357600080fd5b50610158600160a060020a0360043516610f26565b3480156102f457600080fd5b506102fd610feb565b60408051600160a060020a039092168252519081900360200190f35b34801561032557600080fd5b506101b4600160a060020a0360043516610ffa565b34801561034657600080fd5b506101b4600160a060020a0360043516611013565b34801561036757600080fd5b5061015861102e565b34801561037c57600080fd5b506102fd611136565b34801561039157600080fd5b506101b4600160a060020a0360043516611145565b3480156103b257600080fd5b506101b4600160a060020a0360043516602435611157565b3480156103d657600080fd5b506102fd611172565b3480156103eb57600080fd5b506101b4611181565b34801561040057600080fd5b5061015860048035600160a060020a03169060248035808201929081013591604435908101910135611187565b34801561043957600080fd5b50610250600160a060020a036004351660243561128c565b34801561045d57600080fd5b506101b4600160a060020a03600435166024356112fb565b600054600160a060020a031633146104d9576040805160e560020a62461bcd02815260206004820152602f602482015260008051602061143d833981519152604482015260008051602061147d833981519152606482015290519081900360840190fd5b6002544210610534576040805160e560020a62461bcd028152602060048201526029602482015260008051602061149d833981519152604482015260008051602061145d833981519152606482015290519081900360840190fd5b600160a060020a03811660009081526004602052604081206105559161133e565b600160a060020a0381166000908152600560205260409020546006546105809163ffffffff61130e16565b600655600160a060020a0316600090815260056020526040812055565b600054600160a060020a03163314610601576040805160e560020a62461bcd02815260206004820152602f602482015260008051602061143d833981519152604482015260008051602061147d833981519152606482015290519081900360840190fd5b60018054600160a060020a03831673ffffffffffffffffffffffffffffffffffffffff19909116811790915560408051918252517f906a1c6bd7e3091ea86693dd029a831c19049ce77f1dce2ce0bab1cacbabce229181900360200190a150565b600054600160a060020a031633146106c6576040805160e560020a62461bcd02815260206004820152602f602482015260008051602061143d833981519152604482015260008051602061147d833981519152606482015290519081900360840190fd5b6002544210610721576040805160e560020a62461bcd028152602060048201526029602482015260008051602061149d833981519152604482015260008051602061145d833981519152606482015290519081900360840190fd5b600354604080517fa9059cbb000000000000000000000000000000000000000000000000000000008152600160a060020a0390921660048301819052602483018490529051909163a9059cbb9160448083019260209291908290030181600087803b15801561078f57600080fd5b505af11580156107a3573d6000803e3d6000fd5b505050506040513d60208110156107b957600080fd5b505050565b60008060006107cc84610c85565b9150600090505b818110156107fa576107e58482611157565b156107f2578092506107fe565b6001016107d3565b8192505b5050919050565b60008054600160a060020a0316331461086a576040805160e560020a62461bcd02815260206004820152602f602482015260008051602061143d833981519152604482015260008051602061147d833981519152606482015290519081900360840190fd5b60025442106108c5576040805160e560020a62461bcd028152602060048201526029602482015260008051602061149d833981519152604482015260008051602061145d833981519152606482015290519081900360840190fd5b42831161091c576040805160e560020a62461bcd02815260206004820152601a60248201527f54696d65206d75737420626520696e2074686520667574757265000000000000604482015290519081900360640190fd5b811515610973576040805160e560020a62461bcd02815260206004820152601760248201527f5175616e746974792063616e6e6f74206265207a65726f000000000000000000604482015290519081900360640190fd5b600654610986908363ffffffff61132516565b600655600354604080517f70a082310000000000000000000000000000000000000000000000000000000081523060048201529051600160a060020a03909216916370a08231916024808201926020929091908290030181600087803b1580156109ef57600080fd5b505af1158015610a03573d6000803e3d6000fd5b505050506040513d6020811015610a1957600080fd5b50516006541115610ac0576040805160e560020a62461bcd02815260206004820152604760248201527f4d75737420626520656e6f7567682062616c616e636520696e2074686520636f60448201527f6e747261637420746f2070726f7669646520666f72207468652076657374696e60648201527f6720656e74727900000000000000000000000000000000000000000000000000608482015290519081900360a40190fd5b50600160a060020a0383166000908152600460205260409020546014811115610b33576040805160e560020a62461bcd02815260206004820152601c60248201527f56657374696e67207363686564756c6520697320746f6f206c6f6e6700000000604482015290519081900360640190fd5b801515610b5a57600160a060020a0384166000908152600560205260409020829055610c2e565b82610b70856001610b6a88610c85565b03611157565b10610beb576040805160e560020a62461bcd02815260206004820152603760248201527f43616e6e6f7420616464206e65772076657374656420656e747269657320656160448201527f726c696572207468616e20746865206c617374206f6e65000000000000000000606482015290519081900360840190fd5b600160a060020a038416600090815260056020526040902054610c14908363ffffffff61132516565b600160a060020a0385166000908152600560205260409020555b600160a060020a0384166000908152600460209081526040808320815180830190925286825281830186905280546001810180835591855292909320610c7d9260029081029091019190611362565b505050505050565b600160a060020a031660009081526004602052604090205490565b60056020526000908152604090205481565b610cba6113a0565b6000610cc5836107be565b9050610cd083610c85565b811415610cf25760408051808201909152600080825260208201529150610cff565b610cfc838261128c565b91505b50919050565b6000806000806000610d1633610c85565b9450600092505b84831015610dbe57610d2f3384611157565b915042821115610d3e57610dbe565b610d4833846112fb565b9050801515610d5657610db3565b604080518082018252600080825260208083018290523382526004905291909120805485908110610d8357fe5b9060005260206000209060020201906002610d9f9291906113bb565b50610db0848263ffffffff61132516565b93505b600190920191610d1d565b8315610edf57600654610dd7908563ffffffff61130e16565b60065533600090815260056020526040902054610dfa908563ffffffff61130e16565b3360008181526005602090815260408083209490945560035484517fa9059cbb0000000000000000000000000000000000000000000000000000000081526004810194909452602484018990529351600160a060020a039094169363a9059cbb93604480820194918390030190829087803b158015610e7857600080fd5b505af1158015610e8c573d6000803e3d6000fd5b505050506040513d6020811015610ea257600080fd5b50506040805142815260208101869052815133927ffbeff59d2bfda0d79ea8a29f8c57c66d48c7a13eabbdb90908d9115ec41c9dc6928290030190a25b5050505050565b600460205282600052604060002082815481101515610f0157fe5b906000526020600020906002020181600281101515610f1c57fe5b0154925083915050565b600054600160a060020a03163314610f8a576040805160e560020a62461bcd02815260206004820152602f602482015260008051602061143d833981519152604482015260008051602061147d833981519152606482015290519081900360840190fd5b60038054600160a060020a03831673ffffffffffffffffffffffffffffffffffffffff19909116811790915560408051918252517f7d83fa33771af200b7fda80813418ffe7eafdbeb2a93f5267ced74abac654a4e9181900360200190a150565b600154600160a060020a031681565b600061100582610cb2565b60005b602002015192915050565b600160a060020a031660009081526005602052604090205490565b600154600160a060020a031633146110b6576040805160e560020a62461bcd02815260206004820152603560248201527f596f75206d757374206265206e6f6d696e61746564206265666f726520796f7560448201527f2063616e20616363657074206f776e6572736869700000000000000000000000606482015290519081900360840190fd5b60005460015460408051600160a060020a03938416815292909116602083015280517fb532073b38c83145e3e5135377a08bf9aab55bc0fd7c1179cd4fb995d2a5159c9281900390910190a1600180546000805473ffffffffffffffffffffffffffffffffffffffff19908116600160a060020a03841617909155169055565b600054600160a060020a031681565b600061115082610cb2565b6001611008565b6000611163838361128c565b60005b60200201519392505050565b600354600160a060020a031681565b60065481565b60008054600160a060020a031633146111ec576040805160e560020a62461bcd02815260206004820152602f602482015260008051602061143d833981519152604482015260008051602061147d833981519152606482015290519081900360840190fd5b6002544210611247576040805160e560020a62461bcd028152602060048201526029602482015260008051602061149d833981519152604482015260008051602061145d833981519152606482015290519081900360840190fd5b5060005b83811015610c7d576112848686868481811061126357fe5b90506020020135858585818110151561127857fe5b90506020020135610805565b60010161124b565b6112946113a0565b600160a060020a03831660009081526004602052604090208054839081106112b857fe5b600091825260209091206040805180820191829052926002908102909201919082845b8154815260200190600101908083116112db575050505050905092915050565b6000611307838361128c565b6001611166565b6000808383111561131e57600080fd5b5050900390565b60008282018381101561133757600080fd5b9392505050565b508054600082556002029060005260206000209081019061135f91906113ee565b50565b8260028101928215611390579160200282015b82811115611390578251825591602001919060010190611375565b5061139c929150611414565b5090565b60408051808201825290600290829080388339509192915050565b8260028101928215611390579160200282015b82811115611390578251829060ff169055916020019190600101906113ce565b61141191905b8082111561139c576000611408828261142e565b506002016113f4565b90565b61141191905b8082111561139c576000815560010161141a565b50600081556001016000905556004f6e6c792074686520636f6e7472616374206f776e6572206d61792070657266696e6720736574757000000000000000000000000000000000000000000000006f726d207468697320616374696f6e000000000000000000000000000000000043616e206f6e6c7920706572666f726d207468697320616374696f6e20647572a165627a7a7230582095510a61700e2ec241c1465a3206c760e2c73ac5c36d9e2e34bcc513329a2c580029",
  "source": "/*\n-----------------------------------------------------------------\nFILE INFORMATION\n-----------------------------------------------------------------\n\nfile:       HavvenEscrow.sol\nversion:    1.1\nauthor:     Anton Jurisevic\n            Dominic Romanowski\n            Mike Spain\n\ndate:       2018-05-29\n\n-----------------------------------------------------------------\nMODULE DESCRIPTION\n-----------------------------------------------------------------\n\nThis contract allows the foundation to apply unique vesting\nschedules to havven funds sold at various discounts in the token\nsale. HavvenEscrow gives users the ability to inspect their\nvested funds, their quantities and vesting dates, and to withdraw\nthe fees that accrue on those funds.\n\nThe fees are handled by withdrawing the entire fee allocation\nfor all havvens inside the escrow contract, and then allowing\nthe contract itself to subdivide that pool up proportionally within\nitself. Every time the fee period rolls over in the main Havven\ncontract, the HavvenEscrow fee pool is remitted back into the\nmain fee pool to be redistributed in the next fee period.\n\n-----------------------------------------------------------------\n*/\n\npragma solidity 0.4.25;\n\n\nimport \"./SafeDecimalMath.sol\";\nimport \"./Owned.sol\";\nimport \"./Havven.sol\";\nimport \"./Nomin.sol\";\nimport \"./LimitedSetup.sol\";\n\n/**\n * @title A contract to hold escrowed havvens and free them at given schedules.\n */\ncontract HavvenEscrow is Owned, LimitedSetup(8 weeks) {\n\n    using SafeMath for uint;\n\n    /* The corresponding Havven contract. */\n    Havven public havven;\n\n    /* Lists of (timestamp, quantity) pairs per account, sorted in ascending time order.\n     * These are the times at which each given quantity of havvens vests. */\n    mapping(address => uint[2][]) public vestingSchedules;\n\n    /* An account's total vested havven balance to save recomputing this for fee extraction purposes. */\n    mapping(address => uint) public totalVestedAccountBalance;\n\n    /* The total remaining vested balance, for verifying the actual havven balance of this contract against. */\n    uint public totalVestedBalance;\n\n    uint constant TIME_INDEX = 0;\n    uint constant QUANTITY_INDEX = 1;\n\n    /* Limit vesting entries to disallow unbounded iteration over vesting schedules. */\n    uint constant MAX_VESTING_ENTRIES = 20;\n\n\n    /* ========== CONSTRUCTOR ========== */\n\n    constructor(address _owner, Havven _havven)\n        Owned(_owner)\n        public\n    {\n        havven = _havven;\n    }\n\n\n    /* ========== SETTERS ========== */\n\n    function setHavven(Havven _havven)\n        external\n        onlyOwner\n    {\n        havven = _havven;\n        emit HavvenUpdated(_havven);\n    }\n\n\n    /* ========== VIEW FUNCTIONS ========== */\n\n    /**\n     * @notice A simple alias to totalVestedAccountBalance: provides ERC20 balance integration.\n     */\n    function balanceOf(address account)\n        public\n        view\n        returns (uint)\n    {\n        return totalVestedAccountBalance[account];\n    }\n\n    /**\n     * @notice The number of vesting dates in an account's schedule.\n     */\n    function numVestingEntries(address account)\n        public\n        view\n        returns (uint)\n    {\n        return vestingSchedules[account].length;\n    }\n\n    /**\n     * @notice Get a particular schedule entry for an account.\n     * @return A pair of uints: (timestamp, havven quantity).\n     */\n    function getVestingScheduleEntry(address account, uint index)\n        public\n        view\n        returns (uint[2])\n    {\n        return vestingSchedules[account][index];\n    }\n\n    /**\n     * @notice Get the time at which a given schedule entry will vest.\n     */\n    function getVestingTime(address account, uint index)\n        public\n        view\n        returns (uint)\n    {\n        return getVestingScheduleEntry(account,index)[TIME_INDEX];\n    }\n\n    /**\n     * @notice Get the quantity of havvens associated with a given schedule entry.\n     */\n    function getVestingQuantity(address account, uint index)\n        public\n        view\n        returns (uint)\n    {\n        return getVestingScheduleEntry(account,index)[QUANTITY_INDEX];\n    }\n\n    /**\n     * @notice Obtain the index of the next schedule entry that will vest for a given user.\n     */\n    function getNextVestingIndex(address account)\n        public\n        view\n        returns (uint)\n    {\n        uint len = numVestingEntries(account);\n        for (uint i = 0; i < len; i++) {\n            if (getVestingTime(account, i) != 0) {\n                return i;\n            }\n        }\n        return len;\n    }\n\n    /**\n     * @notice Obtain the next schedule entry that will vest for a given user.\n     * @return A pair of uints: (timestamp, havven quantity). */\n    function getNextVestingEntry(address account)\n        public\n        view\n        returns (uint[2])\n    {\n        uint index = getNextVestingIndex(account);\n        if (index == numVestingEntries(account)) {\n            return [uint(0), 0];\n        }\n        return getVestingScheduleEntry(account, index);\n    }\n\n    /**\n     * @notice Obtain the time at which the next schedule entry will vest for a given user.\n     */\n    function getNextVestingTime(address account)\n        external\n        view\n        returns (uint)\n    {\n        return getNextVestingEntry(account)[TIME_INDEX];\n    }\n\n    /**\n     * @notice Obtain the quantity which the next schedule entry will vest for a given user.\n     */\n    function getNextVestingQuantity(address account)\n        external\n        view\n        returns (uint)\n    {\n        return getNextVestingEntry(account)[QUANTITY_INDEX];\n    }\n\n\n    /* ========== MUTATIVE FUNCTIONS ========== */\n\n    /**\n     * @notice Withdraws a quantity of havvens back to the havven contract.\n     * @dev This may only be called by the owner during the contract's setup period.\n     */\n    function withdrawHavvens(uint quantity)\n        external\n        onlyOwner\n        onlyDuringSetup\n    {\n        havven.transfer(havven, quantity);\n    }\n\n    /**\n     * @notice Destroy the vesting information associated with an account.\n     */\n    function purgeAccount(address account)\n        external\n        onlyOwner\n        onlyDuringSetup\n    {\n        delete vestingSchedules[account];\n        totalVestedBalance = totalVestedBalance.sub(totalVestedAccountBalance[account]);\n        delete totalVestedAccountBalance[account];\n    }\n\n    /**\n     * @notice Add a new vesting entry at a given time and quantity to an account's schedule.\n     * @dev A call to this should be accompanied by either enough balance already available\n     * in this contract, or a corresponding call to havven.endow(), to ensure that when\n     * the funds are withdrawn, there is enough balance, as well as correctly calculating\n     * the fees.\n     * This may only be called by the owner during the contract's setup period.\n     * Note; although this function could technically be used to produce unbounded\n     * arrays, it's only in the foundation's command to add to these lists.\n     * @param account The account to append a new vesting entry to.\n     * @param time The absolute unix timestamp after which the vested quantity may be withdrawn.\n     * @param quantity The quantity of havvens that will vest.\n     */\n    function appendVestingEntry(address account, uint time, uint quantity)\n        public\n        onlyOwner\n        onlyDuringSetup\n    {\n        /* No empty or already-passed vesting entries allowed. */\n        require(now < time, \"Time must be in the future\");\n        require(quantity != 0, \"Quantity cannot be zero\");\n\n        /* There must be enough balance in the contract to provide for the vesting entry. */\n        totalVestedBalance = totalVestedBalance.add(quantity);\n        require(totalVestedBalance <= havven.balanceOf(this), \"Must be enough balance in the contract to provide for the vesting entry\");\n\n        /* Disallow arbitrarily long vesting schedules in light of the gas limit. */\n        uint scheduleLength = vestingSchedules[account].length;\n        require(scheduleLength <= MAX_VESTING_ENTRIES, \"Vesting schedule is too long\");\n\n        if (scheduleLength == 0) {\n            totalVestedAccountBalance[account] = quantity;\n        } else {\n            /* Disallow adding new vested havvens earlier than the last one.\n             * Since entries are only appended, this means that no vesting date can be repeated. */\n            require(getVestingTime(account, numVestingEntries(account) - 1) < time, \"Cannot add new vested entries earlier than the last one\");\n            totalVestedAccountBalance[account] = totalVestedAccountBalance[account].add(quantity);\n        }\n\n        vestingSchedules[account].push([time, quantity]);\n    }\n\n    /**\n     * @notice Construct a vesting schedule to release a quantities of havvens\n     * over a series of intervals.\n     * @dev Assumes that the quantities are nonzero\n     * and that the sequence of timestamps is strictly increasing.\n     * This may only be called by the owner during the contract's setup period.\n     */\n    function addVestingSchedule(address account, uint[] times, uint[] quantities)\n        external\n        onlyOwner\n        onlyDuringSetup\n    {\n        for (uint i = 0; i < times.length; i++) {\n            appendVestingEntry(account, times[i], quantities[i]);\n        }\n\n    }\n\n    /**\n     * @notice Allow a user to withdraw any havvens in their schedule that have vested.\n     */\n    function vest()\n        external\n    {\n        uint numEntries = numVestingEntries(msg.sender);\n        uint total;\n        for (uint i = 0; i < numEntries; i++) {\n            uint time = getVestingTime(msg.sender, i);\n            /* The list is sorted; when we reach the first future time, bail out. */\n            if (time > now) {\n                break;\n            }\n            uint qty = getVestingQuantity(msg.sender, i);\n            if (qty == 0) {\n                continue;\n            }\n\n            vestingSchedules[msg.sender][i] = [0, 0];\n            total = total.add(qty);\n        }\n\n        if (total != 0) {\n            totalVestedBalance = totalVestedBalance.sub(total);\n            totalVestedAccountBalance[msg.sender] = totalVestedAccountBalance[msg.sender].sub(total);\n            havven.transfer(msg.sender, total);\n            emit Vested(msg.sender, now, total);\n        }\n    }\n\n\n    /* ========== EVENTS ========== */\n\n    event HavvenUpdated(address newHavven);\n\n    event Vested(address indexed beneficiary, uint time, uint value);\n}\n",
  "sourcePath": "/Users/clintonennis/Projects/havven/havven/contracts/HavvenEscrow.sol",
  "compiler": {
    "name": "solc",
    "version": "0.4.25+commit.59dbf8f1.Emscripten.clang"
  },
  "schemaVersion": "3.0.0-beta.1",
  "updatedAt": "2018-11-21T03:50:47.653Z"
}