{
  "contractName": "NominAirdropper",
  "abi": [
    {
      "constant": false,
      "inputs": [
        {
          "name": "_owner",
          "type": "address"
        }
      ],
      "name": "nominateNewOwner",
      "outputs": [],
      "payable": false,
      "stateMutability": "nonpayable",
      "type": "function"
    },
    {
      "constant": true,
      "inputs": [],
      "name": "nominatedOwner",
      "outputs": [
        {
          "name": "",
          "type": "address"
        }
      ],
      "payable": false,
      "stateMutability": "view",
      "type": "function"
    },
    {
      "constant": false,
      "inputs": [],
      "name": "acceptOwnership",
      "outputs": [],
      "payable": false,
      "stateMutability": "nonpayable",
      "type": "function"
    },
    {
      "constant": true,
      "inputs": [],
      "name": "owner",
      "outputs": [
        {
          "name": "",
          "type": "address"
        }
      ],
      "payable": false,
      "stateMutability": "view",
      "type": "function"
    },
    {
      "inputs": [
        {
          "name": "_owner",
          "type": "address"
        }
      ],
      "payable": false,
      "stateMutability": "nonpayable",
      "type": "constructor"
    },
    {
      "anonymous": false,
      "inputs": [
        {
          "indexed": false,
          "name": "newOwner",
          "type": "address"
        }
      ],
      "name": "OwnerNominated",
      "type": "event"
    },
    {
      "anonymous": false,
      "inputs": [
        {
          "indexed": false,
          "name": "oldOwner",
          "type": "address"
        },
        {
          "indexed": false,
          "name": "newOwner",
          "type": "address"
        }
      ],
      "name": "OwnerChanged",
      "type": "event"
    },
    {
      "constant": false,
      "inputs": [
        {
          "name": "tokenAddress",
          "type": "address"
        },
        {
          "name": "destinations",
          "type": "address[]"
        },
        {
          "name": "values",
          "type": "uint256[]"
        }
      ],
      "name": "multisend",
      "outputs": [],
      "payable": false,
      "stateMutability": "nonpayable",
      "type": "function"
    }
  ],
  "bytecode": "0x608060405234801561001057600080fd5b5060405160208061065f833981016040525180600160a060020a038116151561009a57604080517f08c379a000000000000000000000000000000000000000000000000000000000815260206004820152601960248201527f4f776e657220616464726573732063616e6e6f74206265203000000000000000604482015290519081900360640190fd5b60008054600160a060020a031916600160a060020a038316908117825560408051928352602083019190915280517fb532073b38c83145e3e5135377a08bf9aab55bc0fd7c1179cd4fb995d2a5159c9281900390910190a1505061055c806101036000396000f30060806040526004361061006c5763ffffffff7c01000000000000000000000000000000000000000000000000000000006000350416631627540c811461007157806353a47bb71461009457806379ba5097146100c55780638da5cb5b146100da578063ad8733ca146100ef575b600080fd5b34801561007d57600080fd5b50610092600160a060020a0360043516610128565b005b3480156100a057600080fd5b506100a9610211565b60408051600160a060020a039092168252519081900360200190f35b3480156100d157600080fd5b50610092610220565b3480156100e657600080fd5b506100a9610328565b3480156100fb57600080fd5b5061009260048035600160a060020a03169060248035808201929081013591604435908101910135610337565b600054600160a060020a031633146101b0576040805160e560020a62461bcd02815260206004820152602f60248201527f4f6e6c792074686520636f6e7472616374206f776e6572206d6179207065726660448201527f6f726d207468697320616374696f6e0000000000000000000000000000000000606482015290519081900360840190fd5b60018054600160a060020a03831673ffffffffffffffffffffffffffffffffffffffff19909116811790915560408051918252517f906a1c6bd7e3091ea86693dd029a831c19049ce77f1dce2ce0bab1cacbabce229181900360200190a150565b600154600160a060020a031681565b600154600160a060020a031633146102a8576040805160e560020a62461bcd02815260206004820152603560248201527f596f75206d757374206265206e6f6d696e61746564206265666f726520796f7560448201527f2063616e20616363657074206f776e6572736869700000000000000000000000606482015290519081900360840190fd5b60005460015460408051600160a060020a03938416815292909116602083015280517fb532073b38c83145e3e5135377a08bf9aab55bc0fd7c1179cd4fb995d2a5159c9281900390910190a1600180546000805473ffffffffffffffffffffffffffffffffffffffff19908116600160a060020a03841617909155169055565b600054600160a060020a031681565b60008054600160a060020a031633146103c0576040805160e560020a62461bcd02815260206004820152602f60248201527f4f6e6c792074686520636f6e7472616374206f776e6572206d6179207065726660448201527f6f726d207468697320616374696f6e0000000000000000000000000000000000606482015290519081900360840190fd5b83821461043d576040805160e560020a62461bcd02815260206004820152603160248201527f44657374696e6174696f6e7320616e642076616c756573206d7573742068617660448201527f65207468652073616d65206c656e677468000000000000000000000000000000606482015290519081900360840190fd5b5060005b8381101561052857600160a060020a03861663d66c9cc286868481811061046457fe5b90506020020135600160a060020a0316858585818110151561048257fe5b905060200201356040518363ffffffff167c01000000000000000000000000000000000000000000000000000000000281526004018083600160a060020a0316600160a060020a0316815260200182815260200192505050602060405180830381600087803b1580156104f457600080fd5b505af1158015610508573d6000803e3d6000fd5b505050506040513d602081101561051e57600080fd5b5050600101610441565b5050505050505600a165627a7a72305820e5d21c254184f820c0d78f441324b8f94b89fc6ad2ec47a3a4835c7db5f2ee6c0029",
  "source": "/*\n-----------------------------------------------------------------\nFILE INFORMATION\n-----------------------------------------------------------------\n\nfile:       NominAirdropper.sol\nversion:    1.0\nauthor:     Kevin Brown\n\ndate:       2018-07-09\n\n-----------------------------------------------------------------\nMODULE DESCRIPTION\n-----------------------------------------------------------------\n\nThis contract was adapted for use by the Havven project from the\nairdropper contract that OmiseGO created here:\nhttps://github.com/omisego/airdrop/blob/master/contracts/Airdropper.sol\n\nIt exists to save gas costs per transaction that'd otherwise be\nincurred running airdrops individually.\n\nOriginal license below.\n\n-----------------------------------------------------------------\n\nCopyright 2017 OmiseGO Pte Ltd\n\nLicensed under the Apache License, Version 2.0 (the \"License\");\nyou may not use this file except in compliance with the License.\nYou may obtain a copy of the License at\n\n    http://www.apache.org/licenses/LICENSE-2.0\n\nUnless required by applicable law or agreed to in writing, software\ndistributed under the License is distributed on an \"AS IS\" BASIS,\nWITHOUT WARRANTIES OR CONDITIONS OF ANY KIND, either express or implied.\nSee the License for the specific language governing permissions and\nlimitations under the License.\n*/\n\npragma solidity 0.4.24;\n\nimport \"./Owned.sol\";\nimport \"./Nomin.sol\";\n\ncontract NominAirdropper is Owned {\n    /* ========== CONSTRUCTOR ========== */\n\n    /**\n     * @dev Constructor\n     * @param _owner The owner of this contract.\n     */\n    constructor (address _owner) \n        Owned(_owner)\n    {}\n\n    /**\n     * @notice Multisend airdrops tokens to an array of destinations.\n     * @dev The fee rate is in decimal format, with UNIT being the value of 100%.\n     */\n    function multisend(address tokenAddress, address[] destinations, uint256[] values)\n        external\n        onlyOwner\n    {\n        // Protect against obviously incorrect calls.\n        require(destinations.length == values.length, \"Destinations and values must have the same length\");\n\n        // Loop through each destination and perform the transfer.\n        uint256 i = 0;\n        \n        while (i < destinations.length) {\n            Nomin(tokenAddress).transferSenderPaysFee(destinations[i], values[i]);\n            i += 1;\n        }\n    }\n}\n",
  "sourcePath": "/Users/clintonennis/Projects/havven/havven/contracts/NominAirdropper.sol",
  "compiler": {
    "name": "solc",
    "version": "0.4.24+commit.e67f0147.Emscripten.clang"
  },
  "schemaVersion": "3.0.0-beta.0",
  "updatedAt": "2018-11-13T02:08:18.209Z"
}