{
  "contractName": "Nomin",
  "abi": [
    {
      "constant": true,
      "inputs": [],
      "name": "name",
      "outputs": [
        {
          "name": "",
          "type": "string"
        }
      ],
      "payable": false,
      "stateMutability": "view",
      "type": "function"
    },
    {
      "constant": false,
      "inputs": [
        {
          "name": "spender",
          "type": "address"
        },
        {
          "name": "value",
          "type": "uint256"
        }
      ],
      "name": "approve",
      "outputs": [
        {
          "name": "",
          "type": "bool"
        }
      ],
      "payable": false,
      "stateMutability": "nonpayable",
      "type": "function"
    },
    {
      "constant": false,
      "inputs": [
        {
          "name": "_owner",
          "type": "address"
        }
      ],
      "name": "nominateNewOwner",
      "outputs": [],
      "payable": false,
      "stateMutability": "nonpayable",
      "type": "function"
    },
    {
      "constant": true,
      "inputs": [],
      "name": "initiationTime",
      "outputs": [
        {
          "name": "",
          "type": "uint256"
        }
      ],
      "payable": false,
      "stateMutability": "view",
      "type": "function"
    },
    {
      "constant": true,
      "inputs": [],
      "name": "totalSupply",
      "outputs": [
        {
          "name": "",
          "type": "uint256"
        }
      ],
      "payable": false,
      "stateMutability": "view",
      "type": "function"
    },
    {
      "constant": false,
      "inputs": [
        {
          "name": "_beneficiary",
          "type": "address"
        }
      ],
      "name": "setSelfDestructBeneficiary",
      "outputs": [],
      "payable": false,
      "stateMutability": "nonpayable",
      "type": "function"
    },
    {
      "constant": true,
      "inputs": [],
      "name": "decimals",
      "outputs": [
        {
          "name": "",
          "type": "uint256"
        }
      ],
      "payable": false,
      "stateMutability": "view",
      "type": "function"
    },
    {
      "constant": false,
      "inputs": [],
      "name": "terminateSelfDestruct",
      "outputs": [],
      "payable": false,
      "stateMutability": "nonpayable",
      "type": "function"
    },
    {
      "constant": true,
      "inputs": [],
      "name": "nominatedOwner",
      "outputs": [
        {
          "name": "",
          "type": "address"
        }
      ],
      "payable": false,
      "stateMutability": "view",
      "type": "function"
    },
    {
      "constant": true,
      "inputs": [
        {
          "name": "account",
          "type": "address"
        }
      ],
      "name": "balanceOf",
      "outputs": [
        {
          "name": "",
          "type": "uint256"
        }
      ],
      "payable": false,
      "stateMutability": "view",
      "type": "function"
    },
    {
      "constant": false,
      "inputs": [],
      "name": "acceptOwnership",
      "outputs": [],
      "payable": false,
      "stateMutability": "nonpayable",
      "type": "function"
    },
    {
      "constant": true,
      "inputs": [],
      "name": "owner",
      "outputs": [
        {
          "name": "",
          "type": "address"
        }
      ],
      "payable": false,
      "stateMutability": "view",
      "type": "function"
    },
    {
      "constant": true,
      "inputs": [],
      "name": "symbol",
      "outputs": [
        {
          "name": "",
          "type": "string"
        }
      ],
      "payable": false,
      "stateMutability": "view",
      "type": "function"
    },
    {
      "constant": false,
      "inputs": [
        {
          "name": "_proxy",
          "type": "address"
        }
      ],
      "name": "setProxy",
      "outputs": [],
      "payable": false,
      "stateMutability": "nonpayable",
      "type": "function"
    },
    {
      "constant": true,
      "inputs": [],
      "name": "havven",
      "outputs": [
        {
          "name": "",
          "type": "address"
        }
      ],
      "payable": false,
      "stateMutability": "view",
      "type": "function"
    },
    {
      "constant": false,
      "inputs": [],
      "name": "selfDestruct",
      "outputs": [],
      "payable": false,
      "stateMutability": "nonpayable",
      "type": "function"
    },
    {
      "constant": false,
      "inputs": [
        {
          "name": "_tokenState",
          "type": "address"
        }
      ],
      "name": "setTokenState",
      "outputs": [],
      "payable": false,
      "stateMutability": "nonpayable",
      "type": "function"
    },
    {
      "constant": true,
      "inputs": [],
      "name": "SELFDESTRUCT_DELAY",
      "outputs": [
        {
          "name": "",
          "type": "uint256"
        }
      ],
      "payable": false,
      "stateMutability": "view",
      "type": "function"
    },
    {
      "constant": true,
      "inputs": [],
      "name": "feePool",
      "outputs": [
        {
          "name": "",
          "type": "address"
        }
      ],
      "payable": false,
      "stateMutability": "view",
      "type": "function"
    },
    {
      "constant": true,
      "inputs": [],
      "name": "selfDestructInitiated",
      "outputs": [
        {
          "name": "",
          "type": "bool"
        }
      ],
      "payable": false,
      "stateMutability": "view",
      "type": "function"
    },
    {
      "constant": false,
      "inputs": [
        {
          "name": "sender",
          "type": "address"
        }
      ],
      "name": "setMessageSender",
      "outputs": [],
      "payable": false,
      "stateMutability": "nonpayable",
      "type": "function"
    },
    {
      "constant": false,
      "inputs": [],
      "name": "initiateSelfDestruct",
      "outputs": [],
      "payable": false,
      "stateMutability": "nonpayable",
      "type": "function"
    },
    {
      "constant": true,
      "inputs": [],
      "name": "selfDestructBeneficiary",
      "outputs": [
        {
          "name": "",
          "type": "address"
        }
      ],
      "payable": false,
      "stateMutability": "view",
      "type": "function"
    },
    {
      "constant": true,
      "inputs": [],
      "name": "currencyKey",
      "outputs": [
        {
          "name": "",
          "type": "bytes4"
        }
      ],
      "payable": false,
      "stateMutability": "view",
      "type": "function"
    },
    {
      "constant": true,
      "inputs": [
        {
          "name": "owner",
          "type": "address"
        },
        {
          "name": "spender",
          "type": "address"
        }
      ],
      "name": "allowance",
      "outputs": [
        {
          "name": "",
          "type": "uint256"
        }
      ],
      "payable": false,
      "stateMutability": "view",
      "type": "function"
    },
    {
      "constant": true,
      "inputs": [],
      "name": "tokenState",
      "outputs": [
        {
          "name": "",
          "type": "address"
        }
      ],
      "payable": false,
      "stateMutability": "view",
      "type": "function"
    },
    {
      "constant": true,
      "inputs": [],
      "name": "proxy",
      "outputs": [
        {
          "name": "",
          "type": "address"
        }
      ],
      "payable": false,
      "stateMutability": "view",
      "type": "function"
    },
    {
      "inputs": [
        {
          "name": "_proxy",
          "type": "address"
        },
        {
          "name": "_tokenState",
          "type": "address"
        },
        {
          "name": "_havven",
          "type": "address"
        },
        {
          "name": "_feePool",
          "type": "address"
        },
        {
          "name": "_tokenName",
          "type": "string"
        },
        {
          "name": "_tokenSymbol",
          "type": "string"
        },
        {
          "name": "_owner",
          "type": "address"
        },
        {
          "name": "_currencyKey",
          "type": "bytes4"
        }
      ],
      "payable": false,
      "stateMutability": "nonpayable",
      "type": "constructor"
    },
    {
      "anonymous": false,
      "inputs": [
        {
          "indexed": false,
          "name": "newHavven",
          "type": "address"
        }
      ],
      "name": "HavvenUpdated",
      "type": "event"
    },
    {
      "anonymous": false,
      "inputs": [
        {
          "indexed": false,
          "name": "newFeePool",
          "type": "address"
        }
      ],
      "name": "FeePoolUpdated",
      "type": "event"
    },
    {
      "anonymous": false,
      "inputs": [
        {
          "indexed": true,
          "name": "account",
          "type": "address"
        },
        {
          "indexed": false,
          "name": "value",
          "type": "uint256"
        }
      ],
      "name": "Issued",
      "type": "event"
    },
    {
      "anonymous": false,
      "inputs": [
        {
          "indexed": true,
          "name": "account",
          "type": "address"
        },
        {
          "indexed": false,
          "name": "value",
          "type": "uint256"
        }
      ],
      "name": "Burned",
      "type": "event"
    },
    {
      "anonymous": false,
      "inputs": [
        {
          "indexed": true,
          "name": "from",
          "type": "address"
        },
        {
          "indexed": true,
          "name": "to",
          "type": "address"
        },
        {
          "indexed": false,
          "name": "value",
          "type": "uint256"
        }
      ],
      "name": "Transfer",
      "type": "event"
    },
    {
      "anonymous": false,
      "inputs": [
        {
          "indexed": true,
          "name": "owner",
          "type": "address"
        },
        {
          "indexed": true,
          "name": "spender",
          "type": "address"
        },
        {
          "indexed": false,
          "name": "value",
          "type": "uint256"
        }
      ],
      "name": "Approval",
      "type": "event"
    },
    {
      "anonymous": false,
      "inputs": [
        {
          "indexed": false,
          "name": "newTokenState",
          "type": "address"
        }
      ],
      "name": "TokenStateUpdated",
      "type": "event"
    },
    {
      "anonymous": false,
      "inputs": [
        {
          "indexed": false,
          "name": "proxyAddress",
          "type": "address"
        }
      ],
      "name": "ProxyUpdated",
      "type": "event"
    },
    {
      "anonymous": false,
      "inputs": [],
      "name": "SelfDestructTerminated",
      "type": "event"
    },
    {
      "anonymous": false,
      "inputs": [
        {
          "indexed": false,
          "name": "beneficiary",
          "type": "address"
        }
      ],
      "name": "SelfDestructed",
      "type": "event"
    },
    {
      "anonymous": false,
      "inputs": [
        {
          "indexed": false,
          "name": "selfDestructDelay",
          "type": "uint256"
        }
      ],
      "name": "SelfDestructInitiated",
      "type": "event"
    },
    {
      "anonymous": false,
      "inputs": [
        {
          "indexed": false,
          "name": "newBeneficiary",
          "type": "address"
        }
      ],
      "name": "SelfDestructBeneficiaryUpdated",
      "type": "event"
    },
    {
      "anonymous": false,
      "inputs": [
        {
          "indexed": false,
          "name": "newOwner",
          "type": "address"
        }
      ],
      "name": "OwnerNominated",
      "type": "event"
    },
    {
      "anonymous": false,
      "inputs": [
        {
          "indexed": false,
          "name": "oldOwner",
          "type": "address"
        },
        {
          "indexed": false,
          "name": "newOwner",
          "type": "address"
        }
      ],
      "name": "OwnerChanged",
      "type": "event"
    },
    {
      "constant": false,
      "inputs": [
        {
          "name": "_havven",
          "type": "address"
        }
      ],
      "name": "setHavven",
      "outputs": [],
      "payable": false,
      "stateMutability": "nonpayable",
      "type": "function"
    },
    {
      "constant": false,
      "inputs": [
        {
          "name": "_feePool",
          "type": "address"
        }
      ],
      "name": "setFeePool",
      "outputs": [],
      "payable": false,
      "stateMutability": "nonpayable",
      "type": "function"
    },
    {
      "constant": false,
      "inputs": [
        {
          "name": "to",
          "type": "address"
        },
        {
          "name": "value",
          "type": "uint256"
        },
        {
          "name": "data",
          "type": "bytes"
        }
      ],
      "name": "transfer",
      "outputs": [
        {
          "name": "",
          "type": "bool"
        }
      ],
      "payable": false,
      "stateMutability": "nonpayable",
      "type": "function"
    },
    {
      "constant": false,
      "inputs": [
        {
          "name": "to",
          "type": "address"
        },
        {
          "name": "value",
          "type": "uint256"
        }
      ],
      "name": "transfer",
      "outputs": [
        {
          "name": "",
          "type": "bool"
        }
      ],
      "payable": false,
      "stateMutability": "nonpayable",
      "type": "function"
    },
    {
      "constant": false,
      "inputs": [
        {
          "name": "from",
          "type": "address"
        },
        {
          "name": "to",
          "type": "address"
        },
        {
          "name": "value",
          "type": "uint256"
        }
      ],
      "name": "transferFrom",
      "outputs": [
        {
          "name": "",
          "type": "bool"
        }
      ],
      "payable": false,
      "stateMutability": "nonpayable",
      "type": "function"
    },
    {
      "constant": false,
      "inputs": [
        {
          "name": "from",
          "type": "address"
        },
        {
          "name": "to",
          "type": "address"
        },
        {
          "name": "value",
          "type": "uint256"
        },
        {
          "name": "data",
          "type": "bytes"
        }
      ],
      "name": "transferFrom",
      "outputs": [
        {
          "name": "",
          "type": "bool"
        }
      ],
      "payable": false,
      "stateMutability": "nonpayable",
      "type": "function"
    },
    {
      "constant": false,
      "inputs": [
        {
          "name": "to",
          "type": "address"
        },
        {
          "name": "value",
          "type": "uint256"
        },
        {
          "name": "data",
          "type": "bytes"
        }
      ],
      "name": "transferSenderPaysFee",
      "outputs": [
        {
          "name": "",
          "type": "bool"
        }
      ],
      "payable": false,
      "stateMutability": "nonpayable",
      "type": "function"
    },
    {
      "constant": false,
      "inputs": [
        {
          "name": "to",
          "type": "address"
        },
        {
          "name": "value",
          "type": "uint256"
        }
      ],
      "name": "transferSenderPaysFee",
      "outputs": [
        {
          "name": "",
          "type": "bool"
        }
      ],
      "payable": false,
      "stateMutability": "nonpayable",
      "type": "function"
    },
    {
      "constant": false,
      "inputs": [
        {
          "name": "from",
          "type": "address"
        },
        {
          "name": "to",
          "type": "address"
        },
        {
          "name": "value",
          "type": "uint256"
        },
        {
          "name": "data",
          "type": "bytes"
        }
      ],
      "name": "transferFromSenderPaysFee",
      "outputs": [
        {
          "name": "",
          "type": "bool"
        }
      ],
      "payable": false,
      "stateMutability": "nonpayable",
      "type": "function"
    },
    {
      "constant": false,
      "inputs": [
        {
          "name": "from",
          "type": "address"
        },
        {
          "name": "to",
          "type": "address"
        },
        {
          "name": "value",
          "type": "uint256"
        }
      ],
      "name": "transferFromSenderPaysFee",
      "outputs": [
        {
          "name": "",
          "type": "bool"
        }
      ],
      "payable": false,
      "stateMutability": "nonpayable",
      "type": "function"
    },
    {
      "constant": false,
      "inputs": [
        {
          "name": "account",
          "type": "address"
        },
        {
          "name": "amount",
          "type": "uint256"
        }
      ],
      "name": "issue",
      "outputs": [],
      "payable": false,
      "stateMutability": "nonpayable",
      "type": "function"
    },
    {
      "constant": false,
      "inputs": [
        {
          "name": "account",
          "type": "address"
        },
        {
          "name": "amount",
          "type": "uint256"
        }
      ],
      "name": "burn",
      "outputs": [],
      "payable": false,
      "stateMutability": "nonpayable",
      "type": "function"
    },
    {
      "constant": false,
      "inputs": [
        {
          "name": "sender",
          "type": "address"
        },
        {
          "name": "recipient",
          "type": "address"
        },
        {
          "name": "amount",
          "type": "uint256"
        }
      ],
      "name": "triggerTokenFallbackIfNeeded",
      "outputs": [],
      "payable": false,
      "stateMutability": "nonpayable",
      "type": "function"
    }
  ],
  "bytecode": "0x60806040526005805460a060020a60ff02191690553480156200002157600080fd5b506040516200476a3803806200476a83398101604090815281516020830151918301516060840151608085015160a086015160c087015160e08801519597949593949283019391909201919087878585600060128786818080600160a060020a0381161515620000f257604080517f08c379a000000000000000000000000000000000000000000000000000000000815260206004820152601960248201527f4f776e657220616464726573732063616e6e6f74206265203000000000000000604482015290519081900360640190fd5b60008054600160a060020a031916600160a060020a038316908117825560408051928352602083019190915280517fb532073b38c83145e3e5135377a08bf9aab55bc0fd7c1179cd4fb995d2a5159c9281900390910190a150600160a060020a0381161515620001e957604080517f08c379a000000000000000000000000000000000000000000000000000000000815260206004820152602260248201527f4f776e6572206d757374206e6f7420626520746865207a65726f20616464726560448201527f7373000000000000000000000000000000000000000000000000000000000000606482015290519081900360840190fd5b60038054600160a060020a038316610100810261010060a860020a03199092169190911790915560408051918252517fd5da63a0b864b315bc04128dedbc93888c8529ee6cf47ce664dc204339228c539181900360200190a15060048054600160a060020a038416600160a060020a0319909116811790915560408051918252517ffc80377ca9c49cc11ae6982f390a42db976d5530af7c43889264b13fbbd7c57e9181900360200190a1505060068054600160a060020a031916600160a060020a0388161790558451620002c69060079060208801906200067f565b508351620002dc9060089060208701906200067f565b5050600991909155600a5550505050600160a060020a03881615156200036357604080517f08c379a000000000000000000000000000000000000000000000000000000000815260206004820152601260248201527f5f70726f78792063616e6e6f7420626520300000000000000000000000000000604482015290519081900360640190fd5b600160a060020a0386161515620003db57604080517f08c379a000000000000000000000000000000000000000000000000000000000815260206004820152601360248201527f5f68617676656e2063616e6e6f74206265203000000000000000000000000000604482015290519081900360640190fd5b600160a060020a03851615156200045357604080517f08c379a000000000000000000000000000000000000000000000000000000000815260206004820152601460248201527f5f666565506f6f6c2063616e6e6f742062652030000000000000000000000000604482015290519081900360640190fd5b600160a060020a0382161515620004cb57604080517f08c379a000000000000000000000000000000000000000000000000000000000815260206004820152601260248201527f5f6f776e65722063616e6e6f7420626520300000000000000000000000000000604482015290519081900360640190fd5b604080517ffe88e5410000000000000000000000000000000000000000000000000000000081527fffffffff00000000000000000000000000000000000000000000000000000000831660048201529051600091600160a060020a0389169163fe88e5419160248082019260209290919082900301818787803b1580156200055257600080fd5b505af115801562000567573d6000803e3d6000fd5b505050506040513d60208110156200057e57600080fd5b5051600160a060020a031614620005f657604080517f08c379a000000000000000000000000000000000000000000000000000000000815260206004820152601e60248201527f43757272656e6379206b657920697320616c726561647920696e207573650000604482015290519081900360640190fd5b600b8054600160a060020a0319908116600160a060020a0397881617909155600c8054909116969095169590951760a060020a63ffffffff021916740100000000000000000000000000000000000000007c0100000000000000000000000000000000000000000000000000000000909604959095029490941790925550620007249350505050565b828054600181600116156101000203166002900490600052602060002090601f016020900481019282601f10620006c257805160ff1916838001178555620006f2565b82800160010185558215620006f2579182015b82811115620006f2578251825591602001919060010190620006d5565b506200070092915062000704565b5090565b6200072191905b808211156200070057600081556001016200070b565b90565b61403680620007346000396000f3006080604052600436106101d45763ffffffff60e060020a60003504166306fdde0381146101d9578063095ea7b3146102635780631627540c1461029b57806317c70de4146102be57806318160ddd146102e557806319db2228146102fa57806320714f881461031b57806323b872dd1461033c578063313ce567146103665780633278c9601461037b5780633c960be9146103905780634fa2b0a5146103ff57806353a47bb71461042057806370a082311461045157806379ba509714610472578063867904b4146104875780638da5cb5b146104ab57806395d89b41146104c057806397107d6d146104d55780639c4de81f146104f65780639cb8a26a1461050b5780639dc29fac146105205780639f76980714610544578063a461fc8214610565578063a9059cbb1461057a578063ab67aa581461059e578063ae2e933b1461060d578063b4bede8514610622578063b8225dec1461068b578063bc67f832146106a0578063bd32aa44146106c1578063be45fd62146106d6578063c58aaae61461073f578063d66c9cc214610754578063dbd06c8514610778578063dd62ed3e146107aa578063e6fbf441146107d1578063e90dd9e2146107fb578063eb6ecc0314610810578063ec5568891461083a575b600080fd5b3480156101e557600080fd5b506101ee61084f565b6040805160208082528351818301528351919283929083019185019080838360005b83811015610228578181015183820152602001610210565b50505050905090810190601f1680156102555780820380516001836020036101000a031916815260200191505b509250505060405180910390f35b34801561026f57600080fd5b50610287600160a060020a03600435166024356108dd565b604080519115158252519081900360200190f35b3480156102a757600080fd5b506102bc600160a060020a03600435166109b1565b005b3480156102ca57600080fd5b506102d3610a69565b60408051918252519081900360200190f35b3480156102f157600080fd5b506102d3610a6f565b34801561030657600080fd5b506102bc600160a060020a0360043516610a75565b34801561032757600080fd5b506102bc600160a060020a0360043516610b4f565b34801561034857600080fd5b50610287600160a060020a0360043581169060243516604435610ca2565b34801561037257600080fd5b506102d3611021565b34801561038757600080fd5b506102bc611027565b34801561039c57600080fd5b50604080516020601f60643560048181013592830184900484028501840190955281845261028794600160a060020a0381358116956024803590921695604435953695608494019181908401838280828437509497506110c59650505050505050565b34801561040b57600080fd5b506102bc600160a060020a036004351661143a565b34801561042c57600080fd5b50610435611511565b60408051600160a060020a039092168252519081900360200190f35b34801561045d57600080fd5b506102d3600160a060020a0360043516611520565b34801561047e57600080fd5b506102bc6115a7565b34801561049357600080fd5b506102bc600160a060020a03600435166024356116a2565b3480156104b757600080fd5b50610435611879565b3480156104cc57600080fd5b506101ee611888565b3480156104e157600080fd5b506102bc600160a060020a03600435166118e3565b34801561050257600080fd5b5061043561199b565b34801561051757600080fd5b506102bc6119aa565b34801561052c57600080fd5b506102bc600160a060020a0360043516602435611b6f565b34801561055057600080fd5b506102bc600160a060020a0360043516611d08565b34801561057157600080fd5b506102d3611ddf565b34801561058657600080fd5b50610287600160a060020a0360043516602435611de6565b3480156105aa57600080fd5b50604080516020601f60643560048181013592830184900484028501840190955281845261028794600160a060020a0381358116956024803590921695604435953695608494019181908401838280828437509497506120449650505050505050565b34801561061957600080fd5b5061043561237c565b34801561062e57600080fd5b50604080516020600460443581810135601f8101849004840285018401909552848452610287948235600160a060020a031694602480359536959460649492019190819084018382808284375094975061238b9650505050505050565b34801561069757600080fd5b506102876125dc565b3480156106ac57600080fd5b506102bc600160a060020a03600435166125e5565b3480156106cd57600080fd5b506102bc61268f565b3480156106e257600080fd5b50604080516020600460443581810135601f8101849004840285018401909552848452610287948235600160a060020a031694602480359536959460649492019190819084018382808284375094975061273c9650505050505050565b34801561074b57600080fd5b50610435612997565b34801561076057600080fd5b50610287600160a060020a03600435166024356129ab565b34801561078457600080fd5b5061078d612bf5565b60408051600160e060020a03199092168252519081900360200190f35b3480156107b657600080fd5b506102d3600160a060020a0360043581169060243516612c08565b3480156107dd57600080fd5b50610287600160a060020a0360043581169060243516604435612cae565b34801561080757600080fd5b50610435612f7c565b34801561081c57600080fd5b506102bc600160a060020a0360043581169060243516604435612f8b565b34801561084657600080fd5b50610435613040565b6007805460408051602060026001851615610100026000190190941693909304601f810184900484028201840190925281815292918301828280156108d55780601f106108aa576101008083540402835291602001916108d5565b820191906000526020600020905b8154815290600101906020018083116108b857829003601f168201915b505050505081565b6004546000908190600160a060020a031633146109075760058054600160a060020a031916331790555b50600554600654604080517fda46098c000000000000000000000000000000000000000000000000000000008152600160a060020a0393841660048201819052878516602483015260448201879052915191939092169163da46098c91606480830192600092919082900301818387803b15801561098457600080fd5b505af1158015610998573d6000803e3d6000fd5b505050506109a781858561304f565b5060019392505050565b600054600160a060020a03163314610a15576040805160e560020a62461bcd02815260206004820152602f6024820152600080516020613f8b8339815191526044820152600080516020613fab833981519152606482015290519081900360840190fd5b60018054600160a060020a038316600160a060020a0319909116811790915560408051918252517f906a1c6bd7e3091ea86693dd029a831c19049ce77f1dce2ce0bab1cacbabce229181900360200190a150565b60025481565b60095481565b600454600160a060020a03163314610a9a5760058054600160a060020a031916331790555b600054600554600160a060020a03908116911614610b28576040805160e560020a62461bcd02815260206004820152602e60248201527f5468697320616374696f6e2063616e206f6e6c7920626520706572666f726d6560448201527f6420627920746865206f776e6572000000000000000000000000000000000000606482015290519081900360840190fd5b600b8054600160a060020a031916600160a060020a038316179055610b4c816131c0565b50565b600054600160a060020a03163314610bb3576040805160e560020a62461bcd02815260206004820152602f6024820152600080516020613f8b8339815191526044820152600080516020613fab833981519152606482015290519081900360840190fd5b600160a060020a0381161515610c39576040805160e560020a62461bcd02815260206004820152602860248201527f42656e6566696369617279206d757374206e6f7420626520746865207a65726f60448201527f2061646472657373000000000000000000000000000000000000000000000000606482015290519081900360840190fd5b60038054600160a060020a038316610100810274ffffffffffffffffffffffffffffffffffffffff00199092169190911790915560408051918252517fd5da63a0b864b315bc04128dedbc93888c8529ee6cf47ce664dc204339228c539181900360200190a150565b60045460009081908190606090600160a060020a03163314610cd15760058054600160a060020a031916331790555b600b546040805160e060020a63eb1edd6102815290518992600160a060020a03169163eb1edd619160048083019260209291908290030181600087803b158015610d1a57600080fd5b505af1158015610d2e573d6000803e3d6000fd5b505050506040513d6020811015610d4457600080fd5b5051600160a060020a0382811691161415610dab576040805160e560020a62461bcd02815260206004820152602f6024820152600080516020613feb8339815191526044820152600080516020613fcb833981519152606482015290519081900360840190fd5b600b546040805160e060020a63b7fcfa69028152600481018990529051600160a060020a039092169163b7fcfa69916024808201926020929091908290030181600087803b158015610dfc57600080fd5b505af1158015610e10573d6000803e3d6000fd5b505050506040513d6020811015610e2657600080fd5b50519350610e3a868563ffffffff61330716565b600654600554604080517fdd62ed3e000000000000000000000000000000000000000000000000000000008152600160a060020a038d81166004830152928316602482018190529151949750919092169263da46098c928c929091610efc918c91879163dd62ed3e9160448083019260209291908290030181600087803b158015610ec457600080fd5b505af1158015610ed8573d6000803e3d6000fd5b505050506040513d6020811015610eee57600080fd5b50519063ffffffff61330716565b6040805160e060020a63ffffffff8716028152600160a060020a03948516600482015292909316602483015260448201529051606480830192600092919082900301818387803b158015610f4f57600080fd5b505af1158015610f63573d6000803e3d6000fd5b5050600c546040805160e060020a63412b5ad7028152600160a060020a038d81166004830152600160e060020a031960e060020a60a060020a86040216602483015260448201899052915191909216935063412b5ad7925060648083019260209291908290030181600087803b158015610fdc57600080fd5b505af1158015610ff0573d6000803e3d6000fd5b505050506040513d602081101561100657600080fd5b5061101590508888868561331e565b98975050505050505050565b600a5481565b600054600160a060020a0316331461108b576040805160e560020a62461bcd02815260206004820152602f6024820152600080516020613f8b8339815191526044820152600080516020613fab833981519152606482015290519081900360840190fd5b600060028190556003805460ff191690556040517f6adcc7125002935e0aa31697538ebbd65cfddf20431eb6ecdcfc3e238bfd082c9190a1565b6004546000908190600160a060020a031633146110ef5760058054600160a060020a031916331790555b600b546040805160e060020a63eb1edd6102815290518892600160a060020a03169163eb1edd619160048083019260209291908290030181600087803b15801561113857600080fd5b505af115801561114c573d6000803e3d6000fd5b505050506040513d602081101561116257600080fd5b5051600160a060020a03828116911614156111c9576040805160e560020a62461bcd02815260206004820152602f6024820152600080516020613feb8339815191526044820152600080516020613fcb833981519152606482015290519081900360840190fd5b600b546040805160e260020a633691b9b1028152600481018890529051600160a060020a039092169163da46e6c4916024808201926020929091908290030181600087803b15801561121a57600080fd5b505af115801561122e573d6000803e3d6000fd5b505050506040513d602081101561124457600080fd5b5051600654600554919350600160a060020a039081169163da46098c918a91166113166112778a8863ffffffff61355416565b600660009054906101000a9004600160a060020a0316600160a060020a031663dd62ed3e8e600560009054906101000a9004600160a060020a03166040518363ffffffff1660e060020a0281526004018083600160a060020a0316600160a060020a0316815260200182600160a060020a0316600160a060020a0316815260200192505050602060405180830381600087803b158015610ec457600080fd5b6040805160e060020a63ffffffff8716028152600160a060020a03948516600482015292909316602483015260448201529051606480830192600092919082900301818387803b15801561136957600080fd5b505af115801561137d573d6000803e3d6000fd5b5050600c546040805160e060020a63412b5ad7028152600160a060020a038c81166004830152600160e060020a031960e060020a60a060020a86040216602483015260448201889052915191909216935063412b5ad7925060648083019260209291908290030181600087803b1580156113f657600080fd5b505af115801561140a573d6000803e3d6000fd5b505050506040513d602081101561142057600080fd5b5061142f90508787878761331e565b979650505050505050565b600454600160a060020a0316331461145f5760058054600160a060020a031916331790555b600054600554600160a060020a039081169116146114ed576040805160e560020a62461bcd02815260206004820152602e60248201527f5468697320616374696f6e2063616e206f6e6c7920626520706572666f726d6560448201527f6420627920746865206f776e6572000000000000000000000000000000000000606482015290519081900360840190fd5b600c8054600160a060020a031916600160a060020a038316179055610b4c8161356d565b600154600160a060020a031681565b6006546040805160e060020a6370a08231028152600160a060020a038481166004830152915160009392909216916370a082319160248082019260209290919082900301818787803b15801561157557600080fd5b505af1158015611589573d6000803e3d6000fd5b505050506040513d602081101561159f57600080fd5b505192915050565b600154600160a060020a0316331461162f576040805160e560020a62461bcd02815260206004820152603560248201527f596f75206d757374206265206e6f6d696e61746564206265666f726520796f7560448201527f2063616e20616363657074206f776e6572736869700000000000000000000000606482015290519081900360840190fd5b60005460015460408051600160a060020a03938416815292909116602083015280517fb532073b38c83145e3e5135377a08bf9aab55bc0fd7c1179cd4fb995d2a5159c9281900390910190a16001805460008054600160a060020a0319908116600160a060020a03841617909155169055565b600c54600b5433600160a060020a03928316811492919091161481806116c55750805b1515611741576040805160e560020a62461bcd02815260206004820152603c60248201527f4f6e6c79207468652048617676656e206f7220466565506f6f6c20636f6e747260448201527f616374732063616e20706572666f726d207468697320616374696f6e00000000606482015290519081900360840190fd5b6006546040805160e060020a6370a08231028152600160a060020a0387811660048301529151919092169163b46310f69187916117dc91889186916370a08231916024808201926020929091908290030181600087803b1580156117a457600080fd5b505af11580156117b8573d6000803e3d6000fd5b505050506040513d60208110156117ce57600080fd5b50519063ffffffff61355416565b6040518363ffffffff1660e060020a0281526004018083600160a060020a0316600160a060020a0316815260200182815260200192505050600060405180830381600087803b15801561182e57600080fd5b505af1158015611842573d6000803e3d6000fd5b505060095461185a925090508463ffffffff61355416565b60095561186960008585613647565b6118738484613749565b50505050565b600054600160a060020a031681565b6008805460408051602060026001851615610100026000190190941693909304601f810184900484028201840190925281815292918301828280156108d55780601f106108aa576101008083540402835291602001916108d5565b600054600160a060020a03163314611947576040805160e560020a62461bcd02815260206004820152602f6024820152600080516020613f8b8339815191526044820152600080516020613fab833981519152606482015290519081900360840190fd5b60048054600160a060020a038316600160a060020a0319909116811790915560408051918252517ffc80377ca9c49cc11ae6982f390a42db976d5530af7c43889264b13fbbd7c57e9181900360200190a150565b600c54600160a060020a031681565b60008054600160a060020a03163314611a0f576040805160e560020a62461bcd02815260206004820152602f6024820152600080516020613f8b8339815191526044820152600080516020613fab833981519152606482015290519081900360840190fd5b60035460ff161515611a91576040805160e560020a62461bcd02815260206004820152602860248201527f53656c6620646573747275637420686173206e6f7420796574206265656e206960448201527f6e69746961746564000000000000000000000000000000000000000000000000606482015290519081900360840190fd5b426224ea0060025401101515611b17576040805160e560020a62461bcd02815260206004820152602760248201527f53656c662064657374727563742064656c617920686173206e6f74207965742060448201527f656c617073656400000000000000000000000000000000000000000000000000606482015290519081900360840190fd5b5060035460408051600160a060020a0361010090930492909216808352905190917f8a09e1677ced846cb537dc2b172043bd05a1a81ad7e0033a7ef8ba762df990b7919081900360200190a180600160a060020a0316ff5b600c54600b5433600160a060020a0392831681149291909116148180611b925750805b1515611c0e576040805160e560020a62461bcd02815260206004820152603c60248201527f4f6e6c79207468652048617676656e206f7220466565506f6f6c20636f6e747260448201527f616374732063616e20706572666f726d207468697320616374696f6e00000000606482015290519081900360840190fd5b6006546040805160e060020a6370a08231028152600160a060020a0387811660048301529151919092169163b46310f6918791611c7191889186916370a08231916024808201926020929091908290030181600087803b158015610ec457600080fd5b6040518363ffffffff1660e060020a0281526004018083600160a060020a0316600160a060020a0316815260200182815260200192505050600060405180830381600087803b158015611cc357600080fd5b505af1158015611cd7573d6000803e3d6000fd5b5050600954611cef925090508463ffffffff61330716565b600955611cfe84600085613647565b6118738484613889565b600454600160a060020a03163314611d2d5760058054600160a060020a031916331790555b600054600554600160a060020a03908116911614611dbb576040805160e560020a62461bcd02815260206004820152602e60248201527f5468697320616374696f6e2063616e206f6e6c7920626520706572666f726d6560448201527f6420627920746865206f776e6572000000000000000000000000000000000000606482015290519081900360840190fd5b60068054600160a060020a031916600160a060020a038316179055610b4c81613963565b6224ea0081565b60045460009081908190606090600160a060020a03163314611e155760058054600160a060020a031916331790555b600554600b546040805160e060020a63eb1edd610281529051600160a060020a03938416939092169163eb1edd61916004808201926020929091908290030181600087803b158015611e6657600080fd5b505af1158015611e7a573d6000803e3d6000fd5b505050506040513d6020811015611e9057600080fd5b5051600160a060020a0382811691161415611ef7576040805160e560020a62461bcd02815260206004820152602f6024820152600080516020613feb8339815191526044820152600080516020613fcb833981519152606482015290519081900360840190fd5b600b546040805160e060020a63b7fcfa69028152600481018990529051600160a060020a039092169163b7fcfa69916024808201926020929091908290030181600087803b158015611f4857600080fd5b505af1158015611f5c573d6000803e3d6000fd5b505050506040513d6020811015611f7257600080fd5b50519350611f86868563ffffffff61330716565b600c546005546040805160e060020a63412b5ad7028152600160a060020a039283166004820152600160e060020a031960e060020a60a060020a86040216602482015260448101859052905193965091169163412b5ad7916064808201926020929091908290030181600087803b15801561200057600080fd5b505af1158015612014573d6000803e3d6000fd5b505050506040513d602081101561202a57600080fd5b505060055461142f90600160a060020a031688868561331e565b60045460009081908190600160a060020a031633146120705760058054600160a060020a031916331790555b600b546040805160e060020a63eb1edd6102815290518992600160a060020a03169163eb1edd619160048083019260209291908290030181600087803b1580156120b957600080fd5b505af11580156120cd573d6000803e3d6000fd5b505050506040513d60208110156120e357600080fd5b5051600160a060020a038281169116141561214a576040805160e560020a62461bcd02815260206004820152602f6024820152600080516020613feb8339815191526044820152600080516020613fcb833981519152606482015290519081900360840190fd5b600b546040805160e060020a63b7fcfa69028152600481018990529051600160a060020a039092169163b7fcfa69916024808201926020929091908290030181600087803b15801561219b57600080fd5b505af11580156121af573d6000803e3d6000fd5b505050506040513d60208110156121c557600080fd5b505192506121d9868463ffffffff61330716565b600654600554604080517fdd62ed3e000000000000000000000000000000000000000000000000000000008152600160a060020a038d81166004830152928316602482018190529151949650919092169263da46098c928c929091612263918c91879163dd62ed3e9160448083019260209291908290030181600087803b158015610ec457600080fd5b6040805160e060020a63ffffffff8716028152600160a060020a03948516600482015292909316602483015260448201529051606480830192600092919082900301818387803b1580156122b657600080fd5b505af11580156122ca573d6000803e3d6000fd5b5050600c546040805160e060020a63412b5ad7028152600160a060020a038d81166004830152600160e060020a031960e060020a60a060020a86040216602483015260448201889052915191909216935063412b5ad7925060648083019260209291908290030181600087803b15801561234357600080fd5b505af1158015612357573d6000803e3d6000fd5b505050506040513d602081101561236d57600080fd5b5061101590508888858861331e565b600b54600160a060020a031681565b6004546000908190600160a060020a031633146123b55760058054600160a060020a031916331790555b600554600b546040805160e060020a63eb1edd610281529051600160a060020a03938416939092169163eb1edd61916004808201926020929091908290030181600087803b15801561240657600080fd5b505af115801561241a573d6000803e3d6000fd5b505050506040513d602081101561243057600080fd5b5051600160a060020a0382811691161415612497576040805160e560020a62461bcd02815260206004820152602f6024820152600080516020613feb8339815191526044820152600080516020613fcb833981519152606482015290519081900360840190fd5b600b546040805160e260020a633691b9b1028152600481018890529051600160a060020a039092169163da46e6c4916024808201926020929091908290030181600087803b1580156124e857600080fd5b505af11580156124fc573d6000803e3d6000fd5b505050506040513d602081101561251257600080fd5b5051600c546005546040805160e060020a63412b5ad7028152600160a060020a039283166004820152600160e060020a031960e060020a60a060020a86040216602482015260448101859052905193955091169163412b5ad7916064808201926020929091908290030181600087803b15801561258e57600080fd5b505af11580156125a2573d6000803e3d6000fd5b505050506040513d60208110156125b857600080fd5b50506005546125d290600160a060020a031687878761331e565b9695505050505050565b60035460ff1681565b600454600160a060020a0316331461266d576040805160e560020a62461bcd02815260206004820152602560248201527f4f6e6c79207468652070726f78792063616e2063616c6c20746869732066756e60448201527f6374696f6e000000000000000000000000000000000000000000000000000000606482015290519081900360840190fd5b60058054600160a060020a031916600160a060020a0392909216919091179055565b600054600160a060020a031633146126f3576040805160e560020a62461bcd02815260206004820152602f6024820152600080516020613f8b8339815191526044820152600080516020613fab833981519152606482015290519081900360840190fd5b426002556003805460ff19166001179055604080516224ea00815290517fcbd94ca75b8dc45c9d80c77e851670e78843c0d75180cb81db3e2158228fa9a69181900360200190a1565b60045460009081908190600160a060020a031633146127685760058054600160a060020a031916331790555b600554600b546040805160e060020a63eb1edd610281529051600160a060020a03938416939092169163eb1edd61916004808201926020929091908290030181600087803b1580156127b957600080fd5b505af11580156127cd573d6000803e3d6000fd5b505050506040513d60208110156127e357600080fd5b5051600160a060020a038281169116141561284a576040805160e560020a62461bcd02815260206004820152602f6024820152600080516020613feb8339815191526044820152600080516020613fcb833981519152606482015290519081900360840190fd5b600b546040805160e060020a63b7fcfa69028152600481018990529051600160a060020a039092169163b7fcfa69916024808201926020929091908290030181600087803b15801561289b57600080fd5b505af11580156128af573d6000803e3d6000fd5b505050506040513d60208110156128c557600080fd5b505192506128d9868463ffffffff61330716565b600c546005546040805160e060020a63412b5ad7028152600160a060020a039283166004820152600160e060020a031960e060020a60a060020a86040216602482015260448101859052905193955091169163412b5ad7916064808201926020929091908290030181600087803b15801561295357600080fd5b505af1158015612967573d6000803e3d6000fd5b505050506040513d602081101561297d57600080fd5b505060055461142f90600160a060020a031688858861331e565b6003546101009004600160a060020a031681565b6004546000908190606090600160a060020a031633146129d85760058054600160a060020a031916331790555b600554600b546040805160e060020a63eb1edd610281529051600160a060020a03938416939092169163eb1edd61916004808201926020929091908290030181600087803b158015612a2957600080fd5b505af1158015612a3d573d6000803e3d6000fd5b505050506040513d6020811015612a5357600080fd5b5051600160a060020a0382811691161415612aba576040805160e560020a62461bcd02815260206004820152602f6024820152600080516020613feb8339815191526044820152600080516020613fcb833981519152606482015290519081900360840190fd5b600b546040805160e260020a633691b9b1028152600481018890529051600160a060020a039092169163da46e6c4916024808201926020929091908290030181600087803b158015612b0b57600080fd5b505af1158015612b1f573d6000803e3d6000fd5b505050506040513d6020811015612b3557600080fd5b5051600c546005546040805160e060020a63412b5ad7028152600160a060020a039283166004820152600160e060020a031960e060020a60a060020a86040216602482015260448101859052905193965091169163412b5ad7916064808201926020929091908290030181600087803b158015612bb157600080fd5b505af1158015612bc5573d6000803e3d6000fd5b505050506040513d6020811015612bdb57600080fd5b50506005546125d290600160a060020a031687878561331e565b600c5460a060020a900460e060020a0281565b600654604080517fdd62ed3e000000000000000000000000000000000000000000000000000000008152600160a060020a03858116600483015284811660248301529151600093929092169163dd62ed3e9160448082019260209290919082900301818787803b158015612c7b57600080fd5b505af1158015612c8f573d6000803e3d6000fd5b505050506040513d6020811015612ca557600080fd5b50519392505050565b6004546000908190606090600160a060020a03163314612cdb5760058054600160a060020a031916331790555b600b546040805160e060020a63eb1edd6102815290518892600160a060020a03169163eb1edd619160048083019260209291908290030181600087803b158015612d2457600080fd5b505af1158015612d38573d6000803e3d6000fd5b505050506040513d6020811015612d4e57600080fd5b5051600160a060020a0382811691161415612db5576040805160e560020a62461bcd02815260206004820152602f6024820152600080516020613feb8339815191526044820152600080516020613fcb833981519152606482015290519081900360840190fd5b600b546040805160e260020a633691b9b1028152600481018890529051600160a060020a039092169163da46e6c4916024808201926020929091908290030181600087803b158015612e0657600080fd5b505af1158015612e1a573d6000803e3d6000fd5b505050506040513d6020811015612e3057600080fd5b5051600654600554919450600160a060020a039081169163da46098c918a9116612e636112778a8963ffffffff61355416565b6040805160e060020a63ffffffff8716028152600160a060020a03948516600482015292909316602483015260448201529051606480830192600092919082900301818387803b158015612eb657600080fd5b505af1158015612eca573d6000803e3d6000fd5b5050600c546040805160e060020a63412b5ad7028152600160a060020a038c81166004830152600160e060020a031960e060020a60a060020a86040216602483015260448201899052915191909216935063412b5ad7925060648083019260209291908290030181600087803b158015612f4357600080fd5b505af1158015612f57573d6000803e3d6000fd5b505050506040513d6020811015612f6d57600080fd5b5061142f90508787878561331e565b600654600160a060020a031681565b600c54600b5460609133600160a060020a03918216811492909116148180612fb05750805b151561302c576040805160e560020a62461bcd02815260206004820152603c60248201527f4f6e6c79207468652048617676656e206f7220466565506f6f6c20636f6e747260448201527f616374732063616e20706572666f726d207468697320616374696f6e00000000606482015290519081900360840190fd5b61303886868686613a3d565b505050505050565b600454600160a060020a031681565b600480546040805160208082018690528251808303820181528284018085527f417070726f76616c28616464726573732c616464726573732c75696e7432353690527f29000000000000000000000000000000000000000000000000000000000000006060840152925191829003606101822060e060020a63907dff9702835260036024840181905260448401829052600160a060020a038a8116606486018190528a821660848701819052600060a4880181905260c09a88019a8b52885160c48901528851939099169963907dff97999497959692959194939092839260e40191908a0190808383885b8381101561315257818101518382015260200161313a565b50505050905090810190601f16801561317f5780820380516001836020036101000a031916815260200191505b50975050505050505050600060405180830381600087803b1580156131a357600080fd5b505af11580156131b7573d6000803e3d6000fd5b50505050505050565b6004805460408051600160a060020a038581166020808401919091528351808403820181528385018086527f466565506f6f6c557064617465642861646472657373290000000000000000009052935192839003605701832060e060020a63907dff97028452600160248501819052604485018290526000606486018190526084860181905260a4860181905260c0988601988952865160c48701528651949097169763907dff979791959294919384938493839260e4909201918a0190808383885b8381101561329b578181015183820152602001613283565b50505050905090810190601f1680156132c85780820380516001836020036101000a031916815260200191505b50975050505050505050600060405180830381600087803b1580156132ec57600080fd5b505af1158015613300573d6000803e3d6000fd5b5050505050565b6000808383111561331757600080fd5b5050900390565b600080600c60009054906101000a9004600160a060020a0316600160a060020a03166384f7efc66040518163ffffffff1660e060020a028152600401602060405180830381600087803b15801561337457600080fd5b505af1158015613388573d6000803e3d6000fd5b505050506040513d602081101561339e57600080fd5b5051604080517fcaca2516000000000000000000000000000000000000000000000000000000008152600160a060020a0388811660048301529151919092169163caca25169160248083019260209291908290030181600087803b15801561340557600080fd5b505af1158015613419573d6000803e3d6000fd5b505050506040513d602081101561342f57600080fd5b50519050600160e060020a03198116158015906134695750600c5460a060020a900460e060020a02600160e060020a031990811690821614155b1561353c57600c54604080517f0d8842cf000000000000000000000000000000000000000000000000000000008152600160a060020a038981166004830152600160e060020a031960e060020a60a060020a860402811660248401526044830189905285166064830152888116608483015291519190921691630d8842cf9160a48083019260209291908290030181600087803b15801561350957600080fd5b505af115801561351d573d6000803e3d6000fd5b505050506040513d602081101561353357600080fd5b5051915061354b565b61354886868686613c59565b91505b50949350505050565b60008282018381101561356657600080fd5b9392505050565b6004805460408051600160a060020a038581166020808401919091528351808403820181528385018086527f48617676656e55706461746564286164647265737329000000000000000000009052935192839003605601832060e060020a63907dff97028452600160248501819052604485018290526000606486018190526084860181905260a4860181905260c0988601988952865160c48701528651949097169763907dff979791959294919384938493839260e4909201918a0190808383888381101561329b578181015183820152602001613283565b600480546040805160208082018690528251808303820181528284018085527f5472616e7366657228616464726573732c616464726573732c75696e7432353690527f29000000000000000000000000000000000000000000000000000000000000006060840152925191829003606101822060e060020a63907dff9702835260036024840181905260448401829052600160a060020a038a8116606486018190528a821660848701819052600060a4880181905260c09a88019a8b52885160c48901528851939099169963907dff97999497959692959194939092839260e40191908a0190808383888381101561315257818101518382015260200161313a565b600480546040805160208082018690528251808303820181528284018085527f49737375656428616464726573732c75696e74323536290000000000000000009052925191829003605701822060e060020a63907dff9702835260026024840181905260448401829052600160a060020a038981166064860181905260006084870181905260a4870181905260c0998701998a52875160c48801528751929098169863907dff979893969495919484939192839260e490920191908a0190808383885b8381101561382457818101518382015260200161380c565b50505050905090810190601f1680156138515780820380516001836020036101000a031916815260200191505b50975050505050505050600060405180830381600087803b15801561387557600080fd5b505af1158015613038573d6000803e3d6000fd5b600480546040805160208082018690528251808303820181528284018085527f4275726e656428616464726573732c75696e74323536290000000000000000009052925191829003605701822060e060020a63907dff9702835260026024840181905260448401829052600160a060020a038981166064860181905260006084870181905260a4870181905260c0998701998a52875160c48801528751929098169863907dff979893969495919484939192839260e490920191908a0190808383888381101561382457818101518382015260200161380c565b6004805460408051600160a060020a038581166020808401919091528351808403820181528385018086527f546f6b656e5374617465557064617465642861646472657373290000000000009052935192839003605a01832060e060020a63907dff97028452600160248501819052604485018290526000606486018190526084860181905260a4860181905260c0988601988952865160c48701528651949097169763907dff979791959294919384938493839260e4909201918a0190808383888381101561329b578181015183820152602001613283565b60055460009060a060020a900460ff1615613aa2576040805160e560020a62461bcd02815260206004820152601e60248201527f526576657274656420746f2070726576656e74207265656e7472616e63790000604482015290519081900360640190fd5b506005805474ff0000000000000000000000000000000000000000191660a060020a179055823b6000811115613c345783600160a060020a03168584846040516024018084600160a060020a0316600160a060020a0316815260200183815260200180602001828103825283818151815260200191508051906020019080838360005b83811015613b3d578181015183820152602001613b25565b50505050905090810190601f168015613b6a5780820380516001836020036101000a031916815260200191505b5060408051601f198184030181529181526020820180517bffffffffffffffffffffffffffffffffffffffffffffffffffffffff167fc0ee0b8a000000000000000000000000000000000000000000000000000000001781529051825192975095508594509250905080838360005b83811015613bf1578181015183820152602001613bd9565b50505050905090810190601f168015613c1e5780820380516001836020036101000a031916815260200191505b509150506000604051808303816000865af15050505b50506005805474ff000000000000000000000000000000000000000019169055505050565b6000600160a060020a0384161515613cbb576040805160e560020a62461bcd02815260206004820181905260248201527f43616e6e6f74207472616e7366657220746f2074686520302061646472657373604482015290519081900360640190fd5b600160a060020a038416301415613d42576040805160e560020a62461bcd02815260206004820152602a60248201527f43616e6e6f74207472616e7366657220746f2074686520756e6465726c79696e60448201527f6720636f6e747261637400000000000000000000000000000000000000000000606482015290519081900360840190fd5b600454600160a060020a0385811691161415613dce576040805160e560020a62461bcd02815260206004820152602560248201527f43616e6e6f74207472616e7366657220746f207468652070726f787920636f6e60448201527f7472616374000000000000000000000000000000000000000000000000000000606482015290519081900360840190fd5b6006546040805160e060020a6370a08231028152600160a060020a0388811660048301529151919092169163b46310f6918891613e3191889186916370a08231916024808201926020929091908290030181600087803b158015610ec457600080fd5b6040518363ffffffff1660e060020a0281526004018083600160a060020a0316600160a060020a0316815260200182815260200192505050600060405180830381600087803b158015613e8357600080fd5b505af1158015613e97573d6000803e3d6000fd5b50506006546040805160e060020a6370a08231028152600160a060020a038981166004830152915191909216935063b46310f692508791613efe91889186916370a08231916024808201926020929091908290030181600087803b1580156117a457600080fd5b6040518363ffffffff1660e060020a0281526004018083600160a060020a0316600160a060020a0316815260200182815260200192505050600060405180830381600087803b158015613f5057600080fd5b505af1158015613f64573d6000803e3d6000fd5b50505050613f7485858585613a3d565b613f7f858585613647565b50600194935050505056004f6e6c792074686520636f6e7472616374206f776e6572206d617920706572666f726d207468697320616374696f6e0000000000000000000000000000000000746865206665652061646472657373000000000000000000000000000000000043616e6e6f7420706572666f726d207468697320616374696f6e207769746820a165627a7a72305820a21e1895a198f5bfcb9469c7dbfbd41b48a932a4c95311fb58b9cf894c52ca340029",
  "source": "/*\n-----------------------------------------------------------------\nFILE INFORMATION\n-----------------------------------------------------------------\n\nfile:       Nomin.sol\nversion:    2.0\nauthor:     Kevin Brown\ndate:       2018-09-13\n\n-----------------------------------------------------------------\nMODULE DESCRIPTION\n-----------------------------------------------------------------\n\nHavven-backed nomin stablecoin contract.\n\nThis contract issues nomins, which are tokens that mirror various\nflavours of fiat currency.\n\nNomins are issuable by Havven holders who have to lock up some\nvalue of their havvens to issue H * Cmax nomins. Where Cmax is\nsome value less than 1.\n\nA configurable fee is charged on nomin transfers and deposited\ninto a common pot, which havven holders may withdraw from once\nper fee period.\n\n-----------------------------------------------------------------\n*/\n\npragma solidity 0.4.25;\n\nimport \"./ExternStateToken.sol\";\nimport \"./FeePool.sol\";\nimport \"./Havven.sol\";\n\ncontract Nomin is ExternStateToken {\n\n    /* ========== STATE VARIABLES ========== */\n\n    FeePool public feePool;\n    Havven public havven;\n\n    // Currency key which identifies this Nomin to the Havven system\n    bytes4 public currencyKey;\n\n    uint constant DECIMALS = 18;\n\n    /* ========== CONSTRUCTOR ========== */\n\n    constructor(address _proxy, TokenState _tokenState, Havven _havven, FeePool _feePool,\n        string _tokenName, string _tokenSymbol, address _owner, bytes4 _currencyKey\n    )\n        ExternStateToken(_proxy, _tokenState, _tokenName, _tokenSymbol, 0, DECIMALS, _owner)\n        public\n    {\n        require(_proxy != 0, \"_proxy cannot be 0\");\n        require(address(_havven) != 0, \"_havven cannot be 0\");\n        require(address(_feePool) != 0, \"_feePool cannot be 0\");\n        require(_owner != 0, \"_owner cannot be 0\");\n        require(_havven.nomins(_currencyKey) == Nomin(0), \"Currency key is already in use\");\n\n        feePool = _feePool;\n        havven = _havven;\n        currencyKey = _currencyKey;\n    }\n\n    /* ========== SETTERS ========== */\n\n    function setHavven(Havven _havven)\n        external\n        optionalProxy_onlyOwner\n    {\n        havven = _havven;\n        emitHavvenUpdated(_havven);\n    }\n\n    function setFeePool(FeePool _feePool)\n        external\n        optionalProxy_onlyOwner\n    {\n        feePool = _feePool;\n        emitFeePoolUpdated(_feePool);\n    }\n\n    /* ========== MUTATIVE FUNCTIONS ========== */\n\n    /**\n     * @notice Override ERC20 transfer function in order to check\n     * whether the recipient account is frozen. Note that there is\n     * no need to check whether the sender has a frozen account,\n     * since their funds have already been confiscated,\n     * and no new funds can be transferred to it.*/\n    function transfer(address to, uint value)\n        public\n        optionalProxy\n        notFeeAddress(messageSender)\n        returns (bool)\n    {\n        uint amountReceived = feePool.amountReceivedFromTransfer(value);\n        uint fee = value.sub(amountReceived);\n\n        // Send the fee off to the fee pool.\n        havven.nominInitiatedFeePayment(messageSender, currencyKey, fee);\n\n        // And send their result off to the destination address\n        bytes memory empty;\n        return _internalTransfer(messageSender, to, amountReceived, empty);\n    }\n\n    /* Override ERC223 transfer function in order to check\n     * whether the recipient account is frozen. Note that there is\n     * no need to check whether the sender has a frozen account,\n     * since their funds have already been confiscated,\n     * and no new funds can be transferred to it.*/\n    function transfer(address to, uint value, bytes data)\n        public\n        optionalProxy\n        notFeeAddress(messageSender)\n        returns (bool)\n    {\n        uint amountReceived = feePool.amountReceivedFromTransfer(value);\n        uint fee = value.sub(amountReceived);\n\n        // Send the fee off to the fee pool, which we don't want to charge an additional fee on\n        havven.nominInitiatedFeePayment(messageSender, currencyKey, fee);\n\n        // And send their result off to the destination address\n        return _internalTransfer(messageSender, to, amountReceived, data);\n    }\n\n    /* Override ERC20 transferFrom function in order to check\n     * whether the recipient account is frozen. */\n    function transferFrom(address from, address to, uint value)\n        public\n        optionalProxy\n        notFeeAddress(from)\n        returns (bool)\n    {\n        // The fee is deducted from the amount sent.\n        uint amountReceived = feePool.amountReceivedFromTransfer(value);\n        uint fee = value.sub(amountReceived);\n\n        // Reduce the allowance by the amount we're transferring.\n        // The safeSub call will handle an insufficient allowance.\n        tokenState.setAllowance(from, messageSender, tokenState.allowance(from, messageSender).sub(value));\n\n        // Send the fee off to the fee pool.\n        havven.nominInitiatedFeePayment(from, currencyKey, fee);\n\n        bytes memory empty;\n        return _internalTransfer(from, to, amountReceived, empty);\n    }\n\n    /* Override ERC223 transferFrom function in order to check\n     * whether the recipient account is frozen. */\n    function transferFrom(address from, address to, uint value, bytes data)\n        public\n        optionalProxy\n        notFeeAddress(from)\n        returns (bool)\n    {\n        // The fee is deducted from the amount sent.\n        uint amountReceived = feePool.amountReceivedFromTransfer(value);\n        uint fee = value.sub(amountReceived);\n\n        // Reduce the allowance by the amount we're transferring.\n        // The safeSub call will handle an insufficient allowance.\n        tokenState.setAllowance(from, messageSender, tokenState.allowance(from, messageSender).sub(value));\n\n        // Send the fee off to the fee pool, which we don't want to charge an additional fee on\n        havven.nominInitiatedFeePayment(from, currencyKey, fee);\n\n        return _internalTransfer(from, to, amountReceived, data);\n    }\n\n    function transferSenderPaysFee(address to, uint value)\n        public\n        optionalProxy\n        notFeeAddress(messageSender)\n        returns (bool)\n    {\n        uint fee = feePool.transferFeeIncurred(value);\n\n        // Send the fee off to the fee pool, which we don't want to charge an additional fee on\n        havven.nominInitiatedFeePayment(messageSender, currencyKey, fee);\n\n        // And send their transfer amount off to the destination address\n        bytes memory empty;\n        return _internalTransfer(messageSender, to, value, empty);\n    }\n\n    function transferSenderPaysFee(address to, uint value, bytes data)\n        public\n        optionalProxy\n        notFeeAddress(messageSender)\n        returns (bool)\n    {\n        uint fee = feePool.transferFeeIncurred(value);\n\n        // Send the fee off to the fee pool, which we don't want to charge an additional fee on\n        havven.nominInitiatedFeePayment(messageSender, currencyKey, fee);\n\n        // And send their transfer amount off to the destination address\n        return _internalTransfer(messageSender, to, value, data);\n    }\n\n    function transferFromSenderPaysFee(address from, address to, uint value)\n        public\n        optionalProxy\n        notFeeAddress(from)\n        returns (bool)\n    {\n        uint fee = feePool.transferFeeIncurred(value);\n\n        // Reduce the allowance by the amount we're transferring.\n        // The safeSub call will handle an insufficient allowance.\n        tokenState.setAllowance(from, messageSender, tokenState.allowance(from, messageSender).sub(value.add(fee)));\n\n        // Send the fee off to the fee pool, which we don't want to charge an additional fee on\n        havven.nominInitiatedFeePayment(from, currencyKey, fee);\n\n        bytes memory empty;\n        return _internalTransfer(from, to, value, empty);\n    }\n\n    function transferFromSenderPaysFee(address from, address to, uint value, bytes data)\n        public\n        optionalProxy\n        notFeeAddress(from)\n        returns (bool)\n    {\n        uint fee = feePool.transferFeeIncurred(value);\n\n        // Reduce the allowance by the amount we're transferring.\n        // The safeSub call will handle an insufficient allowance.\n        tokenState.setAllowance(from, messageSender, tokenState.allowance(from, messageSender).sub(value.add(fee)));\n\n        // Send the fee off to the fee pool, which we don't want to charge an additional fee on\n        havven.nominInitiatedFeePayment(from, currencyKey, fee);\n\n        return _internalTransfer(from, to, value, data);\n    }\n\n    // Override our internal transfer to inject preferred currency support\n    function _internalTransfer(address from, address to, uint value, bytes data)\n        internal\n        returns (bool)\n    {\n        bytes4 preferredCurrencyKey = havven.havvenState().preferredCurrency(to);\n\n        // Do they have a preferred currency that's not us? If so we need to exchange\n        if (preferredCurrencyKey != 0 && preferredCurrencyKey != currencyKey) {\n            return havven.nominInitiatedExchange(from, currencyKey, value, preferredCurrencyKey, to);\n        } else {\n            // Otherwise we just transfer\n            return super._internalTransfer(from, to, value, data);\n        }\n    }\n\n    // Allow havven to issue a certain number of nomins from an account.\n    function issue(address account, uint amount)\n        external\n        onlyHavvenOrFeePool\n    {\n        tokenState.setBalanceOf(account, tokenState.balanceOf(account).add(amount));\n        totalSupply = totalSupply.add(amount);\n        emitTransfer(address(0), account, amount);\n        emitIssued(account, amount);\n    }\n\n    // Allow havven or another nomin contract to burn a certain number of nomins from an account.\n    function burn(address account, uint amount)\n        external\n        onlyHavvenOrFeePool\n    {\n        tokenState.setBalanceOf(account, tokenState.balanceOf(account).sub(amount));\n        totalSupply = totalSupply.sub(amount);\n        emitTransfer(account, address(0), amount);\n        emitBurned(account, amount);\n    }\n\n    // Allow havven to trigger a token fallback call from our nomins so users get notified on\n    // exchange as well as transfer\n    function triggerTokenFallbackIfNeeded(address sender, address recipient, uint amount) \n        external\n        onlyHavvenOrFeePool\n    {\n        bytes memory empty;\n        callTokenFallbackIfNeeded(sender, recipient, amount, empty);\n    }\n\n    /* ========== MODIFIERS ========== */\n\n    modifier onlyHavvenOrFeePool() {\n        bool isHavven = msg.sender == address(havven);\n        bool isFeePool = msg.sender == address(feePool);\n\n        require(isHavven || isFeePool, \"Only the Havven or FeePool contracts can perform this action\");\n        _;\n    }\n\n    modifier notFeeAddress(address account) {\n        require(account != feePool.FEE_ADDRESS(), \"Cannot perform this action with the fee address\");\n        _;\n    }\n\n    /* ========== EVENTS ========== */\n\n    event HavvenUpdated(address newHavven);\n    bytes32 constant HAVVENUPDATED_SIG = keccak256(\"HavvenUpdated(address)\");\n    function emitHavvenUpdated(address newHavven) internal {\n        proxy._emit(abi.encode(newHavven), 1, HAVVENUPDATED_SIG, 0, 0, 0);\n    }\n\n    event FeePoolUpdated(address newFeePool);\n    bytes32 constant FEEPOOLUPDATED_SIG = keccak256(\"FeePoolUpdated(address)\");\n    function emitFeePoolUpdated(address newFeePool) internal {\n        proxy._emit(abi.encode(newFeePool), 1, FEEPOOLUPDATED_SIG, 0, 0, 0);\n    }\n\n    event Issued(address indexed account, uint value);\n    bytes32 constant ISSUED_SIG = keccak256(\"Issued(address,uint256)\");\n    function emitIssued(address account, uint value) internal {\n        proxy._emit(abi.encode(value), 2, ISSUED_SIG, bytes32(account), 0, 0);\n    }\n\n    event Burned(address indexed account, uint value);\n    bytes32 constant BURNED_SIG = keccak256(\"Burned(address,uint256)\");\n    function emitBurned(address account, uint value) internal {\n        proxy._emit(abi.encode(value), 2, BURNED_SIG, bytes32(account), 0, 0);\n    }\n}\n",
  "sourcePath": "/Users/clintonennis/Projects/havven/havven/contracts/Nomin.sol",
  "compiler": {
    "name": "solc",
    "version": "0.4.25+commit.59dbf8f1.Emscripten.clang"
  },
  "schemaVersion": "3.0.0-beta.1",
  "updatedAt": "2018-11-21T03:50:47.669Z"
}