{
  "contractName": "Owned",
  "abi": [
    {
      "constant": true,
      "inputs": [],
      "name": "nominatedOwner",
      "outputs": [
        {
          "name": "",
          "type": "address"
        }
      ],
      "payable": false,
      "stateMutability": "view",
      "type": "function"
    },
    {
      "constant": true,
      "inputs": [],
      "name": "owner",
      "outputs": [
        {
          "name": "",
          "type": "address"
        }
      ],
      "payable": false,
      "stateMutability": "view",
      "type": "function"
    },
    {
      "inputs": [
        {
          "name": "_owner",
          "type": "address"
        }
      ],
      "payable": false,
      "stateMutability": "nonpayable",
      "type": "constructor"
    },
    {
      "anonymous": false,
      "inputs": [
        {
          "indexed": false,
          "name": "newOwner",
          "type": "address"
        }
      ],
      "name": "OwnerNominated",
      "type": "event"
    },
    {
      "anonymous": false,
      "inputs": [
        {
          "indexed": false,
          "name": "oldOwner",
          "type": "address"
        },
        {
          "indexed": false,
          "name": "newOwner",
          "type": "address"
        }
      ],
      "name": "OwnerChanged",
      "type": "event"
    },
    {
      "constant": false,
      "inputs": [
        {
          "name": "_owner",
          "type": "address"
        }
      ],
      "name": "nominateNewOwner",
      "outputs": [],
      "payable": false,
      "stateMutability": "nonpayable",
      "type": "function"
    },
    {
      "constant": false,
      "inputs": [],
      "name": "acceptOwnership",
      "outputs": [],
      "payable": false,
      "stateMutability": "nonpayable",
      "type": "function"
    }
  ],
  "bytecode": "0x608060405234801561001057600080fd5b5060405160208061044e8339810160405251600160a060020a038116151561009957604080517f08c379a000000000000000000000000000000000000000000000000000000000815260206004820152601960248201527f4f776e657220616464726573732063616e6e6f74206265203000000000000000604482015290519081900360640190fd5b60008054600160a060020a031916600160a060020a038316908117825560408051928352602083019190915280517fb532073b38c83145e3e5135377a08bf9aab55bc0fd7c1179cd4fb995d2a5159c9281900390910190a15061034d806101016000396000f3006080604052600436106100615763ffffffff7c01000000000000000000000000000000000000000000000000000000006000350416631627540c811461006657806353a47bb71461008957806379ba5097146100ba5780638da5cb5b146100cf575b600080fd5b34801561007257600080fd5b50610087600160a060020a03600435166100e4565b005b34801561009557600080fd5b5061009e6101e4565b60408051600160a060020a039092168252519081900360200190f35b3480156100c657600080fd5b506100876101f3565b3480156100db57600080fd5b5061009e610312565b600054600160a060020a0316331461018357604080517f08c379a000000000000000000000000000000000000000000000000000000000815260206004820152602f60248201527f4f6e6c792074686520636f6e7472616374206f776e6572206d6179207065726660448201527f6f726d207468697320616374696f6e0000000000000000000000000000000000606482015290519081900360840190fd5b60018054600160a060020a03831673ffffffffffffffffffffffffffffffffffffffff19909116811790915560408051918252517f906a1c6bd7e3091ea86693dd029a831c19049ce77f1dce2ce0bab1cacbabce229181900360200190a150565b600154600160a060020a031681565b600154600160a060020a0316331461029257604080517f08c379a000000000000000000000000000000000000000000000000000000000815260206004820152603560248201527f596f75206d757374206265206e6f6d696e61746564206265666f726520796f7560448201527f2063616e20616363657074206f776e6572736869700000000000000000000000606482015290519081900360840190fd5b60005460015460408051600160a060020a03938416815292909116602083015280517fb532073b38c83145e3e5135377a08bf9aab55bc0fd7c1179cd4fb995d2a5159c9281900390910190a1600180546000805473ffffffffffffffffffffffffffffffffffffffff19908116600160a060020a03841617909155169055565b600054600160a060020a0316815600a165627a7a72305820fa1e903f923f5d910c3314e0ba470c56175d76b3b46a0eaac2478cb7ff5748e60029",
  "source": "/*\n-----------------------------------------------------------------\nFILE INFORMATION\n-----------------------------------------------------------------\n\nfile:       Owned.sol\nversion:    1.1\nauthor:     Anton Jurisevic\n            Dominic Romanowski\n\ndate:       2018-2-26\n\n-----------------------------------------------------------------\nMODULE DESCRIPTION\n-----------------------------------------------------------------\n\nAn Owned contract, to be inherited by other contracts.\nRequires its owner to be explicitly set in the constructor.\nProvides an onlyOwner access modifier.\n\nTo change owner, the current owner must nominate the next owner,\nwho then has to accept the nomination. The nomination can be\ncancelled before it is accepted by the new owner by having the\nprevious owner change the nomination (setting it to 0).\n\n-----------------------------------------------------------------\n*/\n\npragma solidity 0.4.25;\n\n/**\n * @title A contract with an owner.\n * @notice Contract ownership can be transferred by first nominating the new owner,\n * who must then accept the ownership, which prevents accidental incorrect ownership transfers.\n */\ncontract Owned {\n    address public owner;\n    address public nominatedOwner;\n\n    /**\n     * @dev Owned Constructor\n     */\n    constructor(address _owner)\n        public\n    {\n        require(_owner != address(0), \"Owner address cannot be 0\");\n        owner = _owner;\n        emit OwnerChanged(address(0), _owner);\n    }\n\n    /**\n     * @notice Nominate a new owner of this contract.\n     * @dev Only the current owner may nominate a new owner.\n     */\n    function nominateNewOwner(address _owner)\n        external\n        onlyOwner\n    {\n        nominatedOwner = _owner;\n        emit OwnerNominated(_owner);\n    }\n\n    /**\n     * @notice Accept the nomination to be owner.\n     */\n    function acceptOwnership()\n        external\n    {\n        require(msg.sender == nominatedOwner, \"You must be nominated before you can accept ownership\");\n        emit OwnerChanged(owner, nominatedOwner);\n        owner = nominatedOwner;\n        nominatedOwner = address(0);\n    }\n\n    modifier onlyOwner\n    {\n        require(msg.sender == owner, \"Only the contract owner may perform this action\");\n        _;\n    }\n\n    event OwnerNominated(address newOwner);\n    event OwnerChanged(address oldOwner, address newOwner);\n}",
  "sourcePath": "/Users/clintonennis/Projects/havven/havven/contracts/Owned.sol",
  "compiler": {
    "name": "solc",
    "version": "0.4.25+commit.59dbf8f1.Emscripten.clang"
  },
  "schemaVersion": "3.0.0-beta.1",
  "updatedAt": "2018-11-21T03:50:47.608Z"
}