{
  "contractName": "Pausable",
  "abi": [
    {
      "constant": false,
      "inputs": [
        {
          "name": "_owner",
          "type": "address"
        }
      ],
      "name": "nominateNewOwner",
      "outputs": [],
      "payable": false,
      "stateMutability": "nonpayable",
      "type": "function"
    },
    {
      "constant": true,
      "inputs": [],
      "name": "nominatedOwner",
      "outputs": [
        {
          "name": "",
          "type": "address"
        }
      ],
      "payable": false,
      "stateMutability": "view",
      "type": "function"
    },
    {
      "constant": true,
      "inputs": [],
      "name": "paused",
      "outputs": [
        {
          "name": "",
          "type": "bool"
        }
      ],
      "payable": false,
      "stateMutability": "view",
      "type": "function"
    },
    {
      "constant": false,
      "inputs": [],
      "name": "acceptOwnership",
      "outputs": [],
      "payable": false,
      "stateMutability": "nonpayable",
      "type": "function"
    },
    {
      "constant": true,
      "inputs": [],
      "name": "owner",
      "outputs": [
        {
          "name": "",
          "type": "address"
        }
      ],
      "payable": false,
      "stateMutability": "view",
      "type": "function"
    },
    {
      "constant": true,
      "inputs": [],
      "name": "lastPauseTime",
      "outputs": [
        {
          "name": "",
          "type": "uint256"
        }
      ],
      "payable": false,
      "stateMutability": "view",
      "type": "function"
    },
    {
      "inputs": [
        {
          "name": "_owner",
          "type": "address"
        }
      ],
      "payable": false,
      "stateMutability": "nonpayable",
      "type": "constructor"
    },
    {
      "anonymous": false,
      "inputs": [
        {
          "indexed": false,
          "name": "isPaused",
          "type": "bool"
        }
      ],
      "name": "PauseChanged",
      "type": "event"
    },
    {
      "anonymous": false,
      "inputs": [
        {
          "indexed": false,
          "name": "newOwner",
          "type": "address"
        }
      ],
      "name": "OwnerNominated",
      "type": "event"
    },
    {
      "anonymous": false,
      "inputs": [
        {
          "indexed": false,
          "name": "oldOwner",
          "type": "address"
        },
        {
          "indexed": false,
          "name": "newOwner",
          "type": "address"
        }
      ],
      "name": "OwnerChanged",
      "type": "event"
    },
    {
      "constant": false,
      "inputs": [
        {
          "name": "_paused",
          "type": "bool"
        }
      ],
      "name": "setPaused",
      "outputs": [],
      "payable": false,
      "stateMutability": "nonpayable",
      "type": "function"
    }
  ],
  "bytecode": "0x608060405234801561001057600080fd5b506040516020806105fb833981016040525180600160a060020a038116151561009a57604080517f08c379a000000000000000000000000000000000000000000000000000000000815260206004820152601960248201527f4f776e657220616464726573732063616e6e6f74206265203000000000000000604482015290519081900360640190fd5b60008054600160a060020a031916600160a060020a038316908117825560408051928352602083019190915280517fb532073b38c83145e3e5135377a08bf9aab55bc0fd7c1179cd4fb995d2a5159c9281900390910190a150506104f8806101036000396000f3006080604052600436106100825763ffffffff7c01000000000000000000000000000000000000000000000000000000006000350416631627540c811461008757806316c38b3c146100aa57806353a47bb7146100c45780635c975abb146100f557806379ba50971461011e5780638da5cb5b1461013357806391b4ded914610148575b600080fd5b34801561009357600080fd5b506100a8600160a060020a036004351661016f565b005b3480156100b657600080fd5b506100a8600435151561026f565b3480156100d057600080fd5b506100d9610380565b60408051600160a060020a039092168252519081900360200190f35b34801561010157600080fd5b5061010a61038f565b604080519115158252519081900360200190f35b34801561012a57600080fd5b506100a8610398565b34801561013f57600080fd5b506100d96104b7565b34801561015457600080fd5b5061015d6104c6565b60408051918252519081900360200190f35b600054600160a060020a0316331461020e57604080517f08c379a000000000000000000000000000000000000000000000000000000000815260206004820152602f60248201527f4f6e6c792074686520636f6e7472616374206f776e6572206d6179207065726660448201527f6f726d207468697320616374696f6e0000000000000000000000000000000000606482015290519081900360840190fd5b60018054600160a060020a03831673ffffffffffffffffffffffffffffffffffffffff19909116811790915560408051918252517f906a1c6bd7e3091ea86693dd029a831c19049ce77f1dce2ce0bab1cacbabce229181900360200190a150565b600054600160a060020a0316331461030e57604080517f08c379a000000000000000000000000000000000000000000000000000000000815260206004820152602f60248201527f4f6e6c792074686520636f6e7472616374206f776e6572206d6179207065726660448201527f6f726d207468697320616374696f6e0000000000000000000000000000000000606482015290519081900360840190fd5b60035460ff16151581151514156103245761037d565b6003805460ff1916821515179081905560ff161561034157426002555b6003546040805160ff90921615158252517f8fb6c181ee25a520cf3dd6565006ef91229fcfe5a989566c2a3b8c115570cec59181900360200190a15b50565b600154600160a060020a031681565b60035460ff1681565b600154600160a060020a0316331461043757604080517f08c379a000000000000000000000000000000000000000000000000000000000815260206004820152603560248201527f596f75206d757374206265206e6f6d696e61746564206265666f726520796f7560448201527f2063616e20616363657074206f776e6572736869700000000000000000000000606482015290519081900360840190fd5b60005460015460408051600160a060020a03938416815292909116602083015280517fb532073b38c83145e3e5135377a08bf9aab55bc0fd7c1179cd4fb995d2a5159c9281900390910190a1600180546000805473ffffffffffffffffffffffffffffffffffffffff19908116600160a060020a03841617909155169055565b600054600160a060020a031681565b600254815600a165627a7a72305820a151ed63bbf23262597de591aa8c1b2c5f848aa35fada831b7d7aff0777170a80029",
  "source": "/*\n-----------------------------------------------------------------\nFILE INFORMATION\n-----------------------------------------------------------------\n\nfile:       Pausable.sol\nversion:    1.0\nauthor:     Kevin Brown\n\ndate:       2018-05-22\n\n-----------------------------------------------------------------\nMODULE DESCRIPTION\n-----------------------------------------------------------------\n\nThis contract allows an inheriting contract to be marked as\npaused. It also defines a modifier which can be used by the\ninheriting contract to prevent actions while paused.\n\n-----------------------------------------------------------------\n*/\n\npragma solidity 0.4.25;\n\n\nimport \"./Owned.sol\";\n\n\n/**\n * @title A contract that can be paused by its owner\n */\ncontract Pausable is Owned {\n    \n    uint public lastPauseTime;\n    bool public paused;\n\n    /**\n     * @dev Constructor\n     * @param _owner The account which controls this contract.\n     */\n    constructor(address _owner)\n        Owned(_owner)\n        public\n    {\n        // Paused will be false, and lastPauseTime will be 0 upon initialisation\n    }\n\n    /**\n     * @notice Change the paused state of the contract\n     * @dev Only the contract owner may call this.\n     */\n    function setPaused(bool _paused)\n        external\n        onlyOwner\n    {\n        // Ensure we're actually changing the state before we do anything\n        if (_paused == paused) {\n            return;\n        }\n\n        // Set our paused state.\n        paused = _paused;\n        \n        // If applicable, set the last pause time.\n        if (paused) {\n            lastPauseTime = now;\n        }\n\n        // Let everyone know that our pause state has changed.\n        emit PauseChanged(paused);\n    }\n\n    event PauseChanged(bool isPaused);\n\n    modifier notPaused {\n        require(!paused, \"This action cannot be performed while the contract is paused\");\n        _;\n    }\n}\n",
  "sourcePath": "/Users/clintonennis/Projects/havven/havven/contracts/Pausable.sol",
  "compiler": {
    "name": "solc",
    "version": "0.4.25+commit.59dbf8f1.Emscripten.clang"
  },
  "schemaVersion": "3.0.0-beta.1",
  "updatedAt": "2018-11-21T03:50:47.597Z"
}