{
  "contractName": "Proxy",
  "abi": [
    {
      "constant": false,
      "inputs": [
        {
          "name": "_owner",
          "type": "address"
        }
      ],
      "name": "nominateNewOwner",
      "outputs": [],
      "payable": false,
      "stateMutability": "nonpayable",
      "type": "function"
    },
    {
      "constant": true,
      "inputs": [],
      "name": "nominatedOwner",
      "outputs": [
        {
          "name": "",
          "type": "address"
        }
      ],
      "payable": false,
      "stateMutability": "view",
      "type": "function"
    },
    {
      "constant": false,
      "inputs": [],
      "name": "acceptOwnership",
      "outputs": [],
      "payable": false,
      "stateMutability": "nonpayable",
      "type": "function"
    },
    {
      "constant": true,
      "inputs": [],
      "name": "owner",
      "outputs": [
        {
          "name": "",
          "type": "address"
        }
      ],
      "payable": false,
      "stateMutability": "view",
      "type": "function"
    },
    {
      "constant": true,
      "inputs": [],
      "name": "useDELEGATECALL",
      "outputs": [
        {
          "name": "",
          "type": "bool"
        }
      ],
      "payable": false,
      "stateMutability": "view",
      "type": "function"
    },
    {
      "constant": true,
      "inputs": [],
      "name": "target",
      "outputs": [
        {
          "name": "",
          "type": "address"
        }
      ],
      "payable": false,
      "stateMutability": "view",
      "type": "function"
    },
    {
      "inputs": [
        {
          "name": "_owner",
          "type": "address"
        }
      ],
      "payable": false,
      "stateMutability": "nonpayable",
      "type": "constructor"
    },
    {
      "payable": true,
      "stateMutability": "payable",
      "type": "fallback"
    },
    {
      "anonymous": false,
      "inputs": [
        {
          "indexed": false,
          "name": "newTarget",
          "type": "address"
        }
      ],
      "name": "TargetUpdated",
      "type": "event"
    },
    {
      "anonymous": false,
      "inputs": [
        {
          "indexed": false,
          "name": "newOwner",
          "type": "address"
        }
      ],
      "name": "OwnerNominated",
      "type": "event"
    },
    {
      "anonymous": false,
      "inputs": [
        {
          "indexed": false,
          "name": "oldOwner",
          "type": "address"
        },
        {
          "indexed": false,
          "name": "newOwner",
          "type": "address"
        }
      ],
      "name": "OwnerChanged",
      "type": "event"
    },
    {
      "constant": false,
      "inputs": [
        {
          "name": "_target",
          "type": "address"
        }
      ],
      "name": "setTarget",
      "outputs": [],
      "payable": false,
      "stateMutability": "nonpayable",
      "type": "function"
    },
    {
      "constant": false,
      "inputs": [
        {
          "name": "value",
          "type": "bool"
        }
      ],
      "name": "setUseDELEGATECALL",
      "outputs": [],
      "payable": false,
      "stateMutability": "nonpayable",
      "type": "function"
    },
    {
      "constant": false,
      "inputs": [
        {
          "name": "callData",
          "type": "bytes"
        },
        {
          "name": "numTopics",
          "type": "uint256"
        },
        {
          "name": "topic1",
          "type": "bytes32"
        },
        {
          "name": "topic2",
          "type": "bytes32"
        },
        {
          "name": "topic3",
          "type": "bytes32"
        },
        {
          "name": "topic4",
          "type": "bytes32"
        }
      ],
      "name": "_emit",
      "outputs": [],
      "payable": false,
      "stateMutability": "nonpayable",
      "type": "function"
    }
  ],
  "bytecode": "0x608060405234801561001057600080fd5b506040516020806108dc833981016040525180600160a060020a038116151561009a57604080517f08c379a000000000000000000000000000000000000000000000000000000000815260206004820152601960248201527f4f776e657220616464726573732063616e6e6f74206265203000000000000000604482015290519081900360640190fd5b60008054600160a060020a031916600160a060020a038316908117825560408051928352602083019190915280517fb532073b38c83145e3e5135377a08bf9aab55bc0fd7c1179cd4fb995d2a5159c9281900390910190a150506107d9806101036000396000f3006080604052600436106100985763ffffffff7c01000000000000000000000000000000000000000000000000000000006000350416631627540c811461018357806353a47bb7146101a4578063776d1a01146101d557806379ba5097146101f65780638da5cb5b1461020b578063907dff971461022057806395578ebd14610250578063befff6af14610279578063d4b8399214610293575b60025474010000000000000000000000000000000000000000900460ff16156100e157604051366000823760008036836002545af43d6000833e8015156100dd573d82fd5b3d82f35b600254604080517fbc67f8320000000000000000000000000000000000000000000000000000000081523360048201529051600160a060020a039092169163bc67f8329160248082019260009290919082900301818387803b15801561014657600080fd5b505af115801561015a573d6000803e3d6000fd5b5050505060405136600082376000803683346002545af13d6000833e8015156100dd573d82fd5b005b34801561018f57600080fd5b50610181600160a060020a03600435166102a8565b3480156101b057600080fd5b506101b9610391565b60408051600160a060020a039092168252519081900360200190f35b3480156101e157600080fd5b50610181600160a060020a03600435166103a0565b34801561020257600080fd5b50610181610489565b34801561021757600080fd5b506101b9610591565b34801561022c57600080fd5b5061018160246004803582810192910135903560443560643560843560a4356105a0565b34801561025c57600080fd5b506102656106b5565b604080519115158252519081900360200190f35b34801561028557600080fd5b5061018160043515156106d6565b34801561029f57600080fd5b506101b961079e565b600054600160a060020a03163314610330576040805160e560020a62461bcd02815260206004820152602f60248201527f4f6e6c792074686520636f6e7472616374206f776e6572206d6179207065726660448201527f6f726d207468697320616374696f6e0000000000000000000000000000000000606482015290519081900360840190fd5b60018054600160a060020a03831673ffffffffffffffffffffffffffffffffffffffff19909116811790915560408051918252517f906a1c6bd7e3091ea86693dd029a831c19049ce77f1dce2ce0bab1cacbabce229181900360200190a150565b600154600160a060020a031681565b600054600160a060020a03163314610428576040805160e560020a62461bcd02815260206004820152602f60248201527f4f6e6c792074686520636f6e7472616374206f776e6572206d6179207065726660448201527f6f726d207468697320616374696f6e0000000000000000000000000000000000606482015290519081900360840190fd5b60028054600160a060020a03831673ffffffffffffffffffffffffffffffffffffffff19909116811790915560408051918252517f814250a3b8c79fcbe2ead2c131c952a278491c8f4322a79fe84b5040a810373e9181900360200190a150565b600154600160a060020a03163314610511576040805160e560020a62461bcd02815260206004820152603560248201527f596f75206d757374206265206e6f6d696e61746564206265666f726520796f7560448201527f2063616e20616363657074206f776e6572736869700000000000000000000000606482015290519081900360840190fd5b60005460015460408051600160a060020a03938416815292909116602083015280517fb532073b38c83145e3e5135377a08bf9aab55bc0fd7c1179cd4fb995d2a5159c9281900390910190a1600180546000805473ffffffffffffffffffffffffffffffffffffffff19908116600160a060020a03841617909155169055565b600054600160a060020a031681565b600254600090606090600160a060020a03163314610608576040805160e560020a62461bcd02815260206004820152601460248201527f4d7573742062652070726f787920746172676574000000000000000000000000604482015290519081900360640190fd5b604080516020601f8b01819004810282018101909252898152899350908a908490819084018382808284378201915050505050509050866000811461066c576001811461067757600281146106835760038114610690576004811461069e576106a9565b8260208301a06106a9565b868360208401a16106a9565b85878460208501a26106a9565b8486888560208601a36106a9565b838587898660208701a45b50505050505050505050565b60025474010000000000000000000000000000000000000000900460ff1681565b600054600160a060020a0316331461075e576040805160e560020a62461bcd02815260206004820152602f60248201527f4f6e6c792074686520636f6e7472616374206f776e6572206d6179207065726660448201527f6f726d207468697320616374696f6e0000000000000000000000000000000000606482015290519081900360840190fd5b60028054911515740100000000000000000000000000000000000000000274ff000000000000000000000000000000000000000019909216919091179055565b600254600160a060020a0316815600a165627a7a72305820e5a1dc038b40d16077706b5b23388fdc21019ed22d5a937e6c96d6dff4b7e1b00029",
  "source": "/*\n-----------------------------------------------------------------\nFILE INFORMATION\n-----------------------------------------------------------------\n\nfile:       Proxy.sol\nversion:    1.3\nauthor:     Anton Jurisevic\n\ndate:       2018-05-29\n\n-----------------------------------------------------------------\nMODULE DESCRIPTION\n-----------------------------------------------------------------\n\nA proxy contract that, if it does not recognise the function\nbeing called on it, passes all value and call data to an\nunderlying target contract.\n\nThis proxy has the capacity to toggle between DELEGATECALL\nand CALL style proxy functionality.\n\nThe former executes in the proxy's context, and so will preserve \nmsg.sender and store data at the proxy address. The latter will not.\nTherefore, any contract the proxy wraps in the CALL style must\nimplement the Proxyable interface, in order that it can pass msg.sender\ninto the underlying contract as the state parameter, messageSender.\n\n-----------------------------------------------------------------\n*/\n\n\npragma solidity 0.4.25;\n\n\nimport \"./Owned.sol\";\nimport \"./Proxyable.sol\";\n\n\ncontract Proxy is Owned {\n\n    Proxyable public target;\n    bool public useDELEGATECALL;\n\n    constructor(address _owner)\n        Owned(_owner)\n        public\n    {}\n\n    function setTarget(Proxyable _target)\n        external\n        onlyOwner\n    {\n        target = _target;\n        emit TargetUpdated(_target);\n    }\n\n    function setUseDELEGATECALL(bool value) \n        external\n        onlyOwner\n    {\n        useDELEGATECALL = value;\n    }\n\n    function _emit(bytes callData, uint numTopics, bytes32 topic1, bytes32 topic2, bytes32 topic3, bytes32 topic4)\n        external\n        onlyTarget\n    {\n        uint size = callData.length;\n        bytes memory _callData = callData;\n\n        assembly {\n            /* The first 32 bytes of callData contain its length (as specified by the abi). \n             * Length is assumed to be a uint256 and therefore maximum of 32 bytes\n             * in length. It is also leftpadded to be a multiple of 32 bytes.\n             * This means moving call_data across 32 bytes guarantees we correctly access\n             * the data itself. */\n            switch numTopics\n            case 0 {\n                log0(add(_callData, 32), size)\n            } \n            case 1 {\n                log1(add(_callData, 32), size, topic1)\n            }\n            case 2 {\n                log2(add(_callData, 32), size, topic1, topic2)\n            }\n            case 3 {\n                log3(add(_callData, 32), size, topic1, topic2, topic3)\n            }\n            case 4 {\n                log4(add(_callData, 32), size, topic1, topic2, topic3, topic4)\n            }\n        }\n    }\n\n    function()\n        external\n        payable\n    {\n        if (useDELEGATECALL) {\n            assembly {\n                /* Copy call data into free memory region. */\n                let free_ptr := mload(0x40)\n                calldatacopy(free_ptr, 0, calldatasize)\n\n                /* Forward all gas and call data to the target contract. */\n                let result := delegatecall(gas, sload(target_slot), free_ptr, calldatasize, 0, 0)\n                returndatacopy(free_ptr, 0, returndatasize)\n\n                /* Revert if the call failed, otherwise return the result. */\n                if iszero(result) { revert(free_ptr, returndatasize) }\n                return(free_ptr, returndatasize)\n            }\n        } else {\n            /* Here we are as above, but must send the messageSender explicitly \n             * since we are using CALL rather than DELEGATECALL. */\n            target.setMessageSender(msg.sender);\n            assembly {\n                let free_ptr := mload(0x40)\n                calldatacopy(free_ptr, 0, calldatasize)\n\n                /* We must explicitly forward ether to the underlying contract as well. */\n                let result := call(gas, sload(target_slot), callvalue, free_ptr, calldatasize, 0, 0)\n                returndatacopy(free_ptr, 0, returndatasize)\n\n                if iszero(result) { revert(free_ptr, returndatasize) }\n                return(free_ptr, returndatasize)\n            }\n        }\n    }\n\n    modifier onlyTarget {\n        require(Proxyable(msg.sender) == target, \"Must be proxy target\");\n        _;\n    }\n\n    event TargetUpdated(Proxyable newTarget);\n}\n",
  "sourcePath": "/Users/clintonennis/Projects/havven/havven/contracts/Proxy.sol",
  "compiler": {
    "name": "solc",
    "version": "0.4.25+commit.59dbf8f1.Emscripten.clang"
  },
  "schemaVersion": "3.0.0-beta.1",
  "updatedAt": "2018-11-21T03:50:47.617Z"
}