{
  "contractName": "Proxyable",
  "abi": [
    {
      "constant": false,
      "inputs": [
        {
          "name": "_owner",
          "type": "address"
        }
      ],
      "name": "nominateNewOwner",
      "outputs": [],
      "payable": false,
      "stateMutability": "nonpayable",
      "type": "function"
    },
    {
      "constant": true,
      "inputs": [],
      "name": "nominatedOwner",
      "outputs": [
        {
          "name": "",
          "type": "address"
        }
      ],
      "payable": false,
      "stateMutability": "view",
      "type": "function"
    },
    {
      "constant": false,
      "inputs": [],
      "name": "acceptOwnership",
      "outputs": [],
      "payable": false,
      "stateMutability": "nonpayable",
      "type": "function"
    },
    {
      "constant": true,
      "inputs": [],
      "name": "owner",
      "outputs": [
        {
          "name": "",
          "type": "address"
        }
      ],
      "payable": false,
      "stateMutability": "view",
      "type": "function"
    },
    {
      "constant": true,
      "inputs": [],
      "name": "proxy",
      "outputs": [
        {
          "name": "",
          "type": "address"
        }
      ],
      "payable": false,
      "stateMutability": "view",
      "type": "function"
    },
    {
      "inputs": [
        {
          "name": "_proxy",
          "type": "address"
        },
        {
          "name": "_owner",
          "type": "address"
        }
      ],
      "payable": false,
      "stateMutability": "nonpayable",
      "type": "constructor"
    },
    {
      "anonymous": false,
      "inputs": [
        {
          "indexed": false,
          "name": "proxyAddress",
          "type": "address"
        }
      ],
      "name": "ProxyUpdated",
      "type": "event"
    },
    {
      "anonymous": false,
      "inputs": [
        {
          "indexed": false,
          "name": "newOwner",
          "type": "address"
        }
      ],
      "name": "OwnerNominated",
      "type": "event"
    },
    {
      "anonymous": false,
      "inputs": [
        {
          "indexed": false,
          "name": "oldOwner",
          "type": "address"
        },
        {
          "indexed": false,
          "name": "newOwner",
          "type": "address"
        }
      ],
      "name": "OwnerChanged",
      "type": "event"
    },
    {
      "constant": false,
      "inputs": [
        {
          "name": "_proxy",
          "type": "address"
        }
      ],
      "name": "setProxy",
      "outputs": [],
      "payable": false,
      "stateMutability": "nonpayable",
      "type": "function"
    },
    {
      "constant": false,
      "inputs": [
        {
          "name": "sender",
          "type": "address"
        }
      ],
      "name": "setMessageSender",
      "outputs": [],
      "payable": false,
      "stateMutability": "nonpayable",
      "type": "function"
    }
  ],
  "bytecode": "0x608060405234801561001057600080fd5b506040516040806106a283398101604052805160209091015180600160a060020a03811615156100a157604080517f08c379a000000000000000000000000000000000000000000000000000000000815260206004820152601960248201527f4f776e657220616464726573732063616e6e6f74206265203000000000000000604482015290519081900360640190fd5b60008054600160a060020a031916600160a060020a038316908117825560408051928352602083019190915280517fb532073b38c83145e3e5135377a08bf9aab55bc0fd7c1179cd4fb995d2a5159c9281900390910190a15060028054600160a060020a038416600160a060020a0319909116811790915560408051918252517ffc80377ca9c49cc11ae6982f390a42db976d5530af7c43889264b13fbbd7c57e9181900360200190a150506105468061015c6000396000f3006080604052600436106100825763ffffffff7c01000000000000000000000000000000000000000000000000000000006000350416631627540c811461008757806353a47bb7146100aa57806379ba5097146100db5780638da5cb5b146100f057806397107d6d14610105578063bc67f83214610126578063ec55688914610147575b600080fd5b34801561009357600080fd5b506100a8600160a060020a036004351661015c565b005b3480156100b657600080fd5b506100bf610245565b60408051600160a060020a039092168252519081900360200190f35b3480156100e757600080fd5b506100a8610254565b3480156100fc57600080fd5b506100bf61035c565b34801561011157600080fd5b506100a8600160a060020a036004351661036b565b34801561013257600080fd5b506100a8600160a060020a0360043516610454565b34801561015357600080fd5b506100bf61050b565b600054600160a060020a031633146101e4576040805160e560020a62461bcd02815260206004820152602f60248201527f4f6e6c792074686520636f6e7472616374206f776e6572206d6179207065726660448201527f6f726d207468697320616374696f6e0000000000000000000000000000000000606482015290519081900360840190fd5b60018054600160a060020a03831673ffffffffffffffffffffffffffffffffffffffff19909116811790915560408051918252517f906a1c6bd7e3091ea86693dd029a831c19049ce77f1dce2ce0bab1cacbabce229181900360200190a150565b600154600160a060020a031681565b600154600160a060020a031633146102dc576040805160e560020a62461bcd02815260206004820152603560248201527f596f75206d757374206265206e6f6d696e61746564206265666f726520796f7560448201527f2063616e20616363657074206f776e6572736869700000000000000000000000606482015290519081900360840190fd5b60005460015460408051600160a060020a03938416815292909116602083015280517fb532073b38c83145e3e5135377a08bf9aab55bc0fd7c1179cd4fb995d2a5159c9281900390910190a1600180546000805473ffffffffffffffffffffffffffffffffffffffff19908116600160a060020a03841617909155169055565b600054600160a060020a031681565b600054600160a060020a031633146103f3576040805160e560020a62461bcd02815260206004820152602f60248201527f4f6e6c792074686520636f6e7472616374206f776e6572206d6179207065726660448201527f6f726d207468697320616374696f6e0000000000000000000000000000000000606482015290519081900360840190fd5b60028054600160a060020a03831673ffffffffffffffffffffffffffffffffffffffff19909116811790915560408051918252517ffc80377ca9c49cc11ae6982f390a42db976d5530af7c43889264b13fbbd7c57e9181900360200190a150565b600254600160a060020a031633146104dc576040805160e560020a62461bcd02815260206004820152602560248201527f4f6e6c79207468652070726f78792063616e2063616c6c20746869732066756e60448201527f6374696f6e000000000000000000000000000000000000000000000000000000606482015290519081900360840190fd5b6003805473ffffffffffffffffffffffffffffffffffffffff1916600160a060020a0392909216919091179055565b600254600160a060020a0316815600a165627a7a72305820fad79a3cea7c0bc28a2a95fd5fec74aad091ff215b7b7de63eb1c513fd0249b90029",
  "source": "/*\n-----------------------------------------------------------------\nFILE INFORMATION\n-----------------------------------------------------------------\n\nfile:       Proxyable.sol\nversion:    1.1\nauthor:     Anton Jurisevic\n\ndate:       2018-05-15\n\nchecked:    Mike Spain\napproved:   Samuel Brooks\n\n-----------------------------------------------------------------\nMODULE DESCRIPTION\n-----------------------------------------------------------------\n\nA proxyable contract that works hand in hand with the Proxy contract\nto allow for anyone to interact with the underlying contract both\ndirectly and through the proxy.\n\n-----------------------------------------------------------------\n*/\n\n\npragma solidity 0.4.25;\n\nimport \"./Owned.sol\";\nimport \"./Proxy.sol\";\n\n// This contract should be treated like an abstract contract\ncontract Proxyable is Owned {\n    /* The proxy this contract exists behind. */\n    Proxy public proxy;\n\n    /* The caller of the proxy, passed through to this contract.\n     * Note that every function using this member must apply the onlyProxy or\n     * optionalProxy modifiers, otherwise their invocations can use stale values. */ \n    address messageSender; \n\n    constructor(address _proxy, address _owner)\n        Owned(_owner)\n        public\n    {\n        proxy = Proxy(_proxy);\n        emit ProxyUpdated(_proxy);\n    }\n\n    function setProxy(address _proxy)\n        external\n        onlyOwner\n    {\n        proxy = Proxy(_proxy);\n        emit ProxyUpdated(_proxy);\n    }\n\n    function setMessageSender(address sender)\n        external\n        onlyProxy\n    {\n        messageSender = sender;\n    }\n\n    modifier onlyProxy {\n        require(Proxy(msg.sender) == proxy, \"Only the proxy can call this function\");\n        _;\n    }\n\n    modifier optionalProxy\n    {\n        if (Proxy(msg.sender) != proxy) {\n            messageSender = msg.sender;\n        }\n        _;\n    }\n\n    modifier optionalProxy_onlyOwner\n    {\n        if (Proxy(msg.sender) != proxy) {\n            messageSender = msg.sender;\n        }\n        require(messageSender == owner, \"This action can only be performed by the owner\");\n        _;\n    }\n\n    event ProxyUpdated(address proxyAddress);\n}\n",
  "sourcePath": "/Users/clintonennis/Projects/havven/havven/contracts/Proxyable.sol",
  "compiler": {
    "name": "solc",
    "version": "0.4.25+commit.59dbf8f1.Emscripten.clang"
  },
  "schemaVersion": "3.0.0-beta.1",
  "updatedAt": "2018-11-21T03:50:47.614Z"
}