{
  "contractName": "PublicSafeDecimalMath",
  "abi": [
    {
      "constant": true,
      "inputs": [],
      "name": "unit",
      "outputs": [
        {
          "name": "",
          "type": "uint256"
        }
      ],
      "payable": false,
      "stateMutability": "pure",
      "type": "function"
    },
    {
      "constant": true,
      "inputs": [],
      "name": "preciseUnit",
      "outputs": [
        {
          "name": "",
          "type": "uint256"
        }
      ],
      "payable": false,
      "stateMutability": "pure",
      "type": "function"
    },
    {
      "constant": true,
      "inputs": [
        {
          "name": "x",
          "type": "uint256"
        },
        {
          "name": "y",
          "type": "uint256"
        }
      ],
      "name": "multiplyDecimal",
      "outputs": [
        {
          "name": "",
          "type": "uint256"
        }
      ],
      "payable": false,
      "stateMutability": "pure",
      "type": "function"
    },
    {
      "constant": true,
      "inputs": [
        {
          "name": "x",
          "type": "uint256"
        },
        {
          "name": "y",
          "type": "uint256"
        }
      ],
      "name": "multiplyDecimalRound",
      "outputs": [
        {
          "name": "",
          "type": "uint256"
        }
      ],
      "payable": false,
      "stateMutability": "pure",
      "type": "function"
    },
    {
      "constant": true,
      "inputs": [
        {
          "name": "x",
          "type": "uint256"
        },
        {
          "name": "y",
          "type": "uint256"
        }
      ],
      "name": "multiplyDecimalRoundPrecise",
      "outputs": [
        {
          "name": "",
          "type": "uint256"
        }
      ],
      "payable": false,
      "stateMutability": "pure",
      "type": "function"
    },
    {
      "constant": true,
      "inputs": [
        {
          "name": "x",
          "type": "uint256"
        },
        {
          "name": "y",
          "type": "uint256"
        }
      ],
      "name": "divideDecimal",
      "outputs": [
        {
          "name": "",
          "type": "uint256"
        }
      ],
      "payable": false,
      "stateMutability": "pure",
      "type": "function"
    },
    {
      "constant": true,
      "inputs": [
        {
          "name": "x",
          "type": "uint256"
        },
        {
          "name": "y",
          "type": "uint256"
        }
      ],
      "name": "divideDecimalRound",
      "outputs": [
        {
          "name": "",
          "type": "uint256"
        }
      ],
      "payable": false,
      "stateMutability": "pure",
      "type": "function"
    },
    {
      "constant": true,
      "inputs": [
        {
          "name": "x",
          "type": "uint256"
        },
        {
          "name": "y",
          "type": "uint256"
        }
      ],
      "name": "divideDecimalRoundPrecise",
      "outputs": [
        {
          "name": "",
          "type": "uint256"
        }
      ],
      "payable": false,
      "stateMutability": "pure",
      "type": "function"
    },
    {
      "constant": true,
      "inputs": [
        {
          "name": "i",
          "type": "uint256"
        }
      ],
      "name": "decimalToPreciseDecimal",
      "outputs": [
        {
          "name": "",
          "type": "uint256"
        }
      ],
      "payable": false,
      "stateMutability": "pure",
      "type": "function"
    },
    {
      "constant": true,
      "inputs": [
        {
          "name": "i",
          "type": "uint256"
        }
      ],
      "name": "preciseDecimalToDecimal",
      "outputs": [
        {
          "name": "",
          "type": "uint256"
        }
      ],
      "payable": false,
      "stateMutability": "pure",
      "type": "function"
    }
  ],
  "bytecode": "0x608060405234801561001057600080fd5b506104c2806100206000396000f30060806040526004361061008a5763ffffffff60e060020a6000350416630fa53db8811461008f5780631c933e2f146100bc57806333882479146100d757806353cb26c6146100f2578063907af6c01461010a578063bd79a42a1461011f578063d1abdab814610137578063d5e5e6e614610152578063e4187d0214610167578063f63a5d2214610182575b600080fd5b34801561009b57600080fd5b506100aa60043560243561019d565b60408051918252519081900360200190f35b3480156100c857600080fd5b506100aa6004356024356101b6565b3480156100e357600080fd5b506100aa6004356024356101c8565b3480156100fe57600080fd5b506100aa6004356101da565b34801561011657600080fd5b506100aa6101eb565b34801561012b57600080fd5b506100aa600435610265565b34801561014357600080fd5b506100aa600435602435610270565b34801561015e57600080fd5b506100aa610282565b34801561017357600080fd5b506100aa6004356024356102cb565b34801561018e57600080fd5b506100aa6004356024356102dd565b60006101af838363ffffffff6102ef16565b9392505050565b60006101af838363ffffffff61030416565b60006101af838363ffffffff61031d16565b60006101e582610332565b92915050565b600073__SafeDecimalMath_______________________63907af6c06040518163ffffffff1660e060020a02815260040160206040518083038186803b15801561023457600080fd5b505af4158015610248573d6000803e3d6000fd5b505050506040513d602081101561025e57600080fd5b5051905090565b60006101e582610354565b60006101af838363ffffffff61036a16565b600073__SafeDecimalMath_______________________63d5e5e6e66040518163ffffffff1660e060020a02815260040160206040518083038186803b15801561023457600080fd5b60006101af838363ffffffff61039416565b60006101af838363ffffffff6103c016565b60006101af8383670de0b6b3a76400006103d5565b60006101af83836b033b2e3c9fd0803ce800000061040d565b60006101af8383670de0b6b3a764000061040d565b60006305f5e10082046005600a82061061034a57600a015b600a900492915050565b60006101e582633b9aca0063ffffffff61043a16565b60006101af8261038885670de0b6b3a764000063ffffffff61043a16565b9063ffffffff61047316565b6000670de0b6b3a76400006103af848463ffffffff61043a16565b8115156103b857fe5b049392505050565b60006101af83836b033b2e3c9fd0803ce80000005b6000806103ef8461038887600a870263ffffffff61043a16565b90506005600a825b061061040157600a015b600a9004949350505050565b600080600a8304610424868663ffffffff61043a16565b81151561042d57fe5b0490506005600a826103f7565b60008083151561044d576000915061046c565b5082820282848281151561045d57fe5b041461046857600080fd5b8091505b5092915050565b60008080831161048257600080fd5b828481151561048d57fe5b049493505050505600a165627a7a723058201e6bb83e4fd09d1ce69c14861bfbb4e7a52f47e02c65939795d91775d078b4ad0029",
  "source": "/* PublicSafeDecimalMath.sol: expose the internal functions in SafeDecimalMath\n * for testing purposes.\n */\npragma solidity 0.4.25;\n\nimport \"../SafeDecimalMath.sol\";\n\ncontract PublicSafeDecimalMath {\n    using SafeDecimalMath for uint;\n    \n    function unit()\n        public\n        pure\n        returns (uint)\n    {\n        return SafeDecimalMath.unit();\n    }\n\n    function preciseUnit()\n        public\n        pure\n        returns (uint)\n    {\n        return SafeDecimalMath.preciseUnit();\n    }\n\n    function multiplyDecimal(uint x, uint y)\n        public\n        pure\n        returns (uint)\n    {\n        return x.multiplyDecimal(y);\n    }\n\n    function multiplyDecimalRound(uint x, uint y)\n        public\n        pure\n        returns (uint)\n    {\n        return x.multiplyDecimalRound(y);\n    }\n\n    function multiplyDecimalRoundPrecise(uint x, uint y)\n        public\n        pure\n        returns (uint)\n    {\n        return x.multiplyDecimalRoundPrecise(y);\n    }\n\n    function divideDecimal(uint x, uint y)\n        public\n        pure\n        returns (uint)\n    {\n        return x.divideDecimal(y);\n    }\n\n    function divideDecimalRound(uint x, uint y)\n        public\n        pure\n        returns (uint)\n    {\n        return x.divideDecimalRound(y);\n    }\n\n    function divideDecimalRoundPrecise(uint x, uint y)\n        public\n        pure\n        returns (uint)\n    {\n        return x.divideDecimalRoundPrecise(y);\n    }\n\n    function decimalToPreciseDecimal(uint i)\n        public\n        pure\n        returns (uint)\n    {\n        return i.decimalToPreciseDecimal();\n    }\n\n    function preciseDecimalToDecimal(uint i)\n        public\n        pure\n        returns (uint)\n    {\n        return i.preciseDecimalToDecimal();\n    }\n}\n",
  "sourcePath": "/Users/clintonennis/Projects/havven/havven/contracts/test-helpers/PublicSafeDecimalMath.sol",
  "compiler": {
    "name": "solc",
    "version": "0.4.25+commit.59dbf8f1.Emscripten.clang"
  },
  "schemaVersion": "3.0.0-beta.1",
  "updatedAt": "2018-11-21T03:50:47.552Z"
}