{
  "contractName": "SafeDecimalMath",
  "abi": [
    {
      "constant": true,
      "inputs": [],
      "name": "decimals",
      "outputs": [
        {
          "name": "",
          "type": "uint8"
        }
      ],
      "payable": false,
      "stateMutability": "view",
      "type": "function"
    },
    {
      "constant": true,
      "inputs": [],
      "name": "PRECISE_UNIT",
      "outputs": [
        {
          "name": "",
          "type": "uint256"
        }
      ],
      "payable": false,
      "stateMutability": "view",
      "type": "function"
    },
    {
      "constant": true,
      "inputs": [],
      "name": "UNIT",
      "outputs": [
        {
          "name": "",
          "type": "uint256"
        }
      ],
      "payable": false,
      "stateMutability": "view",
      "type": "function"
    },
    {
      "constant": true,
      "inputs": [],
      "name": "highPrecisionDecimals",
      "outputs": [
        {
          "name": "",
          "type": "uint8"
        }
      ],
      "payable": false,
      "stateMutability": "view",
      "type": "function"
    },
    {
      "constant": true,
      "inputs": [],
      "name": "unit",
      "outputs": [
        {
          "name": "",
          "type": "uint256"
        }
      ],
      "payable": false,
      "stateMutability": "pure",
      "type": "function"
    },
    {
      "constant": true,
      "inputs": [],
      "name": "preciseUnit",
      "outputs": [
        {
          "name": "",
          "type": "uint256"
        }
      ],
      "payable": false,
      "stateMutability": "pure",
      "type": "function"
    }
  ],
  "bytecode": "0x610159610030600b82828239805160001a6073146000811461002057610022565bfe5b5030600052607381538281f300730000000000000000000000000000000000000000301460806040526004361061008e5763ffffffff7c0100000000000000000000000000000000000000000000000000000000600035041663313ce5678114610093578063864029e7146100b1578063907af6c0146100cb5780639d8e2177146100d3578063d5e5e6e6146100db578063def4419d146100e3575b600080fd5b61009b6100eb565b6040805160ff9092168252519081900360200190f35b6100b96100f0565b60408051918252519081900360200190f35b6100b9610100565b6100b961010c565b6100b9610118565b61009b610128565b601281565b6b033b2e3c9fd0803ce800000081565b670de0b6b3a764000090565b670de0b6b3a764000081565b6b033b2e3c9fd0803ce800000090565b601b815600a165627a7a723058206676487bb52d5b2bde475aac115c1e8b4e75138cf62a519a9c9dfff88be6b9bf0029",
  "source": "/*\n\n-----------------------------------------------------------------\nFILE INFORMATION\n-----------------------------------------------------------------\n\nfile:       SafeDecimalMath.sol\nversion:    2.0\nauthor:     Kevin Brown\n            Gavin Conway\ndate:       2018-10-18\n\n-----------------------------------------------------------------\nMODULE DESCRIPTION\n-----------------------------------------------------------------\n\nA library providing safe mathematical operations for division and\nmultiplication with the capability to round or truncate the results\nto the nearest increment. Operations can return a standard precision\nor high precision decimal. High precision decimals are useful for\nexample when attempting to calculate percentages or fractions\naccurately.\n\n-----------------------------------------------------------------\n*/\n\npragma solidity 0.4.25;\n\nimport \"openzeppelin-solidity/contracts/math/SafeMath.sol\";\n\n/**\n * @title Safely manipulate unsigned fixed-point decimals at a given precision level.\n * @dev Functions accepting uints in this contract and derived contracts\n * are taken to be such fixed point decimals of a specified precision (either standard\n * or high).\n */\nlibrary SafeDecimalMath {\n\n    using SafeMath for uint;\n\n    /* Number of decimal places in the representations. */\n    uint8 public constant decimals = 18;\n    uint8 public constant highPrecisionDecimals = 27;\n\n    /* The number representing 1.0. */\n    uint public constant UNIT = 10 ** uint(decimals);\n\n    /* The number representing 1.0 for higher fidelity numbers. */\n    uint public constant PRECISE_UNIT = 10 ** uint(highPrecisionDecimals);\n    uint private constant UNIT_TO_HIGH_PRECISION_CONVERSION_FACTOR = 10 ** uint(highPrecisionDecimals - decimals);\n\n    /** \n     * @return Provides an interface to UNIT.\n     */\n    function unit()\n        external\n        pure\n        returns (uint)\n    {\n        return UNIT;\n    }\n\n    /** \n     * @return Provides an interface to PRECISE_UNIT.\n     */\n    function preciseUnit()\n        external\n        pure \n        returns (uint)\n    {\n        return PRECISE_UNIT;\n    }\n\n    /**\n     * @return The result of multiplying x and y, interpreting the operands as fixed-point\n     * decimals.\n     * \n     * @dev A unit factor is divided out after the product of x and y is evaluated,\n     * so that product must be less than 2**256. As this is an integer division,\n     * the internal division always rounds down. This helps save on gas. Rounding\n     * is more expensive on gas.\n     */\n    function multiplyDecimal(uint x, uint y)\n        internal\n        pure\n        returns (uint)\n    {\n        /* Divide by UNIT to remove the extra factor introduced by the product. */\n        return x.mul(y) / UNIT;\n    }\n\n    /**\n     * @return The result of safely multiplying x and y, interpreting the operands\n     * as fixed-point decimals of the specified precision unit.\n     *\n     * @dev The operands should be in the form of a the specified unit factor which will be\n     * divided out after the product of x and y is evaluated, so that product must be\n     * less than 2**256.\n     *\n     * Unlike multiplyDecimal, this function rounds the result to the nearest increment.\n     * Rounding is useful when you need to retain fidelity for small decimal numbers\n     * (eg. small fractions or percentages).\n     */\n    function _multiplyDecimalRound(uint x, uint y, uint precisionUnit)\n        private\n        pure\n        returns (uint)\n    {\n        /* Divide by UNIT to remove the extra factor introduced by the product. */\n        uint quotientTimesTen = x.mul(y) / (precisionUnit / 10);\n\n        if (quotientTimesTen % 10 >= 5) {\n            quotientTimesTen += 10;\n        }\n\n        return quotientTimesTen / 10;\n    }\n\n    /**\n     * @return The result of safely multiplying x and y, interpreting the operands\n     * as fixed-point decimals of a precise unit.\n     *\n     * @dev The operands should be in the precise unit factor which will be\n     * divided out after the product of x and y is evaluated, so that product must be\n     * less than 2**256.\n     *\n     * Unlike multiplyDecimal, this function rounds the result to the nearest increment.\n     * Rounding is useful when you need to retain fidelity for small decimal numbers\n     * (eg. small fractions or percentages).\n     */\n    function multiplyDecimalRoundPrecise(uint x, uint y)\n        internal\n        pure\n        returns (uint)\n    {\n        return _multiplyDecimalRound(x, y, PRECISE_UNIT);\n    }\n\n    /**\n     * @return The result of safely multiplying x and y, interpreting the operands\n     * as fixed-point decimals of a standard unit.\n     *\n     * @dev The operands should be in the standard unit factor which will be\n     * divided out after the product of x and y is evaluated, so that product must be\n     * less than 2**256.\n     *\n     * Unlike multiplyDecimal, this function rounds the result to the nearest increment.\n     * Rounding is useful when you need to retain fidelity for small decimal numbers\n     * (eg. small fractions or percentages).\n     */\n    function multiplyDecimalRound(uint x, uint y)\n        internal\n        pure\n        returns (uint)\n    {\n        return _multiplyDecimalRound(x, y, UNIT);\n    }\n\n    /**\n     * @return The result of safely dividing x and y. The return value is a high\n     * precision decimal.\n     * \n     * @dev y is divided after the product of x and the standard precision unit\n     * is evaluated, so the product of x and UNIT must be less than 2**256. As\n     * this is an integer division, the result is always rounded down.\n     * This helps save on gas. Rounding is more expensive on gas.\n     */\n    function divideDecimal(uint x, uint y)\n        internal\n        pure\n        returns (uint)\n    {\n        /* Reintroduce the UNIT factor that will be divided out by y. */\n        return x.mul(UNIT).div(y);\n    }\n\n    /**\n     * @return The result of safely dividing x and y. The return value is as a rounded\n     * decimal in the precision unit specified in the parameter.\n     *\n     * @dev y is divided after the product of x and the specified precision unit\n     * is evaluated, so the product of x and the specified precision unit must\n     * be less than 2**256. The result is rounded to the nearest increment.\n     */\n    function _divideDecimalRound(uint x, uint y, uint precisionUnit)\n        private\n        pure\n        returns (uint)\n    {\n        uint resultTimesTen = x.mul(precisionUnit * 10).div(y);\n\n        if (resultTimesTen % 10 >= 5) {\n            resultTimesTen += 10;\n        }\n\n        return resultTimesTen / 10;\n    }\n\n    /**\n     * @return The result of safely dividing x and y. The return value is as a rounded\n     * standard precision decimal.\n     *\n     * @dev y is divided after the product of x and the standard precision unit\n     * is evaluated, so the product of x and the standard precision unit must\n     * be less than 2**256. The result is rounded to the nearest increment.\n     */\n    function divideDecimalRound(uint x, uint y)\n        internal\n        pure\n        returns (uint)\n    {\n        return _divideDecimalRound(x, y, UNIT);\n    }\n\n    /**\n     * @return The result of safely dividing x and y. The return value is as a rounded\n     * high precision decimal.\n     *\n     * @dev y is divided after the product of x and the high precision unit\n     * is evaluated, so the product of x and the high precision unit must\n     * be less than 2**256. The result is rounded to the nearest increment.\n     */\n    function divideDecimalRoundPrecise(uint x, uint y)\n        internal\n        pure\n        returns (uint)\n    {\n        return _divideDecimalRound(x, y, PRECISE_UNIT);\n    }\n\n    /**\n     * @dev Convert a standard decimal representation to a high precision one.\n     */\n    function decimalToPreciseDecimal(uint i)\n        internal\n        pure\n        returns (uint)\n    {\n        return i.mul(UNIT_TO_HIGH_PRECISION_CONVERSION_FACTOR);\n    }\n\n    /**\n     * @dev Convert a high precision decimal to a standard decimal representation.\n     */\n    function preciseDecimalToDecimal(uint i)\n        internal\n        pure\n        returns (uint)\n    {\n        uint quotientTimesTen = i / (UNIT_TO_HIGH_PRECISION_CONVERSION_FACTOR / 10);\n\n        if (quotientTimesTen % 10 >= 5) {\n            quotientTimesTen += 10;\n        }\n\n        return quotientTimesTen / 10;\n    }\n\n}\n",
  "sourcePath": "/Users/clintonennis/Projects/havven/havven/contracts/SafeDecimalMath.sol",
  "compiler": {
    "name": "solc",
    "version": "0.4.25+commit.59dbf8f1.Emscripten.clang"
  },
  "schemaVersion": "3.0.0-beta.1",
  "updatedAt": "2018-11-21T03:50:47.631Z"
}