{
  "contractName": "SelfDestructible",
  "abi": [
    {
      "constant": false,
      "inputs": [
        {
          "name": "_owner",
          "type": "address"
        }
      ],
      "name": "nominateNewOwner",
      "outputs": [],
      "payable": false,
      "stateMutability": "nonpayable",
      "type": "function"
    },
    {
      "constant": true,
      "inputs": [],
      "name": "initiationTime",
      "outputs": [
        {
          "name": "",
          "type": "uint256"
        }
      ],
      "payable": false,
      "stateMutability": "view",
      "type": "function"
    },
    {
      "constant": true,
      "inputs": [],
      "name": "nominatedOwner",
      "outputs": [
        {
          "name": "",
          "type": "address"
        }
      ],
      "payable": false,
      "stateMutability": "view",
      "type": "function"
    },
    {
      "constant": false,
      "inputs": [],
      "name": "acceptOwnership",
      "outputs": [],
      "payable": false,
      "stateMutability": "nonpayable",
      "type": "function"
    },
    {
      "constant": true,
      "inputs": [],
      "name": "owner",
      "outputs": [
        {
          "name": "",
          "type": "address"
        }
      ],
      "payable": false,
      "stateMutability": "view",
      "type": "function"
    },
    {
      "constant": true,
      "inputs": [],
      "name": "SELFDESTRUCT_DELAY",
      "outputs": [
        {
          "name": "",
          "type": "uint256"
        }
      ],
      "payable": false,
      "stateMutability": "view",
      "type": "function"
    },
    {
      "constant": true,
      "inputs": [],
      "name": "selfDestructInitiated",
      "outputs": [
        {
          "name": "",
          "type": "bool"
        }
      ],
      "payable": false,
      "stateMutability": "view",
      "type": "function"
    },
    {
      "constant": true,
      "inputs": [],
      "name": "selfDestructBeneficiary",
      "outputs": [
        {
          "name": "",
          "type": "address"
        }
      ],
      "payable": false,
      "stateMutability": "view",
      "type": "function"
    },
    {
      "inputs": [
        {
          "name": "_owner",
          "type": "address"
        }
      ],
      "payable": false,
      "stateMutability": "nonpayable",
      "type": "constructor"
    },
    {
      "anonymous": false,
      "inputs": [],
      "name": "SelfDestructTerminated",
      "type": "event"
    },
    {
      "anonymous": false,
      "inputs": [
        {
          "indexed": false,
          "name": "beneficiary",
          "type": "address"
        }
      ],
      "name": "SelfDestructed",
      "type": "event"
    },
    {
      "anonymous": false,
      "inputs": [
        {
          "indexed": false,
          "name": "selfDestructDelay",
          "type": "uint256"
        }
      ],
      "name": "SelfDestructInitiated",
      "type": "event"
    },
    {
      "anonymous": false,
      "inputs": [
        {
          "indexed": false,
          "name": "newBeneficiary",
          "type": "address"
        }
      ],
      "name": "SelfDestructBeneficiaryUpdated",
      "type": "event"
    },
    {
      "anonymous": false,
      "inputs": [
        {
          "indexed": false,
          "name": "newOwner",
          "type": "address"
        }
      ],
      "name": "OwnerNominated",
      "type": "event"
    },
    {
      "anonymous": false,
      "inputs": [
        {
          "indexed": false,
          "name": "oldOwner",
          "type": "address"
        },
        {
          "indexed": false,
          "name": "newOwner",
          "type": "address"
        }
      ],
      "name": "OwnerChanged",
      "type": "event"
    },
    {
      "constant": false,
      "inputs": [
        {
          "name": "_beneficiary",
          "type": "address"
        }
      ],
      "name": "setSelfDestructBeneficiary",
      "outputs": [],
      "payable": false,
      "stateMutability": "nonpayable",
      "type": "function"
    },
    {
      "constant": false,
      "inputs": [],
      "name": "initiateSelfDestruct",
      "outputs": [],
      "payable": false,
      "stateMutability": "nonpayable",
      "type": "function"
    },
    {
      "constant": false,
      "inputs": [],
      "name": "terminateSelfDestruct",
      "outputs": [],
      "payable": false,
      "stateMutability": "nonpayable",
      "type": "function"
    },
    {
      "constant": false,
      "inputs": [],
      "name": "selfDestruct",
      "outputs": [],
      "payable": false,
      "stateMutability": "nonpayable",
      "type": "function"
    }
  ],
  "bytecode": "0x608060405234801561001057600080fd5b50604051602080610af3833981016040525180600160a060020a038116151561009a57604080517f08c379a000000000000000000000000000000000000000000000000000000000815260206004820152601960248201527f4f776e657220616464726573732063616e6e6f74206265203000000000000000604482015290519081900360640190fd5b60008054600160a060020a031916600160a060020a038316908117825560408051928352602083019190915280517fb532073b38c83145e3e5135377a08bf9aab55bc0fd7c1179cd4fb995d2a5159c9281900390910190a150600160a060020a038116151561019057604080517f08c379a000000000000000000000000000000000000000000000000000000000815260206004820152602260248201527f4f776e6572206d757374206e6f7420626520746865207a65726f20616464726560448201527f7373000000000000000000000000000000000000000000000000000000000000606482015290519081900360840190fd5b60038054600160a060020a038316610100810261010060a860020a03199092169190911790915560408051918252517fd5da63a0b864b315bc04128dedbc93888c8529ee6cf47ce664dc204339228c539181900360200190a1506108fa806101f96000396000f3006080604052600436106100b95763ffffffff7c01000000000000000000000000000000000000000000000000000000006000350416631627540c81146100be57806317c70de4146100e157806320714f88146101085780633278c9601461012957806353a47bb71461013e57806379ba50971461016f5780638da5cb5b146101845780639cb8a26a14610199578063a461fc82146101ae578063b8225dec146101c3578063bd32aa44146101ec578063c58aaae614610201575b600080fd5b3480156100ca57600080fd5b506100df600160a060020a0360043516610216565b005b3480156100ed57600080fd5b506100f66102db565b60408051918252519081900360200190f35b34801561011457600080fd5b506100df600160a060020a03600435166102e1565b34801561013557600080fd5b506100df610434565b34801561014a57600080fd5b506101536104d2565b60408051600160a060020a039092168252519081900360200190f35b34801561017b57600080fd5b506100df6104e1565b34801561019057600080fd5b506101536105e9565b3480156101a557600080fd5b506100df6105f8565b3480156101ba57600080fd5b506100f66107bd565b3480156101cf57600080fd5b506101d86107c4565b604080519115158252519081900360200190f35b3480156101f857600080fd5b506100df6107cd565b34801561020d57600080fd5b5061015361087a565b600054600160a060020a0316331461027a576040805160e560020a62461bcd02815260206004820152602f602482015260008051602061088f83398151915260448201526000805160206108af833981519152606482015290519081900360840190fd5b60018054600160a060020a03831673ffffffffffffffffffffffffffffffffffffffff19909116811790915560408051918252517f906a1c6bd7e3091ea86693dd029a831c19049ce77f1dce2ce0bab1cacbabce229181900360200190a150565b60025481565b600054600160a060020a03163314610345576040805160e560020a62461bcd02815260206004820152602f602482015260008051602061088f83398151915260448201526000805160206108af833981519152606482015290519081900360840190fd5b600160a060020a03811615156103cb576040805160e560020a62461bcd02815260206004820152602860248201527f42656e6566696369617279206d757374206e6f7420626520746865207a65726f60448201527f2061646472657373000000000000000000000000000000000000000000000000606482015290519081900360840190fd5b60038054600160a060020a038316610100810274ffffffffffffffffffffffffffffffffffffffff00199092169190911790915560408051918252517fd5da63a0b864b315bc04128dedbc93888c8529ee6cf47ce664dc204339228c539181900360200190a150565b600054600160a060020a03163314610498576040805160e560020a62461bcd02815260206004820152602f602482015260008051602061088f83398151915260448201526000805160206108af833981519152606482015290519081900360840190fd5b600060028190556003805460ff191690556040517f6adcc7125002935e0aa31697538ebbd65cfddf20431eb6ecdcfc3e238bfd082c9190a1565b600154600160a060020a031681565b600154600160a060020a03163314610569576040805160e560020a62461bcd02815260206004820152603560248201527f596f75206d757374206265206e6f6d696e61746564206265666f726520796f7560448201527f2063616e20616363657074206f776e6572736869700000000000000000000000606482015290519081900360840190fd5b60005460015460408051600160a060020a03938416815292909116602083015280517fb532073b38c83145e3e5135377a08bf9aab55bc0fd7c1179cd4fb995d2a5159c9281900390910190a1600180546000805473ffffffffffffffffffffffffffffffffffffffff19908116600160a060020a03841617909155169055565b600054600160a060020a031681565b60008054600160a060020a0316331461065d576040805160e560020a62461bcd02815260206004820152602f602482015260008051602061088f83398151915260448201526000805160206108af833981519152606482015290519081900360840190fd5b60035460ff1615156106df576040805160e560020a62461bcd02815260206004820152602860248201527f53656c6620646573747275637420686173206e6f7420796574206265656e206960448201527f6e69746961746564000000000000000000000000000000000000000000000000606482015290519081900360840190fd5b426224ea0060025401101515610765576040805160e560020a62461bcd02815260206004820152602760248201527f53656c662064657374727563742064656c617920686173206e6f74207965742060448201527f656c617073656400000000000000000000000000000000000000000000000000606482015290519081900360840190fd5b5060035460408051600160a060020a0361010090930492909216808352905190917f8a09e1677ced846cb537dc2b172043bd05a1a81ad7e0033a7ef8ba762df990b7919081900360200190a180600160a060020a0316ff5b6224ea0081565b60035460ff1681565b600054600160a060020a03163314610831576040805160e560020a62461bcd02815260206004820152602f602482015260008051602061088f83398151915260448201526000805160206108af833981519152606482015290519081900360840190fd5b426002556003805460ff19166001179055604080516224ea00815290517fcbd94ca75b8dc45c9d80c77e851670e78843c0d75180cb81db3e2158228fa9a69181900360200190a1565b6003546101009004600160a060020a03168156004f6e6c792074686520636f6e7472616374206f776e6572206d617920706572666f726d207468697320616374696f6e0000000000000000000000000000000000a165627a7a72305820f318b568eada60a15f024acf1b9546570d9f46f47121e37e773a29b615753df40029",
  "source": "/*\n-----------------------------------------------------------------\nFILE INFORMATION\n-----------------------------------------------------------------\n\nfile:       SelfDestructible.sol\nversion:    1.2\nauthor:     Anton Jurisevic\n\ndate:       2018-05-29\n\n-----------------------------------------------------------------\nMODULE DESCRIPTION\n-----------------------------------------------------------------\n\nThis contract allows an inheriting contract to be destroyed after\nits owner indicates an intention and then waits for a period\nwithout changing their mind. All ether contained in the contract\nis forwarded to a nominated beneficiary upon destruction.\n\n-----------------------------------------------------------------\n*/\n\npragma solidity 0.4.25;\n\n\nimport \"./Owned.sol\";\n\n\n/**\n * @title A contract that can be destroyed by its owner after a delay elapses.\n */\ncontract SelfDestructible is Owned {\n    \n    uint public initiationTime;\n    bool public selfDestructInitiated;\n    address public selfDestructBeneficiary;\n    uint public constant SELFDESTRUCT_DELAY = 4 weeks;\n\n    /**\n     * @dev Constructor\n     * @param _owner The account which controls this contract.\n     */\n    constructor(address _owner)\n        Owned(_owner)\n        public\n    {\n        require(_owner != address(0), \"Owner must not be the zero address\");\n        selfDestructBeneficiary = _owner;\n        emit SelfDestructBeneficiaryUpdated(_owner);\n    }\n\n    /**\n     * @notice Set the beneficiary address of this contract.\n     * @dev Only the contract owner may call this. The provided beneficiary must be non-null.\n     * @param _beneficiary The address to pay any eth contained in this contract to upon self-destruction.\n     */\n    function setSelfDestructBeneficiary(address _beneficiary)\n        external\n        onlyOwner\n    {\n        require(_beneficiary != address(0), \"Beneficiary must not be the zero address\");\n        selfDestructBeneficiary = _beneficiary;\n        emit SelfDestructBeneficiaryUpdated(_beneficiary);\n    }\n\n    /**\n     * @notice Begin the self-destruction counter of this contract.\n     * Once the delay has elapsed, the contract may be self-destructed.\n     * @dev Only the contract owner may call this.\n     */\n    function initiateSelfDestruct()\n        external\n        onlyOwner\n    {\n        initiationTime = now;\n        selfDestructInitiated = true;\n        emit SelfDestructInitiated(SELFDESTRUCT_DELAY);\n    }\n\n    /**\n     * @notice Terminate and reset the self-destruction timer.\n     * @dev Only the contract owner may call this.\n     */\n    function terminateSelfDestruct()\n        external\n        onlyOwner\n    {\n        initiationTime = 0;\n        selfDestructInitiated = false;\n        emit SelfDestructTerminated();\n    }\n\n    /**\n     * @notice If the self-destruction delay has elapsed, destroy this contract and\n     * remit any ether it owns to the beneficiary address.\n     * @dev Only the contract owner may call this.\n     */\n    function selfDestruct()\n        external\n        onlyOwner\n    {\n        require(selfDestructInitiated, \"Self destruct has not yet been initiated\");\n        require(initiationTime + SELFDESTRUCT_DELAY < now, \"Self destruct delay has not yet elapsed\");\n        address beneficiary = selfDestructBeneficiary;\n        emit SelfDestructed(beneficiary);\n        selfdestruct(beneficiary);\n    }\n\n    event SelfDestructTerminated();\n    event SelfDestructed(address beneficiary);\n    event SelfDestructInitiated(uint selfDestructDelay);\n    event SelfDestructBeneficiaryUpdated(address newBeneficiary);\n}\n",
  "sourcePath": "/Users/clintonennis/Projects/havven/havven/contracts/SelfDestructible.sol",
  "compiler": {
    "name": "solc",
    "version": "0.4.25+commit.59dbf8f1.Emscripten.clang"
  },
  "schemaVersion": "3.0.0-beta.1",
  "updatedAt": "2018-11-21T03:50:47.626Z"
}