{
  "contractName": "State",
  "abi": [
    {
      "constant": false,
      "inputs": [
        {
          "name": "_owner",
          "type": "address"
        }
      ],
      "name": "nominateNewOwner",
      "outputs": [],
      "payable": false,
      "stateMutability": "nonpayable",
      "type": "function"
    },
    {
      "constant": true,
      "inputs": [],
      "name": "nominatedOwner",
      "outputs": [
        {
          "name": "",
          "type": "address"
        }
      ],
      "payable": false,
      "stateMutability": "view",
      "type": "function"
    },
    {
      "constant": false,
      "inputs": [],
      "name": "acceptOwnership",
      "outputs": [],
      "payable": false,
      "stateMutability": "nonpayable",
      "type": "function"
    },
    {
      "constant": true,
      "inputs": [],
      "name": "owner",
      "outputs": [
        {
          "name": "",
          "type": "address"
        }
      ],
      "payable": false,
      "stateMutability": "view",
      "type": "function"
    },
    {
      "constant": true,
      "inputs": [],
      "name": "associatedContract",
      "outputs": [
        {
          "name": "",
          "type": "address"
        }
      ],
      "payable": false,
      "stateMutability": "view",
      "type": "function"
    },
    {
      "inputs": [
        {
          "name": "_owner",
          "type": "address"
        },
        {
          "name": "_associatedContract",
          "type": "address"
        }
      ],
      "payable": false,
      "stateMutability": "nonpayable",
      "type": "constructor"
    },
    {
      "anonymous": false,
      "inputs": [
        {
          "indexed": false,
          "name": "associatedContract",
          "type": "address"
        }
      ],
      "name": "AssociatedContractUpdated",
      "type": "event"
    },
    {
      "anonymous": false,
      "inputs": [
        {
          "indexed": false,
          "name": "newOwner",
          "type": "address"
        }
      ],
      "name": "OwnerNominated",
      "type": "event"
    },
    {
      "anonymous": false,
      "inputs": [
        {
          "indexed": false,
          "name": "oldOwner",
          "type": "address"
        },
        {
          "indexed": false,
          "name": "newOwner",
          "type": "address"
        }
      ],
      "name": "OwnerChanged",
      "type": "event"
    },
    {
      "constant": false,
      "inputs": [
        {
          "name": "_associatedContract",
          "type": "address"
        }
      ],
      "name": "setAssociatedContract",
      "outputs": [],
      "payable": false,
      "stateMutability": "nonpayable",
      "type": "function"
    }
  ],
  "bytecode": "0x608060405234801561001057600080fd5b5060405160408061060483398101604052805160209091015181600160a060020a03811615156100a157604080517f08c379a000000000000000000000000000000000000000000000000000000000815260206004820152601960248201527f4f776e657220616464726573732063616e6e6f74206265203000000000000000604482015290519081900360640190fd5b60008054600160a060020a031916600160a060020a038316908117825560408051928352602083019190915280517fb532073b38c83145e3e5135377a08bf9aab55bc0fd7c1179cd4fb995d2a5159c9281900390910190a15060028054600160a060020a038316600160a060020a0319909116811790915560408051918252517f73f20cff579e8a4086fa607db83867595f1b6a798e718c0bfa0b94a404128e039181900360200190a150506104a88061015c6000396000f3006080604052600436106100775763ffffffff7c01000000000000000000000000000000000000000000000000000000006000350416631627540c811461007c57806352f445ca1461009f57806353a47bb7146100c057806379ba5097146100f15780638da5cb5b14610106578063aefc4ccb1461011b575b600080fd5b34801561008857600080fd5b5061009d600160a060020a0360043516610130565b005b3480156100ab57600080fd5b5061009d600160a060020a0360043516610230565b3480156100cc57600080fd5b506100d5610330565b60408051600160a060020a039092168252519081900360200190f35b3480156100fd57600080fd5b5061009d61033f565b34801561011257600080fd5b506100d561045e565b34801561012757600080fd5b506100d561046d565b600054600160a060020a031633146101cf57604080517f08c379a000000000000000000000000000000000000000000000000000000000815260206004820152602f60248201527f4f6e6c792074686520636f6e7472616374206f776e6572206d6179207065726660448201527f6f726d207468697320616374696f6e0000000000000000000000000000000000606482015290519081900360840190fd5b60018054600160a060020a03831673ffffffffffffffffffffffffffffffffffffffff19909116811790915560408051918252517f906a1c6bd7e3091ea86693dd029a831c19049ce77f1dce2ce0bab1cacbabce229181900360200190a150565b600054600160a060020a031633146102cf57604080517f08c379a000000000000000000000000000000000000000000000000000000000815260206004820152602f60248201527f4f6e6c792074686520636f6e7472616374206f776e6572206d6179207065726660448201527f6f726d207468697320616374696f6e0000000000000000000000000000000000606482015290519081900360840190fd5b60028054600160a060020a03831673ffffffffffffffffffffffffffffffffffffffff19909116811790915560408051918252517f73f20cff579e8a4086fa607db83867595f1b6a798e718c0bfa0b94a404128e039181900360200190a150565b600154600160a060020a031681565b600154600160a060020a031633146103de57604080517f08c379a000000000000000000000000000000000000000000000000000000000815260206004820152603560248201527f596f75206d757374206265206e6f6d696e61746564206265666f726520796f7560448201527f2063616e20616363657074206f776e6572736869700000000000000000000000606482015290519081900360840190fd5b60005460015460408051600160a060020a03938416815292909116602083015280517fb532073b38c83145e3e5135377a08bf9aab55bc0fd7c1179cd4fb995d2a5159c9281900390910190a1600180546000805473ffffffffffffffffffffffffffffffffffffffff19908116600160a060020a03841617909155169055565b600054600160a060020a031681565b600254600160a060020a0316815600a165627a7a72305820b0850eb168f001390dbf2d39ead50a478d507bf19cddffb2b22488c45052eb3c0029",
  "source": "/*\n-----------------------------------------------------------------\nFILE INFORMATION\n-----------------------------------------------------------------\n\nfile:       State.sol\nversion:    1.1\nauthor:     Dominic Romanowski\n            Anton Jurisevic\n\ndate:       2018-05-15\n\n-----------------------------------------------------------------\nMODULE DESCRIPTION\n-----------------------------------------------------------------\n\nThis contract is used side by side with external state token\ncontracts, such as Havven and Nomin.\nIt provides an easy way to upgrade contract logic while\nmaintaining all user balances and allowances. This is designed\nto make the changeover as easy as possible, since mappings\nare not so cheap or straightforward to migrate.\n\nThe first deployed contract would create this state contract,\nusing it as its store of balances.\nWhen a new contract is deployed, it links to the existing\nstate contract, whose owner would then change its associated\ncontract to the new one.\n\n-----------------------------------------------------------------\n*/\n\n\npragma solidity 0.4.25;\n\n\nimport \"./Owned.sol\";\n\n\ncontract State is Owned {\n    // the address of the contract that can modify variables\n    // this can only be changed by the owner of this contract\n    address public associatedContract;\n\n\n    constructor(address _owner, address _associatedContract)\n        Owned(_owner)\n        public\n    {\n        associatedContract = _associatedContract;\n        emit AssociatedContractUpdated(_associatedContract);\n    }\n\n    /* ========== SETTERS ========== */\n\n    // Change the associated contract to a new address\n    function setAssociatedContract(address _associatedContract)\n        external\n        onlyOwner\n    {\n        associatedContract = _associatedContract;\n        emit AssociatedContractUpdated(_associatedContract);\n    }\n\n    /* ========== MODIFIERS ========== */\n\n    modifier onlyAssociatedContract\n    {\n        require(msg.sender == associatedContract, \"Only the associated contract can perform this action\");\n        _;\n    }\n\n    /* ========== EVENTS ========== */\n\n    event AssociatedContractUpdated(address associatedContract);\n}\n",
  "sourcePath": "/Users/clintonennis/Projects/havven/havven/contracts/State.sol",
  "compiler": {
    "name": "solc",
    "version": "0.4.25+commit.59dbf8f1.Emscripten.clang"
  },
  "schemaVersion": "3.0.0-beta.1",
  "updatedAt": "2018-11-21T03:50:47.595Z"
}