{
  "contractName": "TokenState",
  "abi": [
    {
      "constant": false,
      "inputs": [
        {
          "name": "_owner",
          "type": "address"
        }
      ],
      "name": "nominateNewOwner",
      "outputs": [],
      "payable": false,
      "stateMutability": "nonpayable",
      "type": "function"
    },
    {
      "constant": false,
      "inputs": [
        {
          "name": "_associatedContract",
          "type": "address"
        }
      ],
      "name": "setAssociatedContract",
      "outputs": [],
      "payable": false,
      "stateMutability": "nonpayable",
      "type": "function"
    },
    {
      "constant": true,
      "inputs": [],
      "name": "nominatedOwner",
      "outputs": [
        {
          "name": "",
          "type": "address"
        }
      ],
      "payable": false,
      "stateMutability": "view",
      "type": "function"
    },
    {
      "constant": true,
      "inputs": [
        {
          "name": "",
          "type": "address"
        }
      ],
      "name": "balanceOf",
      "outputs": [
        {
          "name": "",
          "type": "uint256"
        }
      ],
      "payable": false,
      "stateMutability": "view",
      "type": "function"
    },
    {
      "constant": false,
      "inputs": [],
      "name": "acceptOwnership",
      "outputs": [],
      "payable": false,
      "stateMutability": "nonpayable",
      "type": "function"
    },
    {
      "constant": true,
      "inputs": [],
      "name": "owner",
      "outputs": [
        {
          "name": "",
          "type": "address"
        }
      ],
      "payable": false,
      "stateMutability": "view",
      "type": "function"
    },
    {
      "constant": true,
      "inputs": [],
      "name": "associatedContract",
      "outputs": [
        {
          "name": "",
          "type": "address"
        }
      ],
      "payable": false,
      "stateMutability": "view",
      "type": "function"
    },
    {
      "constant": true,
      "inputs": [
        {
          "name": "",
          "type": "address"
        },
        {
          "name": "",
          "type": "address"
        }
      ],
      "name": "allowance",
      "outputs": [
        {
          "name": "",
          "type": "uint256"
        }
      ],
      "payable": false,
      "stateMutability": "view",
      "type": "function"
    },
    {
      "inputs": [
        {
          "name": "_owner",
          "type": "address"
        },
        {
          "name": "_associatedContract",
          "type": "address"
        }
      ],
      "payable": false,
      "stateMutability": "nonpayable",
      "type": "constructor"
    },
    {
      "anonymous": false,
      "inputs": [
        {
          "indexed": false,
          "name": "associatedContract",
          "type": "address"
        }
      ],
      "name": "AssociatedContractUpdated",
      "type": "event"
    },
    {
      "anonymous": false,
      "inputs": [
        {
          "indexed": false,
          "name": "newOwner",
          "type": "address"
        }
      ],
      "name": "OwnerNominated",
      "type": "event"
    },
    {
      "anonymous": false,
      "inputs": [
        {
          "indexed": false,
          "name": "oldOwner",
          "type": "address"
        },
        {
          "indexed": false,
          "name": "newOwner",
          "type": "address"
        }
      ],
      "name": "OwnerChanged",
      "type": "event"
    },
    {
      "constant": false,
      "inputs": [
        {
          "name": "tokenOwner",
          "type": "address"
        },
        {
          "name": "spender",
          "type": "address"
        },
        {
          "name": "value",
          "type": "uint256"
        }
      ],
      "name": "setAllowance",
      "outputs": [],
      "payable": false,
      "stateMutability": "nonpayable",
      "type": "function"
    },
    {
      "constant": false,
      "inputs": [
        {
          "name": "account",
          "type": "address"
        },
        {
          "name": "value",
          "type": "uint256"
        }
      ],
      "name": "setBalanceOf",
      "outputs": [],
      "payable": false,
      "stateMutability": "nonpayable",
      "type": "function"
    }
  ],
  "bytecode": "0x608060405234801561001057600080fd5b5060405160408061081e833981016040528051602090910151818181600160a060020a03811615156100a357604080517f08c379a000000000000000000000000000000000000000000000000000000000815260206004820152601960248201527f4f776e657220616464726573732063616e6e6f74206265203000000000000000604482015290519081900360640190fd5b60008054600160a060020a031916600160a060020a038316908117825560408051928352602083019190915280517fb532073b38c83145e3e5135377a08bf9aab55bc0fd7c1179cd4fb995d2a5159c9281900390910190a15060028054600160a060020a038316600160a060020a0319909116811790915560408051918252517f73f20cff579e8a4086fa607db83867595f1b6a798e718c0bfa0b94a404128e039181900360200190a1505050506106be806101606000396000f3006080604052600436106100a35763ffffffff7c01000000000000000000000000000000000000000000000000000000006000350416631627540c81146100a857806352f445ca146100cb57806353a47bb7146100ec57806370a082311461011d57806379ba5097146101505780638da5cb5b14610165578063aefc4ccb1461017a578063b46310f61461018f578063da46098c146101b3578063dd62ed3e146101dd575b600080fd5b3480156100b457600080fd5b506100c9600160a060020a0360043516610204565b005b3480156100d757600080fd5b506100c9600160a060020a03600435166102ed565b3480156100f857600080fd5b506101016103d6565b60408051600160a060020a039092168252519081900360200190f35b34801561012957600080fd5b5061013e600160a060020a03600435166103e5565b60408051918252519081900360200190f35b34801561015c57600080fd5b506100c96103f7565b34801561017157600080fd5b506101016104ff565b34801561018657600080fd5b5061010161050e565b34801561019b57600080fd5b506100c9600160a060020a036004351660243561051d565b3480156101bf57600080fd5b506100c9600160a060020a03600435811690602435166044356105c1565b3480156101e957600080fd5b5061013e600160a060020a0360043581169060243516610675565b600054600160a060020a0316331461028c576040805160e560020a62461bcd02815260206004820152602f60248201527f4f6e6c792074686520636f6e7472616374206f776e6572206d6179207065726660448201527f6f726d207468697320616374696f6e0000000000000000000000000000000000606482015290519081900360840190fd5b60018054600160a060020a03831673ffffffffffffffffffffffffffffffffffffffff19909116811790915560408051918252517f906a1c6bd7e3091ea86693dd029a831c19049ce77f1dce2ce0bab1cacbabce229181900360200190a150565b600054600160a060020a03163314610375576040805160e560020a62461bcd02815260206004820152602f60248201527f4f6e6c792074686520636f6e7472616374206f776e6572206d6179207065726660448201527f6f726d207468697320616374696f6e0000000000000000000000000000000000606482015290519081900360840190fd5b60028054600160a060020a03831673ffffffffffffffffffffffffffffffffffffffff19909116811790915560408051918252517f73f20cff579e8a4086fa607db83867595f1b6a798e718c0bfa0b94a404128e039181900360200190a150565b600154600160a060020a031681565b60036020526000908152604090205481565b600154600160a060020a0316331461047f576040805160e560020a62461bcd02815260206004820152603560248201527f596f75206d757374206265206e6f6d696e61746564206265666f726520796f7560448201527f2063616e20616363657074206f776e6572736869700000000000000000000000606482015290519081900360840190fd5b60005460015460408051600160a060020a03938416815292909116602083015280517fb532073b38c83145e3e5135377a08bf9aab55bc0fd7c1179cd4fb995d2a5159c9281900390910190a1600180546000805473ffffffffffffffffffffffffffffffffffffffff19908116600160a060020a03841617909155169055565b600054600160a060020a031681565b600254600160a060020a031681565b600254600160a060020a031633146105a5576040805160e560020a62461bcd02815260206004820152603460248201527f4f6e6c7920746865206173736f63696174656420636f6e74726163742063616e60448201527f20706572666f726d207468697320616374696f6e000000000000000000000000606482015290519081900360840190fd5b600160a060020a03909116600090815260036020526040902055565b600254600160a060020a03163314610649576040805160e560020a62461bcd02815260206004820152603460248201527f4f6e6c7920746865206173736f63696174656420636f6e74726163742063616e60448201527f20706572666f726d207468697320616374696f6e000000000000000000000000606482015290519081900360840190fd5b600160a060020a0392831660009081526004602090815260408083209490951682529290925291902055565b6004602090815260009283526040808420909152908252902054815600a165627a7a72305820a3067639b29d25de59ebea5009a88b3b4d0770a483b8ab2a64e41169535071460029",
  "source": "/*\n-----------------------------------------------------------------\nFILE INFORMATION\n-----------------------------------------------------------------\n\nfile:       TokenState.sol\nversion:    1.1\nauthor:     Dominic Romanowski\n            Anton Jurisevic\n\ndate:       2018-05-15\n\n-----------------------------------------------------------------\nMODULE DESCRIPTION\n-----------------------------------------------------------------\n\nA contract that holds the state of an ERC20 compliant token.\n\nThis contract is used side by side with external state token\ncontracts, such as Havven and Nomin.\nIt provides an easy way to upgrade contract logic while\nmaintaining all user balances and allowances. This is designed\nto make the changeover as easy as possible, since mappings\nare not so cheap or straightforward to migrate.\n\nThe first deployed contract would create this state contract,\nusing it as its store of balances.\nWhen a new contract is deployed, it links to the existing\nstate contract, whose owner would then change its associated\ncontract to the new one.\n\n-----------------------------------------------------------------\n*/\n\npragma solidity 0.4.25;\n\n\nimport \"./State.sol\";\n\n/**\n * @title ERC20 Token State\n * @notice Stores balance information of an ERC20 token contract.\n */\ncontract TokenState is State {\n\n    /* ERC20 fields. */\n    mapping(address => uint) public balanceOf;\n    mapping(address => mapping(address => uint)) public allowance;\n\n    /**\n     * @dev Constructor\n     * @param _owner The address which controls this contract.\n     * @param _associatedContract The ERC20 contract whose state this composes.\n     */\n    constructor(address _owner, address _associatedContract)\n        State(_owner, _associatedContract)\n        public\n    {}\n\n    /* ========== SETTERS ========== */\n\n    /**\n     * @notice Set ERC20 allowance.\n     * @dev Only the associated contract may call this.\n     * @param tokenOwner The authorising party.\n     * @param spender The authorised party.\n     * @param value The total value the authorised party may spend on the\n     * authorising party's behalf.\n     */\n    function setAllowance(address tokenOwner, address spender, uint value)\n        external\n        onlyAssociatedContract\n    {\n        allowance[tokenOwner][spender] = value;\n    }\n\n    /**\n     * @notice Set the balance in a given account\n     * @dev Only the associated contract may call this.\n     * @param account The account whose value to set.\n     * @param value The new balance of the given account.\n     */\n    function setBalanceOf(address account, uint value)\n        external\n        onlyAssociatedContract\n    {\n        balanceOf[account] = value;\n    }\n}\n",
  "sourcePath": "/Users/clintonennis/Projects/havven/havven/contracts/TokenState.sol",
  "compiler": {
    "name": "solc",
    "version": "0.4.25+commit.59dbf8f1.Emscripten.clang"
  },
  "schemaVersion": "3.0.0-beta.1",
  "updatedAt": "2018-11-21T03:50:47.599Z"
}